:100000000C94D2060C94FA060C94FA060C9436134F
:100010000C9411130C94EC120C94FA060C94FA063E
:100020000C94FA060C94FA060C94FA060C94FA0650
:100030000C94FA060C94FA060C94FA060C94FA0640
:100040000C944A120C94FA060C94BA120C94941262
:100050000C94FA060C94FA060C94FA060C94FA0620
:100060000C945B130C94FA06AEB08180A1A6A83F55
:10007000AD8B32C8D300D580D91FDA12DB40AF2256
:10008000080D0E2060040205060708090203030597
:100090000802040204070407070707070707070207
:1000A00002070707080E09080808070709080207DA
:1000B00008070B0809070909070808090D070808B8
:1000C00004040406080307070607070507070203D9
:1000D00006020A0707070705060507070B060705B7
:1000E00005010507080000000000000000FEFE18E2
:1000F000181E1E001E1E000000000090F89E90F8C2
:100100009E1C00001C0000183C26FF66CC88040CD6
:10011000183C180C041C221CC0308E4080000018B3
:1001200004000C100C80CC7E72F2DE0C80000C1CE3
:100130001010101C0C1C101E1E0000F0FC061C7C75
:10014000C006FCF0C07C1C14140E14140000000047
:1001500000606060FCFC6060600000000C0C00004F
:100160000000005838C0C0C0C000000000000018E7
:100170001800C0380618040000F8FC0E060EFCF843
:10018000040C1C181C0C04180CFEFE00001C1C188F
:100190001C86C6663E1C181C1C18181818888C066D
:1001A0002626FEDC040C1C18180C04C0E0B88CFEDB
:1001B000FE80040404041C1C04707E3E3636F6C621
:1001C0000C1C1818180C04F8FC6E6666EECC040CB7
:1001D0001818181C0C060606E6761E0600001C1CE5
:1001E0000000009CFE666666FE9C0C1C1818181C1D
:1001F0000C3C7E666666FCF80C1C18181C0C041877
:10020000181818181858386060F0F098980C00000A
:10021000000004040CD8D8D8D8D8D8D800000000E2
:100220000000000C9898F0F060600C0404000000DE
:1002300000080C06C6E6763C1800000018180000FE
:1002400000E03008C4F63A1A1AF2FA7E0408F00CFC
:1002500030604C9C98988C9C9C90484C2000C0F836
:10026000BE86BEF8C000181C04040404041C18FE5A
:10027000FE66666666FEDC1C1C181818181C0CF856
:10028000FC0E06060E9C08040C1C18181C0C04FE20
:10029000FE0606060EFCF81C1C1818181C0C04FEA2
:1002A000FE66666666661C1C1818181818FEFE6640
:1002B000666666061C1C0000000000F8FC0E0606C0
:1002C000C6CEDCC8040C1C181818180C04FEFE60FE
:1002D000606060FEFE1C1C000000001C1CFEFE1C7A
:1002E0001C8080000000FEFE0C1C1818181C0CFE60
:1002F000FE603078EC86021C1C000000041C18FE16
:10030000FE00000000001C1C1818181818FEFE0E35
:100310007CE000E07C0EFEFE1C1C00000C1C0C00AF
:10032000001C1CFEFE1C78E080FEFE1C1C0000046D
:100330000C1C1CF8FC0E0606060EFCF8040C1C181F
:1003400018181C0C04FEFE6666667E3C1C1C000031
:10035000000000F8FC0E0686060EFCF8040C1C18C3
:10036000181C0C1C24FEFE6666E6E6BE1C001C1C67
:100370000000000C1C18103C7E666666EECC0C1C5F
:100380001818181C0C060606FEFE060606000000DD
:100390001C1C000000FEFE00000000FEFE040C1C01
:1003A00018181C0C04021EFCE000E0FC1E020000F9
:1003B000001C1C1C00000006FEF800F0FE0EFEF003
:1003C00000F8FE0600001C1C1C0000001C1C1C0089
:1003D00000060EF8F0F80E06181C0400041C18069F
:1003E0000E38F0F0380E060000001C1C000000065D
:1003F0000686E6761E0E06181C1C1818181818FE1D
:10040000FE0606FCFCC0C00638C00000000418064A
:1004100006FEFEC0C0FCFC20380E0E382000000096
:10042000000000000000000000000080808080804C
:100430008080800206040000001098D858F8F00070
:100440000C1C18180C1C10FEFE301838F0E01C1C98
:100450000C181C0C04E0F018183830040C18181C88
:100460000CE0F0381830FEFE040C1C180C1C1CE0CC
:10047000F0D8D8D8F0E0040C181818180818FCFEAA
:100480001A1A001C1C0000E0F0381830F8F864EC70
:10049000DCD8CCFC7CFEFE301818F8F01C1C0000E8
:1004A000001C1CFAFA1C1C00FAFAC0FC7CFEFEE0E0
:1004B000F098081C1C00041C18FEFE1C1CF8F81008
:1004C00018F8F01818F8F01C1C00001C1C00001C88
:1004D0001CF8F8301818F8F01C1C0000001C1CE078
:1004E000F0381838F0E0040C1C181C0C04F8F83034
:1004F0001838F0E0FCFC0C181C0C04E0F038183044
:10050000F8F8040C1C180CFCFCF8F83018181C1C2B
:1005100000000070F8D8D8D890081818181C0C18CB
:10052000FCFE1818000C1C1818F8F8000000F8F869
:100530000C1C18180C1C1C38F8C000C0F83800003F
:100540001C1C1C000018F8E000F038F000E0F8185F
:1005500000001C1C0C000C1C1C00001838E0E038CB
:1005600018181C04041C1818F8E000E0F81800849F
:10057000FCF83C04001898D878381C1C181818800F
:10058000FC7E0606007CFCC0C0FEFC06067EFC80ED
:10059000C0C0FC7C00603030706060300000000043
:1005A000000000FE020202020202FE1C10101010E7
:1005B00010101C0000000023002600290000030C7E
:1005C0000F30333C3FC0C3CCCFF0F3FCFF53756317
:1005D0006365737366756C001C620A0C206002020E
:1005E0000508070D080204040507020402060706B1
:1005F00007070707070707070202070707050A0794
:100600000707080606080804060707090809070976
:1006100008070808070C070806040604080903066B
:1006200006060606050606020407020A0606060670
:1006300005050506060A0606050602060809000065
:1006400000007E7E30300707000707000000000032
:10065000C0D8F8DED8F8DE18003000003000000006
:10066000387C64FF64E4C8102020F02030103C7E09
:10067000427E3CC02018E6F010F0E00000000030A0
:100680000000001030203010DCFE227EDC80602074
:10069000103020202010302007070000F8FE07014E
:1006A0001070E0800107FEF880E07010120C3F0C23
:1006B000120000000000202020FC2020200000006C
:1006C000100000000000F07020202020000000003A
:1006D000000030300080E07C1F03C0F030000000DC
:1006E000FCFE020202FEFC10302020203010040428
:1006F000FEFE0000202030302020040682C2623E30
:100700001C203030202020200406222222FEDC1073
:10071000302020203010C0A09884FEFE8000000011
:1007200000303000001E1E1212F2E2103020202095
:100730003010F8FC161212F2E01030202020301099
:10074000020282E27A1E0600203010000000DCFE69
:10075000222222FEDC103020202030103C7E42423B
:1007600042FEFC00202020301000181830301818ED
:10077000F0706060909008080400000000101020E5
:10078000909090909090900000000000000004086D
:100790000890906060201010000000000462721E3B
:1007A0000C0030300000F00CF4FA0AFAFA040CF0F5
:1007B0000030205050505010100080F8FE86FEF897
:1007C0008030300000003030FEFE22223EFCC0307F
:1007D000302020203010F8FC060202020400103005
:1007E00020202010FEFE02020206FCF830302020FD
:1007F00020301000FEFE2222222230302020202035
:10080000FEFE22222222303000000000F8FC060208
:100810004242C2C40010302020203030FEFE202092
:100820002020FEFE303000000000303002FEFE02CC
:100830002030302000020202FEFE20202020301056
:10084000FEFE70D88C060230300000103020FEFE14
:10085000000000000030302020202020FE0E3CF060
:10086000C0300CFEFE300000000000003030FE06FC
:100870001C38E0C000FE3000000000103030F8FCF2
:100880000602020206FCF800103020202030100082
:10089000FEFE4242427E3C30300000000000F8FC88
:1008A0000602020206FCF80010302060E0B09080E2
:1008B000FEFE2262E2BE1C0030300000001030203C
:1008C0001C3E322262E2C41020202020301002029E
:1008D00002FEFE0202020000003030000000FEFEB8
:1008E00000000000FEFE10302020202030100E7E80
:1008F000F080F07E0E000030303000000E7EF08080
:10090000E03E3EE080F07E0E00003030000000004F
:1009100030300000068EF870F88E0630300000008F
:100920003030060E18F0F0180E06000000303000CF
:10093000000002C2F23E0E02303020202020FFFFD5
:100940000101F0F08080031F7CE080000000003097
:10095000F0C00101FFFF8080F0F010180C06060CBB
:10096000181000000000000000000000000000005F
:1009700000000080808080808080808001030200F1
:100980000000C0E82828F8F0103020203030FFFFA9
:100990000808F8F0303020203010F0F8080808106F
:1009A000103020202010F0F80808FFFF1030202021
:1009B0003030F0F84848787010302020201008FEC1
:1009C000FF09090030300000F0F80808F8F810B00E
:1009D000A0A0F070FFFF0808F8F0303000003030C1
:1009E000FBFB30300008FBFB8080F070FFFF60F005
:1009F00098080030300000103020FFFF3030F8F849
:100A00001008F8F01008F8F0303000003030000026
:100A10003030F8F80808F8F0303000003030F0F8E6
:100A20000808F8F0103020203010F8F80808F8F026
:100A3000F0F020203010F0F80808F8F810302020EE
:100A4000F0F0F8F81018183030000000307848C87E
:100A500088202020301008FEFE08080010302020DA
:100A6000F8F80000F8F810302020303038F8C0C016
:100A7000F83800103030100078F880C03838C08066
:100A8000F8780030300000000030300018B8E0E0A6
:100A9000B81830300000303038F8C0C0F838009056
:100AA000F070100008C8E87818303020202020208E
:100AB000FEDF0101000070F08080FFFFF0F0010117
:100AC000DFFE20208080F0700000E01010204080C9
:100AD00080700000000000000000FE02020202021E
:100AE0000202FE30202020202020203068001780C5
:100AF00040020A0A4F4C454420696E6974206F6EAB
:100B000020416464726573733A203078002B2D2D78
:100B10002D2D2D2D2D2D2D2D2D2D2D2D2D2D2D2D05
:100B20002D2D2B007C20202020456C656374726F76
:100B30007363617065202020207C002B2D2D2D2DCE
:100B40002D2D2D2D2D2D2D2D2D2D2D2D2D2D2D2DD5
:100B50002B00000005072060000000000000005F7F
:100B600000000007000700147F147F14242A7F2A46
:100B70001223130864623649562050000807030008
:100B8000001C2241000041221C002A1C7F1C2A0854
:100B9000083E0808008070300008080808080000B7
:100BA00060600020100804023E5149453E00427F2B
:100BB000400072494949462141494D331814127F7A
:100BC0001027454545393C4A49493141211109071A
:100BD0003649494936464949291E0000140000009B
:100BE000403400000008142241141414141400416D
:100BF00022140802015909063E415D594E7C12112A
:100C0000127C7F494949363E414141227F41414161
:100C10003E7F494949417F090909013E41415173DC
:100C20007F0808087F00417F41002040413F017F4D
:100C3000081422417F404040407F021C027F7F0415
:100C400008107F3E4141413E7F090909063E41515E
:100C5000215E7F09192946264949493203017F014E
:100C6000033F4040403F1F2040201F3F4038403F4F
:100C7000631408146303047804036159494D430065
:100C80007F4141410204081020004141417F04029C
:100C90000102044040404040000307080020545433
:100CA00078407F2844443838444444283844442811
:100CB0007F385454541800087E090218A4A49C7864
:100CC0007F0804047800447D40002040403D007FC0
:100CD0001028440000417F40007C047804787C08A0
:100CE0000404783844444438FC1824241818242474
:100CF00018FC7C08040408485454542404043F4459
:100D0000243C4040207C1C2040201C3C4030403C87
:100D100044281028444C9090907C4464544C4400E7
:100D2000083641000000770000004136080002014B
:100D30000204023C2623263C0A72656C6179206914
:100D40006E6974207375636365737366756C0000F8
:100D5000000000240027002A0000000000250028D1
:100D6000002B00040404040404040402020202022E
:100D7000020303030303030102040810204080015F
:100D800002040810200102040810200000000800DE
:100D90000201000003040700000000000000000042
:100DA0007A14DF1B11241FBECFEFD8E0DEBFCDBF0A
:100DB00025E0A8E1B3E001C01D92A13CB207E1F734
:100DC00013E0A0E0B1E0ECEFFCE302C005900D926F
:100DD000A831B107D9F716E0C1EDD6E004C02197DC
:100DE000FE010E94711CC03DD107C9F70E94841505
:100DF0000C94711E0C9400000895089580910505CF
:100E000090910605FC0131912091F004A1EFB4E02E
:100E10004496311105C081E0222351F080E008950D
:100E20003213FCCF31912D91E817F90791F7F6CFE6
:100E3000089596E0899FD0011124AD5EBA4F909637
:100E40007C936E935F9791E091969C939197E0913C
:100E50008005F091810590917F05992339F03097B5
:100E600051F0811108C080912F050994309719F035
:100E70005C968C91FACF0895833081F028F481300C
:100E800099F08230A9F008958730A9F08830C9F030
:100E90008430B1F4809180008F7D03C08091800008
:100EA0008F7780938000089584B58F7784BD0895EF
:100EB00084B58F7DFBCF8091B0008F778093B00099
:100EC00008958091B0008F7DF9CF1F93CF93DF936A
:100ED000282F30E0F901E557F24F8491F901E958E4
:100EE000F24FD491F901ED59F24FC491CC23A9F0FE
:100EF000162F81110E943C07EC2FF0E0EE0FFF1F30
:100F0000E75AF24FA591B4918FB7F894EC91111173
:100F100008C0D095DE23DC938FBFDF91CF911F9166
:100F20000895DE2BF8CFCF93DF9390E0FC01E958D2
:100F3000F24F24918D59924FFC0184918823C9F07E
:100F400090E0880F991FFC01E15BF24FA591B491ED
:100F5000FC01E75AF24FC591D49161110DC09FB7C2
:100F6000F8948C91209582238C9388812823288360
:100F70009FBFDF91CF910895623051F49FB7F894ED
:100F80003C91822F809583238C93E8812E2BEFCF89
:100F90008FB7F894EC912E2B2C938FBFEACF3FB7ED
:100FA000F8948091B9039091BA03A091BB03B091DA
:100FB000BC0326B5A89B05C02F3F19F00196A11DC3
:100FC000B11D3FBFBA2FA92F982F8827BC01CD0193
:100FD000620F711D811D911D42E0660F771F881FF2
:100FE000991F4A95D1F708958F929F92AF92BF9221
:100FF000CF92DF92EF92FF924B015C010E94CF07EC
:101000006B017C010E94CF076C197D098E099F0935
:10101000683E734081059105A8F321E0821A91088A
:10102000A108B10888EEC80E83E0D81EE11CF11CAF
:1010300081149104A104B10429F7FF90EF90DF908F
:10104000CF90BF90AF909F908F9008952FB7F89456
:101050006091B5037091B6038091B7039091B80386
:101060002FBF08950F931F93CF93DF93C82FD62FD1
:1010700086E0C89FF0011124ED5EFA4F11A2878D22
:1010800090A181309105F1F058F082309105F1F195
:10109000039709F440C0DF91CF911F910F910895FC
:1010A0006623C9F361E070E08C2F0E9419070E944B
:1010B000260860936B0570936C0580936D05909383
:1010C0006E05E9CF0E94260800916B0510916C0512
:1010D00020916D0530916E05AB01BC01401B510B99
:1010E000620B730B80917D0590917E05B0E0A0E0CE
:1010F00084179507A607B70748F462E070E08C2FC5
:10110000DF91CF911F910F910C94190763E070E06C
:10111000D111C1CFF4CF70E060E0F1CF0895089510
:10112000DB0114964D915C9115976D917C91DC01DA
:10113000ED91FC910280F381E02D0994CF93DF9330
:10114000EC0162E070E080E090E00E94F407BE01F4
:1011500080E995E00E949008BE0181E194E0DF9172
:10116000CF910C949008AF92BF92CF92DF92EF9202
:10117000FF920F931F93CF93DF936C017B018B0141
:10118000040F151FEB015E01AE18BF08C017D10791
:1011900059F06991D601ED91FC910190F081E02D1B
:1011A000C6010995892B79F7C501DF91CF911F9170
:1011B0000F91FF90EF90DF90CF90BF90AF90089588
:1011C000FC01538D448D252F30E0842F90E0821B4D
:1011D000930B541710F0CF96089501970895FC01D2
:1011E000918D828D981761F0A28DAE0FBF2FB11D2A
:1011F0005D968C91928D9F5F9F73928F90E0089582
:101200008FEF9FEF0895FC01918D828D981731F03B
:10121000828DE80FF11D858D90E008958FEF9FEF8F
:101220000895FC01918D228D892F90E0805C9F4F65
:10123000821B91098F739927089581E194E00E94A0
:10124000110921E0892B09F420E0822F089580E024
:1012500090E0892B29F00E941D0981110C94000057
:101260000895FC01A48DA80FB92FB11DA35ABF4F3B
:101270002C91848D90E001968F739927848FA68995
:10128000B7892C93A089B1898C91837080648C93E9
:10129000938D848D981306C00288F389E02D808198
:1012A0008F7D80830895EF92FF920F931F93CF93CA
:1012B000DF93EC0181E0888F9B8D8C8D98131AC091
:1012C000E889F989808185FF15C09FB7F894EE8978
:1012D000FF896083E889F9898081837080648083D5
:1012E0009FBF81E090E0DF91CF911F910F91FF9020
:1012F000EF900895F62E0B8D10E00F5F1F4F0F73C8
:101300001127E02E8C8D8E110CC00FB607FCFACF82
:10131000E889F989808185FFF5CFCE010E943109E6
:10132000F1CFEB8DEC0FFD2FF11DE35AFF4FF08253
:101330009FB7F8940B8FEA89FB8980818062CFCFB9
:10134000EF92FF920F931F93CF93DF938C017B015A
:10135000D0E0C0E0F701EC0FFD1F6491662339F087
:10136000C8010E945309892B11F02196F3CFCE01B9
:10137000DF91CF911F910F91FF90EF900895CF9340
:10138000DF93EC01888D8823B9F0AA89BB89E889AD
:10139000F9898C9185FD03C0808186FD0DC00FB653
:1013A00007FCF7CF8C9185FFF2CF808185FFEDCFD1
:1013B000CE010E943109E9CFDF91CF910895CF93FB
:1013C000DF93EC019C818E81981758F4E881F981B4
:1013D0000084F185E02D42E0CE0109958C818F5F7C
:1013E0008C83DF91CF910895DC01ED91FC91008415
:1013F000F185E02D40E009940F931F93CF938C016A
:10140000FC016483C085C60F6C2F6F700E94F409C5
:101410006C2F62956F706061C801CF911F910F9121
:101420000C94F409FC0127812695269526956217D0
:1014300020F46583606B0C94F40908951F93CF9397
:10144000DF93EC01142F8E81681718F4CE010E94EF
:10145000FC09612FCE01DF91CF911F910C94120AEC
:10146000CF92DF92EF92FF920F931F93CF93DF9370
:10147000EC01162FC42ED22E8F81869586958695E7
:10148000081710F00FEF080FFD2C0F15B0F08E812C
:10149000181720F4612FCE010E94FC096F2DCE0198
:1014A0000E94120AE12ECE1430F060E0CE010E94BC
:1014B000DF09E394F8CFF394E8CF4D2D612FCE01EF
:1014C000DF91CF911F910F91FF90EF90DF90CF9020
:1014D0000C941E0A2F923F924F925F926F927F92CE
:1014E0008F929F92AF92BF92CF92DF92EF92FF9234
:1014F0000F931F93CF93DF9300D000D01F92CDB7EF
:10150000DEB7DC011B960D911C910115110509F444
:1015100068C19D838C83F801449131965491319632
:10152000649031962491E22EF12CF7E0EF0EF11C3D
:1015300073E0F594E7947A95E1F7E982F80134963F
:1015400034913196E491631748F08E2F90E0FC01BE
:10155000E30FF11D6E171F060CF487C06D3031F5D7
:10156000AC81BD8116968C9181111AC081E090E00A
:101570000F900F900F900F900F90DF91CF911F91D0
:101580000F91FF90EF90DF90CF90BF90AF909F9022
:101590008F907F906F905F904F903F902F90089525
:1015A00060E08C819D810E94FC09E0CF6A3009F0E7
:1015B00018C1EC81FD818185D5808E9DD00C1124D0
:1015C0008781869586958695D81630F08285882302
:1015D00019F082E08287D12C4D2D60E08C819D81B5
:1015E0000E941E0AAC81BD811A968C911A97823096
:1015F00008F4BCCF15962C9115971B96ED91FC9194
:101600001C9700E0309739F03396E49119960C91CD
:10161000E09F002D112410E0095F1F4F33E0159566
:1016200007953A95E1F78FEF820F080FEC81FD8166
:10163000468141506481CF010E94300AAC81BD8156
:1016400019968C9119976D2D8E9D600D1124660F42
:10165000660F660F17968C91861708F460E0606439
:101660008C819D810E94F40981CF4527542745270D
:101670000A5F1F4F631BEC81FD81218442305105BD
:1016800008F06DC0452B09F0212C6E9CC0016F9CA9
:10169000900D1124689FF001699FF00D11240E0F29
:1016A0001F1F512CAC81BD811496BC91BA83EC8173
:1016B000FD81F581FB83862C912CAA24A394B12C67
:1016C000312C8981381608F086C0412CAC81BD814F
:1016D00019968C91481608F077C0311002C044204A
:1016E00041F0EC81FD8145814F5F6A81CF010E940D
:1016F0001E0AD12CC12CC61408F05AC0F801EC0DFA
:10170000FD1D7490552061F0EA14FB0449F4E72DA7
:10171000F0E0052C02C0F595E7950A94E2F77E2EDD
:10172000AC81BD8119968C91823081F4442009F4FA
:101730003BC072948FE07822E72DF0E0E354FA4F3B
:101740007490672D8C819D810E94DF09672D8C81AB
:101750009D810E94DF09EFEFCE1ADE0ACCCF277001
:1017600038E0532E521A211101C0512C50E040E0B4
:1017700030E020E0F801461740F4E40FF51FE49153
:101780002E0F311D4F5F5F4FF5CFE60FF11D6490B7
:10179000E29EF001E39EF00DF29EF00D11248E0FFB
:1017A0009F1F080F191F7ECFB72DBF707B2EC4CF90
:1017B000D12C2D1439F060E08C819D810E94DF09CD
:1017C000D394F7CF439482CF3394080D191DFFEFC4
:1017D000AF1ABF0A76CF6B818C819D810E94120A5D
:1017E000C5CE90E080E0C4CE0F93CF93DF93EC01A1
:1017F0000F8106950695069501504E81415020E0D7
:1018000060E00E94300A81E09A85911101C080E079
:101810008A8760E4CE01DF91CF910F910C94F40997
:101820008091C3039091C403891B990B0895CF93B2
:10183000DF93FC01108211821282138214821582BE
:101840001682EC012796DC011F961992AC17BD0792
:10185000E1F77F961D921D92EA17FB07D9F7DF91FA
:10186000CF91089590E0FC01EE0FFF1FE954FA4F6D
:10187000A591B4912C91FC01E455FC4F308120835B
:10188000880F991FFC01E35FFE4F0190F081E02D6E
:101890008081089520915903260F3327331F213269
:1018A0003105ECF420910B04FC0190E080E0243041
:1018B00069F082E00895A09159032191AC01475C41
:1018C0005C4FA40FB52FB11D2C930196861798F38A
:1018D00080915903680F6093590380E0089581E077
:1018E000089510920B0481E08093EA031092E503BF
:1018F00061E082E10E94650761E083E10E94650783
:10190000E9EBF0E080818E7F808380818D7F808312
:1019100088E48093B80085E48093BC000895109219
:10192000C4031092C3031092C2031092C1030E9419
:10193000710C8CEF96E09093C0038093BF038DEF02
:1019400096E09093BE038093BD030895CF93DF93F9
:1019500091E0909338038823B9F0C091B800D091FA
:10196000BA008091BC008A7B8093BC0060E082E179
:101970000E94650760E083E10E9465070E94710C88
:10198000D093BA00C093B800DF91CF910895CF9261
:10199000DF92EF92FF920F931F93CF93DF93D82F95
:1019A000C62F613208F098C00E94CF076B017C01FE
:1019B00080910B0481116BC081E080930B048093B4
:1019C000EA039FEF9093E9031092E8039C0F909332
:1019D000E7038093E6038091E603DD0FD82BD093D5
:1019E000E6038091E503813009F078C01092E503A9
:1019F0000E94CF076B017C018091E6038093BB00BE
:101A000080910D0490910E04A0910F04B0911004E8
:101A1000892B8A2B8B2BA1F00E94CF0700910D04FC
:101A200010910E0420910F04309110046C197D095F
:101A30008E099F09061717072807390708F448C0B9
:101A40008091BC0083FDD8CF85EC8093BC000E94C0
:101A5000CF076B017C0180910B04813009F440C0F9
:101A60008091E8038C1710F4C091E803E5ECF3E0F3
:101A7000ABEEB3E080E08C1355C08C2FDF91CF919B
:101A80001F910F91FF90EF90DF90CF90089580917C
:101A90000D0490910E04A0910F04B0911004892BB5
:101AA0008A2B8B2B09F484CF0E94CF0700910D0461
:101AB00010910E0420910F04309110046C197D09CF
:101AC0008E099F09061717072807390708F070CFF6
:101AD00080910C040E94A60CC0E0CFCF85EEB5CF5C
:101AE00080910D0490910E04A0910F04B091100408
:101AF000892B8A2B8B2B09F4AECF0E94CF07009144
:101B00000D0410910E0420910F04309110046C19F3
:101B10007D098E099F09061717072807390708F05E
:101B20009ACFD6CF91919D938F5FA5CF0895E091E5
:101B3000C4038091C303E81730F4F0E0E551FC4F93
:101B4000808190E008958FEF9FEF08959091C403F6
:101B50008091C3032FEF3FEF981748F4E92FF0E08F
:101B6000E551FC4F208130E09F5F9093C403C90191
:101B70000895CF92DF92EF92FF920F931F93CF932E
:101B8000DF937C01CB018A012091B003222389F0ED
:101B9000EB016B01C40ED51ECC15DD0569F0699112
:101BA000D701ED91FC910190F081E02DC7010995DD
:101BB000F3CF642F0E944A0CC801DF91CF911F918F
:101BC0000F91FF90EF90DF90CF900895CF93DF9328
:101BD0001F92CDB7DEB769832091B0032223F9F0BD
:101BE0002091C103203258F021E030E0FC01338322
:101BF000228390E080E00F90DF91CF910895809153
:101C0000C203E82FF0E0E85EFC4F998190838F5F7C
:101C10008093C2038093C10381E090E0ECCF61E048
:101C2000CE0101960E944A0CF7CFCF92DF92EF923D
:101C3000FF920F931F93CF93DF93D091C10381E065
:101C4000D13208F09CC0C091AF030E94CF076B0156
:101C50007C0180910B0481116CC082E080930B04A5
:101C600081E08093EA038FEF8093E9031092E80309
:101C7000D093E703A8E1B3E0E5ECF3E080E0D8130C
:101C80008DC01092E6038091E603CC0FC82BC09361
:101C9000E6038091E503813009F084C01092E503EA
:101CA0000E94CF076B017C018091E6038093BB000B
:101CB00080910D0490910E04A0910F04B091100436
:101CC000892B8A2B8B2BA1F00E94CF0700910D044A
:101CD00010910E0420910F04309110046C197D09AD
:101CE0008E099F09061717072807390708F442C00D
:101CF0008091BC0083FDD8CF85EC8093BC000E940E
:101D0000CF076B017C0180910B04823009F44CC039
:101D10008091E9038F3F09F469C08091E903803223
:101D200009F466C08091E903803309F463C084E05C
:101D300026C080910D0490910E04A0910F04B091E3
:101D40001004892B8A2B8B2B09F483CF0E94CF0799
:101D500000910D0410910E0420910F043091100495
:101D60006C197D098E099F0906171707280739077F
:101D700008F06FCF80910C040E94A60C85E01092B1
:101D8000C2031092C1031092B003DF91CF911F9153
:101D90000F91FF90EF90DF90CF9008959D919193D8
:101DA0008F5F6DCF85EEA9CF80910D0490910E04C9
:101DB000A0910F04B0911004892B8A2B8B2B09F46E
:101DC000A2CF0E94CF0700910D0410910E04209124
:101DD0000F04309110046C197D098E099F090617B4
:101DE00017072807390708F08ECFC4CF80E0C7CF88
:101DF00082E0C5CF83E0C3CF0F931F93CF93DF93D0
:101E0000EC01062F142F8E85813120F4882339F0C0
:101E1000411105C087E095E00E94150E1E868E8553
:101E2000811112C08D8591E09093B0038093AF0330
:101E30001092C2031092C10360E4111101C060E06E
:101E400087E095E00E94E60D602F87E095E00E9414
:101E5000E60D123041F48E858F5F8E87DF91CF9132
:101E60001F910F91089587E095E00E94150E1E8640
:101E7000F5CFFC01918162818081238131E0309333
:101E8000B0032093AF031092C2031092C103609578
:101E90006923682B87E095E00E94E60D87E095E0D6
:101EA0000C94150EEF92FF920F931F93CF93DF9335
:101EB000EC017B018C010D581F4FD8018D919C9135
:101EC000FE01E159FF4F208131E03093B0032093B0
:101ED000AF031092C2031092C103DC01ED91FC919B
:101EE0000190F081E02D0995FE01E059FF4F8081BE
:101EF000823058F0F80180819181DC01ED91FC91F4
:101F00000190F081E02D6F2D0995F801808191817C
:101F10000E94150ECF58DF4FE882F982DF91CF91F2
:101F20001F910F91FF90EF90089521E030E002C0E3
:101F3000220F331F6A95E2F7FC01EF58FF4F6081D3
:101F40007181442341F0262B372B3183208360811C
:101F500071810C94520F2095309526233723F5CFAD
:101F600090E080E00895CF93DF9370E0FB01E557A8
:101F7000F24F8491FB01E958F24FD4916D59724FA1
:101F8000FB01C491CC23A1F081110E943C07EC2FEE
:101F9000F0E0EE0FFF1FED54FA4FA591B491EC91D4
:101FA000ED2381E090E009F480E0DF91CF91089586
:101FB00080E090E0FACF862F642F0C946507862F7F
:101FC000642F0C949307CF93DF93EC0189818C836A
:101FD00061E08B810E94C70C1092C4038093C303FD
:101FE000811101C0FFCF87E095E00E94A60D898393
:101FF000DF91CF910895CF92DF92EF92FF920F93EE
:102000001F93CF93DF93EC0181E090E07C0102C04D
:10201000EE0CFF1C6A95E2F76E0180E7C80ED11C3A
:10202000D6016C91613208F060E2FE01E159FF4F88
:1020300080810E94C70C1092C4038093C303CD58C3
:10204000DF4F88819981DC01ED91FC910284F38559
:10205000E02D09958C01F6018081823060F0888145
:102060009981DC01ED91FC910284F385E02D0995C5
:1020700020E0022B182B0E211F2181E090E00E158D
:102080001F0511F090E080E0DF91CF911F910F913B
:10209000FF90EF90DF90CF900895CF93DF93EC0106
:1020A00088819981009711F00E94131D198218826E
:1020B0001D821C821B821A82DF91CF910895FC0140
:1020C00080819181009711F00C94131D0895FB01FC
:1020D00001900020E9F73197AF01461B570BDC0157
:1020E000ED91FC910280F381E02D099463E571E0AC
:1020F0000C946710CF93DF93EC0162E070E080E016
:1021000090E00E94F407BE0180E995E00E949008EB
:1021100080E995E00E947610BE0181E194E00E9482
:10212000900881E194E0DF91CF910C9476100F93A9
:102130001F93CF93DF93EC010E9467108C01CE01B7
:102140000E947610800F911FDF91CF911F910F9108
:10215000089580E995E00E94F40B8FE790E090935A
:102160009C0580939B0566E571E080E995E00E94FF
:1021700097100E94260860938C0570938D058093BC
:102180008E0590938F0508950F931F93CF93DF9340
:10219000EC010E94A0098C01CE010E947610800FF4
:1021A000911FDF91CF911F910F9108950F931F936E
:1021B000CF93DF93EC018B0162E070E080E090E070
:1021C0000E94F40761E08EE00E94650781E194E0DF
:1021D0000E94761066E671E081E194E00E9467104B
:1021E000B80181E194E00E94900869E671E081E124
:1021F00094E00E946710BE0181E194E00E94900883
:102200006BE671E081E194E00E94971064E170E078
:1022100080E090E00E94F40760E08EE0DF91CF91D3
:102220001F910F910C946507CF93DF93FC01C08140
:10223000D181209761F08991882349F0082E000C04
:10224000990B0E94591EFE0131978083F4CFDF91D4
:10225000CF9108950F931F93CF93DF93EC01888163
:102260009981009759F02A813B812617370730F072
:1022700081E0DF91CF911F910F9108958B016F5FE6
:102280007F4F0E949C1D009759F0998388831B8380
:102290000A832C813D81232B59F7FC011082E8CF62
:1022A00080E0E7CFEF92FF920F931F93CF93DF93DE
:1022B000EC017B018A01BA010E942A1181110BC035
:1022C000CE010E944D10CE01DF91CF911F910F9151
:1022D000FF90EF9008951D830C83B7018881998149
:1022E0000E946A1EF0CFFC011182108213821282BA
:1022F00015821482FB0101900020E9F73197AF01AC
:10230000461B570B0C9452111F93CF93DF9300D0B1
:1023100000D000D0CDB7DEB7182F80913205909154
:1023200033058130910561F00297A1F126960FB631
:10233000F894DEBF0FBECDBFDF91CF911F910895FE
:102340000E942608609388057093890580938A050A
:1023500090938B05E0910405E33169F081E08E0FE5
:1023600080930405F0E0E051FB4F1083E82FF0E08C
:10237000E051FB4F108260EF74E0CE0101960E94A5
:102380007311CE0101960E947A10CE0101960E942F
:102390005F10CCCF62E771E081E194E00E946710AA
:1023A000612F81E194E00E94530981E194E00E9451
:1023B0007610BCCFEF92FF920F931F93CF93DF93D2
:1023C000CDB7DEB762970FB6F894DEBF0FBECDBFB4
:1023D0008C01CB01F80111821082138212821582C6
:1023E000148250E09E012F5F3F4F7901B9010E9496
:1023F000FA1BF70101900020E9F73197AF014E1960
:102400005F09B701C8010E94521162960FB6F89495
:10241000DEBF0FBECDBFDF91CF911F910F91FF9017
:10242000EF90089585ED8093BC0080910D0490910C
:102430000E04A0910F04B09110040796A11DB11DC8
:1024400023E0B695A795979587952A95D1F7209182
:10245000BC0024FD03C010920B04089540910D04AC
:1024600050910E0460910F0470911004452B462B7F
:10247000472B69F30097A105B10541F025E32A95A3
:10248000F1F700000197A109B109E1CF80910C0497
:102490000C94A60C1F920F920FB60F9211242F933B
:1024A0003F938F939F93AF93BF938091B503909188
:1024B000B603A091B703B091B8033091B40323E001
:1024C000230F2D3758F50196A11DB11D2093B4039C
:1024D0008093B5039093B603A093B703B093B8036A
:1024E0008091B9039091BA03A091BB03B091BC0352
:1024F0000196A11DB11D8093B9039093BA03A093D7
:10250000BB03B093BC03BF91AF919F918F913F915B
:102510002F910F900FBE0F901F90189526E8230F54
:102520000296A11DB11DD2CF1F920F920FB60F922E
:1025300011242F933F934F935F936F937F938F93C8
:102540009F93AF93BF93EF93FF9381E194E00E9439
:102550003109FF91EF91BF91AF919F918F917F9141
:102560006F915F914F913F912F910F900FBE0F9000
:102570001F9018951F920F920FB60F9211242F9350
:102580008F939F93EF93FF93E0912104F0912204A6
:102590008081E0912704F091280482FD1BC0908186
:1025A00080912A048F5F8F7320912B04821741F052
:1025B000E0912A04F0E0EF5EFB4F958F80932A04B0
:1025C000FF91EF919F918F912F910F900FBE0F90E0
:1025D0001F9018958081F4CF1F920F920FB60F9223
:1025E00011242F933F934F935F936F937F938F9318
:1025F0009F93AF93BF93EF93FF9382E00E94320CBF
:10260000FF91EF91BF91AF919F918F917F916F91CA
:102610005F914F913F912F910F900FBE0F901F90A0
:1026200018951F920F920FB60F9211242F933F937C
:102630004F935F936F937F938F939F93AF93BF93CA
:10264000EF93FF9381E00E94320CFF91EF91BF91D5
:10265000AF919F918F917F916F915F914F913F913A
:102660002F910F900FBE0F901F9018951F920F92F1
:102670000FB60F9211242F933F934F935F936F9355
:102680007F938F939F93AF93BF93EF93FF9380E0DC
:102690000E94320CFF91EF91BF91AF919F918F916A
:1026A0007F916F915F914F913F912F910F900FBE4E
:1026B0000F901F9018951F920F920FB60F92112432
:1026C0002F933F934F935F936F937F938F939F933A
:1026D000AF93BF93EF93FF938091B900887F8036CB
:1026E00009F44AC0F0F5883209F4A7C018F5803122
:1026F00009F49BC0B8F4882309F4F9C0883009F4C0
:1027000094C0FF91EF91BF91AF919F918F917F9175
:102710006F915F914F913F912F910F900FBE0F904E
:102720001F901895883109F488C0803251F7809342
:10273000E90314C0803409F49DC040F48033B9F338
:102740008833F9F68093E90385ECB0C0803509F44D
:1027500085C0883509F496C0883499F60E94121213
:10276000D0CF883909F48CC038F5883729F050F477
:10277000883611F0803729F683E080930B0410929D
:102780007B0357C0883809F47BC0803919F0803842
:1027900009F0B7CF80917B03803208F071C0E091DF
:1027A0007B0381E08E0F80937B038091BB00F0E080
:1027B000E55AFC4F80833DC0803B39F0E0F4803A1D
:1027C00009F479C0883A09F09CCF84E080930B0427
:1027D00010925A0310925903E091BF03F091C00385
:1027E00009958091590381110FC081E080935903AD
:1027F0001092390309C0803C09F4A6CF883C09F443
:10280000A3CF883B09F07DCFE0915A0381E08E0F82
:1028100080935A03F0E0E75CFC4F80818093BB001B
:1028200090915A038091590329C08091E6038093C7
:10283000BB0085EC8093BC0064CF9091E80380914D
:10284000E703981758F5E091E80381E08E0F809335
:10285000E803F0E0EB53FC4F8081E9CFE091E8031F
:1028600081E08E0F8093E8038091BB00F0E0EB5392
:10287000FC4F80839091E8038091E7039817C8F29A
:1028800085E8D8CFE091E80381E08E0F8093E803DC
:102890008091BB00F0E0EB53FC4F80838091EA0312
:1028A00081115CCF81E08093E50384EA8093BC00D2
:1028B00010920B0426CF85EC8093BC0010920B0481
:1028C00080917B03803230F4E0917B03F0E0E55AA5
:1028D000FC4F108260917B0370E0E091BD03F091AA
:1028E000BE038BE593E0099510927B030ACF10920B
:1028F000E90334CF109214041092130488EE93E08D
:10290000A0E0B0E08093150490931604A093170400
:10291000B093180427E131E030931204209311049E
:1029200025EC30E030931E0420931D0424EC30E0AD
:102930003093200420931F0420EC30E030932204D5
:102940002093210421EC30E03093240420932304CD
:1029500022EC30E0309326042093250426EC30E06E
:10296000309328042093270410922A0410922B04F9
:1029700010922C0410922D0410920A051092090551
:1029800080930B0590930C05A0930D05B0930E0555
:1029900089E291E0909308058093070569E771E06B
:1029A00087EB95E00E9473116AE871E081EB95E096
:1029B0000E94731165E971E08BEA95E00E94731142
:1029C00063EA71E085EA95E00E9473116BEA71E0B9
:1029D0008FE995E00E947311109293051092920571
:1029E00081E08093990510929C0510929B058BE3E2
:1029F00091E090939105809390050E942608609342
:102A00008C0570938D0580938E0590938F050E94A1
:102A10002608609388057093890580938A059093B2
:102A20008B05109215051092190510921805109239
:102A30001A05EFE2F5E010821482138215823696B1
:102A400085E0EB36F807B9F786E091E090937605DC
:102A50008093750582E091E09093780580937705E7
:102A600081E08093790594E090937A052FE431E03A
:102A700030937405209373052AE030E030937C0591
:102A800020937B0524EF31E030937E0520937D0574
:102A9000109281051092800510926F0510927005BA
:102AA000109271051092720510927F0529E431E0B1
:102AB000309314052093130599E390938205809336
:102AC000830587E095E090938705809386058FEADC
:102AD00091E09093060580930505109204051092ED
:102AE000F00481ED94E00E94170C82EB94E00E94C8
:102AF000170C0E9426086093AE047093AF04809375
:102B0000B0049093B1040895CF93DF93CDB7DEB7AF
:102B1000AD970FB6F894DEBF0FBECDBF789484B5E5
:102B2000826084BD84B5816084BD85B5826085BDC9
:102B300085B5816085BD80916E00816080936E0057
:102B40001092810080918100826080938100809149
:102B500081008160809381008091800081608093FA
:102B600080008091B10084608093B1008091B000BA
:102B700081608093B00080917A00846080937A00B5
:102B800080917A00826080937A0080917A008160DF
:102B900080937A0080917A00806880937A00109206
:102BA000C1000E948F0C88E48093B800E09121045A
:102BB000F091220482E08083E0911D04F0911E04D4
:102BC0001082E0911F04F091200480E18083109234
:102BD0002904E0912504F091260486E08083E091A9
:102BE0002304F0912404808180618083E091230498
:102BF000F0912404808188608083E0912304F09127
:102C00002404808180688083E0912304F09124046F
:102C100080818F7D808364E670E080E090E00E9498
:102C2000F40761E08EE00E9493076BE37BE081E1B3
:102C300094E00E94C41064E27BE081E194E00E9491
:102C4000C4106DE07BE081E194E00E94C41064E177
:102C500070E080E090E00E94F4076AEB71E08E0182
:102C60000F5F1F4FC8010E9473116EEB71E0CE0120
:102C700082960E947311B801CE0182960E94D610EE
:102C8000CE0182960E945F10C8010E945F106AEB1D
:102C900071E0C8010E9473116CEC71E0CE01829664
:102CA0000E947311B801CE0182960E94D610CE0107
:102CB00082960E945F10C8010E945F106AEB71E06B
:102CC000C8010E94731168ED71E0CE0182960E94E6
:102CD0007311B801CE0182960E94D610CE01829661
:102CE0000E945F10C8010E945F1062EF7AE081E1EC
:102CF00094E00E94A00919A283E488A383E38F8F44
:102D0000BE01615E7F4F81E194E00E94671081E126
:102D100094E00E9476106AE070E080E090E00E940B
:102D2000F40710929E058CE380939D051092940504
:102D300010929505ECEEFAE0A590B490EEEEFAE074
:102D4000D490EFEEFAE0E491E0939605E0EFFAE03C
:102D5000E491E0939705E1EFFAE0E491E0939805C0
:102D6000F12CE12CED1460F4F501EE0DFF1D6491E2
:102D700080E995E00E94F4092FEFE21AF20AF2CFFF
:102D800010929A0580E995E00E94F40B80919705D6
:102D9000803439F480E995E00E94F40B81E080935F
:102DA0009A0588ED95E090939C0580939B0580E9BA
:102DB00095E00E94F40B6DEC75E081E194E00E94D7
:102DC000C4106AE070E080E090E00E94F40782E5C1
:102DD0009BE090939C0580939B0565EE71E0C80194
:102DE0000E947311C8010E947A10C8010E945F10EE
:102DF00088E199E20FB6F894A895809360000FBE21
:102E000090936000A89581E194E00E94761062EFB3
:102E100071E0C8010E947311C8010E947A10C801B4
:102E20000E945F106AE070E080E090E00E94F4078A
:102E300065E571E0CE0188960E947311F8E0CF2E0F
:102E4000D12CEE24E394FC2CE092B003C092AF03AB
:102E50001092C2031092C10387E095E00E94150E04
:102E60008111A8C062E072E0C8010E947311C8011C
:102E70000E949E08C8010E945F106AE072E0C801CB
:102E80000E947311C8010E949E08C8010E945F1031
:102E90001BA21AA21DA21CA21FA21EA240E1B801E1
:102EA000C6010E94101CF80101900020E9F731973B
:102EB000AF01401B510BB801CE0182960E94521106
:102EC00088A599A5009709F453C06AA17BA1611553
:102ED000710509F44BC04AA55BA52EA13FA142177D
:102EE000530708F443C00E946A1E8EA19FA19DA7AC
:102EF0008CA71FA21EA2CE0182960E945F10CE0157
:102F000088960E9414111A8219821C821B821E82CA
:102F10001D8268A579A56115710529F04CA55DA5EF
:102F2000C8010E945211C8010E949E08C8010E9457
:102F30005F106FE072E0C8010E947311C8010E9427
:102F40007A10C8010E945F10E8ECEF0DE83008F03D
:102F500081C2F0E0E255F84E0C94711CC9171E1A9C
:102F60001E1A1E1A211A241A2A1A271A0E94131D21
:102F70008AA19BA199A788A78CA19DA19BA78AA79D
:102F80008EA19FA19DA78CA71BA21AA21DA21CA265
:102F9000B0CF63E172E0C8010E947311C8010E94C2
:102FA0007A10C8010E945F1061E070E080E090E05C
:102FB0000E94F4073FEFC31AD30A88E7C816D1046A
:102FC00009F041CF61E572E0C8010E947311C801A8
:102FD0000E947A10C8010E945F106AE070E080E0F1
:102FE00090E00E94F407CE0188960E945F1063E68D
:102FF00072E0C8010E947311C8010E949E08C801B6
:103000000E945F1089E38093B5040E948F0C82EBCD
:1030100094E00E94E30FF12CE12CCC24C394D12C3A
:103020009091B40456010E2C01C0AA0C0A94EAF740
:103030002A2D209592239093B4048091B204822388
:103040008093B20482EB94E00E94390F8091B20425
:103050008A298093B20482EB94E00E94390F9FEF9B
:10306000E91AF90AA8E0EA16F104D1F664E670E07C
:1030700080E090E00E94F40784E891E1909381055C
:10308000809380058FE491E090937405809373059D
:103090006FEF7FEF83E195E00E94520F609183050F
:1030A000613208F060E2809182050E94C70C1092A4
:1030B000C4038093C3038091860590918705DC014A
:1030C000ED91FC910284F385E02D0995909385059F
:1030D00080938405809183058230B8F080918605C5
:1030E00090918705DC01ED91FC910284F385E02D40
:1030F000099520E0382F8091840590918505822BD9
:10310000932B909385058093840588E893E19093B1
:103110007E0580937D0582E390E090937C0580930B
:103120007B0562E772E0C8010E947311C8010E942A
:103130007A10C8010E945F1040E16FE370E0CE0199
:1031400088960E94DA11CE0188960E9414116AE7CF
:1031500072E0C8010E947311ECA4FDA4C8A4D9A414
:10316000C114D10409F479C1E114F104B1F08D81E5
:103170009E81E80EF91EB701C8010E942A1188231A
:1031800009F46BC129813A818D819E81B601820F3C
:10319000931F0E946A1EFE82ED821BA21AA21DA22C
:1031A0001CA21FA21EA269817A816115710531F0EE
:1031B0004D815E81CE0182960E945211CE0182968F
:1031C0000E947A10CE0182960E945F10C8010E9470
:1031D0005F108FE38093D4040E948F0C81ED94E004
:1031E0000E94E30F2091D304EE24E394F12CC70155
:1031F0000090000102C0880F991F0A94E2F7922FF5
:10320000982B9093D3049091D10480958923809337
:10321000D10481ED94E00E94390F0090000102C0BA
:10322000EE0CFF1C0A94E2F78091B103811119C1E1
:103230008091D104E094E822E092D10481ED94E001
:103240000E94390F68E872E0C8010E947311C8013A
:103250000E949E08C8010E945F1060910001709159
:1032600001014AE0C8010E94DA11C8010E949E08CB
:10327000C8010E945F1060E972E0C8010E947311EA
:10328000C8010E949E08C8010E945F106091B103AE
:103290007091B2034AE0C8010E94DA11C8010E948D
:1032A0009E08C8010E945F101A8219821C821B822C
:1032B0001E821D8266E170E0C8010E942A11811100
:1032C000D4C0C8010E944D10C8010E947A10C801E4
:1032D0000E945F10CE0188960E945F10A89560ED55
:1032E00077E080E090E00E94F40762E070E080E028
:1032F00090E00E94F4076AEB71E0CE0182960E9492
:1033000073116AE972E0C8010E947311BE016E5D1B
:103310007F4FC8010E94D610C8010E945F10CE01E5
:1033200082960E945F1081E194E00E94761065EA27
:1033300072E0C8010E947311C8010E947A10C8018E
:103340000E945F1056E0452E60E0262E60E0362E8B
:1033500066246394A8950E942608C090AE04D0907D
:10336000AF04E090B004F090B1046C197D098E09AF
:103370009F09683873418105910550F00E94260825
:103380006093AE047093AF048093B0049093B10443
:1033900060927F050E942608C0906F05D09070054E
:1033A000E0907105F0907205AB01BC014C195D090C
:1033B0006E097F0980917B0590917C05B0E0A0E0CB
:1033C00084179507A607B70708F45AC010927F051F
:1033D0000E94FE06882309F446C10E9426086093D5
:1033E00088057093890580938A0590938B05809159
:1033F000F004882309F4CFC10E94FE06882309F453
:10340000B0C160EA7FE080E090E00E94F407809124
:10341000D10480648093D10481ED94E00E94390F3F
:1034200063EB72E0C8010E947311C8010E947A1018
:10343000C8010E945F106092B30329C164E272E088
:10344000AACD6EE272E0A7CD6EE372E0A4CD63E494
:1034500072E0A1CD69E472E09ECDC8010E944D10DA
:103460009CCE8091D104E82AE7CE86E190E09E834D
:103470008D8368E37DE089819A810E94F31B24CFCC
:10348000712C80917A05781608F057C0A72CB12CC2
:10349000E0917705F0917805EA0DFB1D40E0608131
:1034A00083E195E00E94950FC12CD12C7601C39445
:1034B000072C04C0CC0CDD1CEE1CFF1C0A94D2F7B8
:1034C0004601C094D094512C80917905581630F55E
:1034D000E52CF12CE0917505F0917605EE0DFF1DC0
:1034E000608183E195E00E94FB0FF7013496892B00
:1034F00061F4EE0FFF1FED5EFA4F80819181882904
:103500009929918380835394DFCFEE0FFF1FED5EE7
:10351000FA4F808191818C219D21F3CF8091770595
:1035200090917805A80EB91E41E0D5016C9183E118
:1035300095E00E94950F7394A4CF93E1C92E95E076
:10354000D92E7601F701878D90A1892B31F4148E45
:103550002FEF3FEF368F258F11A236E0E30EF11CDF
:103560008FE495E08E159F0569F7B12C8091790560
:10357000B81608F052C0A12C8B2C912C880C991CE9
:10358000D401A55EBA4F4D0120917A05A21608F02C
:1035900042C0F401608171810A2C02C07695679562
:1035A0000A94E2F7B29E900111242A0D311DE3E145
:1035B000F5E080E0458D568D2417350709F4FDC0F0
:1035C0008F5F36968A30B1F760FF23C0E3E1F5E004
:1035D00090E080E0448D411117C0E0917305F091B7
:1035E0007405E20FF31F4081489EF001499EF00DE3
:1035F0001124ED5EFA4F448F368F258F10A2178E5F
:1036000061E00E94320805C0019636968A30910525
:1036100009F7A394B9CFB394A9CFB12CD601919651
:103620008C918111B82EB6E0CB0ED11CCE14DF04E4
:10363000A9F70E94260860936F0570937005809328
:10364000710590937205BB2009F4C0CE80913405BA
:10365000882309F4BBCE8091320590913305019700
:1036600009F0B4CEB5CE0E942608C0908805D0904F
:103670008905E0908A05F0908B056C197D098E090B
:103680009F0961347F418105910508F0A6CE0E9413
:103690002608C0908C05D0908D05E0908E05F090A6
:1036A0008F056C197D098E099F096031774281056C
:1036B000910520F10E94260860938C0570938D057A
:1036C00080938E0590938F058091F004882309F4F0
:1036D00065C060EF74E0C8010E947311C8010E94C8
:1036E0007A10C8010E945F100E94260860938C0522
:1036F00070938D0580938E0590938F058091B30311
:10370000882309F44EC063EC72E0C8010E94731173
:10371000C8010E947A10C8010E945F1065EE72E035
:10372000C8010E947311C8010E947A10C8010E944A
:103730005F1062EF72E081E194E00E9497100FB693
:10374000F894A89580916000886180936000109241
:1037500060000FBE64EF71E080E090E00E94F4072B
:10376000F9CF6CEB72E0C8010E947311C8010E948E
:103770007A10C8010E945F10109204051092F004A4
:103780000E94260860938C0570938D0580938E05AA
:1037900090938F057CCF0E94A91079CF0E94A91029
:1037A000ADCF2114310409F4D5CD0E941D09882321
:1037B00009F4CECD0E940000CBCD617022CF8FE9FD
:1037C00095E00E945F1085EA95E00E945F108BEA09
:1037D00095E00E945F1081EB95E00E945F1087EBFF
:1037E00095E00C945F10FB01DC0105900D92002028
:1037F000E1F708954532510520F4423010F00C9461
:10380000051CFB011082CB010895BB274A3031F41F
:10381000992322F4BDE2909581959F4F0C94111C41
:10382000BB27FB015527AA27880F991FAA1FA4179A
:1038300010F0A41B83955051B9F7A05DAA3308F08E
:10384000A95DA193009779F7B111B1931192CB01C2
:103850000C942A1CDC01FC01672F71917723E1F79E
:10386000329704C07C916D9370836291AE17BF074D
:10387000C8F308952F923F924F925F926F927F927A
:103880008F929F92AF92BF92CF92DF92EF92FF9270
:103890000F931F93CF93DF93CDB7DEB7CA1BDB0B1C
:1038A0000FB6F894DEBF0FBECDBF09942A883988C1
:1038B00048885F846E847D848C849B84AA84B984C8
:1038C000C884DF80EE80FD800C811B81AA81B981D4
:1038D000CE0FD11D0FB6F894DEBF0FBECDBFED01E8
:1038E0000895EE0FFF1F0590F491E02D09940F93BA
:1038F0001F93CF93DF938230910510F482E090E024
:10390000E091BF05F091C00530E020E0B0E0A0E01C
:10391000309799F42115310509F44AC0281B390B59
:1039200024303105D8F58A819B816115710589F1B3
:10393000FB0193838283FE0111C04081518102818A
:10394000138148175907E0F04817590799F4109761
:1039500061F012960C93129713961C933296CF0136
:10396000DF91CF911F910F9108950093BF051093A0
:10397000C005F4CF2115310551F04217530738F037
:10398000A901DB019A01BD01DF01F801C1CFEF01FF
:10399000F9CF9093C0058093BF05CDCFFE01E20F14
:1039A000F31F819391932250310939832883D7CF14
:1039B0002091BD053091BE05232B41F420910901D2
:1039C00030910A013093BE052093BD052091070177
:1039D000309108012115310541F42DB73EB74091D2
:1039E0000B0150910C01241B350BE091BD05F091AA
:1039F000BE05E217F307A0F42E1B3F0B281739076B
:103A000078F0AC014E5F5F4F2417350748F04E0F3A
:103A10005F1F5093BE054093BD05819391939FCF47
:103A2000F0E0E0E09CCFCF93DF930097E9F0FC015A
:103A3000329713821282A091BF05B091C005ED01AB
:103A400030E020E01097A1F420813181820F931F94
:103A50002091BD053091BE052817390709F061C0D6
:103A6000F093BE05E093BD05DF91CF910895EA0183
:103A7000CE17DF07E8F54A815B819E0141155105AC
:103A8000B1F7E901FB83EA8349915991C40FD51F2E
:103A9000EC17FD0761F4808191810296840F951FD8
:103AA000E90199838883828193819B838A83F0E0F3
:103AB000E0E012968D919C9113970097B9F52D91A6
:103AC0003C911197CD010296820F931F2091BD0565
:103AD0003091BE052817390739F6309751F5109205
:103AE000C0051092BF05B093BE05A093BD05BCCF25
:103AF000D383C28340815181840F951FC817D90792
:103B000061F44E5F5F4F88819981480F591F51833F
:103B100040838A819B81938382832115310509F03B
:103B2000B0CFF093C005E093BF059ECFFD01DC014F
:103B3000C0CF13821282D7CFB0E0A0E0E2EAFDE16D
:103B40000C943C1C8C01009751F4CB010E94771C13
:103B50008C01C801CDB7DEB7E0E10C94581CFC0124
:103B6000E60FF71F9C0122503109E217F30708F412
:103B70009DC0D901CD91DC911197C617D70798F058
:103B8000C530D10530F3CE0104978617970708F3A7
:103B9000C61BD70B2297C193D1936D937C93CF0112
:103BA0000E94131DD6CF5B01AC1ABD0A4C018C0ECE
:103BB0009D1EA091BF05B091C005512C412CF12C48
:103BC000E12C109731F58091BD059091BE058815C7
:103BD000990509F05CC04616570608F058C0809158
:103BE000070190910801009741F48DB79EB740916D
:103BF0000B0150910C01841B950BE817F90708F095
:103C000055C0F093BE05E093BD05F9017183608353
:103C1000A0CF8D919C91119712966C90129713964C
:103C20007C901397A815B90559F56C0142E0C40EB4
:103C3000D11CCA14DB0420F1AC014A195B09DA017A
:103C40001296159780F06282738251834083D90166
:103C50006D937C93E114F10471F0D7011396FC93FA
:103C6000EE93129776CF22968C0F9D1FF9019183C8
:103C70008083F301EFCFF093C005E093BF0569CFD8
:103C80004816590608F42C017D01D3019ACFCB01C7
:103C90000E94771C7C01009749F0AE01B8010E9498
:103CA000611EC8010E94131D870153CF10E000E080
:103CB00050CF9111089581568A5108F48052855849
:103CC0000895FB01DC0102C001900D92415050406B
:103CD000D8F70895FB01DC0101900D920020E1F777
:103CE000089516E0C1EDD6E004C0FE010E94711CEB
:0C3CF0002196C23DD107C9F7F894FFCF20
:103CFC00060000010203040000C10580006B006C8B
:103D0C00006D00000000005309B308E008BF091162
:103D1C0009EF08030900000000E60DB90DB00F967D
:103D2C000D100CA60D970D000000006A0AB308B028
:103D3C000F8F08FC0E000000008E08950FFB0F5231
:103D4C004742570D0A000A2020456E7465722043C5
:103D5C006F64652E2E002142722C002C446F6E6510
:103D6C002E00484F4C443A2000474C5F53545F435D
:103D7C004F4C4F525F434F44450031302E30352E5F
:103D8C00323032310076657273696F6E20312E30AD
:103D9C005354004272434F4C4F5200484944005216
:103DAC0047474257475242574700535953002168DF
:103DBC0065616465725F626567696E002168656143
:103DCC006465725F656E64002173657475705F6203
:103DDC006567696E0057445420656E6461626C655A
:103DEC006400202020493243205363616E6E65725B
:103DFC003A00466F756E643A20002028307800290E
:103E0C002020004B657970616420286465666175BB
:103E1C006C7429004B65797061642F494F004F6CAD
:103E2C00656420202864656661756C7429004F6C8C
:103E3C0065640052656C617900556E6B6E6F776EC0
:103E4C0000493243207363616E20636F6D706C6543
:103E5C007465004B657970616420696E69742E2EEF
:103E6C002E00737563636573730072656C61796999
:103E7C006E6974206F6E200052656C6179205B0056
:103E8C005D2073657420746F2000217365747570E8
:103E9C005F656E64000A3D3D3D53544152543D3DB7
:103EAC003D0A000A436F7272656374000A57726FA1
:103EBC006E670047616D6520436F6D706C6574654E
:103ECC000A57616974696E6720666F722072657338
:103EDC0074617274005744542064697361626C6538
:103EEC006400456E642047616D652C20506C6561E3
:103EFC0073652072657374617274207468652061D7
:083F0C00726475696E6F2100FB
:00000001FF
