:100000000C94C5070C94ED070C94ED070C94351473
:100010000C9410140C94EB130C94ED070C94ED0756
:100020000C94ED070C94ED070C94ED070C94ED0780
:100030000C94ED070C94ED070C94ED070C94ED0770
:100040000C9449130C94ED070C94B9130C9493136E
:100050000C94ED070C94ED070C94ED070C94ED0750
:100060000C945A140C94ED07AEB08180A1A6A83F61
:10007000AD8B32C8D300D580D91FDA12DB40AF2256
:10008000080D0E2060040205060708090203030597
:100090000802040204070407070707070707070207
:1000A00002070707080E09080808070709080207DA
:1000B00008070B0809070909070808090D070808B8
:1000C00004040406080307070607070507070203D9
:1000D00006020A0707070705060507070B060705B7
:1000E00005010507080000000000000000FEFE18E2
:1000F000181E1E001E1E000000000090F89E90F8C2
:100100009E1C00001C0000183C26FF66CC88040CD6
:10011000183C180C041C221CC0308E4080000018B3
:1001200004000C100C80CC7E72F2DE0C80000C1CE3
:100130001010101C0C1C101E1E0000F0FC061C7C75
:10014000C006FCF0C07C1C14140E14140000000047
:1001500000606060FCFC6060600000000C0C00004F
:100160000000005838C0C0C0C000000000000018E7
:100170001800C0380618040000F8FC0E060EFCF843
:10018000040C1C181C0C04180CFEFE00001C1C188F
:100190001C86C6663E1C181C1C18181818888C066D
:1001A0002626FEDC040C1C18180C04C0E0B88CFEDB
:1001B000FE80040404041C1C04707E3E3636F6C621
:1001C0000C1C1818180C04F8FC6E6666EECC040CB7
:1001D0001818181C0C060606E6761E0600001C1CE5
:1001E0000000009CFE666666FE9C0C1C1818181C1D
:1001F0000C3C7E666666FCF80C1C18181C0C041877
:10020000181818181858386060F0F098980C00000A
:10021000000004040CD8D8D8D8D8D8D800000000E2
:100220000000000C9898F0F060600C0404000000DE
:1002300000080C06C6E6763C1800000018180000FE
:1002400000E03008C4F63A1A1AF2FA7E0408F00CFC
:1002500030604C9C98988C9C9C90484C2000C0F836
:10026000BE86BEF8C000181C04040404041C18FE5A
:10027000FE66666666FEDC1C1C181818181C0CF856
:10028000FC0E06060E9C08040C1C18181C0C04FE20
:10029000FE0606060EFCF81C1C1818181C0C04FEA2
:1002A000FE66666666661C1C1818181818FEFE6640
:1002B000666666061C1C0000000000F8FC0E0606C0
:1002C000C6CEDCC8040C1C181818180C04FEFE60FE
:1002D000606060FEFE1C1C000000001C1CFEFE1C7A
:1002E0001C8080000000FEFE0C1C1818181C0CFE60
:1002F000FE603078EC86021C1C000000041C18FE16
:10030000FE00000000001C1C1818181818FEFE0E35
:100310007CE000E07C0EFEFE1C1C00000C1C0C00AF
:10032000001C1CFEFE1C78E080FEFE1C1C0000046D
:100330000C1C1CF8FC0E0606060EFCF8040C1C181F
:1003400018181C0C04FEFE6666667E3C1C1C000031
:10035000000000F8FC0E0686060EFCF8040C1C18C3
:10036000181C0C1C24FEFE6666E6E6BE1C001C1C67
:100370000000000C1C18103C7E666666EECC0C1C5F
:100380001818181C0C060606FEFE060606000000DD
:100390001C1C000000FEFE00000000FEFE040C1C01
:1003A00018181C0C04021EFCE000E0FC1E020000F9
:1003B000001C1C1C00000006FEF800F0FE0EFEF003
:1003C00000F8FE0600001C1C1C0000001C1C1C0089
:1003D00000060EF8F0F80E06181C0400041C18069F
:1003E0000E38F0F0380E060000001C1C000000065D
:1003F0000686E6761E0E06181C1C1818181818FE1D
:10040000FE0606FCFCC0C00638C00000000418064A
:1004100006FEFEC0C0FCFC20380E0E382000000096
:10042000000000000000000000000080808080804C
:100430008080800206040000001098D858F8F00070
:100440000C1C18180C1C10FEFE301838F0E01C1C98
:100450000C181C0C04E0F018183830040C18181C88
:100460000CE0F0381830FEFE040C1C180C1C1CE0CC
:10047000F0D8D8D8F0E0040C181818180818FCFEAA
:100480001A1A001C1C0000E0F0381830F8F864EC70
:10049000DCD8CCFC7CFEFE301818F8F01C1C0000E8
:1004A000001C1CFAFA1C1C00FAFAC0FC7CFEFEE0E0
:1004B000F098081C1C00041C18FEFE1C1CF8F81008
:1004C00018F8F01818F8F01C1C00001C1C00001C88
:1004D0001CF8F8301818F8F01C1C0000001C1CE078
:1004E000F0381838F0E0040C1C181C0C04F8F83034
:1004F0001838F0E0FCFC0C181C0C04E0F038183044
:10050000F8F8040C1C180CFCFCF8F83018181C1C2B
:1005100000000070F8D8D8D890081818181C0C18CB
:10052000FCFE1818000C1C1818F8F8000000F8F869
:100530000C1C18180C1C1C38F8C000C0F83800003F
:100540001C1C1C000018F8E000F038F000E0F8185F
:1005500000001C1C0C000C1C1C00001838E0E038CB
:1005600018181C04041C1818F8E000E0F81800849F
:10057000FCF83C04001898D878381C1C181818800F
:10058000FC7E0606007CFCC0C0FEFC06067EFC80ED
:10059000C0C0FC7C00603030706060300000000043
:1005A000000000FE020202020202FE1C10101010E7
:1005B00010101C0000050720600000000000000073
:1005C0005F00000007000700147F147F14242A7FB7
:1005D0002A12231308646236495620500008070384
:1005E00000001C2241000041221C002A1C7F1C2A02
:1005F00008083E0808008070300008080808080055
:100600000060600020100804023E5149453E00424F
:100610007F400072494949462141494D331814121F
:100620007F1027454545393C4A4949314121110947
:10063000073649494936464949291E000014000039
:100640000040340000000814224114141414140053
:100650004122140802015909063E415D594E7C129F
:1006600011127C7F494949363E414141227F414137
:10067000413E7F494949417F090909013E414151B4
:10068000737F0808087F00417F41002040413F01FF
:100690007F081422417F404040407F021C027F7F40
:1006A0000408107F3E4141413E7F090909063E4151
:1006B00051215E7F09192946264949493203017FA4
:1006C00001033F4040403F1F2040201F3F40384033
:1006D0003F631408146303047804036159494D43CC
:1006E000007F4141410204081020004141417F0444
:1006F000020102044040404040000307080020542B
:100700005478407F2844443838444444283844448A
:10071000287F385454541800087E090218A4A49C59
:10072000787F0804047800447D40002040403D006C
:100730007F1028440000417F40007C047804787CCE
:10074000080404783844444438FC18242418182435
:100750002418FC7C08040408485454542404043F1E
:1007600044243C4040207C1C2040201C3C40304025
:100770003C44281028444C9090907C4464544C4451
:1007800000083641000000770000004136080002F2
:10079000010204023C2623263C0000000023002620
:1007A00000290000030C0F30333C3FC0C3CCCFF016
:1007B000F3FCFF5375636365737366756C001C62AD
:1007C0000A0C206002020508070D08020404050750
:1007D00002040206070607070707070707070202C2
:1007E000070707050A07070708060608080406079B
:1007F00007090809070908070808070C070806047D
:10080000060408090306060606060506060204078E
:10081000020A0606060605050506060A0606050678
:1008200002060809000000007E7E3030070700073E
:10083000070000000000C0D8F8DED8F8DE1800304D
:10084000000030000000387C64FF64E4C810202001
:10085000F02030103C7E427E3CC02018E6F010F0C4
:10086000E000000000300000001030203010DCFEFE
:10087000227EDC80602010302020201030200707EE
:100880000000F8FE07011070E0800107FEF880E02C
:100890007010120C3F0C120000000000202020FC01
:1008A000202020000000100000000000F070202038
:1008B000202000000000000030300080E07C1F039A
:1008C000C0F030000000FCFE020202FEFC103020EE
:1008D000202030100404FEFE0000202030302020B4
:1008E000040682C2623E1C203030202020200406F4
:1008F000222222FEDC10302020203010C0A098845C
:10090000FEFE8000000000303000001E1E1212F2B9
:10091000E210302020203010F8FC161212F2E01005
:10092000302020203010020282E27A1E06002030A1
:1009300010000000DCFE222222FEDC1030202020ED
:1009400030103C7E424242FEFC002020203010004D
:10095000181830301818F070606090900808040083
:100960000000001010209090909090909000000057
:100970000000000004080890906060201010000043
:1009800000000462721E0C0030300000F00CF4FA1B
:100990000AFAFA040CF000302050505050101000A9
:1009A00080F8FE86FEF88030300000003030FEFE19
:1009B00022223EFCC030302020203010F8FC0602FD
:1009C00002020400103020202010FEFE0202020667
:1009D000FCF83030202020301000FEFE222222229F
:1009E000303020202020FEFE222222223030000043
:1009F0000000F8FC06024242C2C400103020202051
:100A00003030FEFE20202020FEFE303000000000AE
:100A1000303002FEFE022030302000020202FEFED4
:100A2000202020203010FEFE70D88C0602303000CE
:100A300000103020FEFE000000000030302020209A
:100A40002020FE0E3CF0C0300CFEFE300000000006
:100A500000003030FE061C38E0C000FE3000000010
:100A600000103030F8FC0602020206FCF8001030DC
:100A7000202020301000FEFE4242427E3C303000FA
:100A800000000000F8FC0602020206FCF80010302C
:100A90002060E0B09080FEFE2262E2BE1C0030309A
:100AA0000000001030201C3E322262E2C4102020E0
:100AB00020203010020202FEFE020202000000307E
:100AC00030000000FEFE00000000FEFE103020207E
:100AD000202030100E7EF080F07E0E00003030308E
:100AE00000000E7EF080E03E3EE080F07E0E0000D2
:100AF00030300000000030300000068EF870F88EB4
:100B00000630300000003030060E18F0F0180E06E7
:100B1000000000303000000002C2F23E0E02303011
:100B200020202020FFFF0101F0F08080031F7CE0E7
:100B3000800000000030F0C00101FFFF8080F0F075
:100B400010180C06060C1810000000000000000031
:100B50000000000000000000008080808080808015
:100B60008080010302000000C0E82828F8F010305F
:100B700020203030FFFF0808F8F0303020203010FF
:100B8000F0F808080810103020202010F0F80808AD
:100B9000FFFF103020203030F0F8484878701030D7
:100BA0002020201008FEFF09090030300000F0F876
:100BB0000808F8F810B0A0A0F070FFFF0808F8F0DF
:100BC000303000003030FBFB30300008FBFB808011
:100BD000F070FFFF60F09808003030000010302007
:100BE000FFFF3030F8F81008F8F01008F8F0303057
:100BF0000000303000003030F8F80808F8F03030ED
:100C000000003030F0F80808F8F0103020203010E4
:100C1000F8F80808F8F0F0F020203010F0F8080894
:100C2000F8F810302020F0F0F8F8101818303000E4
:100C30000000307848C888202020301008FEFE08C8
:100C4000080010302020F8F80000F8F810302020BC
:100C5000303038F8C0C0F83800103030100078F864
:100C600080C03838C080F878003030000000003094
:100C7000300018B8E0E0B81830300000303038F8F4
:100C8000C0C0F8380090F070100008C8E87818303C
:100C9000302020202020FEDF0101000070F0808045
:100CA000FFFFF0F00101DFFE20208080F0700000E7
:100CB000E010102040808070000000000000000064
:100CC000FE02020202020202FE302020202020202A
:100CD00020306800178040020A0A4F4C45442069C2
:100CE0006E6974206F6E20416464726573733A207C
:100CF0003078002B2D2D2D2D2D2D2D2D2D2D2D2D05
:100D00002D2D2D2D2D2D2D2D2B007C20202020450F
:100D10006C656374726F7363617065202020207C42
:100D2000002B2D2D2D2D2D2D2D2D2D2D2D2D2D2D22
:100D30002D2D2D2D2D2D2B000000050720600000EE
:100D400000000000005F00000007000700147F148F
:100D50007F14242A7F2A12231308646236495620FE
:100D6000500008070300001C2241000041221C0023
:100D70002A1C7F1C2A08083E0808008070300008E2
:100D800008080808000060600020100804023E51B6
:100D900049453E00427F4000724949494621414948
:100DA0004D331814127F1027454545393C4A4949AF
:100DB0003141211109073649494936464949291E19
:100DC0000000140000004034000000081422411408
:100DD00014141414004122140802015909063E415A
:100DE0005D594E7C1211127C7F494949363E414182
:100DF00041227F4141413E7F494949417F090909DB
:100E0000013E414151737F0808087F00417F410046
:100E10002040413F017F081422417F404040407FF5
:100E2000021C027F7F0408107F3E4141413E7F0942
:100E30000909063E4151215E7F0919294626494983
:100E4000493203017F01033F4040403F1F204020C3
:100E50001F3F4038403F63140814630304780403C1
:100E60006159494D43007F4141410204081020006F
:100E70004141417F040201020440404040400003E0
:100E800007080020545478407F28444438384444AC
:100E90004428384444287F385454541800087E09A4
:100EA0000218A4A49C787F0804047800447D4000C4
:100EB0002040403D007F1028440000417F40007CDE
:100EC000047804787C080404783844444438FC18D6
:100ED00024241818242418FC7C08040408485454BA
:100EE000542404043F44243C4040207C1C204020E7
:100EF0001C3C4030403C44281028444C9090907C4E
:100F00004464544C4400083641000000770000005F
:100F10004136080002010204023C2623263C0A72E4
:100F2000656C617920696E6974207375636365739C
:100F30007366756C0000000000240027002A000082
:100F4000000000250028002B00040404040404040D
:100F50000402020202020203030303030301020468
:100F6000081020408001020408102001020408102B
:100F70002000000008000201000003040700000038
:100F80000000000000007915AF1C11241FBECFEF38
:100F9000D8E0DEBFCDBF25E0A2E0B3E001C01D92E6
:100FA000AB3AB207E1F713E0A0E0B1E0ECE9FEE311
:100FB00002C005900D92A230B107D9F717E0C4EC3A
:100FC000D7E004C02197FE010E94411DC33CD10718
:100FD000C9F70E9483160C94411F0C9400000895D9
:100FE00008958091EF049091F004FC0131912091DB
:100FF000DA04ABEDB4E04496311105C081E0222360
:1010000051F080E008953213FCCF31912D91E81713
:10101000F90791F7F6CF089596E0899FD001112442
:10102000A350BB4F90967C936E935F9791E09196FF
:101030009C939197E0916A05F0916B0590916905F9
:10104000992339F0309751F0811108C0809119052A
:101050000994309719F05C968C91FACF08958330FB
:1010600081F028F4813099F08230A9F0089587301A
:10107000A9F08830C9F08430B1F4809180008F7D70
:1010800003C0809180008F7780938000089584B59D
:101090008F7784BD089584B58F7DFBCF8091B0009C
:1010A0008F778093B00008958091B0008F7DF9CF45
:1010B0001F93CF93DF93282F30E0F901EF58F04FC3
:1010C0008491F901E35AF04FD491F901E75BF04FB5
:1010D000C491CC23A9F0162F81110E942F08EC2F68
:1010E000F0E0EE0FFF1FE15CF04FA591B4918FB7D8
:1010F000F894EC91111108C0D095DE23DC938FBFDA
:10110000DF91CF911F910895DE2BF8CFCF93DF931E
:1011100090E0FC01E35AF04F2491875B904FFC0173
:1011200084918823C9F090E0880F991FFC01EB5C43
:10113000F04FA591B491FC01E15CF04FC591D491C1
:1011400061110DC09FB7F8948C91209582238C93E8
:101150008881282328839FBFDF91CF910895623033
:1011600051F49FB7F8943C91822F809583238C9300
:10117000E8812E2BEFCF8FB7F894EC912E2B2C9388
:101180008FBFEACF3FB7F8948091A3039091A40357
:10119000A091A503B091A60326B5A89B05C02F3F3B
:1011A00019F00196A11DB11D3FBFBA2FA92F982F8D
:1011B0008827BC01CD01620F711D811D911D42E088
:1011C000660F771F881F991F4A95D1F708958F9250
:1011D0009F92AF92BF92CF92DF92EF92FF924B011C
:1011E0005C010E94C2086B017C010E94C2086C195C
:1011F0007D098E099F09683E734081059105A8F31A
:1012000021E0821A9108A108B10888EEC80E83E097
:10121000D81EE11CF11C81149104A104B10429F72A
:10122000FF90EF90DF90CF90BF90AF909F908F9006
:1012300008952FB7F89460919F037091A003809157
:10124000A1039091A2032FBF08950F931F93CF93F3
:10125000DF93C82FD62F86E0C89FF0011124E350FA
:10126000FB4F11A2878D90A181309105F1F058F0CC
:1012700082309105F1F1039709F440C0DF91CF91DD
:101280001F910F9108956623C9F361E070E08C2FE0
:101290000E940C080E941909609355057093560529
:1012A0008093570590935805E9CF0E941909009142
:1012B0005505109156052091570530915805AB0101
:1012C000BC01401B510B620B730B80916705909121
:1012D0006805B0E0A0E084179507A607B70748F4B3
:1012E00062E070E08C2FDF91CF911F910F910C94F1
:1012F0000C0863E070E0D111C1CFF4CF70E060E082
:10130000F1CF08950895DB0114964D915C911597E6
:101310006D917C91DC01ED91FC910280F381E02DD7
:101320000994CF93DF93EC0162E070E080E090E0FD
:101330000E94E708BE018AE795E00E948309BE018A
:101340008BEF93E0DF91CF910C948309AF92BF9222
:10135000CF92DF92EF92FF920F931F93CF93DF9381
:101360006C017B018B01040F151FEB015E01AE18B0
:10137000BF08C017D10759F06991D601ED91FC91D2
:101380000190F081E02DC6010995892B79F7C501FF
:10139000DF91CF911F910F91FF90EF90DF90CF9051
:1013A000BF90AF900895FC01538D448D252F30E000
:1013B000842F90E0821B930B541710F0CF96089562
:1013C00001970895FC01918D828D981761F0A28D8F
:1013D000AE0FBF2FB11D5D968C91928D9F5F9F7355
:1013E000928F90E008958FEF9FEF0895FC01918D0B
:1013F000828D981731F0828DE80FF11D858D90E078
:1014000008958FEF9FEF0895FC01918D228D892F14
:1014100090E0805C9F4F821B91098F7399270895FC
:101420008BEF93E00E94040A21E0892B09F420E06D
:10143000822F089580E090E0892B29F00E94100A05
:1014400081110C9400000895FC01A48DA80FB92F00
:10145000B11DA35ABF4F2C91848D90E001968F73DC
:101460009927848FA689B7892C93A089B1898C91FB
:10147000837080648C93938D848D981306C002884A
:10148000F389E02D80818F7D80830895EF92FF9214
:101490000F931F93CF93DF93EC0181E0888F9B8D97
:1014A0008C8D98131AC0E889F989808185FF15C051
:1014B0009FB7F894EE89FF896083E889F989808174
:1014C0008370806480839FBF81E090E0DF91CF9143
:1014D0001F910F91FF90EF900895F62E0B8D10E065
:1014E0000F5F1F4F0F731127E02E8C8D8E110CC0D4
:1014F0000FB607FCFACFE889F989808185FFF5CF1F
:10150000CE010E94240AF1CFEB8DEC0FFD2FF11DCF
:10151000E35AFF4FF0829FB7F8940B8FEA89FB895B
:1015200080818062CFCFEF92FF920F931F93CF9372
:10153000DF938C017B01D0E0C0E0F701EC0FFD1FD1
:101540006491662339F0C8010E94460A892B11F084
:101550002196F3CFCE01DF91CF911F910F91FF9094
:10156000EF900895CF93DF93EC01888D8823B9F035
:10157000AA89BB89E889F9898C9185FD03C080819E
:1015800086FD0DC00FB607FCF7CF8C9185FFF2CF1B
:10159000808185FFEDCFCE010E94240AE9CFDF9143
:1015A000CF910895CF93DF93EC019C818E819817A2
:1015B00058F4E881F9810084F185E02D42E0CE0104
:1015C00009958C818F5F8C83DF91CF910895DC0129
:1015D000ED91FC910084F185E02D40E009940F939A
:1015E0001F93CF938C01FC016483C085C60F6C2FC1
:1015F0006F700E94E70A6C2F62956F706061C8017E
:10160000CF911F910F910C94E70AFC012781269539
:1016100026952695621720F46583606B0C94E70A83
:1016200008951F93CF93DF93EC01142F8E816817D9
:1016300018F4CE010E94EF0A612FCE01DF91CF9105
:101640001F910C94050BCF92DF92EF92FF920F93B4
:101650001F93CF93DF93EC01162FC42ED22E8F81D0
:10166000869586958695081710F00FEF080FFD2CCC
:101670000F15B0F08E81181720F4612FCE010E9453
:10168000EF0A6F2DCE010E94050BE12ECE1430F033
:1016900060E0CE010E94D20AE394F8CFF394E8CF41
:1016A0004D2D612FCE01DF91CF911F910F91FF90B2
:1016B000EF90DF90CF900C94110B2F923F924F92AE
:1016C0005F926F927F928F929F92AF92BF92CF92D2
:1016D000DF92EF92FF920F931F93CF93DF9300D08F
:1016E00000D01F92CDB7DEB7DC011B960D911C9187
:1016F0000115110509F468C19D838C83F80144919B
:10170000319654913196649031962491E22EF12CC9
:10171000F7E0EF0EF11C73E0F594E7947A95E1F7AA
:10172000E982F801349634913196E491631748F0D8
:101730008E2F90E0FC01E30FF11D6E171F060CF4D5
:1017400087C06D3031F5AC81BD8116968C918111C9
:101750001AC081E090E00F900F900F900F900F90C3
:10176000DF91CF911F910F91FF90EF90DF90CF907D
:10177000BF90AF909F908F907F906F905F904F90B1
:101780003F902F90089560E08C819D810E94EF0A28
:10179000E0CF6A3009F018C1EC81FD818185D580E8
:1017A0008E9DD00C11248781869586958695D816B6
:1017B00030F08285882319F082E08287D12C4D2D6C
:1017C00060E08C819D810E94110BAC81BD811A96D5
:1017D0008C911A97823008F4BCCF15962C911597EE
:1017E0001B96ED91FC911C9700E0309739F03396F1
:1017F000E49119960C91E09F002D112410E0095FEF
:101800001F4F33E0159507953A95E1F78FEF820F5B
:10181000080FEC81FD81468141506481CF010E9417
:10182000230BAC81BD8119968C9119976D2D8E9DDE
:10183000600D1124660F660F660F17968C91861740
:1018400008F460E060648C819D810E94E70A81CF8A
:101850004527542745270A5F1F4F631BEC81FD81F5
:1018600021844230510508F06DC0452B09F0212C30
:101870006E9CC0016F9C900D1124689FF001699FC0
:10188000F00D11240E0F1F1F512CAC81BD81149639
:10189000BC91BA83EC81FD81F581FB83862C912C70
:1018A000AA24A394B12C312C8981381608F086C063
:1018B000412CAC81BD8119968C91481608F077C0F7
:1018C000311002C0442041F0EC81FD8145814F5F21
:1018D0006A81CF010E94110BD12CC12CC61408F0D3
:1018E0005AC0F801EC0DFD1D7490552061F0EA140A
:1018F000FB0449F4E72DF0E0052C02C0F595E795CF
:101900000A94E2F77E2EAC81BD8119968C918230CB
:1019100081F4442009F43BC072948FE07822E72DD3
:10192000F0E0ED55F84F7490672D8C819D810E94F9
:10193000D20A672D8C819D810E94D20AEFEFCE1AC8
:10194000DE0ACCCF277038E0532E521A211101C085
:10195000512C50E040E030E020E0F801461740F420
:10196000E40FF51FE4912E0F311D4F5F5F4FF5CF50
:10197000E60FF11D6490E29EF001E39EF00DF29EF1
:10198000F00D11248E0F9F1F080F191F7ECFB72D4A
:10199000BF707B2EC4CFD12C2D1439F060E08C8128
:1019A0009D810E94D20AD394F7CF439482CF33947F
:1019B000080D191DFFEFAF1ABF0A76CF6B818C811E
:1019C0009D810E94050BC5CE90E080E0C4CE0F93B0
:1019D000CF93DF93EC010F81069506950695015094
:1019E0004E81415020E060E00E94230B81E09A8507
:1019F000911101C080E08A8760E4CE01DF91CF9130
:101A00000F910C94E70A8091AD039091AE03891B6E
:101A1000990B0895CF93DF93FC01108211821282FB
:101A20001382148215821682EC012796DC011F9620
:101A30001992AC17BD07E1F77F961D921D92EA1728
:101A4000FB07D9F7DF91CF91089590E0FC01EE0FED
:101A5000FF1FE356F84FA591B4912C91FC01EA5673
:101A6000FC4F30812083880F991FFC01E35FFE4FFC
:101A70000190F081E02D8081089520914303260F8D
:101A80003327331F21323105ECF42091F503FC019B
:101A900090E080E0243069F082E00895A091430353
:101AA0002191AC014D5D5C4FA40FB52FB11D2C935E
:101AB0000196861798F380914303680F6093430360
:101AC00080E0089581E008951092F50381E080930D
:101AD000D4031092CF0361E082E10E94580861E0D4
:101AE00083E10E945808E9EBF0E080818E7F8083DB
:101AF00080818D7F808388E48093B80085E4809323
:101B0000BC0008951092AE031092AD031092AC0386
:101B10001092AB030E94640D8FEE97E09093AA039E
:101B20008093A90380EF97E09093A8038093A70385
:101B30000895CF93DF9391E0909322038823B9F027
:101B4000C091B800D091BA008091BC008A7B80938C
:101B5000BC0060E082E10E94580860E083E10E94DE
:101B600058080E94640DD093BA00C093B800DF916A
:101B7000CF910895CF92DF92EF92FF920F931F9330
:101B8000CF93DF93D82FC62F613208F098C00E9400
:101B9000C2086B017C018091F50381116BC081E06B
:101BA0008093F5038093D4039FEF9093D303109217
:101BB000D2039C0F9093D1038093D0038091D003E4
:101BC000DD0FD82BD093D0038091CF03813009F063
:101BD00078C01092CF030E94C2086B017C018091F3
:101BE000D0038093BB008091F7039091F803A091FC
:101BF000F903B091FA03892B8A2B8B2BA1F00E9459
:101C0000C2080091F7031091F8032091F903309175
:101C1000FA036C197D098E099F0906171707280713
:101C2000390708F448C08091BC0083FDD8CF85EC0B
:101C30008093BC000E94C2086B017C018091F50377
:101C4000813009F440C08091D2038C1710F4C09108
:101C5000D203EFEAF3E0A5EDB3E080E08C1355C0CA
:101C60008C2FDF91CF911F910F91FF90EF90DF901C
:101C7000CF9008958091F7039091F803A091F90314
:101C8000B091FA03892B8A2B8B2B09F484CF0E9405
:101C9000C2080091F7031091F8032091F9033091E5
:101CA000FA036C197D098E099F0906171707280783
:101CB000390708F070CF8091F6030E94990DC0E0BB
:101CC000CFCF85EEB5CF8091F7039091F803A09127
:101CD000F903B091FA03892B8A2B8B2B09F4AECF31
:101CE0000E94C2080091F7031091F8032091F903B4
:101CF0003091FA036C197D098E099F0906171707A1
:101D00002807390708F09ACFD6CF91919D938F5F1E
:101D1000A5CF0895E091AE038091AD03E81730F4AC
:101D2000F0E0EB52FC4F808190E008958FEF9FEF41
:101D300008959091AE038091AD032FEF3FEF981778
:101D400048F4E92FF0E0EB52FC4F208130E09F5F38
:101D50009093AE03C9010895CF92DF92EF92FF9264
:101D60000F931F93CF93DF937C01CB018A012091C6
:101D70009A03222389F0EB016B01C40ED51ECC150A
:101D8000DD0569F06991D701ED91FC910190F08139
:101D9000E02DC7010995F3CF642F0E943D0DC801C6
:101DA000DF91CF911F910F91FF90EF90DF90CF9037
:101DB0000895CF93DF931F92CDB7DEB7698320914B
:101DC0009A032223F9F02091AB03203258F021E04E
:101DD00030E0FC013383228390E080E00F90DF91BC
:101DE000CF9108958091AC03E82FF0E0EE5FFC4FB7
:101DF000998190838F5F8093AC038093AB0381E0E4
:101E000090E0ECCF61E0CE0101960E943D0DF7CF4E
:101E1000CF92DF92EF92FF920F931F93CF93DF93B6
:101E2000D091AB0381E0D13208F09CC0C0919903FE
:101E30000E94C2086B017C018091F50381116CC086
:101E400082E08093F50381E08093D4038FEF809349
:101E5000D3031092D203D093D103A2E0B3E0EFEA10
:101E6000F3E080E0D8138DC01092D0038091D003AE
:101E7000CC0FC82BC093D0038091CF03813009F0E1
:101E800084C01092CF030E94C2086B017C01809134
:101E9000D0038093BB008091F7039091F803A09149
:101EA000F903B091FA03892B8A2B8B2BA1F00E94A6
:101EB000C2080091F7031091F8032091F9033091C3
:101EC000FA036C197D098E099F0906171707280761
:101ED000390708F442C08091BC0083FDD8CF85EC5F
:101EE0008093BC000E94C2086B017C018091F503C5
:101EF000823009F44CC08091D3038F3F09F469C04C
:101F00008091D303803209F466C08091D30380337B
:101F100009F463C084E026C08091F7039091F80330
:101F2000A091F903B091FA03892B8A2B8B2B09F42A
:101F300083CF0E94C2080091F7031091F80320910B
:101F4000F9033091FA036C197D098E099F09061770
:101F500017072807390708F06FCF8091F6030E9412
:101F6000990D85E01092AC031092AB0310929A0386
:101F7000DF91CF911F910F91FF90EF90DF90CF9065
:101F800008959D9191938F5F6DCF85EEA9CF80913C
:101F9000F7039091F803A091F903B091FA03892B0C
:101FA0008A2B8B2B09F4A2CF0E94C2080091F70361
:101FB0001091F8032091F9033091FA036C197D090F
:101FC0008E099F09061717072807390708F08ECFD3
:101FD000C4CF80E0C7CF82E0C5CF83E0C3CF0F93EB
:101FE0001F93CF93DF93EC01062F142F8E85813141
:101FF00020F4882339F0411105C081EF94E00E945C
:10200000080F1E868E85811112C08D8591E09093F8
:102010009A03809399031092AC031092AB0360E48F
:10202000111101C060E081EF94E00E94D90E602F91
:1020300081EF94E00E94D90E123041F48E858F5FBB
:102040008E87DF91CF911F910F91089581EF94E0DA
:102050000E94080F1E86F5CFFC019181628180816C
:10206000238131E030939A03209399031092AC03BB
:102070001092AB0360956923682B81EF94E00E9476
:10208000D90E81EF94E00C94080FEF92FF920F931A
:102090001F93CF93DF93EC017B018C010D581F4FF1
:1020A000D8018D919C91FE01E159FF4F208131E0D3
:1020B00030939A03209399031092AC031092AB03D0
:1020C000DC01ED91FC910190F081E02D0995FE017C
:1020D000E059FF4F8081823058F0F8018081918172
:1020E000DC01ED91FC910190F081E02D6F2D0995BF
:1020F000F801808191810E94080FCF58DF4FE8825C
:10210000F982DF91CF911F910F91FF90EF90089589
:1021100021E030E002C0220F331F6A95E2F7FC0194
:10212000EF58FF4F60817181442341F0262B372BFC
:1021300031832083608171810C9445102095309506
:1021400026233723F5CF90E080E00895CF93DF93E7
:1021500070E0FB01EF58F04F8491FB01E35AF04F20
:10216000D491675B704FFB01C491CC23A1F0811126
:102170000E942F08EC2FF0E0EE0FFF1FE756F84FFC
:10218000A591B491EC91ED2381E090E009F480E019
:10219000DF91CF91089580E090E0FACF862F642FF1
:1021A0000C945808862F642F0C948608CF92DF92E7
:1021B000EF92FF920F931F93CF93DF93EC0181E097
:1021C00090E07C0102C0EE0CFF1C6A95E2F76E0104
:1021D00080E7C80ED11CD6016C91613208F060E234
:1021E000FE01E159FF4F80810E94BA0D1092AE03AB
:1021F0008093AD03CD58DF4F88819981DC01ED914B
:10220000FC910284F385E02D09958C01F601808113
:10221000823060F088819981DC01ED91FC9102842B
:10222000F385E02D099520E0022B182B0E211F21AC
:1022300081E090E00E151F0511F090E080E0DF9145
:10224000CF911F910F91FF90EF90DF90CF90089565
:10225000CF93DF93EC0189818C8361E08B810E94B5
:10226000BA0D1092AE038093AD03811101C0FFCF70
:1022700081EF94E00E94990E8983DF91CF910895B8
:10228000CF93DF93EC0188819981009711F00E9430
:10229000E31D198218821D821C821B821A82DF9123
:1022A000CF910895FC0180819181009711F00C94E9
:1022B000E31D0895FB0101900020E9F73197AF017C
:1022C000461B570BDC01ED91FC910280F381E02D60
:1022D000099463E571E00C945A11CF93DF93EC01FC
:1022E00062E070E080E090E00E94E708BE018AE7CB
:1022F00095E00E9483098AE795E00E946911BE017A
:102300008BEF93E00E9483098BEF93E0DF91CF91F5
:102310000C9469110F931F93CF93DF93EC010E94EC
:102320005A118C01CE010E946911800F911FDF911B
:10233000CF911F910F9108950F931F93CF93DF9328
:10234000EC010E94930A8C01CE010E946911800F5A
:10235000911FDF91CF911F910F9108950F931F93BC
:10236000CF93DF93EC018B0162E070E080E090E0BE
:102370000E94E70861E08EE00E9458088BEF93E02E
:102380000E94691166E571E08BEF93E00E945A119B
:10239000B8018BEF93E00E94830969E571E08BEF50
:1023A00093E00E945A11BE018BEF93E00E948309D3
:1023B0006BE571E08BEF93E00E948A1164E170E0BD
:1023C00080E090E00E94E70860E08EE0DF91CF912E
:1023D0001F910F910C945808CF93DF938AE795E0F3
:1023E0000E94E70CCAE7D5E083EB95E09C878B87DA
:1023F00062E671E0CE010E945A118FE790E09C875F
:102400008B8766E671E0CE010E948A110E9419094D
:10241000609376057093770580937805909379059E
:10242000DF91CF910895CF93DF93FC01C081D181DB
:10243000209761F08991882349F0082E000C990BB0
:102440000E94291FFE0131978083F4CFDF91CF9145
:1024500008950F931F93CF93DF93EC0188819981A7
:10246000009759F02A813B812617370730F081E029
:10247000DF91CF911F910F9108958B016F5F7F4F77
:102480000E946C1E009759F0998388831B830A83EE
:102490002C813D81232B59F7FC011082E8CF80E08D
:1024A000E7CFEF92FF920F931F93CF93DF93EC014F
:1024B0007B018A01BA010E94291281110BC0CE0151
:1024C0000E944011CE01DF91CF911F910F91FF909B
:1024D000EF9008951D830C83B701888199810E9434
:1024E0003A1FF0CFFC0111821082138212821582F2
:1024F0001482FB0101900020E9F73197AF01461BE0
:10250000570B0C9451121F93CF93DF9300D000D040
:1025100000D0CDB7DEB7182F80911C0590911D0516
:102520008130910561F00297A1F126960FB6F894DB
:10253000DEBF0FBECDBFDF91CF911F9108950E94E6
:1025400019096093720570937305809374059093D5
:102550007505E091EE04E33169F081E08E0F809320
:10256000EE04F0E0E652FB4F1083E82FF0E0E65275
:10257000FB4F10826AED74E0CE0101960E94721248
:10258000CE0101960E946D11CE0101960E9452115A
:10259000CCCF65E771E08BEF93E00E945A11612F79
:1025A0008BEF93E00E94460A8BEF93E00E94691143
:1025B000BCCFEF92FF920F931F93CF93DF93CDB7D2
:1025C000DEB762970FB6F894DEBF0FBECDBF8C01A9
:1025D000CB01F801118210821382128215821482BB
:1025E00050E09E012F5F3F4F7901B9010E94CA1C44
:1025F000F70101900020E9F73197AF014E195F090B
:10260000B701C8010E94511262960FB6F894DEBF5E
:102610000FBECDBFDF91CF911F910F91FF90EF9033
:10262000089585ED8093BC008091F7039091F803A5
:10263000A091F903B091FA030796A11DB11D23E003
:10264000B695A795979587952A95D1F72091BC00C7
:1026500024FD03C01092F50308954091F7035091B3
:10266000F8036091F9037091FA03452B462B472B31
:1026700069F30097A105B10541F025E32A95F1F72B
:1026800000000197A109B109E1CF8091F6030C94F4
:10269000990D1F920F920FB60F9211242F933F9313
:1026A0008F939F93AF93BF9380919F039091A003CB
:1026B000A091A103B091A20330919E0323E0230FC8
:1026C0002D3758F50196A11DB11D20939E038093CF
:1026D0009F039093A003A093A103B093A2038091C2
:1026E000A3039091A403A091A503B091A603019622
:1026F000A11DB11D8093A3039093A403A093A503F0
:10270000B093A603BF91AF919F918F913F912F916D
:102710000F900FBE0F901F90189526E8230F02967A
:10272000A11DB11DD2CF1F920F920FB60F9211248F
:102730002F933F934F935F936F937F938F939F93C9
:10274000AF93BF93EF93FF938BEF93E00E94240A24
:10275000FF91EF91BF91AF919F918F917F916F9179
:102760005F914F913F912F910F900FBE0F901F904F
:1027700018951F920F920FB60F9211242F938F93DB
:102780009F93EF93FF93E0910B04F0910C048081F1
:10279000E0911104F091120482FD1BC090818091A0
:1027A00014048F5F8F7320911504821741F0E0911C
:1027B0001404F0E0E550FC4F958F80931404FF91D2
:1027C000EF919F918F912F910F900FBE0F901F90BF
:1027D00018958081F4CF1F920F920FB60F9211249B
:1027E0002F933F934F935F936F937F938F939F9319
:1027F000AF93BF93EF93FF9382E00E94250DFF916B
:10280000EF91BF91AF919F918F917F916F915F9168
:102810004F913F912F910F900FBE0F901F901895E1
:102820001F920F920FB60F9211242F933F934F9345
:102830005F936F937F938F939F93AF93BF93EF9328
:10284000FF9381E00E94250DFF91EF91BF91AF9121
:102850009F918F917F916F915F914F913F912F91B8
:102860000F900FBE0F901F9018951F920F920FB6EA
:102870000F9211242F933F934F935F936F937F9306
:102880008F939F93AF93BF93EF93FF9380E00E944A
:10289000250DFF91EF91BF91AF919F918F917F9106
:1028A0006F915F914F913F912F910F900FBE0F90BD
:1028B0001F9018951F920F920FB60F9211242F930D
:1028C0003F934F935F936F937F938F939F93AF93B8
:1028D000BF93EF93FF938091B900887F803609F40E
:1028E0004AC0F0F5883209F4A7C018F5803109F420
:1028F0009BC0B8F4882309F4F9C0883009F494C067
:10290000FF91EF91BF91AF919F918F917F916F91C7
:102910005F914F913F912F910F900FBE0F901F909D
:102920001895883109F488C0803251F78093D30319
:1029300014C0803409F49DC040F48033B9F3883367
:10294000F9F68093D30385ECB0C0803509F485C0D7
:10295000883509F496C0883499F60E941113D0CFB7
:10296000883909F48CC038F5883729F050F4883656
:1029700011F0803729F683E08093F5031092650308
:1029800057C0883809F47BC0803919F0803809F0C5
:10299000B7CF80916503803208F071C0E091650384
:1029A00081E08E0F809365038091BB00F0E0EB5BCC
:1029B000FC4F80833DC0803B39F0E0F4803A09F45D
:1029C00079C0883A09F09CCF84E08093F503109297
:1029D000440310924303E091A903F091AA030995DF
:1029E0008091430381110FC081E0809343031092D3
:1029F000230309C0803C09F4A6CF883C09F4A3CF87
:102A0000883B09F07DCFE091440381E08E0F8093F5
:102A10004403F0E0ED5DFC4F80818093BB0090911A
:102A200044038091430329C08091D0038093BB006D
:102A300085EC8093BC0064CF9091D2038091D10348
:102A4000981758F5E091D20381E08E0F8093D2035E
:102A5000F0E0E155FC4F8081E9CFE091D20381E0C5
:102A60008E0F8093D2038091BB00F0E0E155FC4FC4
:102A700080839091D2038091D1039817C8F285E8A2
:102A8000D8CFE091D20381E08E0F8093D203809162
:102A9000BB00F0E0E155FC4F80838091D4038111AD
:102AA0005CCF81E08093CF0384EA8093BC001092D6
:102AB000F50326CF85EC8093BC001092F50380913E
:102AC0006503803230F4E0916503F0E0EB5BFC4F8E
:102AD00010826091650370E0E091A703F091A80374
:102AE00085E493E00995109265030ACF1092D30311
:102AF00034CF1092FE031092FD0388EE93E0A0E025
:102B0000B0E08093FF0390930004A0930104B0937E
:102B1000020427E131E03093FC032093FB0325EC12
:102B200030E0309308042093070424EC30E0309325
:102B30000A042093090420EC30E030930C04209325
:102B40000B0421EC30E030930E0420930D0422ECB2
:102B500030E03093100420930F0426EC30E03093E3
:102B60001204209311041092140410921504109270
:102B70001604109217041092F4041092F304809338
:102B8000F5049093F604A093F704B093F80489E257
:102B900091E09093F2048093F1046CE771E081EA94
:102BA00095E00E9472126DE871E08BE995E00E9459
:102BB000721268E971E085E995E00E94721266EA96
:102BC00071E08FE895E00E9472126EEA71E089E888
:102BD00095E00E94721210927D0510927C0581E0B2
:102BE0008093830510928605109285058BE391E012
:102BF00090937B0580937A050E941909609376056E
:102C00007093770580937805909379050E94190950
:102C100060937205709373058093740590937505A6
:102C20001092FF0410920305109202051092040501
:102C3000E9E1F5E01082148213821582369685E070
:102C4000E535F807B9F786E091E090936005809349
:102C50005F0582E091E0909362058093610581E0D9
:102C60008093630594E0909364052FE431E0309302
:102C70005E0520935D052AE030E0309366052093E1
:102C8000650524EF31E030936805209367051092C5
:102C90006B0510926A051092590510925A05109210
:102CA0005B0510925C051092690529E431E03093D0
:102CB000FE042093FD0499E390936C0580936D05C9
:102CC00081EF94E0909371058093700582EB91E021
:102CD0009093F0048093EF041092EE041092DA04C3
:102CE0008BEB94E00E940A0D8CE994E00E940A0D9F
:102CF0000E941909609398047093990480939A0430
:102D000090939B040895CF93DF93CDB7DEB7AD9733
:102D10000FB6F894DEBF0FBECDBF789484B5826045
:102D200084BD84B5816084BD85B5826085BD85B56F
:102D3000816085BD80916E00816080936E001092ED
:102D40008100809181008260809381008091810068
:102D500081608093810080918000816080938000F9
:102D60008091B10084608093B1008091B000816057
:102D70008093B00080917A00846080937A00809183
:102D80007A00826080937A0080917A0081608093DB
:102D90007A0080917A00806880937A001092C10056
:102DA0000E94820D88E48093B800E0910B04F091BA
:102DB0000C0482E08083E0910704F0910804108203
:102DC000E0910904F0910A0480E1808310921304D9
:102DD000E0910F04F091100486E08083E0910D04EF
:102DE000F0910E04808180618083E0910D04F09168
:102DF0000E04808188608083E0910D04F0910E04C0
:102E0000808180688083E0910D04F0910E048081C0
:102E10008F7D808364E670E080E090E00E94E708A8
:102E200061E08EE00E94860861E27DE08BEF93E036
:102E30000E949C116AE07DE08BEF93E00E949C1160
:102E400063EF7CE08BEF93E00E949C1164E170E003
:102E500080E090E00E94E7086DEB71E08E010F5F6B
:102E60001F4FC8010E94721261EC71E0CE01829680
:102E70000E947212B801CE0182960E94AE11CE015C
:102E800082960E945211C8010E9452116DEB71E0AE
:102E9000C8010E9472126FEC71E0CE0182960E940E
:102EA0007212B801CE0182960E94AE11CE018296B6
:102EB0000E945211C8010E9452116DEB71E0C801CD
:102EC0000E9472126BED71E0CE0182960E94721226
:102ED000B801CE0182960E94AE11CE0182960E9468
:102EE0005211C8010E94521168ED7CE08BEF93E013
:102EF0000E94930A19A283E488A383E38F8FBE0103
:102F0000615E7F4F8BEF93E00E945A118BEF93E04D
:102F10000E9469116AE070E080E090E00E94E7089A
:102F2000109288058CE38093870510927E0510929D
:102F30007F05E2EDFCE0A590B490E4EDFCE0D490D8
:102F4000E5EDFCE0E491E0938005E6EDFCE0E49142
:102F5000E0938105E7EDFCE0E491E0938205F12C3C
:102F6000E12CED1460F4F501EE0DFF1D64918AE78C
:102F700095E00E94E70A2FEFE21AF20AF2CF1092D0
:102F800084058AE795E00E94E70C809181058034F2
:102F900039F48AE795E00E94E70C81E0809384058C
:102FA0008EEB97E090938605809385058AE795E000
:102FB0000E94E70C63EB77E08BEF93E00E949C119B
:102FC0006AE070E080E090E00E94E70888E39DE01E
:102FD00090938605809385058BEF93E00E9469119D
:102FE00068EE71E0C8010E947212C8010E946D1162
:102FF000C8010E9452116AE070E080E090E00E94F7
:10300000E70865E671E0CE0188960E947212F8E04A
:10301000CF2ED12CEE24E394FC2CE0929A03C092A4
:1030200099031092AC031092AB0381EF94E00E94DD
:10303000080F8111A8C068EF71E0C8010E947212E8
:10304000C8010E949109C8010E94521160E072E01B
:10305000C8010E947212C8010E949109C8010E9411
:1030600052111BA21AA21DA21CA21FA21EA240E165
:10307000B801C6010E94E01CF80101900020E9F7A8
:103080003197AF01401B510BB801CE0182960E94CF
:10309000511288A599A5009709F453C06AA17BA194
:1030A0006115710509F44BC04AA55BA52EA13FA18E
:1030B0004217530708F443C00E943A1F8EA19FA1F4
:1030C0009DA78CA71FA21EA2CE0182960E9452111C
:1030D000CE0188960E9413121A8219821C821B82CA
:1030E0001E821D8268A579A56115710529F04CA580
:1030F0005DA5C8010E945112C8010E949109C80132
:103100000E94521165E072E0C8010E947212C8016B
:103110000E946D11C8010E945211E8ECEF0DE830D9
:1031200008F07FC2F0E0E956F74E0C94411DB2184A
:10313000051B051B051B081B0B1B111B0E1B0E94EF
:10314000E31D8AA19BA199A788A78CA19DA19BA7FC
:103150008AA78EA19FA19DA78CA71BA21AA21DA220
:103160001CA2B0CF69E072E0C8010E947212C801CF
:103170000E946D11C8010E94521161E070E080E070
:1031800090E00E94E7083FEFC31AD30A88E7C81609
:10319000D10409F041CF67E472E0C8010E947212C5
:1031A000C8010E946D11C8010E9452116AE070E0CE
:1031B00080E090E00E94E708CE0188960E945211BC
:1031C00069E572E0C8010E947212C8010E9491096B
:1031D000C8010E94521189E380939F040E94820DCE
:1031E0008CE994E00E942811F12CE12CCC24C394AA
:1031F000D12C90919E0456010E2C01C0AA0C0A9469
:10320000EAF72A2D2095922390939E0480919C04A6
:10321000822380939C048CE994E00E942C1080917E
:103220009C048A2980939C048CE994E00E942C10D1
:103230009FEFE91AF90AA8E0EA16F104D1F664E66C
:1032400070E080E090E00E94E70883E892E19093CC
:103250006B0580936A058FE491E090935E058093FF
:103260005D056FEF7FEF8DEF94E00E944510609158
:103270006D05613208F060E280916C050E94BA0D24
:103280001092AE038093AD0380917005909171050B
:10329000DC01ED91FC910284F385E02D099590937A
:1032A0006F0580936E0580916D058230B8F0809136
:1032B000700590917105DC01ED91FC910284F3851C
:1032C000E02D099520E0382F80916E0590916F05D3
:1032D000822B932B90936F0580936E0588E893E182
:1032E000909368058093670582E390E0909366056C
:1032F0008093650568E672E0C8010E947212C801F9
:103300000E946D11C8010E94521140E16FE370E00C
:10331000CE0188960E94D912CE0188960E9413127F
:1033200060E772E0C8010E947212ECA4FDA4C8A478
:10333000D9A4C114D10409F477C1E114F104B1F0A6
:103340008D819E81E80EF91EB701C8010E942912E5
:10335000882309F469C129813A818D819E81B60152
:10336000820F931F0E943A1FFE82ED821BA21AA2B7
:103370001DA21CA21FA21EA269817A81611571057E
:1033800031F04D815E81CE0182960E945112CE01B4
:1033900082960E946D11CE0182960E945211C80140
:1033A0000E9452118FE38093BE040E94820D8BEB2A
:1033B00094E00E9428112091BD04EE24E394F12CA6
:1033C000C7010090000102C0880F991F0A94E2F71C
:1033D000922F982B9093BD049091BB0480958923E4
:1033E0008093BB048BEB94E00E942C1000900001B2
:1033F00002C0EE0CFF1C0A94E2F780919B0381113E
:1034000017C18091BB04E094E822E092BB048BEBEF
:1034100094E00E942C106EE772E0C8010E947212C4
:10342000C8010E949109C8010E94521160910001D7
:10343000709101014AE0C8010E94D912C8010E949E
:103440009109C8010E94521166E872E0C8010E9409
:103450007212C8010E949109C8010E945211609124
:103460009B0370919C034AE0C8010E94D912C801D5
:103470000E949109C8010E9452111A8219821C826D
:103480001B821E821D8266E170E0C8010E94291223
:103490008111D2C0C8010E944011C8010E946D1163
:1034A000C8010E945211CE0188960E94521160ED0F
:1034B00077E080E090E00E94E70862E070E080E062
:1034C00090E00E94E7086DEB71E0CE0182960E94C9
:1034D000721260E972E0C8010E947212BE016E5D54
:1034E0007F4FC8010E94AE11C8010E945211CE0147
:1034F00082960E9452118BEF93E00E9469116BE952
:1035000072E0C8010E947212C8010E946D11C801C8
:103510000E94521156E0452E60E0262E60E0362EC5
:10352000662463940E941909C0909804D09099046D
:10353000E0909A04F0909B046C197D098E099F0914
:10354000683873418105910550F00E941909609314
:1035500098047093990480939A0490939B046092CA
:1035600069050E941909C0905905D0905A05E0904C
:103570005B05F0905C05AB01BC014C195D096E095F
:103580007F098091650590916605B0E0A0E0841701
:103590009507A607B70708F45AC0109269050E945C
:1035A000F107882309F446C10E9419096093720546
:1035B0007093730580937405909375058091DA0478
:1035C000882309F4B8C10E94F107882309F499C13E
:1035D00060EA7FE080E090E00E94E7088091BB0411
:1035E00080648093BB048BEB94E00E942C1069EA0A
:1035F00072E0C8010E947212C8010E946D11C801D8
:103600000E94521160929D0329C16AE172E0ACCD23
:1036100064E272E0A9CD64E372E0A6CD69E372E0F2
:10362000A3CD6FE372E0A0CDC8010E9440119ECEF1
:103630008091BB04E82AE9CE86E190E09E838D83E9
:103640006EE17FE089819A810E94C31C26CF712C94
:1036500080916405781608F057C0A72CB12CE09132
:103660006105F0916205EA0DFB1D40E060818DEF80
:1036700094E00E948810C12CD12C7601C394072CB1
:1036800004C0CC0CDD1CEE1CFF1C0A94D2F74601D2
:10369000C094D094512C80916305581630F5E52CD8
:1036A000F12CE0915F05F0916005EE0DFF1D60814A
:1036B0008DEF94E00E94D610F7013496892B61F4C7
:1036C000EE0FFF1FE350FB4F8081918188299929DC
:1036D000918380835394DFCFEE0FFF1FE350FB4FA6
:1036E000808191818C219D21F3CF80916105909102
:1036F0006205A80EB91E41E0D5016C918DEF94E0F2
:103700000E9488107394A4CF9DEFC92E94E0D92E07
:103710007601F701878D90A1892B31F4148E2FEF5C
:103720003FEF368F258F11A236E0E30EF11C89E3BF
:1037300095E08E159F0569F7B12C80916305B81649
:1037400008F052C0A12C8B2C912C880C991CD40110
:10375000AB5FBA4F4D0120916405A21608F042C03C
:10376000F401608171810A2C02C0769567950A94F4
:10377000E2F7B29E900111242A0D311DEDEFF4E025
:1037800080E0458D568D2417350709F4E6C08F5F1C
:1037900036968A30B1F760FF23C0EDEFF4E090E099
:1037A00080E0448D411117C0E0915D05F0915E0508
:1037B000E20FF31F4081489EF001499EF00D112455
:1037C000E350FB4F448F368F258F10A2178E61E098
:1037D0000E94250905C0019636968A30910509F7A1
:1037E000A394B9CFB394A9CFB12CD60191968C9163
:1037F0008111B82EB6E0CB0ED11CCE14DF04A9F790
:103800000E9419096093590570935A0580935B05CE
:1038100090935C05BB2009F4C0CE80911E058823DF
:1038200009F4BBCE80911C0590911D05019709F00C
:10383000B4CEB5CE0E941909C0907205D090730520
:10384000E0907405F09075056C197D098E099F094B
:1038500061347F418105910508F0A6CE0E941909C7
:10386000C0907605D0907705E0907805F0907905C6
:103870006C197D098E099F09603177428105910598
:1038800020F10E9419096093760570937705809363
:103890007805909379058091DA04882309F44EC065
:1038A0006AED74E0C8010E947212C8010E946D1195
:1038B000C8010E9452110E94190960937605709305
:1038C0007705809378059093790580919D038823EF
:1038D000C1F169EB72E0C8010E947212C8010E9436
:1038E0006D11C8010E9452116BED72E08BEF93E0F5
:1038F0000E948A1164EF71E080E090E00E94E70886
:10390000F9CF62EB72E0C8010E947212C8010E94F6
:103910006D11C8010E9452111092EE041092DA0447
:103920000E94190960937605709377058093780556
:103930009093790593CF0E94EC1190CF0E94EC11E7
:10394000C4CF2114310409F4EDCD0E94100A88235C
:1039500009F4E6CD0E940000E3CD617039CF89E81B
:1039600095E00E9452118FE895E00E94521185E97E
:1039700095E00E9452118BE995E00E94521181EA74
:1039800095E00C945211FB01DC0105900D92002092
:10399000E1F708954532510520F4423010F00C94BF
:1039A000D51CFB011082CB010895BB274A3031F4AE
:1039B000992322F4BDE2909581959F4F0C94E11CD0
:1039C000BB27FB015527AA27880F991FAA1FA417F9
:1039D00010F0A41B83955051B9F7A05DAA3308F0ED
:1039E000A95DA193009779F7B111B1931192CB0121
:1039F0000C94FA1CDC01FC01672F71917723E1F72D
:103A0000329704C07C916D9370836291AE17BF07AB
:103A1000C8F308952F923F924F925F926F927F92D8
:103A20008F929F92AF92BF92CF92DF92EF92FF92CE
:103A30000F931F93CF93DF93CDB7DEB7CA1BDB0B7A
:103A40000FB6F894DEBF0FBECDBF09942A8839881F
:103A500048885F846E847D848C849B84AA84B98426
:103A6000C884DF80EE80FD800C811B81AA81B98132
:103A7000CE0FD11D0FB6F894DEBF0FBECDBFED0146
:103A80000895EE0FFF1F0590F491E02D09940F9318
:103A90001F93CF93DF938230910510F482E090E082
:103AA000E091A905F091AA0530E020E0B0E0A0E0A7
:103AB000309799F42115310509F44AC0281B390BB8
:103AC00024303105D8F58A819B816115710589F112
:103AD000FB0193838283FE0111C0408151810281E9
:103AE000138148175907E0F04817590799F41097C0
:103AF00061F012960C93129713961C933296CF0195
:103B0000DF91CF911F910F9108950093A905109314
:103B1000AA05F4CF2115310551F04217530738F0AB
:103B2000A901DB019A01BD01DF01F801C1CFEF015D
:103B3000F9CF9093AA058093A905CDCFFE01E20F9E
:103B4000F31F819391932250310939832883D7CF72
:103B50002091A7053091A805232B41F4209109015C
:103B600030910A013093A8052093A7052091070101
:103B7000309108012115310541F42DB73EB7409130
:103B80000B0150910C01241B350BE091A705F0911E
:103B9000A805E217F307A0F42E1B3F0B28173907DF
:103BA00078F0AC014E5F5F4F2417350748F04E0F99
:103BB0005F1F5093A8054093A705819391939FCFD2
:103BC000F0E0E0E09CCFCF93DF930097E9F0FC01B9
:103BD000329713821282A091A905B091AA05ED0136
:103BE00030E020E01097A1F420813181820F931FF3
:103BF0002091A7053091A8052817390709F061C061
:103C0000F093A805E093A705DF91CF910895EA010D
:103C1000CE17DF07E8F54A815B819E01411551050A
:103C2000B1F7E901FB83EA8349915991C40FD51F8C
:103C3000EC17FD0761F4808191810296840F951F36
:103C4000E90199838883828193819B838A83F0E051
:103C5000E0E012968D919C9113970097B9F52D9104
:103C60003C911197CD010296820F931F2091A705D9
:103C70003091A8052817390739F6309751F5109279
:103C8000AA051092A905B093A805A093A705BCCFDB
:103C9000D383C28340815181840F951FC817D907F0
:103CA00061F44E5F5F4F88819981480F591F51839E
:103CB00040838A819B81938382832115310509F09A
:103CC000B0CFF093AA05E093A9059ECFFD01DC01DA
:103CD000C0CF13821282D7CFB0E0A0E0E2E7FEE1CE
:103CE0000C940C1D8C01009751F4CB010E94471DD0
:103CF0008C01C801CDB7DEB7E0E10C94281DFC01B2
:103D0000E60FF71F9C0122503109E217F30708F470
:103D10009DC0D901CD91DC911197C617D70798F0B6
:103D2000C530D10530F3CE0104978617970708F305
:103D3000C61BD70B2297C193D1936D937C93CF0170
:103D40000E94E31DD6CF5B01AC1ABD0A4C018C0E5C
:103D50009D1EA091A905B091AA05512C412CF12CD2
:103D6000E12C109731F58091A7059091A805881551
:103D7000990509F05CC04616570608F058C08091B6
:103D8000070190910801009741F48DB79EB74091CB
:103D90000B0150910C01841B950BE817F90708F0F3
:103DA00055C0F093A805E093A705F90171836083DE
:103DB000A0CF8D919C91119712966C9012971396AB
:103DC0007C901397A815B90559F56C0142E0C40E13
:103DD000D11CCA14DB0420F1AC014A195B09DA01D9
:103DE0001296159780F06282738251834083D901C5
:103DF0006D937C93E114F10471F0D7011396FC9359
:103E0000EE93129776CF22968C0F9D1FF901918326
:103E10008083F301EFCFF093AA05E093A90569CF62
:103E20004816590608F42C017D01D3019ACFCB0125
:103E30000E94471D7C01009749F0AE01B8010E9425
:103E4000311FC8010E94E31D870153CF10E000E03D
:103E500050CF9111089581568A5108F480528558A7
:103E60000895FB01DC0102C001900D9241505040C9
:103E7000D8F70895FB01DC0101900D920020E1F7D5
:103E8000089517E0C4ECD7E004C0FE010E94411D74
:0C3E90002196C53CD107C9F7F894FFCF7C
:103E9C00060000010203040000AB0580006B006CFF
:103EAC00006D0000000000460AA609D309B20A04FE
:103EBC000AE209F60900000000D90EAC0EA3108925
:103ECC000E030D990E8A0E000000005D0BA609A3CF
:103EDC00108209EF0F0000000081098810D61052E3
:103EEC004742570D0A002142722C002C446F6E651C
:103EFC002E000A0A0A002020456E74657220436F5A
:103F0C0064652E2E00484F4C443A2000474C5F53BA
:103F1C00545F434F4C4F525F434F44450031302E5A
:103F2C0030352E323032310076657273696F6E2007
:103F3C00312E305354004272434F4C4F520048497B
:103F4C004400524747425747524257470053595330
:103F5C0000216865616465725F626567696E002146
:103F6C006865616465725F656E6400217365747564
:103F7C00705F626567696E002020204932432053D0
:103F8C0063616E6E65723A00466F756E643A20001E
:103F9C002028307800292020004B6579706164203E
:103FAC002864656661756C7429004B657970616471
:103FBC002F494F004F6C656420202864656661753D
:103FCC006C7429004F6C65640052656C6179005506
:103FDC006E6B6E6F776E00493243207363616E2097
:103FEC00636F6D706C657465004B657970616420EE
:103FFC00696E69742E2E2E0073756363657373007E
:10400C0072656C6179696E6974206F6E20005265FF
:10401C006C6179205B005D2073657420746F2000E7
:10402C002173657475705F656E64000A3D3D3D5388
:10403C00544152543D3D3D0A000A436F7272656310
:10404C0074000A57726F6E670047616D6520436F8D
:10405C006D706C6574650A57616974696E6720666A
:10406C006F72207265737461727400456E642047C0
:10407C00616D652C20506C6561736520726573747D
:10408C00617274207468652061726475696E6F2149
:02409C00000022
:00000001FF
