:100000000C94340C0C945C0C0C945C0C0C94DE186A
:100010000C94B9180C9494180C945C0C0C945C0C13
:100020000C945C0C0C945C0C0C945C0C0C945C0CB0
:100030000C945C0C0C945C0C0C945C0C0C945C0CA0
:100040000C94F2170C945C0C0C9462180C943C18F1
:100050000C945C0C0C945C0C0C945C0C0C945C0C80
:100060000C9403190C945C0CAEB08180A1A6A83F3F
:10007000AD8B32C8D300D580D91FDA12DB40AF2058
:1000800020000000000023002600290000030C0FC0
:1000900030333C3FC0C3CCCFF0F3FCFF5363616E01
:1000A0006E696E672E2E2E00493243207363616E97
:1000B0006E65723A00202020202020202020454E0E
:1000C00047494E454552494E470014400A0B2060AF
:1000D00002020306060807010303040602030105E2
:1000E00005050606050605050506020305050604C1
:1000F0000A070605060505070602040504090707A1
:10010000050706050507050906050603030304059B
:100110000205050405050405050203040209050599
:100120000505030503050408050505030304050685
:1001300000000000601E2000080608000000C878CB
:100140004EC8784E200000200000800C1222C3040C
:100150000060202000000C92522CD02824C22000E5
:10016000000000202000C0201C32CAC42000202033
:10017000200000200800E01C0260800000827C80DB
:10018000600014380E14000000002020E038202009
:10019000000000000000000080602020200000001F
:1001A000002080601806012000000000F00C02C250
:1001B0003C00202000000004E21E0020202020201F
:1001C00000804422120C20202020200080001412E5
:1001D000F20C002020200000605048E45E00000087
:1001E000200080181612E202002020200000E018F3
:1001F000149262002020000002C2320A0620000091
:100200000000E01C12F20C0020200000001824A2C4
:10021000621C202020000000000820000000088050
:100220006000205050508800000000005050505096
:100230005000000000008088505050200000000056
:1002400000006212120C20000000E0180424524A40
:100250007A4A221C0020404040404000000000C07C
:10026000704C427CC020000000000020E01E1212F2
:1002700012EC202020202000F00C0202820020201E
:100280002000E01E0202C23C202020200000E01ED0
:100290001212122020202020E01E12121220000034
:1002A0000000F00C020212D23400202020200000B6
:1002B000E01E1010F01E200000002000E01E2000B4
:1002C0000000E01E20200000E01E30C804200000D6
:1002D0000020E01E000020202020E01E0678806024
:1002E00018E61E200000002000002000E01E0C3058
:1002F000C0E01E20000000002000F00C020202C23C
:100300003C00202020200000E03E22221C20000093
:100310000000F00C020202C23C00202020202040FD
:10032000E01E1232D20C200000002000800C1222AD
:10033000C2002020200002E21E0202002000000075
:10034000E01E000000E01E00202020200000FE80B3
:1003500060100C20000000003EC060180EF040301D
:100360000C00200000002000000000804678880477
:1003700020000000200006D8201804002000000003
:10038000804222120A06202020202000C03E02E0E7
:10039000800007F8000000E000C23E80E000100C82
:1003A000021C0000000000000000008080808080AF
:1003B00001020000E01008C8380020202000C03EE4
:1003C0000888702020200000E0100888002020000D
:1003D000E01008C83E0020202000E030282810004F
:1003E000202020000088780C80600000E01008C801
:1003F0003880A0A06000C03E08C830200000200067
:10040000C03A200000C03A806000C03EE0102000EA
:100410000020C03E2000C0381008C83008C8302076
:100420000000002000002000C03808C83020000074
:100430002000E0100888700020200000C0380888E4
:1004400070E020200000E01008C838002020E00004
:10045000C03808200000001028C808202020000014
:10046000C83C08002020C03800C0380020202000F0
:10047000F880403020000000F8806010F8804030A4
:100480002000000020000000008870E01020000024
:10049000002000F800C0308040200000008848287C
:1004A00018202020202020E01E00E08000F00EE038
:1004B000000000C23E2080600000100808101000FC
:1004C00000000000FE025A0A02FE20202020202008
:1004D000534341504500450045414D200014610AF9
:1004E0000B2060020203060508080103030505024C
:1004F00003020505060505060505050505020205B5
:100500000505050A06060507050507070203060493
:10051000090707050806050607060A060605030576
:10052000030506020505040505030605020205028A
:100530000805050505030403050508050504030171
:1005400004050600000000BEBE20200E000E0000C4
:100550000048E85EE85E480020002000009C3E3332
:10056000F2E400206020000C128C6018C620C0004D
:1005700000200000002000C0EC3E327ECCE00000F5
:10058000202020200020200E00F0FC060060C00685
:10059000FCF0C06000120C3F0C12000000000020B4
:1005A00020F8202000000000008080E06020202053
:1005B000000000808020200080700C03C02000001C
:1005C00000FCFE02FEFC00202020000804FEFE00CD
:1005D0000020202020202084C2623E1C20202020D9
:1005E00020841212FEEC0020202000605846FEFEFF
:1005F000400000002020001E1E12F2E220202020D9
:1006000000FCFE12F2E2002020200002C2FA3E06A8
:100610000020200000ECFE12FEEC00202020001C38
:100620003E22FEFC2020202000989820209898E070
:1006300060205050888800000000005050505050FA
:1006400000000000008888505020000000000002D8
:10065000B2B21E0C0020200000F00864928A4AF218
:100660009A847800204040404040000000E0F84E6E
:100670004EF8E0202000002020FEFE1212FEEC20AA
:100680002020202000FCFE0202840020202000FE0A
:10069000FE020286FC7820202020200000FEFE12B0
:1006A00012122020202020FEFE1212122020000014
:1006B00000FCFE020222E2E400202020202000FEB6
:1006C000FE101010FEFE20200000002020FEFE2064
:1006D0002000FEFE202000FEFE30FCCE0220200086
:1006E000002020FEFE000020202020FEFE1C70C006
:1006F000701CFEFE202000002000002020FEFE0CCA
:1007000030C0FEFE20200000002020FCFE0202027D
:10071000FEFC00202020202000FEFE223E1C202087
:10072000000000FCFE020202FEFC0000202020204F
:10073000204040FEFE1232FECC2020000020209CF3
:100740003E32F2E400202020000202FEFE020200FF
:100750000020200000FEFE000000FEFE0020202001
:100760002020000E7EE0E07E0E000020200000062B
:100770003EF8C03E3EC0F83E0600002020000020AB
:1007800020000086CE7878CE86202000002020062B
:100790001EF8F81E0600002020000082E27A1E06E5
:1007A0002020202020FEFE02E0E080030C7080006C
:1007B00000000020C002FEFE80E0E0100C020C10E1
:1007C00000000000000000000000008080808080A9
:1007D0008001020000C8E828F8F00020202020FE58
:1007E000FE08F8F02020202000F0F8080800202063
:1007F00020F0F808FEFE0020202020F0F8283830F5
:100800000020202020FCFE0A202000B0F848783884
:1008100008C0E0A0E06000FEFE08F8F02020002004
:1008200020FBFB2020FBFBE060FEFE60F898202010
:10083000002020FEFE2020F8F808F8F008F8F0204C
:1008400020002020002020F8F808F8F020200020C8
:1008500020F0F808F8F00020202000F8F808F8F060
:10086000E0E0202000F0F808F8F8002020E0E0F8B0
:10087000F8082020003078E8C820202000FCFC0880
:10088000002020F8F800F8F8002020202038F88018
:10089000F838002020200038F8C03838C0F8380078
:1008A0002020000020200098F860F89820200020E8
:1008B0002038F880F83800C0E0200088E878182058
:1008C000202020FCDE0260E080FEE002DEFC2080D2
:1008D000E0600010081810080000000000FE026A26
:1008E0003A02FE202020202020202020202054001A
:1008F00022080D0E20600402050607080902030302
:10090000050802040204070407070707070707078B
:100910000202070707080E09080808070709080266
:100920000708070B0809070909070808090D070840
:10093000080404040608030707060707050707025B
:100940000306020A0707070705060507070B060740
:100950000505010507080000000000000000FEFE7C
:1009600018181E1E001E1E000000000090F89E9029
:10097000F89E1C00001C0000183C26FF66CC880472
:100980000C183C180C041C221CC0308E4080000047
:100990001804000C100C80CC7E72F2DE0C80000C6F
:1009A0001C1010101C0C1C101E1E0000F0FC061C5D
:1009B0007CC006FCF0C07C1C14140E141400000053
:1009C0000000606060FCFC6060600000000C0C00D7
:1009D000000000005838C0C0C0C000000000000087
:1009E000181800C0380618040000F8FC0E060EFCAB
:1009F000F8040C1C181C0C04180CFEFE00001C1C37
:100A0000181C86C6663E1C181C1C18181818888CE2
:100A1000062626FEDC040C1C18180C04C0E0B88C5A
:100A2000FEFE80040404041C1C04707E3E3636F670
:100A3000C60C1C1818180C04F8FC6E6666EECC0484
:100A40000C1818181C0C060606E6761E0600001C7C
:100A50001C0000009CFE666666FE9C0C1C181818A4
:100A60001C0C3C7E666666FCF80C1C18181C0C04FA
:100A700018181818181858386060F0F098980C007A
:100A800000000004040CD8D8D8D8D8D8D80000006A
:100A9000000000000C9898F0F060600C0404000066
:100AA0000000080C06C6E6763C1800000018180086
:100AB0000000E03008C4F63A1A1AF2FA7E0408F090
:100AC0000C30604C9C98988C9C9C90484C2000C0AA
:100AD000F8BE86BEF8C000181C04040404041C18E8
:100AE000FEFE66666666FEDC1C1C181818181C0CD8
:100AF000F8FC0E06060E9C08040C1C18181C0C04AE
:100B0000FEFE0606060EFCF81C1C1818181C0C0429
:100B1000FEFE66666666661C1C1818181818FEFE2F
:100B200066666666061C1C0000000000F8FC0E06E7
:100B300006C6CEDCC8040C1C181818180C04FEFEDF
:100B400060606060FEFE1C1C000000001C1CFEFEBD
:100B50001C1C8080000000FEFE0C1C1818181C0CC9
:100B6000FEFE603078EC86021C1C000000041C189D
:100B7000FEFE00000000001C1C1818181818FEFECD
:100B80000E7CE000E07C0EFEFE1C1C00000C1C0C29
:100B900000001C1CFEFE1C78E080FEFE1C1C0000F9
:100BA000040C1C1CF8FC0E0606060EFCF8040C1CBB
:100BB0001818181C0C04FEFE6666667E3C1C1C00A1
:100BC00000000000F8FC0E0686060EFCF8040C1C63
:100BD00018181C0C1C24FEFE6666E6E6BE1C001CF3
:100BE0001C0000000C1C18103C7E666666EECC0CE7
:100BF0001C1818181C0C060606FEFE060606000049
:100C0000001C1C000000FEFE00000000FEFE040CA4
:100C10001C18181C0C04021EFCE000E0FC1E020064
:100C200000001C1C1C00000006FEF800F0FE0EFE7A
:100C3000F000F8FE0600001C1C1C0000001C1C1C20
:100C40000000060EF8F0F80E06181C0400041C182C
:100C5000060E38F0F0380E060000001C1C000000E4
:100C6000060686E6761E0E06181C1C18181818189C
:100C7000FEFE0606FCFCC0C00638C00000000418DA
:100C80000606FEFEC0C0FCFC20380E0E3820000018
:100C90000000000000000000000000008080808054
:100CA000808080800206040000001098D858F8F078
:100CB000000C1C18180C1C10FEFE301838F0E01C3C
:100CC0001C0C181C0C04E0F018183830040C181810
:100CD0001C0CE0F0381830FEFE040C1C180C1C1C18
:100CE000E0F0D8D8D8F0E0040C181818180818FC50
:100CF000FE1A1A001C1C0000E0F0381830F8F864E6
:100D0000ECDCD8CCFC7CFEFE301818F8F01C1C0083
:100D100000001C1CFAFA1C1C00FAFAC0FC7CFEFE47
:100D2000E0F098081C1C00041C18FEFE1C1CF8F8BF
:100D30001018F8F01818F8F01C1C00001C1C00001B
:100D40001C1CF8F8301818F8F01C1C0000001C1CC3
:100D5000E0F0381838F0E0040C1C181C0C04F8F80B
:100D6000301838F0E0FCFC0C181C0C04E0F03818CB
:100D700030F8F8040C1C180CFCFCF8F83018181C9F
:100D80001C00000070F8D8D8D890081818181C0C4F
:100D900018FCFE1818000C1C1818F8F8000000F8D1
:100DA000F80C1C18180C1C1C38F8C000C0F83800CF
:100DB000001C1C1C000018F8E000F038F000E0F8FF
:100DC0001800001C1C0C000C1C1C00001838E0E073
:100DD0003818181C04041C1818F8E000E0F8180073
:100DE00084FCF83C04001898D878381C1C18181893
:100DF00080FC7E0606007CFCC0C0FEFC06067EFC75
:100E000080C0C0FC7C00603030706060300000004A
:100E100000000000FE020202020202FE1C1010107E
:100E20001010101C000005072061000000000000E9
:100E3000005F00000007000700147F147F14242ABD
:100E40007F2A122313086462364955225000050395
:100E50000000001C2241000041221C00082A1C2A1C
:100E60000808083E08080050300000080808080874
:100E7000006060000020100804023E5149453E0019
:100E8000427F400042615149462141454B3118148F
:100E9000127F1027454545393C4A494930017109BF
:100EA00005033649494936064949291E00363600A8
:100EB00000005636000000081422411414141414C3
:100EC00041221408000201510906324979413E7E4F
:100ED0001111117E7F494949363E414141227F41EE
:100EE00041221C7F494949417F090901013E414195
:100EF00051327F0808087F00417F41002040413F78
:100F0000017F081422417F404040407F0204027F5D
:100F10007F0408107F3E4141413E7F090909063E9A
:100F20004151215E7F09192946464949493101014C
:100F30007F01013F4040403F1F2040201F7F20187D
:100F4000207F631408146303047804036151494546
:100F50004300007F4141020408102041417F00000E
:100F6000040201020440404040400001020400200D
:100F7000545454787F4844443838444444203844D6
:100F800044487F3854545418087E09010208145408
:100F9000543C7F0804047800447D40002040443DD8
:100FA00000007F10284400417F40007C0418047832
:100FB0007C0804047838444444387C141414080829
:100FC0001414187C7C080404084854545420043F2A
:100FD0004440203C4040207C1C2040201C3C4030B1
:100FE000403C44281028440C5050503C4464544C1D
:100FF00044000836410000007F0000004136080030
:1010000008082A1C08081C2A08080006090906689E
:101010000017804002202020202020272E5F5F5FC5
:101020005F5F2E272020200020202020205C202011
:10103000272D2D2D2720202F2000202020207C2030
:10104000205C20202020202F20207C002020202019
:101050007C20202020202020202020207C200020F8
:10106000202020202F20206F2020206F20205C2097
:10107000002020202020202E272020202020272E66
:101080002020200020202020202020205F5F5F5F84
:101090005F202020202000202020202020272E5FDD
:1010A0005F5F5F5F2E272020200020202020205C13
:1010B00020202F2020205C20202F00202020207C9A
:1010C000202020205F5F5F202020207C2000202027
:1010D00020207C20202020202020202020207C2058
:1010E0000020202020202F20206F2020206F202073
:1010F0005C20002020202020202E272020202020BF
:10110000272E2020200020202020202020205F5F6C
:101110005F5F5F2020202020001C620A0C206002FC
:10112000020508070D080204040507020402060769
:101130000607070707070707070202070707050A49
:10114000070707080606080804060707090809072D
:101150000908070808070C0708060406040809031D
:101160000606060606050606020407020A06060625
:101170000605050506060A06060506020608090014
:101180000000007E7E3030070700070700000000E7
:1011900000C0D8F8DED8F8DE1800300000300000BB
:1011A00000387C64FF64E4C8102020F02030103C3C
:1011B0007E427E3CC02018E6F010F0E00000000007
:1011C000300000001030203010DCFE227EDC806019
:1011D00020103020202010302007070000F8FE07E4
:1011E000011070E0800107FEF880E07010120C3FE3
:1011F0000C120000000000202020FC202020000015
:1012000000100000000000F07020202020000000EE
:1012100000000030300080E07C1F03C0F030000090
:1012200000FCFE020202FEFC1030202020301004E0
:1012300004FEFE0000202030302020040682C2621E
:101240003E1C203030202020200406222222FEDCFA
:1012500010302020203010C0A09884FEFE800000B6
:101260000000303000001E1E1212F2E2103020206A
:10127000203010F8FC161212F2E01030202020303E
:1012800010020282E27A1E0600203010000000DC0C
:10129000FE222222FEDC103020202030103C7E4234
:1012A0004242FEFC00202020301000181830301878
:1012B00018F07060609090080804000000001010A2
:1012C000209090909090909000000000000000040A
:1012D0000808909060602010100000000004627206
:1012E0001E0C0030300000F00CF4FA0AFAFA040C7C
:1012F000F00030205050505010100080F8FE86FE54
:10130000F88030300000003030FEFE22223EFCC06B
:1013100030302020203010F8FC06020202040010B9
:101320003020202010FEFE02020206FCF8303020A1
:101330002020301000FEFE222222223030202020E9
:1013400020FEFE22222222303000000000F8FC069F
:10135000024242C2C40010302020203030FEFE2065
:10136000202020FEFE303000000000303002FEFE63
:10137000022030302000020202FEFE202020203019
:1013800010FEFE70D88C060230300000103020FEB7
:10139000FE000000000030302020202020FE0E3C07
:1013A000F0C0300CFEFE300000000000003030FEC7
:1013B000061C38E0C000FE3000000000103030F89D
:1013C000FC0602020206FCF800103020202030103B
:1013D00000FEFE4242427E3C30300000000000F839
:1013E000FC0602020206FCF80010302060E0B0901B
:1013F00080FEFE2262E2BE1C003030000000103091
:10140000201C3E322262E2C4102020202030100234
:101410000202FEFE0202020000003030000000FE68
:10142000FE00000000FEFE10302020202030100EB4
:101430007EF080F07E0E000030303000000E7EF036
:1014400080E03E3EE080F07E0E0000303000000084
:101450000030300000068EF870F88E063030000044
:10146000003030060E18F0F0180E06000000303084
:1014700000000002C2F23E0E02303020202020FF89
:10148000FF0101F0F08080031F7CE080000000007D
:1014900030F0C00101FFFF8080F0F010180C06064C
:1014A0000C18100000000000000000000000000008
:1014B00000000000808080808080808080010302A6
:1014C000000000C0E82828F8F0103020203030FF5D
:1014D000FF0808F8F0303020203010F0F808080835
:1014E00010103020202010F0F80808FFFF103020E6
:1014F000203030F0F8484878701030202020100854
:10150000FEFF09090030300000F0F80808F8F81074
:10151000B0A0A0F070FFFF0808F8F03030000030F5
:1015200030FBFB30300008FBFB8080F070FFFF6079
:10153000F098080030300000103020FFFF3030F805
:10154000F81008F8F01008F8F030300000303000E3
:10155000003030F8F80808F8F0303000003030F093
:10156000F80808F8F0103020203010F8F80808F8D3
:10157000F0F0F020203010F0F80808F8F8103020D3
:1015800020F0F0F8F81018183030000000307848DB
:10159000C888202020301008FEFE080800103020E7
:1015A00020F8F80000F8F810302020303038F8C06B
:1015B000C0F83800103030100078F880C03838C0DB
:1015C00080F8780030300000000030300018B8E0BB
:1015D000E0B81830300000303038F8C0C0F83800BB
:1015E00090F070100008C8E87818303020202020D3
:1015F00020FEDF0101000070F08080FFFFF0F001AD
:1016000001DFFE20208080F0700000E010102040FC
:101610008080700000000000000000FE0202020254
:10162000020202FE30202020202020203000000571
:10163000072060000000000000005F0000000700BD
:101640000700147F147F14242A7F2A1223130864AE
:101650006236495620500008070300001C22410052
:101660000041221C002A1C7F1C2A08083E08080092
:101670008070300008080808080000606000201032
:101680000804023E5149453E00427F4000724949EC
:1016900049462141494D331814127F1027454545CD
:1016A000393C4A49493141211109073649494936EE
:1016B000464949291E000014000000403400000083
:1016C00008142241141414141400412214080201B5
:1016D0005909063E415D594E7C1211127C7F4949E1
:1016E00049363E414141227F4141413E7F4949497E
:1016F000417F090909013E414151737F0808087F74
:1017000000417F41002040413F017F081422417F7A
:10171000404040407F021C027F7F0408107F3E4112
:1017200041413E7F090909063E4151215E7F091969
:101730002946264949493203017F01033F40404081
:101740003F1F2040201F3F4038403F631408146370
:1017500003047804036159494D43007F414141022C
:1017600004081020004141417F040201020440406E
:10177000404040000307080020545478407F28442C
:1017800044383844444428384444287F3854545416
:101790001800087E090218A4A49C787F0804047825
:1017A00000447D40002040403D007F102844000060
:1017B000417F40007C047804787C08040478384435
:1017C000444438FC1824241818242418FC7C0804E9
:1017D0000408485454542404043F44243C4040200A
:1017E0007C1C2040201C3C4030403C4428102844B5
:1017F0004C9090907C4464544C4400083641000066
:1018000000770000004136080002010204023C2675
:1018100023263C00000000240027002A00000000CE
:1018200000250028002B000404040404040404021E
:10183000020202020203030303030301020408106D
:10184000204080010204081020010204081020003A
:10185000000008000201000003040700000000006F
:1018600000000000221A312111241FBECFEFD8E062
:10187000DEBFCDBF25E0AAEAB2E001C01D92A337CA
:10188000B207E1F712E0A0E0B1E0E6E4F7E402C05D
:1018900005900D92AA3AB107D9F71CE0C3E3DCE04A
:1018A00004C02197FE010E949E21C233D107C9F7CF
:1018B0000E941C1B0C9496230C940000089508951C
:1018C00096E0899FD0011124A353BB4F90967C933F
:1018D0006E935F9791E091969C939197E0913A0572
:1018E000F0913B0590913905992339F0309751F0EB
:1018F000811108C08091E9040994309719F05C9631
:101900008C91FACF0895833081F028F4813099F0DA
:101910008230A9F008958730A9F08830C9F084306A
:10192000B1F4809180008F7D03C0809180008F771B
:1019300080938000089584B58F7784BD089584B521
:101940008F7DFBCF8091B0008F778093B00008959A
:101950008091B0008F7DF9CF1F93CF93DF93282F15
:1019600030E0F901E15BF74E8491F901E55CF74E57
:10197000D491F901E95DF74EC491CC23A9F0162F5B
:1019800081110E94830CEC2FF0E0EE0FFF1FE35E4D
:10199000F74EA591B4918FB7F894EC91111108C04E
:1019A000D095DE23DC938FBFDF91CF911F910895F7
:1019B000DE2BF8CFCF93DF9390E0FC01E55CF74E90
:1019C0002491895D974EFC0184918823C9F090E0B1
:1019D000880F991FFC01ED5EF74EA591B491FC01B3
:1019E000E35EF74EC591D49161110DC09FB7F89495
:1019F0008C91209582238C938881282328839FBFF4
:101A0000DF91CF910895623051F49FB7F8943C91E3
:101A1000822F809583238C93E8812E2BEFCF8FB775
:101A2000F894EC912E2B2C938FBFEACF3FB7F8940C
:101A30008091540390915503A0915603B0915703A0
:101A400026B5A89B05C02F3F19F00196A11DB11D19
:101A50003FBFBA2FA92F982F8827BC01CD01620F55
:101A6000711D811D911D42E0660F771F881F991F10
:101A70004A95D1F708958F929F92AF92BF92CF92DD
:101A8000DF92EF92FF924B015C010E94160D6B01F9
:101A90007C010E94160D6C197D098E099F09683E14
:101AA000734081059105A8F321E0821A9108A108ED
:101AB000B10888EEC80E83E0D81EE11CF11C811429
:101AC0009104A104B10429F7FF90EF90DF90CF902B
:101AD000BF90AF909F908F9008952FB7F89460912A
:101AE00050037091510380915203909153032FBF83
:101AF00008950F931F93CF93DF93C82FD62F86E0BF
:101B0000C89FF0011124E353FB4F11A2878D90A1D0
:101B100081309105F1F058F082309105F1F1039791
:101B200009F440C0DF91CF911F910F910895662372
:101B3000C9F361E070E08C2F0E94600C0E946D0D73
:101B400060932505709326058093270590932805BB
:101B5000E9CF0E946D0D0091250510912605209179
:101B6000270530912805AB01BC01401B510B620BCE
:101B7000730B8091370590913805B0E0A0E0841791
:101B80009507A607B70748F462E070E08C2FDF9155
:101B9000CF911F910F910C94600C63E070E0D11114
:101BA000C1CFF4CF70E060E0F1CF0895EF92FF92E3
:101BB0000F931F93CF93DF938C017B01D0E0C0E0A4
:101BC000F701EC0FFD1F6491662361F0D801ED91E0
:101BD000FC910190F081E02DC8010995892B11F04D
:101BE0002196EECFCE01DF91CF911F910F91FF9003
:101BF000EF900895AF92BF92CF92DF92EF92FF9253
:101C00000F931F93CF93DF936C017B018B01040F24
:101C1000151FEB015E01AE18BF08C017D10759F0C0
:101C20006991D601ED91FC910190F081E02DC60102
:101C30000995892B79F7C501DF91CF911F910F91FC
:101C4000FF90EF90DF90CF90BF90AF900895FB0191
:101C500044815581608171810C94FA0DFC01538D92
:101C6000448D252F30E0842F90E0821B930B541776
:101C700010F0CF96089501970895FC01918D828D03
:101C8000981761F0A28DAE0FBF2FB11D5D968C919C
:101C9000928D9F5F9F73928F90E008958FEF9FEFDB
:101CA0000895FC01918D828D981731F0828DE80F97
:101CB000F11D858D90E008958FEF9FEF0895FC0151
:101CC000918D228D892F90E0805C9F4F821B91091E
:101CD0008F73992708958CEA93E00E945F0E21E0AC
:101CE000892B09F420E0822F089580E090E0892B71
:101CF00029F00E946B0E81110C9400000895FC01E4
:101D0000A48DA80FB92FB11DA35ABF4F2C91848D5C
:101D100090E001968F739927848FA689B7892C93B9
:101D2000A089B1898C91837080648C93938D848D0C
:101D3000981306C00288F389E02D80818F7D80830F
:101D40000895EF92FF920F931F93CF93DF93EC01CF
:101D500081E0888F9B8D8C8D98131AC0E889F98952
:101D6000808185FF15C09FB7F894EE89FF89608355
:101D7000E889F98980818370806480839FBF81E0D6
:101D800090E0DF91CF911F910F91FF90EF90089518
:101D9000F62E0B8D10E00F5F1F4F0F731127E02EF3
:101DA0008C8D8E110CC00FB607FCFACFE889F9892B
:101DB000808185FFF5CFCE010E947F0EF1CFEB8DA4
:101DC000EC0FFD2FF11DE35AFF4FF0829FB7F894FF
:101DD0000B8FEA89FB8980818062CFCFCF93DF931D
:101DE000EC01888D8823B9F0AA89BB89E889F98933
:101DF0008C9185FD03C0808186FD0DC00FB607FC68
:101E0000F7CF8C9185FFF2CF808185FFEDCFCE019A
:101E10000E947F0EE9CFDF91CF910895CF93DF939A
:101E2000EC019C818E81981758F4E881F981008437
:101E3000F185E02D42E0CE0109958C818F5F8C8386
:101E4000DF91CF910895DC01ED91FC910084F18543
:101E5000E02D40E009940F931F93CF938C01FC0178
:101E60006483C085C60F6C2F6F700E94230F6C2F88
:101E700062956F706061C801CF911F910F910C94B2
:101E8000230FFC012781269526952695621720F4BD
:101E90006583606B0C94230F08951F93CF93DF939A
:101EA000EC01142F8E81681718F4CE010E942B0FBD
:101EB000612FCE01DF91CF911F910C94410FCF92F2
:101EC000DF92EF92FF920F931F93CF93DF93EC017A
:101ED000162FC42ED22E8F8186958695869508174B
:101EE00010F00FEF080FFD2C0F15B0F08E811817B2
:101EF00020F4612FCE010E942B0F6F2DCE010E9486
:101F0000410FE12ECE1430F060E0CE010E940E0FA2
:101F1000E394F8CFF394E8CF4D2D612FCE01DF91FC
:101F2000CF911F910F91FF90EF90DF90CF900C9485
:101F30004D0F0F93009149050695069506950150A2
:101F400040914805415020E060E082E495E00E9425
:101F50005F0F81E090914C05911101C080E080936A
:101F60004C0560E482E495E00F910C94230F2F92CE
:101F70003F924F925F926F927F928F929F92AF9219
:101F8000BF92CF92DF92EF92FF920F931F93CF9366
:101F9000DF9300D000D01F92CDB7DEB7DC011B96D7
:101FA0000D911C910115110509F468C19D838C8365
:101FB000F801449131965491319664903196249170
:101FC000E22EF12CF7E0EF0EF11C73E0F594E794AC
:101FD0007A95E1F7E982F801349634913196E491EB
:101FE000631748F08E2F90E0FC01E30FF11D6E1790
:101FF0001F060CF487C06D3031F5AC81BD8116969B
:102000008C9181111AC081E090E00F900F900F9099
:102010000F900F90DF91CF911F910F91FF90EF9054
:10202000DF90CF90BF90AF909F908F907F906F90F8
:102030005F904F903F902F90089560E08C819D813C
:102040000E942B0FE0CF6A3009F018C1EC81FD81AE
:102050008185D5808E9DD00C1124878186958695AB
:102060008695D81630F08285882319F082E0828721
:10207000D12C4D2D60E08C819D810E944D0FAC8153
:10208000BD811A968C911A97823008F4BCCF1596B0
:102090002C9115971B96ED91FC911C9700E03097C1
:1020A00039F03396E49119960C91E09F002D11249C
:1020B00010E0095F1F4F33E0159507953A95E1F75A
:1020C0008FEF820F080FEC81FD81468141506481C2
:1020D000CF010E945F0FAC81BD8119968C91199739
:1020E0006D2D8E9D600D1124660F660F660F17967D
:1020F0008C91861708F460E060648C819D810E9459
:10210000230F81CF4527542745270A5F1F4F631BA5
:10211000EC81FD8121844230510508F06DC0452BD2
:1021200009F0212C6E9CC0016F9C900D1124689FBA
:10213000F001699FF00D11240E0F1F1F512CAC816F
:10214000BD811496BC91BA83EC81FD81F581FB833E
:10215000862C912CAA24A394B12C312C8981381679
:1021600008F086C0412CAC81BD8119968C9148162F
:1021700008F077C0311002C0442041F0EC81FD81AD
:1021800045814F5F6A81CF010E944D0FD12CC12C38
:10219000C61408F05AC0F801EC0DFD1D74905520CE
:1021A00061F0EA14FB0449F4E72DF0E0052C02C0CD
:1021B000F595E7950A94E2F77E2EAC81BD811996DC
:1021C0008C91823081F4442009F43BC072948FE0FA
:1021D0007822E72DF0E0E457FF4F7490672D8C8153
:1021E0009D810E940E0F672D8C819D810E940E0F94
:1021F000EFEFCE1ADE0ACCCF277038E0532E521AFA
:10220000211101C0512C50E040E030E020E0F80105
:10221000461740F4E40FF51FE4912E0F311D4F5F78
:102220005F4FF5CFE60FF11D6490E29EF001E39E53
:10223000F00DF29EF00D11248E0F9F1F080F191F35
:102240007ECFB72DBF707B2EC4CFD12C2D1439F08B
:1022500060E08C819D810E940E0FD394F7CF439450
:1022600082CF3394080D191DFFEFAF1ABF0A76CF46
:102270006B818C819D810E94410FC5CE90E080E0F2
:10228000C4CE80915E0390915F03891B990B0895E2
:10229000CF93DF93FC011082118212821382148289
:1022A00015821682EC012796DC011F961992AC1755
:1022B000BD07E1F77F961D921D92EA17FB07D9F73C
:1022C000DF91CF91089590E0FC01EE0FFF1FEA57D8
:1022D000FF4FA591B4912C91FC01E25CFC4F308141
:1022E0002083880F991FFC01E45FFE4F0190F0816D
:1022F000E02D808108952091EB02260F3327331FB4
:1023000021323105ECF42091A603FC0190E080E03D
:10231000243069F082E00895A091EB022191AC0194
:1023200045535D4FA40FB52FB11D2C930196861711
:1023300098F38091EB02680F6093EB0280E00895C0
:1023400081E008951092A60381E0809385031092A6
:10235000800361E082E10E94AC0C61E083E10E94B5
:10236000AC0CE9EBF0E080818E7F808380818D7FF3
:10237000808388E48093B80085E48093BC0008954E
:1023800010925F0310925E0310925D0310925C0343
:102390000E94A2118EE59CE090935B0380935A0308
:1023A0008FE59CE090935903809358030895CF9351
:1023B000DF9391E09093CA028823B9F0C091B800EE
:1023C000D091BA008091BC008A7B8093BC0060E011
:1023D00082E10E94AC0C60E083E10E94AC0C0E94A0
:1023E000A211D093BA00C093B800DF91CF910895A5
:1023F000CF92DF92EF92FF920F931F93CF93DF93D1
:10240000D82FC62F613208F098C00E94160D6B01BC
:102410007C018091A60381116BC081E08093A603AB
:10242000809385039FEF90938403109283039C0F06
:10243000909382038093810380918103DD0FD82BD9
:10244000D093810380918003813009F078C010928D
:1024500080030E94160D6B017C01809181038093A3
:10246000BB008091A8039091A903A091AA03B09109
:10247000AB03892B8A2B8B2BA1F00E94160D0091A8
:10248000A8031091A9032091AA033091AB036C1902
:102490007D098E099F09061717072807390708F4D1
:1024A00048C08091BC0083FDD8CF85EC8093BC00F0
:1024B0000E94160D6B017C018091A603813009F406
:1024C00040C0809183038C1710F4C0918303E0E631
:1024D000F3E0A6E8B3E080E08C1355C08C2FDF91C9
:1024E000CF911F910F91FF90EF90DF90CF900895C3
:1024F0008091A8039091A903A091AA03B091AB0386
:10250000892B8A2B8B2B09F484CF0E94160D009106
:10251000A8031091A9032091AA033091AB036C1971
:102520007D098E099F09061717072807390708F044
:1025300070CF8091A7030E94D711C0E0CFCF85EE66
:10254000B5CF8091A8039091A903A091AA03B0915F
:10255000AB03892B8A2B8B2B09F4AECF0E94160D6F
:102560000091A8031091A9032091AA033091AB0315
:102570006C197D098E099F09061717072807390767
:1025800008F09ACFD6CF91919D938F5FA5CF0895F4
:10259000E0915F0380915E03E81730F4F0E0EA57C2
:1025A000FC4F808190E008958FEF9FEF0895909108
:1025B0005F0380915E032FEF3FEF981748F4E92FF8
:1025C000F0E0EA57FC4F208130E09F5F90935F037B
:1025D000C9010895CF92DF92EF92FF920F931F935C
:1025E000CF93DF937C01CB018A0120914203222308
:1025F00089F0EB016B01C40ED51ECC15DD0569F029
:102600006991D701ED91FC910190F081E02DC70116
:102610000995F3CF642F0E947B11C801DF91CF9100
:102620001F910F91FF90EF90DF90CF900895CF937F
:10263000DF931F92CDB7DEB7698320914203222337
:10264000F9F020915C03203258F021E030E0FC01E9
:102650003383228390E080E00F90DF91CF91089543
:1026600080915D03E82FF0E0E655FD4F998190835E
:102670008F5F80935D0380935C0381E090E0ECCFFB
:1026800061E0CE0101960E947B11F7CFCF92DF92DD
:10269000EF92FF920F931F93CF93DF93D0915C0340
:1026A00081E0D13208F09CC0C09141030E94160D18
:1026B0006B017C018091A60381116CC082E0809344
:1026C000A60381E0809385038FEF809384031092AB
:1026D0008303D0938203AAEAB2E0E0E6F3E080E06D
:1026E000D8138DC01092810380918103CC0FC82B29
:1026F000C093810380918003813009F084C01092DF
:1027000080030E94160D6B017C01809181038093F0
:10271000BB008091A8039091A903A091AA03B09156
:10272000AB03892B8A2B8B2BA1F00E94160D0091F5
:10273000A8031091A9032091AA033091AB036C194F
:102740007D098E099F09061717072807390708F41E
:1027500042C08091BC0083FDD8CF85EC8093BC0043
:102760000E94160D6B017C018091A603823009F452
:102770004CC0809184038F3F09F469C08091840329
:10278000803209F466C080918403803309F463C009
:1027900084E026C08091A8039091A903A091AA0388
:1027A000B091AB03892B8A2B8B2B09F483CF0E942A
:1027B000160D0091A8031091A9032091AA0330914E
:1027C000AB036C197D098E099F09061717072807A7
:1027D000390708F06FCF8091A7030E94D71185E0D9
:1027E00010925D0310925C0310924203DF91CF912F
:1027F0001F910F91FF90EF90DF90CF9008959D91E2
:1028000091938F5F6DCF85EEA9CF8091A8039091B2
:10281000A903A091AA03B091AB03892B8A2B8B2B20
:1028200009F4A2CF0E94160D0091A8031091A903EC
:102830002091AA033091AB036C197D098E099F0981
:10284000061717072807390708F08ECFC4CF80E096
:10285000C7CF82E0C5CF83E0C3CFFC019181628105
:102860008081238131E03093420320934103109211
:102870005D0310925C0360956923682B81EC94E002
:102880000E94171381EC94E00C944613EF92FF9290
:102890000F931F93CF93DF93EC017B018C010D58B5
:1028A0001F4FD8018D919C91FE01E159FF4F20816E
:1028B00031E0309342032093410310925D03109264
:1028C0005C03DC01ED91FC910190F081E02D099514
:1028D000FE01E059FF4F8081823058F0F80180817D
:1028E0009181DC01ED91FC910190F081E02D6F2D43
:1028F0000995F801808191810E944613CF58DF4FDE
:10290000E882F982DF91CF911F910F91FF90EF90B4
:10291000089521E030E002C0220F331F6A95E2F7EC
:10292000FC01EF58FF4F60817181442341F0262B59
:10293000372B31832083608171810C94461420955C
:10294000309526233723F5CFCF93DF9370E0FB013B
:10295000E15BF74E8491FB01E55CF74ED491695D34
:10296000774EFB01C491CC23A1F081110E94830C0E
:10297000EC2FF0E0EE0FFF1FEE57FF4FA591B49143
:10298000EC91ED2381E090E009F480E0DF91CF91BC
:10299000089580E090E0FACF862F642F0C94AC0C61
:1029A000862F642F0C94DA0C0F931F93CF93DF9331
:1029B00021E030E001C0220F8A95EAF7D22FC22F22
:1029C000C09510E000E080914D048C2380934D046D
:1029D0008DE494E00E942D1466E970E080E090E0C0
:1029E0000E943B0D80914D048D2B80934D048DE40E
:1029F00094E00E942D140F5F1F4F0330110529F43E
:102A0000DF91CF911F910F91089566E970E080E00A
:102A100090E00E943B0DD7CF0F931F93CF93DF938E
:102A2000EC01062F142F8E85813120F4882339F094
:102A3000411105C081EC94E00E9446131E868E85EC
:102A4000811112C08D8591E09093420380934103E0
:102A500010925D0310925C0360E4111101C060E00C
:102A600081EC94E00E941713602F81EC94E00E94A7
:102A70001713123041F48E858F5F8E87DF91CF91CF
:102A80001F910F91089581EC94E00E9446131E86D9
:102A9000F5CF089590E080E00895CF92DF92EF9215
:102AA000FF920F931F93CF93DF93EC0181E090E0AF
:102AB0007C0102C0EE0CFF1C6A95E2F76E0180E714
:102AC000C80ED11CD6016C91613208F060E2FE01A3
:102AD000E159FF4F80810E94F81110925F038093AB
:102AE0005E03CD58DF4F88819981DC01ED91FC9127
:102AF0000284F385E02D09958C01F60180818230F6
:102B000060F088819981DC01ED91FC910284F3856C
:102B1000E02D099520E0022B182B0E211F2181E0CA
:102B200090E00E151F0511F090E080E0DF91CF914D
:102B30001F910F91FF90EF90DF90CF900895CF936A
:102B4000DF93EC0189818C8361E08B810E94F81115
:102B500010925F0380935E03811101C0FFCF81EC6F
:102B600094E00E94D7128983DF91CF910895FC01F0
:102B700080819181009711F00C9440220895FB010F
:102B800001900020E9F73197AF01461B570BDC019C
:102B9000ED91FC910280F381E02D09948F929F9238
:102BA000AF92BF92EF92FF920F931F93CF93DF9359
:102BB000CDB7DEB7A1970FB6F894DEBF0FBECDBF7D
:102BC0007C01FA01CB0119A2223008F42AE08E011F
:102BD0000F5D1F4F822E912CB12CA12CBF01A5019E
:102BE00094010E947C21F901CA016A300CF5605DF4
:102BF000D8016E938D01232B242B252B79F790E0A0
:102C000080E0109721F0BD01C7010E94BF15A19679
:102C10000FB6F894DEBF0FBECDBFDF91CF911F91ED
:102C20000F91FF90EF90BF90AF909F908F9008957D
:102C3000695CDECF62E571E00C94BF15CF93DF9342
:102C4000682F8CEA93E00E94A10EEC018CEA93E0DD
:102C50000E941A168C0F9D1FDF91CF9108950F933C
:102C60001F93CF93DF93EC010E94BF158C01CE011F
:102C70000E941A16800F911FDF91CF911F910F9123
:102C800008950F931F93CF93DF93EC010E94D60D0D
:102C90008C01CE010E941A16800F911FDF91CF91F7
:102CA0001F910F9108950C94BF150F931F93CF930D
:102CB000DF93EC018B0161E08EE00E94AC0C8CEAAA
:102CC00093E00E941A1665E571E08CEA93E00E9499
:102CD0005316B8018CEA93E00E94270E68E571E074
:102CE0008CEA93E00E945316BE018CEA93E00E94A6
:102CF000270E6AE571E08CEA93E00E942F1662E3EA
:102D000070E080E090E00E943B0D60E08EE0DF919B
:102D1000CF911F910F910C94AC0CCF93DF930E9435
:102D2000990FC2E4D5E08DE296E19C878B87CE01B6
:102D30000E941A1680EF98E09C878B87CE010E9434
:102D40001A166FE770E0CE010E94D60D6AEA74E0B1
:102D5000CE01DF91CF910C9453160F931F93CF9315
:102D6000DF93EC0188819981009759F02A813B819A
:102D70002617370730F081E0DF91CF911F910F9137
:102D800008958B016F5F7F4F0E94C922009759F011
:102D9000998388831B830A832C813D81232B59F7D8
:102DA000FC011082E8CF80E0E7CFEF92FF920F9313
:102DB0001F93CF93DF93EC01198218821B821A8232
:102DC0001D821C8285E0C135D807F9F000915105BC
:102DD0001091520501151105C1F0E0905505F090D4
:102DE0005605B701CE010E94AD16288139818111A7
:102DF00013C02115310519F0C9010E944022198222
:102E000018821D821C821B821A82DF91CF911F9132
:102E10000F91FF90EF900895FD82EC82B801C901F7
:102E2000DF91CF911F910F91FF90EF900C948F2322
:102E3000EF92FF920F931F93CF93DF93EC017B01EF
:102E4000198218821B821A821D821C82FB0101904A
:102E50000020E9F731978F01061B170BB8010E947C
:102E6000AD1628813981811113C02115310519F062
:102E7000C9010E944022198218821D821C821B8275
:102E80001A82DF91CF911F910F91FF90EF900895DB
:102E90001D830C83B701C901DF91CF911F910F9161
:102EA000FF90EF900C948F231F93CF93DF93CDB7B8
:102EB000DEB72C970FB6F894DEBF0FBECDBF182F2C
:102EC0008091EC049091ED048130910569F00297B6
:102ED00009F44DC02C960FB6F894DEBF0FBECDBFDF
:102EE000DF91CF911F91089581E0809349038093F2
:102EF00000010E946D0D609343037093440380931F
:102F0000450390934603E091BE04E33169F081E00C
:102F10008E0F8093BE04F0E0E655FB4F1083E82F40
:102F2000F0E0E655FB4F1082CE0107960E94D516C1
:102F30006AEA74E0CE0101960E941817BE01695F2B
:102F40007F4FCE0101960E945516CE0101960E9438
:102F5000B715CE0107960E94B71561E671E08CEABD
:102F600093E00E945316812F0E941E16B3CF6BE68A
:102F700071E0F5CF85ED8093BC008091A80390911E
:102F8000A903A091AA03B091AB030796A11DB11D9F
:102F900023E0B695A795979587952A95D1F7209127
:102FA000BC0024FD03C01092A60308954091A8031D
:102FB0005091A9036091AA037091AB03452B462B56
:102FC000472B69F30097A105B10541F025E32A9548
:102FD000F1F700000197A109B109E1CF8091A703A2
:102FE0000C94D7111F920F920FB60F9211242F93AA
:102FF0003F938F939F93AF93BF9380915003909192
:103000005103A0915203B091530330914F0323E039
:10301000230F2D3758F50196A11DB11D20934F03A5
:103020008093500390935103A0935203B0935303A2
:103030008091540390915503A0915603B09157038A
:103040000196A11DB11D8093540390935503A09345
:103050005603B0935703BF91AF919F918F913F91CA
:103060002F910F900FBE0F901F90189526E8230FF9
:103070000296A11DB11DD2CF1F920F920FB60F92D3
:1030800011242F933F934F935F936F937F938F936D
:103090009F93AF93BF93EF93FF938CEA93E00E94CB
:1030A0007F0EFF91EF91BF91AF919F918F917F9193
:1030B0006F915F914F913F912F910F900FBE0F90A5
:1030C0001F9018951F920F920FB60F9211242F93F5
:1030D0008F939F93EF93FF93E091BC03F091BD0317
:1030E0008081E091C203F091C30382FD1BC09081F7
:1030F0008091C5038F5F8F732091C603821741F0C3
:10310000E091C503F0E0E455FC4F958F8093C50333
:10311000FF91EF919F918F912F910F900FBE0F9084
:103120001F9018958081F4CF1F920F920FB60F92C7
:1031300011242F933F934F935F936F937F938F93BC
:103140009F93AF93BF93EF93FF9382E00E9463112D
:10315000FF91EF91BF91AF919F918F917F916F916F
:103160005F914F913F912F910F900FBE0F901F9045
:1031700018951F920F920FB60F9211242F933F9321
:103180004F935F936F937F938F939F93AF93BF936F
:10319000EF93FF9381E00E946311FF91EF91BF9144
:1031A000AF919F918F917F916F915F914F913F91DF
:1031B0002F910F900FBE0F901F9018951F920F9296
:1031C0000FB60F9211242F933F934F935F936F93FA
:1031D0007F938F939F93AF93BF93EF93FF9380E081
:1031E0000E946311FF91EF91BF91AF919F918F91D9
:1031F0007F916F915F914F913F912F910F900FBEF3
:103200000F901F9018951F920F920FB60F921124D6
:103210002F933F934F935F936F937F938F939F93DE
:10322000AF93BF93EF93FF938091B900887F80366F
:1032300009F44AC0F0F5883209F4A7C018F58031C6
:1032400009F49BC0B8F4882309F4F9C0883009F464
:1032500094C0FF91EF91BF91AF919F918F917F911A
:103260006F915F914F913F912F910F900FBE0F90F3
:103270001F901895883109F488C0803251F78093E7
:10328000840314C0803409F49DC040F48033B9F342
:103290008833F9F68093840385ECB0C0803509F457
:1032A00085C0883509F496C0883499F60E94BA170B
:1032B000D0CF883909F48CC038F5883729F050F41C
:1032C000883611F0803729F683E08093A6031092A8
:1032D0000D0357C0883809F47BC0803919F0803855
:1032E00009F0B7CF80910D03803208F071C0E091F2
:1032F0000D0381E08E0F80930D038091BB00F0E001
:10330000E351FD4F80833DC0803B39F0E0F4803ACB
:1033100009F479C0883A09F09CCF84E08093A60331
:103320001092EC021092EB02E0915A03F0915B03D1
:1033300009958091EB0281110FC081E08093EB022F
:103340001092CB0209C0803C09F4A6CF883C09F456
:10335000A3CF883B09F07DCFE091EC0281E08E0F96
:103360008093EC02F0E0E553FD4F80818093BB0039
:103370009091EC028091EB0229C0809181038093AF
:10338000BB0085EC8093BC0064CF90918303809157
:103390008203981758F5E091830381E08E0F8093A4
:1033A0008303F0E0E05AFC4F8081E9CFE091830392
:1033B00081E08E0F809383038091BB00F0E0E05AA0
:1033C000FC4F808390918303809182039817C8F209
:1033D00085E8D8CFE091830381E08E0F809383034B
:1033E0008091BB00F0E0E05AFC4F80838091850320
:1033F00081115CCF81E08093800384EA8093BC00DC
:103400001092A60326CF85EC8093BC001092A603F1
:1034100080910D03803230F4E0910D03F0E0E35130
:10342000FD4F108260910D0370E0E0915803F09120
:1034300059038DEE92E0099510920D030ACF109278
:10344000840334CF1092AF031092AE0388EE93E062
:10345000A0E0B0E08093B0039093B103A093B203D7
:10346000B093B30326E131E03093AD032093AC0376
:1034700025EC30E03093B9032093B80324EC30E01E
:103480003093BB032093BA0320EC30E03093BD03AC
:103490002093BC0321EC30E03093BF032093BE03A4
:1034A00022EC30E03093C1032093C00326EC30E0DF
:1034B0003093C3032093C2031092C5031092C60336
:1034C0001092C7031092C8031092C4041092C30450
:1034D0008093C5049093C604A093C704B093C80416
:1034E00088E291E09093C2048093C10462E771E0A6
:1034F00089E695E00E94181763E871E083E695E09D
:103500000E9418176EE871E08DE595E00E9418178B
:103510006CE971E087E595E00E94181764EA71E0B4
:1035200081E595E00E941817109245051092440518
:1035300081E080934B0510924E0510924D0588E472
:1035400091E090934305809342051092CF0410922E
:10355000D3041092D2041092D404E9EEF4E0108265
:10356000148213821582369685E0E532F807B9F7A2
:1035700085E091E09093300580932F0581E091E004
:10358000909332058093310581E08093330594E078
:103590009093340520E431E030932E0520932D05DF
:1035A0002AE030E0309336052093350524EF31E0F2
:1035B000309338052093370510923B0510923A0559
:1035C0001092290510922A0510922B0510922C05B5
:1035D000109239052AE331E03093CE042093CD04D4
:1035E00099E390933C0580933D0581EC94E09093A2
:1035F00041058093400588EA91E09093C004809350
:10360000BF041092BE041092AA048BE894E00E94BA
:1036100048118CE694E00E9448118DE494E00E94E9
:1036200048110E946D0D6093490470934A04809381
:103630004B0490934C040895CF93DF93CDB7DEB73E
:103640002C970FB6F894DEBF0FBECDBF789484B52B
:10365000826084BD84B5816084BD85B5826085BD8E
:1036600085B5816085BD80916E00816080936E001C
:10367000109281008091810082608093810080910E
:1036800081008160809381008091800081608093BF
:1036900080008091B10084608093B1008091B0007F
:1036A00081608093B00080917A00846080937A007A
:1036B00080917A00826080937A0080917A008160A4
:1036C00080937A0080917A00806880937A001092CB
:1036D000C1000E94C011E091BC03F091BD0382E0E3
:1036E0008083E091B803F091B9031082E091BA03AE
:1036F000F091BB0380E180831092C403E091C0038A
:10370000F091C10386E08083E091BE03F091BF0396
:10371000808180618083E091BE03F091BF0380814E
:1037200088608083E091BE03F091BF038081806850
:103730008083E091BE03F091BF0380818F7D808301
:1037400064E670E080E090E00E943B0D61E08EE076
:103750000E94DA0C63EB71E0CE0101960E9418170B
:1037600067EB71E0CE0107960E941817BE016F5FEC
:103770007F4FCE0107960E945516CE0107960E94F4
:10378000B715CE0101960E94B71569E675E08CEA7F
:1037900093E00E94270E8CEA93E00E941A166DE5D2
:1037A00075E08CEA93E00E94270E8CEA93E00E9479
:1037B0001A168CEA93E00E941A1668EA70E08CEA06
:1037C00093E00E9441166CE970E08CEA93E00E945D
:1037D0004116F8E0CF2ED12CE12CF12C10E001E0C5
:1037E00000934203C092410310925D0310925C0368
:1037F00081EC94E00E944613811127C064EC71E0D3
:103800008CEA93E00E9453162AE0B701A6018CEAE5
:1038100093E00E94CE1564ED71E08CEA93E00E9483
:10382000531620E1B701A6018CEA93E00E94CE1561
:1038300069ED71E08CEA93E00E942F161F5F61E052
:1038400070E080E090E00E943B0D2FEFC21AD20A98
:10385000E20AF20A88E7C816D104E104F10409F08B
:10386000BFCF6BE571E08CEA93E00E942F166BED01
:1038700071E08CEA93E00E945316412F50E070E013
:1038800060E02AE08CEA93E00E94CE1562EE71E0DF
:103890008CEA93E00E942F16109250058CE38093DF
:1038A0004F051092460510924705EFE0F0E1C590F4
:1038B000D490E1E1F0E1F490E2E1F0E1E491E09311
:1038C0004805E3E1F0E1E491E0934905E4E1F0E14A
:1038D000E491E0934A0510E000E00F1558F4F80178
:1038E000EC0DFD1D649182E495E00E94230F0F5FB3
:1038F0001F4FF3CF10924C050E94990F8CE08093DC
:10390000B80080914905803429F40E94990F81E024
:1039100080934C0584E29EE090934E0580934D0584
:103920000E94990F82E495E00E941A1682E495E0C5
:103930000E941A1670EFE72E78E0F72EF0924E05EF
:10394000E0924D0569EE78E082E495E00E94D60DA4
:103950000DED14E010934E0500934D0568ED74E0F5
:1039600082E495E00E94D60DF0924E05E0924D055E
:1039700066ED74E082E495E00E94D60D10934E054A
:1039800000934D0560ED74E082E495E00E944116DD
:103990008AEC90E090934E0580934D0565EB70E0C6
:1039A00082E495E00E94411660ED77E080E090E0CF
:1039B0000E943B0D0E94990F88E3809350040E945F
:1039C000C0118DE494E00E949F1510E000E0CC242B
:1039D000C394D12C80914F047601002E01C0EE0CCF
:1039E0000A94EAF78E2980934F0490914D048E2D0E
:1039F0008095892380934D048DE494E00E942D14DA
:103A000080914D048E2980934D048DE494E00E94B2
:103A10002D140F5F1F4F08301105E1F689E38093E5
:103A20006F040E94C0118CE694E00E949F1510E084
:103A300000E0EE24E394F12C90916E046701002ED7
:103A400001C0CC0C0A94EAF72C2D20959223909378
:103A50006E0480916C04822380936C048CE694E065
:103A60000E942D1480916C048C2980936C048CE648
:103A700094E00E942D140F5F1F4F08301105E1F6EE
:103A800064E670E080E090E00E943B0D84E597E101
:103A900090933B0580933A0580E491E090932E0546
:103AA00080932D056FEF7FEF8DEC94E00E9446141C
:103AB00060913D05613208F060E280913C050E9412
:103AC000F81110925F0380935E03809140059091FE
:103AD0004105DC01ED91FC910284F385E02D09950F
:103AE00090933F0580933E0580913D058230B8F06C
:103AF0008091400590914105DC01ED91FC9102849B
:103B0000F385E02D099520E0382F80913E059091B6
:103B10003F05822B932B90933F0580933E0588E8C9
:103B200093E1909338058093370582E390E090937A
:103B30003605809335056EEE71E08CEA93E00E94C5
:103B40002F168FE380938E040E94C0118BE894E0BF
:103B50000E949F1580918D04806480938D048091D4
:103B60008B048F7B80938B048BE894E00E942D1450
:103B700080918B048F7B80938B048BE894E00E9470
:103B80002D1461E072E08CEA93E00E94531667E026
:103B900072E08CEA93E00E9453162AE046E050E07F
:103BA00060E070E08CEA93E00E94CE156FE072E076
:103BB0008CEA93E00E9453162AE040E050E0BA01FC
:103BC0008CEA93E00E94CE158CEA93E00E941A16CC
:103BD0008CEA93E00E941A1669E172E08CEA93E0A5
:103BE0000E942F1660ED77E080E090E00E943B0D90
:103BF00063EB71E0CE0101960E94181768E372E052
:103C0000CE0107960E941817BE016F5F7F4FCE014D
:103C100007960E945516CE0107960E94B715CE0151
:103C200001960E94B7154DE2C42E46E1D42E59E10B
:103C3000252E51E1352E36E0432E772473940E94D1
:103C40006D0D0091490410914A0420914B0430916C
:103C50004C04601B710B820B930B68387341810518
:103C6000910518F10E946D0D6093490470934A0408
:103C700080934B0490934C04CE0101960E94D5167C
:103C80006AEA74E0CE0107960E941817BE016F5FC2
:103C90007F4FCE0107960E945516CE0107960E94CF
:103CA000B715CE0101960E94B715709239050E9492
:103CB0006D0D0091290510912A0520912B05309159
:103CC0002C05AB01BC01401B510B620B730B8091A7
:103CD000350590913605B0E0A0E084179507A6075A
:103CE000B70708F4B8C010923905EAEAF4E0019089
:103CF0000020E9F78090430390904403A09045038F
:103D0000B0904603E55BF44009F49CC10E946D0D40
:103D1000681979098A099B096938734181059105F8
:103D200008F0DBC10E946D0D00914A0310914B0316
:103D300020914C0330914D03601B710B820B930B50
:103D4000693873418105910530F0809149038111F3
:103D500002C07092000180910001882309F44EC0D6
:103D60000E946D0D60934A0370934B0380934C0344
:103D700090934D03109200018091AA0481110E943A
:103D80008D1680914803882309F4FBC164EF71E02C
:103D900080E090E00E943B0DD0924E05C0924D0510
:103DA0000E94990F64E870E182E495E00E94411658
:103DB00061E770E182E495E00E9441166FE570E1F1
:103DC00082E495E00E9441166CE470E182E495E0A3
:103DD0000E9441166AE370E182E495E00E94411678
:103DE00068E270E182E495E00E94411665E170E1CD
:103DF00082E495E00E94D60D70924E0380914E03AE
:103E0000882309F41FC263EB71E0CE0107960E947C
:103E1000181765E772E0CE0101960E941817BE01DF
:103E2000695F7F4FCE0101960E945516CE01019623
:103E30000E94B715CE0107960E94B71563E872E09D
:103E40008CEA93E00E942F1664E670E080E090E038
:103E50000E943B0DF9CF612C80913405681608F063
:103E600055C0A62CB12CE0913105F0913205EA0D38
:103E7000FB1D40E060818DEC94E00E94891481E09C
:103E800090E0A0E0B0E0062C04C0880F991FAA1FA4
:103E9000BB1F0A94D2F74C017C01E094F094512CA2
:103EA00080913305581618F5052D10E0E0912F0587
:103EB000F0913005E00FF11F60818DEC94E00E94DD
:103EC0004D150C5F1F4F000F111FF801E353FB4FFF
:103ED000892B41F48081918188299929918380835C
:103EE0005394DECF808191818E219F21F7CF8091E5
:103EF000310590913205A80EB91E41E0F5016081AF
:103F00008DEC94E00E9489146394A6CF9DECE92E79
:103F100094E0F92E8701D8015F968D919C9190973E
:103F2000892B59F45C961C925C97EFEFFFEF5E963D
:103F3000FC93EE935D9791961C920A5F1F4F89E068
:103F400095E08017910739F7B12C80913305B816A9
:103F500008F052C0A12C8B2C912C880C991CD401F8
:103F6000AB52BB4F4D0120913405A21608F042C060
:103F7000F401608171810A2C02C0769567950A94DC
:103F8000E2F7B29E900111242A0D311DEDECF4E010
:103F900080E0458D568D2417350709F460C18F5F89
:103FA00036968A30B1F760FF23C0EDECF4E090E084
:103FB00080E0448D411117C0E0912D05F0912E0550
:103FC000E20FF31F4081489EF001499EF00D11243D
:103FD000E353FB4F448F368F258F10A2178E61E07D
:103FE0000E94790D05C0019636968A30910509F731
:103FF000A394B9CFB394A9CFB12CD70191968C914A
:104000008111B82EB6E0EB0EF11CE016F106A9F70F
:104010000E946D0D6093290570932A0580932B05EE
:1040200090932C05BB2009F45ECE8091EE0488238A
:1040300009F459CE8091EC049091ED04019709F0B8
:1040400052CE53CE0E946D0D681979098A099B09D9
:10405000693E73408105910508F458CE8091BF04F4
:104060009091C004FC0131912091AA04ABEAB4E024
:104070004496311137C081E0211180E0109249034C
:10408000709200018823B9F170924803CE0107961F
:104090000E94D51667E472E0CE0101960E941817BF
:1040A000BE01695F7F4FCE0101960E945516CE0179
:1040B00001960E94B715CE0107960E94B71581E0C0
:1040C00090E00E94D41480918B04806480938B04D0
:1040D0008BE894E00E942D1425CE80914903811134
:1040E000BDCF20CE3213C9CF31912D91E817F907FA
:1040F00009F0BFCFC2CF70924703CE0101960E9454
:10410000D51660E572E0CE0107960E941817BE0131
:104110006F5F7F4FCE0107960E945516CE0107961E
:104120000E94B715CE0101960E94B71590E080E07D
:104130000E94D4148091AA0481110E948D161092BD
:104140004903709200011092BE041092AA04CE019D
:1041500001960E94D51667E572E0CE0107960E948F
:104160001817BE016F5F7F4FCE0107960E9455164C
:10417000CE0107960E94B715CE0101960E94B71591
:10418000D1CD80914703882309F441C064EF71E0E9
:1041900080E090E00E943B0DD0924E05C0924D050C
:1041A0000E94990F66E071E182E495E00E94411659
:1041B00063EF70E182E495E00E94411661EE70E1E8
:1041C00082E495E00E9441166EEC70E182E495E095
:1041D0000E9441166BEB70E182E495E00E9441166B
:1041E0006AEA70E182E495E00E94411667E970E1B5
:1041F00082E495E00E94D60D68EE73E080E090E0E6
:104200000E943B0D7092000110924703F7CD809100
:1042100049038111F3CD0E94990FD0924E05C092AF
:104220004D056EE572E082E495E00E9453163092EF
:104230004E0520924D0562E672E082E495E00E9410
:104240002F16DCCD80E090E0892B09F4F8CC0E9499
:104250006B0E882309F4F1CC0E940000ECCC617055
:10426000BFCE81E595E00E94B71587E595E00E94F5
:10427000B7158DE595E00E94B71583E695E00E949D
:10428000B71589E695E00C94B7152F923F924F929F
:104290005F926F927F928F929F92AF92BF92CF92D6
:1042A000DF92EF92FF920F931F93CF93DF93CDB7DF
:1042B000DEB7CA1BDB0B0FB6F894DEBF0FBECDBF57
:1042C00009942A88398848885F846E847D848C8428
:1042D0009B84AA84B984C884DF80EE80FD800C8131
:1042E0001B81AA81B981CE0FD11D0FB6F894DEBF14
:1042F0000FBECDBFED010895A1E21A2EAA1BBB1B74
:10430000FD010DC0AA1FBB1FEE1FFF1FA217B307A1
:10431000E407F50720F0A21BB30BE40BF50B661FB7
:10432000771F881F991F1A9469F76095709580957B
:1043300090959B01AC01BD01CF010895EE0FFF1FC9
:104340000590F491E02D09940F931F93CF93DF9381
:104350008230910510F482E090E0E0917105F091D7
:10436000720530E020E0B0E0A0E0309799F421152C
:10437000310509F44AC0281B390B24303105D8F522
:104380008A819B816115710589F1FB019383828389
:10439000FE0111C0408151810281138148175907E4
:1043A000E0F04817590799F4109761F012960C93B2
:1043B000129713961C933296CF01DF91CF911F91E4
:1043C0000F9108950093710510937205F4CF211594
:1043D000310551F04217530738F0A901DB019A016A
:1043E000BD01DF01F801C1CFEF01F9CF9093720554
:1043F00080937105CDCFFE01E20FF31F819391935E
:104400002250310939832883D7CF20916F0530910D
:104410007005232B41F4209108013091090130935C
:10442000700520936F052091060130910701211539
:10443000310541F42DB73EB740910A0150910B016F
:10444000241B350BE0916F05F0917005E217F3071F
:10445000A0F42E1B3F0B2817390778F0AC014E5FF4
:104460005F4F2417350748F04E0F5F1F50937005BC
:1044700040936F05819391939FCFF0E0E0E09CCF54
:10448000CF93DF930097E9F0FC01329713821282F9
:10449000A0917105B0917205ED0130E020E0109718
:1044A000A1F420813181820F931F20916F053091FB
:1044B00070052817390709F061C0F0937005E09383
:1044C0006F05DF91CF910895EA01CE17DF07E8F578
:1044D0004A815B819E0141155105B1F7E901FB83DA
:1044E000EA8349915991C40FD51FEC17FD0761F478
:1044F000808191810296840F951FE90199838883B9
:10450000828193819B838A83F0E0E0E012968D9113
:104510009C9113970097B9F52D913C911197CD017E
:104520000296820F931F20916F0530917005281716
:10453000390739F6309751F51092720510927105CE
:10454000B0937005A0936F05BCCFD383C283408125
:104550005181840F951FC817D90761F44E5F5F4FD3
:1045600088819981480F591F518340838A819B819B
:10457000938382832115310509F0B0CFF093720542
:10458000E09371059ECFFD01DC01C0CF1382128242
:10459000D7CFB0E0A0E0EFECF2E20C9447218C0121
:1045A000009751F4CB010E94A4218C01C801CDB722
:1045B000DEB7E0E10C946321FC01E60FF71F9C01DC
:1045C00022503109E217F30708F49DC0D901CD91BB
:1045D000DC911197C617D70798F0C530D10530F395
:1045E000CE0104978617970708F3C61BD70B2297AF
:1045F000C193D1936D937C93CF010E944022D6CF7B
:104600005B01AC1ABD0A4C018C0E9D1EA091710578
:10461000B0917205512C412CF12CE12C109731F501
:1046200080916F05909170058815990509F05CC01F
:104630004616570608F058C0809106019091070170
:10464000009741F48DB79EB740910A0150910B013C
:10465000841B950BE817F90708F055C0F093700517
:10466000E0936F05F90171836083A0CF8D919C91D8
:10467000119712966C90129713967C901397A81529
:10468000B90559F56C0142E0C40ED11CCA14DB0413
:1046900020F1AC014A195B09DA011296159780F0F6
:1046A0006282738251834083D9016D937C93E114BC
:1046B000F10471F0D7011396FC93EE93129776CF25
:1046C00022968C0F9D1FF90191838083F301EFCF18
:1046D000F0937205E093710569CF4816590608F406
:1046E0002C017D01D3019ACFCB010E94A4217C0132
:1046F000009749F0AE01B8010E948623C8010E94CC
:104700004022870153CF10E000E050CFFB01DC01D5
:1047100002C001900D9241505040D8F70895FB011E
:10472000DC0101900D920020E1F708951CE0C3E345
:10473000DCE004C0FE010E949E212196C433D10713
:06474000C9F7F894FFCF59
:104746000100010203040000730580006B006C0089
:104756006D0000000000A10EFA0D2E0EEE0E5F0E8B
:104766003D0E510E000000001713EA124A15C7123B
:104776004111D712C81200000000D50D89144D153D
:104786005247425700000000B70FFA0D4A15491567
:104796000C150D0A002142722C002C446F6E652EFA
:1047A60000507265737365643A2000484F4C443A72
:1047B6002000474C5F53545F434F4C4F525F434F6B
:1047C60044450031302E30352E3230323100766598
:1047D6007273696F6E20312E305354004272434F0C
:1047E6004C4F5200484944005247474257475242AD
:1047F600574700535953002153657475702042651D
:1048060067696E00466F756E6420616464726573D5
:10481600733A200020283078002900466F756E64B0
:104826002000206465766963652873292E00696E09
:10483600697469616C697A696E672072656C617901
:104846000020202020200052656C6179205B005DED
:104856002073657420746F200073756363657373CA
:1048660066756C6C7920696E697469616C697A65C4
:10487600642072656C617900536574757020436FAE
:104886006D706C6574650021436F727265637400A8
:104896002157726F6E6700215265736574000A0AAC
:1048A6000A0020205479706520796F757220636F35
:1048B60064652E2E0047616D6520436F6D706C65D3
:1048C600746500456E642047616D652C20506C65EB
:1048D60061736520726573746172742074686520F3
:0A48E60061726475696E6F210000B5
:00000001FF
