:100000000C948A040C94B2040C94B2040C943C1327
:100010000C9417130C94F2120C94B2040C94B204C6
:100020000C94B2040C94B2040C94B2040C94B20478
:100030000C94B2040C94B2040C94B2040C94B20468
:100040000C9450120C94B2040C94C0120C949A129A
:100050000C94B2040C94B2040C94B2040C94B20448
:100060000C9431110C94B204AEB08180A1A6A83FCB
:10007000AD8B32C8D300D580D91FDA12DB40AF5325
:1000800075636365737366756C001C620A0C20608F
:1000900002020508070D080204040507020402060F
:1000A00007060707070707070707020207070705ED
:1000B0000A070707080606080804060707090809CB
:1000C000070908070808070C0708060406040809BA
:1000D000030606060606050606020407020A0606C9
:1000E000060605050506060A0606050602060809AF
:1000F000000000007E7E3030070700070700000088
:100100000000C0D8F8DED8F8DE180030000030005B
:100110000000387C64FF64E4C8102020F020301018
:100120003C7E427E3CC02018E6F010F0E00000006B
:1001300000300000001030203010DCFE227EDC8019
:100140006020103020202010302007070000F8FE2B
:1001500007011070E0800107FEF880E07010120CBB
:100160003F0C120000000000202020FC2020200076
:100170000000100000000000F0702020202000008F
:100180000000000030300080E07C1F03C0F0300031
:100190000000FCFE020202FEFC1030202020301085
:1001A0000404FEFE0000202030302020040682C21D
:1001B000623E1C203030202020200406222222FE15
:1001C000DC10302020203010C0A09884FEFE80007B
:1001D000000000303000001E1E1212F2E21030202B
:1001E00020203010F8FC161212F2E01030202020EF
:1001F0003010020282E27A1E060020301000000059
:10020000DCFE222222FEDC103020202030103C7E3A
:10021000424242FEFC0020202030100018183030EE
:100220001818F0706060909008080400000000103A
:10023000102090909090909090000000000000009E
:100240000408089090606020101000000000046214
:10025000721E0C0030300000F00CF4FA0AFAFA04B6
:100260000CF00030205050505010100080F8FE86E6
:10027000FEF88030300000003030FEFE22223EFCCE
:10028000C030302020203010F8FC060202020400AA
:10029000103020202010FEFE02020206FCF8303052
:1002A000202020301000FEFE22222222303020208A
:1002B0002020FEFE22222222303000000000F8FC26
:1002C00006024242C2C40010302020203030FEFE20
:1002D00020202020FEFE303000000000303002FEE2
:1002E000FE022030302000020202FEFE20202020EC
:1002F0003010FEFE70D88C06023030000010302026
:10030000FEFE000000000030302020202020FE0EE5
:100310003CF0C0300CFEFE30000000000000303029
:10032000FE061C38E0C000FE300000000010303037
:10033000F8FC0602020206FCF800103020202030F3
:100340001000FEFE4242427E3C30300000000000C1
:10035000F8FC0602020206FCF80010302060E0B053
:100360009080FEFE2262E2BE1C00303000000010D1
:1003700030201C3E322262E2C410202020203010A7
:10038000020202FEFE020202000000303000000005
:10039000FEFE00000000FEFE103020202020301065
:1003A0000E7EF080F07E0E000030303000000E7EB9
:1003B000F080E03E3EE080F07E0E00003030000035
:1003C000000030300000068EF870F88E06303000E5
:1003D00000003030060E18F0F0180E060000003055
:1003E0003000000002C2F23E0E02303020202020F9
:1003F000FFFF0101F0F08080031F7CE0800000001F
:100400000030F0C00101FFFF8080F0F010180C06F2
:10041000060C1810000000000000000000000000A2
:100420000000000000808080808080808080010348
:1004300002000000C0E82828F8F0103020203030FA
:10044000FFFF0808F8F0303020203010F0F80808DE
:100450000810103020202010F0F80808FFFF10309E
:1004600020203030F0F848487870103020202010DC
:1004700008FEFF09090030300000F0F80808F8F81D
:1004800010B0A0A0F070FFFF0808F8F030300000B6
:100490003030FBFB30300008FBFB8080F070FFFF4A
:1004A00060F098080030300000103020FFFF30303E
:1004B000F8F81008F8F01008F8F03030000030308C
:1004C00000003030F8F80808F8F030300000303024
:1004D000F0F80808F8F0103020203010F8F808087C
:1004E000F8F0F0F020203010F0F80808F8F810309C
:1004F0002020F0F0F8F810181830300000003078A4
:1005000048C888202020301008FEFE08080010305F
:100510002020F8F80000F8F810302020303038F8AB
:10052000C0C0F83800103030100078F880C038387B
:10053000C080F8780030300000000030300018B87B
:10054000E0E0B81830300000303038F8C0C0F8387B
:100550000090F070100008C8E87818303020202093
:100560002020FEDF0101000070F08080FFFFF0F02E
:100570000101DFFE20208080F0700000E0101020DC
:10058000408080700000000000000000FE020202B7
:1005900002020202FE3020202020202020306800AD
:1005A000178040020A0A4F4C454420696E69742046
:1005B0006F6E20416464726573733A203078002B4B
:1005C0002D2D2D2D2D2D2D2D2D2D2D2D2D2D2D2D5B
:1005D0002D2D2D2D2B007C20202020456C65637453
:1005E000726F7363617065202020207C002B2D2D9D
:1005F0002D2D2D2D2D2D2D2D2D2D2D2D2D2D2D2D2B
:100600002D2D2B00000005072060000000000000D9
:10061000005F00000007000700147F147F14242AE5
:100620007F2A1223130864623649562050000807B7
:100630000300001C2241000041221C002A1C7F1CD8
:100640002A08083E080800807030000808080808DA
:10065000000060600020100804023E5149453E0041
:10066000427F400072494949462141494D3318149F
:10067000127F1027454545393C4A494931412111EE
:1006800009073649494936464949291E00001400E0
:100690000000403400000008142241141414141403
:1006A000004122140802015909063E415D594E7C61
:1006B0001211127C7F494949363E414141227F4116
:1006C00041413E7F494949417F090909013E414174
:1006D00051737F0808087F00417F41002040413F5F
:1006E000017F081422417F404040407F021C027F6E
:1006F0007F0408107F3E4141413E7F090909063EC3
:100700004151215E7F091929462649494932030191
:100710007F01033F4040403F1F2040201F3F4038A3
:10072000403F631408146303047804036159494D7E
:1007300043007F4141410204081020004141417FB4
:10074000040201020440404040400003070800202A
:10075000545478407F28444438384444442838442A
:1007600044287F385454541800087E090218A4A461
:100770009C787F0804047800447D40002040403D80
:10078000007F1028440000417F40007C04780478FA
:100790007C080404783844444438FC18242418188D
:1007A000242418FC7C0804040848545454240404E9
:1007B0003F44243C4040207C1C2040201C3C4030D6
:1007C000403C44281028444C9090907C4464544C05
:1007D0004400083641000000770000004136080060
:1007E00002010204023C2623263C207375636365E4
:1007F000737366756C000A0A4C454420696E69740F
:10080000202E2E2E0052657374617274696E6720FB
:10081000696E000A5246494420696E6974202E2E82
:100820002E205375636365737366756C200A0046EA
:1008300069726D77617265207665722E2000466F51
:10084000756E64206368697020504E3500504E35D7
:10085000333220737461727475702074696D6564CD
:10086000206F7574004469646E27742066696E6435
:1008700020504E35337820626F6172640A000A524C
:1008800046494420696E6974202E2E2E200A000AE3
:1008900072656C617920696E697420737563636534
:1008A000737366756C0000000000240027002A00A6
:1008B000000000080002010000030407000000001F
:1008C0000000000000030C0F30333C3FC0C3CCCF0E
:1008D000F0F3FCFF000000002300260029000102C5
:1008E00004081020408001020408102001020408BE
:1008F000102000000000250028002B000404040440
:1009000004040404020202020202030303030303B9
:10091000DD13931E11241FBECFEFD8E0DEBFCDBF85
:1009200026E0AAE6B3E001C01D92A538B207E1F7C0
:1009300013E0A0E0B1E0EAEDF2E402C005900D9210
:10094000AA36B107D9F714E0C9E8D4E004C021976A
:10095000FE010E94521FC838D107C9F70E94F61441
:100960000C9460210C940000089508958FB7F894BA
:100970008091FB038FBF08958CBD9DBD0895CF93DB
:10098000DF93EC019C818E81981758F4E881F981FE
:100990000084F185E02D42E0CE0109958C818F5FC6
:1009A0008C83DF91CF910895DC01ED91FC9100845F
:1009B000F185E02D40E009940F931F93CF938C01B4
:1009C000FC016483C085C60F6C2F6F700E94D40435
:1009D0006C2F62956F706061C801CF911F910F916C
:1009E0000C94D404FC012781269526952695621740
:1009F00020F46583606B0C94D40408951F93CF9307
:100A0000DF93EC01142F8E81681718F4CE010E9439
:100A1000DC04612FCE01DF91CF911F910C94F20481
:100A2000CF92DF92EF92FF920F931F93CF93DF93BA
:100A3000EC01162FC42ED22E8F8186958695869531
:100A4000081710F00FEF080FFD2C0F15B0F08E8176
:100A5000181720F4612FCE010E94DC046F2DCE0107
:100A60000E94F204E12ECE1430F060E0CE010E942C
:100A7000BF04E394F8CFF394E8CF4D2D612FCE015E
:100A8000DF91CF911F910F91FF90EF90DF90CF906A
:100A90000C94FE040F9300915B060695069506954F
:100AA000015040915A06415020E060E084E596E014
:100AB0000E94100581E090915E06911101C080E0D6
:100AC00080935E0660E484E596E00F910C94D40474
:100AD0002F923F924F925F926F927F928F929F924E
:100AE000AF92BF92CF92DF92EF92FF920F931F933C
:100AF000CF93DF9300D000D01F92CDB7DEB7DC01DB
:100B00001B960D911C910115110509F468C19D8377
:100B10008C83F801449131965491319664903196CA
:100B20002491E22EF12CF7E0EF0EF11C73E0F59426
:100B3000E7947A95E1F7E982F80134963491319699
:100B4000E491631748F08E2F90E0FC01E30FF11D54
:100B50006E171F060CF487C06D3031F5AC81BD8176
:100B600016968C9181111AC081E090E00F900F9041
:100B70000F900F900F90DF91CF911F910F91FF90E9
:100B8000EF90DF90CF90BF90AF909F908F907F902D
:100B90006F905F904F903F902F90089560E08C8110
:100BA0009D810E94DC04E0CF6A3009F018C1EC811D
:100BB000FD818185D5808E9DD00C112487818695FD
:100BC00086958695D81630F08285882319F082E0C4
:100BD0008287D12C4D2D60E08C819D810E94FE0486
:100BE000AC81BD811A968C911A97823008F4BCCFE3
:100BF00015962C9115971B96ED91FC911C9700E092
:100C0000309739F03396E49119960C91E09F002DBE
:100C1000112410E0095F1F4F33E0159507953A95B1
:100C2000E1F78FEF820F080FEC81FD814681415083
:100C30006481CF010E941005AC81BD8119968C9111
:100C400019976D2D8E9D600D1124660F660F660F2E
:100C500017968C91861708F460E060648C819D8102
:100C60000E94D40481CF4527542745270A5F1F4F90
:100C7000631BEC81FD8121844230510508F06DC079
:100C8000452B09F0212C6E9CC0016F9C900D112406
:100C9000689FF001699FF00D11240E0F1F1F512C4A
:100CA000AC81BD811496BC91BA83EC81FD81F58144
:100CB000FB83862C912CAA24A394B12C312C8981FE
:100CC000381608F086C0412CAC81BD8119968C91F4
:100CD000481608F077C0311002C0442041F0EC8182
:100CE000FD8145814F5F6A81CF010E94FE04D12CB6
:100CF000C12CC61408F05AC0F801EC0DFD1D74900B
:100D0000552061F0EA14FB0449F4E72DF0E0052CCE
:100D100002C0F595E7950A94E2F77E2EAC81BD817D
:100D200019968C91823081F4442009F43BC072946E
:100D30008FE07822E72DF0E0EC53F74F7490672DA9
:100D40008C819D810E94BF04672D8C819D810E94B2
:100D5000BF04EFEFCE1ADE0ACCCF277038E0532E57
:100D6000521A211101C0512C50E040E030E020E047
:100D7000F801461740F4E40FF51FE4912E0F311DE2
:100D80004F5F5F4FF5CFE60FF11D6490E29EF001DB
:100D9000E39EF00DF29EF00D11248E0F9F1F080FA1
:100DA000191F7ECFB72DBF707B2EC4CFD12C2D1431
:100DB00039F060E08C819D810E94BF04D394F7CF0D
:100DC000439482CF3394080D191DFFEFAF1ABF0A69
:100DD00076CF6B818C819D810E94F204C5CE90E01C
:100DE00080E0C4CE2091D803260F3327331F213251
:100DF0003105ECF420918804FC0190E080E024307F
:100E000069F082E00895A091D8032191AC01485483
:100E10005C4FA40FB52FB11D2C930196861798F344
:100E20008091D803680F6093D80380E0089581E033
:100E300008950895E091410480914004E81730F44A
:100E4000F0E0EE5BFB4F808190E008958FEF9FEF25
:100E5000089590914104809140042FEF3FEF98173F
:100E600048F4E92FF0E0EE5BFB4F208130E09F5F1C
:100E700090934104C90108958091400490914104E8
:100E8000891B990B0895CF92DF92EF92FF920F93F7
:100E90001F93CF93DF937C01CB018A0120918E04B5
:100EA000222389F0EB016B01C40ED51ECC15DD05A4
:100EB00069F06991D701ED91FC910190F081E02DED
:100EC000C7010995F3CF642F0E94F206C801DF9194
:100ED000CF911F910F91FF90EF90DF90CF900895E9
:100EE000CF93DF931F92CDB7DEB7698320918E0435
:100EF0002223F9F02091B104203258F021E030E0B3
:100F0000FC013383228390E080E00F90DF91CF914A
:100F1000089580918F04E82FF0E0E057FB4F99810E
:100F200090838F5F80938F048093B10481E090E081
:100F3000ECCF61E0CE0101960E94F206F7CF83303C
:100F400081F028F4813099F08230A9F0089587303B
:100F5000A9F08830C9F08430B1F4809180008F7D91
:100F600003C0809180008F7780938000089584B5BE
:100F70008F7784BD089584B58F7DFBCF8091B000BD
:100F80008F778093B00008958091B0008F7DF9CF66
:100F90001F93CF93DF93282F30E0F901E055F74FEF
:100FA0008491F901E252F74FD491F901E450F74FDF
:100FB000C491CC23A9F0162F81110E949F07EC2F1A
:100FC000F0E0EE0FFF1FEE50F74FA591B4918FB7F1
:100FD000F894EC91111108C0D095DE23DC938FBFFB
:100FE000DF91CF911F910895DE2BF8CF10928804E6
:100FF00081E0809387041092620461E082E10E94A4
:10100000C80761E083E10E94C807E9EBF0E0808156
:101010008E7F808380818D7F808388E48093B80079
:1010200085E48093BC00089510924104109240041E
:1010300010928F041092B1040E94F60784EB94E0A2
:1010400090933F0480933E0485EB94E090933D049D
:1010500080933C040895CF93DF9391E09093B7037E
:101060008823B9F0C091B800D091BA008091BC003B
:101070008A7B8093BC0060E082E10E94C80760E048
:1010800083E10E94C8070E94F607D093BA00C0937C
:10109000B800DF91CF910895CF93DF9390E0FC01EA
:1010A000E252F74F24918450974FFC01849188239A
:1010B000D1F090E0880F991FFC01EA55F74FA591F8
:1010C000B491FC01EE50F74FC591D49161110EC05F
:1010D0009FB7F8948C91E22FE0958E238C93288112
:1010E000E223E8839FBFDF91CF9108958FB7F894F3
:1010F000EC91E22BEC938FBFF6CF8230910538F064
:10110000880F991F880F991F05970197F1F7089588
:10111000AF92BF92CF92DF92EF92FF920F931F9305
:10112000CF93DF93EC0188819981892B89F06EBD83
:101130000DB407FEFDCFBEB48B2DDF91CF911F9173
:101140000F91FF90EF90DF90CF90BF90AF900895F8
:101150008885998511E0892B09F010E8AA24A394C9
:10116000862F812309F0A12C062F2C813D814E81F1
:101170005F8160E271EA87E090E00E94301FF22E0A
:10118000B02EE12CC22ED12CFF2019F0C6010E94F6
:101190007D088A85877F09F042C08D858F3F89F061
:1011A000902F912381E009F480E08A1551F0EF85BA
:1011B000F8898F89992369F19081892B8083AA24EA
:1011C000A394E989FA898081998D892B8083FF20F6
:1011D00019F0C6010E947D088E858F3F39F0EB899A
:1011E000FC898081988D892309F0E12AE989FA89AF
:1011F0009081898D8095892380838E858F3F09F02A
:10120000BE2C88859985892BB9F5110F1111BCCF9A
:1012100093CF9081809589238083A12CD2CFE989B7
:10122000FA898081998D892B8083FF2019F0C6016E
:101230000E947D088D858F3F49F0EF85F8898F8961
:10124000902F9123A9F09081892B8083E989FA89D5
:101250009081898D8095892380838E858F3F69F267
:10126000EB89FC898081988D892339F2E12AC5CFE9
:10127000908180958923E9CF1695C8CFCF92DF92D0
:10128000EF92FF920F931F93CF93DF93EC018B01AB
:101290006A01790188819981892B31F0EA81FB818A
:1012A000808191810E94BC0460E08B850E94C80708
:1012B000F8016081CE010E9488088601EC0CFD1CBB
:1012C000E016F10641F06FEFCE010E948808F801A8
:1012D00081938F01F5CF61E08B850E94C80781E083
:1012E000DF91CF911F910F91FF90EF90DF90CF9002
:1012F00008953FB7F8948091B3039091B403A091FF
:10130000B503B091B60326B5A89B05C02F3F19F0D1
:101310000196A11DB11D3FBFBA2FA92F982F882775
:10132000BC01CD01620F711D811D911D42E0660F50
:10133000771F881F991F4A95D1F70895CF92DF92A2
:10134000EF92FF920F931F93CF93DF93D091B1044D
:1013500081E0D13208F09CC0C091B0040E947909AC
:101360006B017C018091880481116CC082E08093C4
:10137000880481E0809387048FEF80938604109225
:101380008504D0938404A0E9B4E0E4E6F4E080E0CE
:10139000D8138DC01092630480916304CC0FC82BC6
:1013A000C093630480916204813009F084C010927C
:1013B00062040E9479096B017C018091630480932F
:1013C000BB0080918A0490918B04A0918C04B09111
:1013D0008D04892B8A2B8B2BA1F00E947909009117
:1013E0008A0410918B0420918C0430918D046C1927
:1013F0007D098E099F09061717072807390708F482
:1014000042C08091BC0083FDD8CF85EC8093BC00A6
:101410000E9479096B017C0180918804823009F473
:101420004CC0809186048F3F09F469C08091860486
:10143000803209F466C080918604803309F463C069
:1014400084E026C080918A0490918B04A0918C0442
:10145000B0918D04892B8A2B8B2B09F483CF0E94AA
:10146000790900918A0410918B0420918C043091A9
:101470008D046C197D098E099F0906171707280727
:10148000390708F06FCF809189040E942B0885E00E
:1014900010928F041092B10410928E04DF91CF91BC
:1014A0001F910F91FF90EF90DF90CF9008959D9145
:1014B00091938F5F6DCF85EEA9CF80918A04909133
:1014C0008B04A0918C04B0918D04892B8A2B8B2BDB
:1014D00009F4A2CF0E94790900918A0410918B042B
:1014E00020918C0430918D046C197D098E099F091F
:1014F000061717072807390708F08ECFC4CF80E0FA
:10150000C7CF82E0C5CF83E0C3CFEBE5F5E09181A3
:1015100062818081238131E030938E042093B00476
:1015200010928F041092B10460956923682B82EBAE
:1015300094E00E9470070C949E09CF92DF92EF9284
:10154000FF920F931F93CF93DF93D82FC62F613253
:1015500008F098C00E9479096B017C018091880491
:1015600081116BC081E080938804809387049FEF92
:1015700090938604109285049C0F9093840480932A
:10158000630480916304DD0FD82BD09363048091B2
:101590006204813009F078C0109262040E947909D7
:1015A0006B017C01809163048093BB0080918A046D
:1015B00090918B04A0918C04B0918D04892B8A2B7F
:1015C0008B2BA1F00E94790900918A0410918B0461
:1015D00020918C0430918D046C197D098E099F092E
:1015E000061717072807390708F448C08091BC0080
:1015F00083FDD8CF85EC8093BC000E9479096B01F4
:101600007C0180918804813009F440C08091850478
:101610008C1710F4C0918504E4E6F4E0A2E4B4E091
:1016200080E08C1355C08C2FDF91CF911F910F91CB
:10163000FF90EF90DF90CF90089580918A04909171
:101640008B04A0918C04B0918D04892B8A2B8B2B59
:1016500009F484CF0E94790900918A0410918B04C7
:1016600020918C0430918D046C197D098E099F099D
:10167000061717072807390708F070CF80918904EB
:101680000E942B08C0E0CFCF85EEB5CF80918A04B1
:1016900090918B04A0918C04B0918D04892B8A2B9E
:1016A0008B2B09F4AECF0E94790900918A04109126
:1016B0008B0420918C0430918D046C197D098E0966
:1016C0009F09061717072807390708F09ACFD6CFC2
:1016D00091919D938F5FA5CF8F929F92AF92BF9272
:1016E000CF92DF92EF92FF924B015C010E94790949
:1016F0006B017C010E9479096C197D098E099F0993
:10170000683E734081059105A8F321E0821A910893
:10171000A108B10888EEC80E83E0D81EE11CF11CB8
:1017200081149104A104B10429F7FF90EF90DF9098
:10173000CF90BF90AF909F908F9008950895DB0158
:1017400014964D915C9115976D917C91DC01ED9112
:10175000FC910280F381E02D0994CF93DF93EC019B
:1017600062E070E080E090E00E946C0BBE0184E5D6
:1017700096E00E949F0BBE018EEB94E0DF91CF912B
:101780000C949F0BAF92BF92CF92DF92EF92FF9299
:101790000F931F93CF93DF936C017B018B01040F99
:1017A000151FEB015E01AE18BF08C017D10759F035
:1017B0006991D601ED91FC910190F081E02DC60177
:1017C0000995892B79F7C501DF91CF911F910F9171
:1017D000FF90EF90DF90CF90BF90AF900895FC0105
:1017E000538D448D252F30E0842F90E0821B930B86
:1017F000541710F0CF96089501970895FC01918D2C
:10180000828D981761F0A28DAE0FBF2FB11D5D962E
:101810008C91928D9F5F9F73928F90E008958FEFD0
:101820009FEF0895FC01918D828D981731F0828D84
:10183000E80FF11D858D90E008958FEF9FEF0895DB
:10184000FC01918D228D892F90E0805C9F4F821B3F
:1018500091098F73992708958EEB94E00E94200CD4
:1018600021E0892B09F420E0822F089580E090E0A8
:10187000892B29F00E942C0C81110C9400000895F2
:10188000FC01A48DA80FB92FB11DA35ABF4F2C91F5
:10189000848D90E001968F739927848FA689B789EC
:1018A0002C93A089B1898C91837080648C93938DE3
:1018B000848D981306C00288F389E02D80818F7D86
:1018C00080830895EF92FF920F931F93CF93DF933E
:1018D000EC0181E0888F9B8D8C8D98131AC0E8896C
:1018E000F989808185FF15C09FB7F894EE89FF893B
:1018F0006083E889F98980818370806480839FBFD9
:1019000081E090E0DF91CF911F910F91FF90EF90D8
:101910000895F62E0B8D10E00F5F1F4F0F731127E8
:10192000E02E8C8D8E110CC00FB607FCFACFE88923
:10193000F989808185FFF5CFCE010E94400CF1CF5F
:10194000EB8DEC0FFD2FF11DE35AFF4FF0829FB797
:10195000F8940B8FEA89FB8980818062CFCFEF9268
:10196000FF920F931F93CF93DF938C017B01D0E005
:10197000C0E0F701EC0FFD1F6491662339F0C80148
:101980000E94620C892B11F02196F3CFCE01DF91DA
:10199000CF911F910F91FF90EF900895CF93DF9318
:1019A000EC01888D8823B9F0AA89BB89E889F98977
:1019B0008C9185FD03C0808186FD0DC00FB607FCAC
:1019C000F7CF8C9185FFF2CF808185FFEDCFCE01DF
:1019D0000E94400CE9CFDF91CF9108958F929F92A2
:1019E000AF92BF92CF92DF92EF92FF920F931F932D
:1019F000CF93DF9300D0CDB7DEB77C016B0110E051
:101A000000E0AA24A39492E0992EF701818992899B
:101A1000009701F19A8221E030E0AE014F5F5F4F05
:101A2000BE016E5F7F4F0E943E0981E09981913037
:101A300009F434C080E0C114D10429F0065F1F4FBF
:101A4000C016D10658F16AE070E080E090E00E9494
:101A50006C0BDBCF208130E0F901E055F74F84912A
:101A6000F901E252F74FB490F901E450F74F849036
:101A7000882079F081110E949F07E82DF0E0EE0F99
:101A8000FF1FEC52F74FA591B491EC91BE2281E07B
:101A900009F480E08A25817009F4CDCF0F900F9072
:101AA000DF91CF911F910F91FF90EF90DF90CF903A
:101AB000BF90AF909F908F900895682F82EB94E035
:101AC0000C9470070F931F93CF93DF93EC01062FB5
:101AD000142F8E85813120F4882329F0411103C011
:101AE0000E949E091E868E85811112C08D8591E00F
:101AF00090938E048093B00410928F041092B104DE
:101B000060E4111101C060E082EB94E00E94700774
:101B1000602F82EB94E00E947007123041F48E85B2
:101B20008F5F8E87DF91CF911F910F9108950E9453
:101B30009E091E86F7CF90E080E0089590E0FC01BA
:101B4000EE0FFF1FE852F74FA591B4912C91FC01C5
:101B5000E656FC4F30812083880F991FFC01E25D1F
:101B6000FE4F0190F081E02D80810895CF92DF92A9
:101B7000EF92FF920F931F93CF93DF931F92CDB7F6
:101B8000DEB7062FD72E142FFC018189928900978A
:101B9000A9F023E02983242F30E0462F572FBE01E0
:101BA0006F5F7F4F0E943E090F90DF91CF911F9191
:101BB0000F91FF90EF90DF90CF90089562E070E07A
:101BC00080E090E00E946C0B62E0610F84E20E9472
:101BD0009D0A109241048093400482EB94E00E949D
:101BE0002907C02EE02EFD2C61E070E080E090E03F
:101BF0000E946C0B82EB94E00E942907F70181930D
:101C00007F018E2F8C19811778F3CECFFB010190C5
:101C10000020E9F73197AF01461B570BDC01ED912E
:101C2000FC910280F381E02D09948F929F92AF92F4
:101C3000BF92EF92FF920F931F93CF93DF93CDB795
:101C4000DEB7A1970FB6F894DEBF0FBECDBF7C0103
:101C5000FA01CB0119A2223008F42AE08E010F5DAF
:101C60001F4F822E912CB12CA12CBF01A5019401F4
:101C70000E94301FF901CA016A300CF5605DD8017D
:101C80006E938D01232B242B252B79F790E080E098
:101C9000109721F0BD01C7010E94060EA1960FB654
:101CA000F894DEBF0FBECDBFDF91CF911F910F9192
:101CB000FF90EF90BF90AF909F908F900895695CD8
:101CC000DECF62E771E00C94060ECF93DF93EC0158
:101CD00062E070E080E090E00E946C0BBE0184E561
:101CE00096E00E949F0B84E596E00E94610EBE0183
:101CF0008EEB94E00E949F0B8EEB94E0DF91CF91EE
:101D00000C94610E0F931F93CF93DF93EC010E940D
:101D1000060E8C01CE010E94610E800F911FDF9193
:101D2000CF911F910F9108950F931F93CF93DF933E
:101D3000EC010E94AF0C8C01CE010E94610E800F5D
:101D4000911FDF91CF911F910F9108950F931F93D2
:101D5000CF93DF93EC018B0162E070E080E090E0D4
:101D60000E946C0B61E08EE00E94C8078EEB94E04D
:101D70000E94610E65E771E08EEB94E00E94060E12
:101D8000B8018EEB94E00E949F0B68E771E08EEB48
:101D900094E00E94060EBE018EEB94E00E949F0B21
:101DA0006AE771E08EEB94E00E94820E64E170E0DD
:101DB00080E090E00E946C0B60E08EE0DF91CF91BC
:101DC0001F910F910C94C8072F923F924F925F92F0
:101DD0006F927F928F929F92AF92BF92CF92DF923B
:101DE000EF92FF920F931F93CF93DF9300D000D019
:101DF00000D01F92CDB7DEB77C014A012DB63EB6AA
:101E0000DC015196CD90DC90BB24B394B60EA62E87
:101E1000A0946B2C712CC114D10409F495C04DB65B
:101E20005EB670E0685F7F4FEDB7FEB7E61BF70B5D
:101E30000FB6F894FEBF0FBEEDBF0DB71EB70F5F14
:101E40001F4F81E08183D80111961C921197129641
:101E50001C9212978FEF13968C9313971496BC9243
:101E600014971596AC92159784ED16968C932DB712
:101E70003EB7285F3F4FF90163EDA301415051097F
:101E80008E2F821B90E0841795073CF484509C4F62
:101E9000DC018C918193680FF3CF60956083118290
:101EA000B8E06B0E711CF60180819181892B39F0AD
:101EB0000280F381E02D808191810E94BC0460E06A
:101EC000D6011B968C910E94C8075801F5016191BB
:101ED0005F01C6010E948808C501801B910B861511
:101EE0009705A0F361E0D6011B968C910E94C8076C
:101EF0000FB6F8945EBE0FBE4DBEB401C7010E947E
:101F0000EE0C182F811162C010E0812F0FB6F894EB
:101F10003EBE0FBE2DBE27960FB6F894DEBF0FBE95
:101F2000CDBFDF91CF911F910F91FF90EF90DF9088
:101F3000CF90BF90AF909F908F907F906F905F9069
:101F40004F903F902F90089562E070E080E090E025
:101F50000E946C0B81E080938E0484E28093B00435
:101F600010928F041092B10480E00E945D0D80E019
:101F70000E945D0D8FEF0E945D0D8B2D0E945D0D07
:101F80008A2D0E945D0D84ED0E945D0DC12C83EDB4
:101F9000D82EB1E06B1A71080C2D10E0061517054C
:101FA0005CF404501C4FF80180810E945D0DD80143
:101FB0008C91D80EC394F0CF8D2D80950E945D0D2D
:101FC00080E00E945D0D0E949E0997CFF7018189F4
:101FD0009289009721F123E02F8326E030E0AE01C3
:101FE0004F5F5F4FBE01695F7F4F0E943E0946E031
:101FF00050E06AE171E0CE0101960E943A21892BFE
:1020000009F082CFD70151968D919C91892B09F4CB
:102010007CCFB401C7010E94EE0C182F76CF46E0AA
:10202000BE016F5F7F4FC7010E94B60DE0CF85ED07
:102030008093BC0080918A0490918B04A0918C04C1
:10204000B0918D040796A11DB11D23E0B695A7950B
:10205000979587952A95D1F72091BC0024FD03C060
:1020600010928804089540918A0450918B046091E5
:102070008C0470918D04452B462B472B69F30097F8
:10208000A105B10541F025E32A95F1F7000001977C
:10209000A109B109E1CF809189040C942B08CF9359
:1020A000DF93EC0188819981009711F00E94F41F61
:1020B000198218821D821C821B821A82DF91CF91A5
:1020C0000895FC0180819181009711F00C94F41F18
:1020D00008950F931F93CF93DF93EC01888199812B
:1020E000009759F02A813B812617370730F081E0AD
:1020F000DF91CF911F910F9108958B016F5F7F4FFB
:102100000E947D20009759F0998388831B830A835E
:102110002C813D81232B59F7FC011082E8CF80E010
:10212000E7CFEF92FF920F931F93CF93DF93611549
:10213000710541F480E0DF91CF911F910F91FF90E5
:10214000EF90089541155105B1F07B01EC010C8130
:102150001D81040F151FB8010E946910882351F3D7
:10216000288139818C819D81B701820F931F0E9444
:1021700059211D830C8381E0DECFFB0101900020FB
:10218000E9F73197AF01461B570B0C949110EF9272
:10219000FF920F931F93CF93DF93EC017B018A0192
:1021A000BA010E94691081110BC0CE010E944F102C
:1021B000CE01DF91CF911F910F91FF90EF90089585
:1021C0001D830C83B701888199810E945921F0CF2A
:1021D000EF92FF920F931F93CF93DF93CDB7DEB7AC
:1021E00062970FB6F894DEBF0FBECDBF8C01CB0156
:1021F000F8011182108213821282158214824AE041
:102200009E012F5F3F4F7901B9010E94C41EF70163
:1022100001900020E9F73197AF014E195F09B7012E
:10222000C8010E94C71062960FB6F894DEBF0FBEB9
:10223000CDBFDF91CF911F910F91FF90EF90089547
:10224000FC01118210821382128215821482FB011A
:1022500001900020E9F73197AF01461B570B0C9412
:10226000C7101F920F920FB60F9211242F933F9316
:102270004F935F936F937F938F939F93AF93BF938E
:10228000EF93FF938091B900887F803609F44AC0AC
:10229000F0F5883209F4A7C018F5803109F49BC025
:1022A000B8F4882309F4F9C0883009F494C0FF9188
:1022B000EF91BF91AF919F918F917F916F915F91BE
:1022C0004F913F912F910F900FBE0F901F90189537
:1022D000883109F488C0803251F78093860414C095
:1022E000803409F49DC040F48033B9F38833F9F6A3
:1022F0008093860485ECB0C0803509F485C08835AC
:1023000009F496C0883499F60E941710D0CF883906
:1023100009F48CC038F5883729F050F4883611F06C
:10232000803729F683E0809388041092FA0357C01F
:10233000883809F47BC0803919F0803809F0B7CFAC
:102340008091FA03803208F071C0E091FA0381E0D5
:102350008E0F8093FA038091BB00F0E0E652FC4FB1
:1023600080833DC0803B39F0E0F4803A09F479C0C5
:10237000883A09F09CCF84E0809388041092D903B6
:102380001092D803E0913E04F0913F0409958091AA
:10239000D80381110FC081E08093D8031092B80355
:1023A00009C0803C09F4A6CF883C09F4A3CF883B40
:1023B00009F07DCFE091D90381E08E0F8093D9039E
:1023C000F0E0E854FC4F80818093BB009091D903EA
:1023D0008091D80329C0809163048093BB0085EC71
:1023E0008093BC0064CF90918504809184049817F9
:1023F00058F5E091850481E08E0F80938504F0E02C
:10240000EC59FB4F8081E9CFE091850481E08E0F8C
:10241000809385048091BB00F0E0EC59FB4F8083F2
:1024200090918504809184049817C8F285E8D8CFEC
:10243000E091850481E08E0F809385048091BB003C
:10244000F0E0EC59FB4F80838091870481115CCFD1
:1024500081E08093620484EA8093BC001092880437
:1024600026CF85EC8093BC00109288048091FA03FB
:10247000803230F4E091FA03F0E0E652FC4F108233
:102480006091FA0370E0E0913C04F0913D048AED24
:1024900093E009951092FA030ACF1092860434CF84
:1024A0001F920F920FB60F9211242F933F938F9389
:1024B0009F93AF93BF938091AF039091B003A0918E
:1024C000B103B091B2033091AE0323E0230F2D3757
:1024D00058F50196A11DB11D2093AE038093AF0363
:1024E0009093B003A093B103B093B2038091B30370
:1024F0009091B403A091B503B091B6030196A11DCC
:10250000B11D8093B3039093B403A093B503B0932C
:10251000B603BF91AF919F918F913F912F910F90F3
:102520000FBE0F901F90189526E8230F0296A11D4D
:10253000B11DD2CF1F920F920FB60F9211242F937D
:102540003F934F935F936F937F938F939F93AF933B
:10255000BF93EF93FF938EEB94E00E94400CFF91AA
:10256000EF91BF91AF919F918F917F916F915F910B
:102570004F913F912F910F900FBE0F901F90189584
:102580001F920F920FB60F9211242F938F939F9348
:10259000EF93FF93E091CE04F091CF048081E0911E
:1025A000D404F091D50482FD1BC090818091D704A2
:1025B0008F5F8F732091D804821741F0E091D70488
:1025C000F0E0E254FB4F958F8093D704FF91EF9199
:1025D0009F918F912F910F900FBE0F901F90189584
:1025E0008081F4CF1F920F920FB60F9211242F9378
:1025F0003F934F935F936F937F938F939F93AF938B
:10260000BF93EF93FF9382E00E949E0DFF91EF91A5
:10261000BF91AF919F918F917F916F915F914F91FA
:102620003F912F910F900FBE0F901F9018951F9202
:102630000F920FB60F9211242F933F934F935F93F6
:102640006F937F938F939F93AF93BF93EF93FF937A
:1026500081E00E949E0DFF91EF91BF91AF919F91FC
:102660008F917F916F915F914F913F912F910F903B
:102670000FBE0F901F9018951F920F920FB60F92DA
:1026800011242F933F934F935F936F937F938F9377
:102690009F93AF93BF93EF93FF9380E00E949E0DB3
:1026A000FF91EF91BF91AF919F918F917F916F912A
:1026B0005F914F913F912F910F900FBE0F901F9000
:1026C0001895FF920F931F93CF93DF938C01F62EF3
:1026D0008FEFF801808381838CE190E00E94581F86
:1026E000EC01FB868DE08C878CE08E878BE08D87FC
:1026F0006F2D70E0FB01E450F74FE491F0E0EE0F36
:10270000FF1FEE50F74F859194919E8B8D8BFB01AF
:10271000E252F74FE491EA8FE7E0F9E0E491F0E06C
:10272000EE0FFF1FEE50F74F85919491988B8F8796
:10273000E9EEF8E0E491EF8BE8E0F9E0E491F0E015
:10274000EE0FFF1FEC52F74F859194919C8B8B8B72
:10275000EAEEF8E0E491E88FE9E0F9E0E491F0E0F6
:10276000EE0FFF1FEE50F74F859194919A8B898B56
:10277000EBEEF8E0E491E98F80EA96E8A1E0B0E0C2
:102780008C839D83AE83BF83198618861A861B8E21
:1027900082E090E00E94581F23E7FC012083118211
:1027A0009B838A8319821882F801D28BC18BDF91B7
:1027B000CF911F910F91FF9008951092B504109240
:1027C000B40488EE93E0A0E0B0E08093B604909368
:1027D000B704A093B804B093B90424E431E0309373
:1027E000B3042093B2041092C1041092C0048093E9
:1027F000C2049093C304A093C404B093C50486E5B7
:1028000091E09093BF048093BE0485EC90E0909398
:10281000CB048093CA0484EC90E09093CD04809321
:10282000CC0480EC90E09093CF048093CE0481ECB4
:1028300090E09093D1048093D00482EC90E0909348
:10284000D3048093D20486EC90E09093D5048093D7
:10285000D4041092D7041092D8041092D904109284
:10286000DA0461E871E08BE796E00E94201167E9E5
:1028700071E085E796E00E94201162EA71E08FE640
:1028800096E00E94201160EB71E089E696E00E94DC
:10289000201167EB71E083E696E00E942011109210
:1028A00057061092560681E080935D0610926006EE
:1028B00010925F0688E691E0909355068093540647
:1028C000E2E1F6E024E536E081E04FEF5FEF92E0F1
:1028D0008083118213821282158214825783468369
:1028E00010861286118683871486958786871786B9
:1028F000108A118A128A76962E173F0749F768E0E8
:102900008FEF95E00E94611367E08CEE95E00E94E6
:10291000611364E089ED95E00E94611362E086EC4A
:1029200095E00E94611383E1EFEFF5E0AAE7B5E0DF
:1029300001900D928A95E1F783E1ECEEF5E0ADE8C8
:10294000B5E001900D928A95E1F783E1E9EDF5E0BC
:10295000A0EAB5E001900D928A95E1F783E1E6ECFB
:10296000F5E0A3EBB5E001900D928A95E1F71092A6
:102970005B0510925C0510925D0510925E05109249
:102980005F05109260051092610510926205109229
:102990006305109264051092650510926605109209
:1029A0006705109268051092690510926B051092E8
:1029B0006A0510926D0510926C0510926F051092C9
:1029C0006E051092710510927005109273051092A9
:1029D0007205109275051092740510927705109289
:1029E000760510927905109278050895CF93DF93BC
:1029F000CDB7DEB7E0970FB6F894DEBF0FBECDBF00
:102A0000789484B5826084BD84B5816084BD85B5C9
:102A1000826085BD85B5816085BD80916E008160D5
:102A200080936E001092810080918100826080937B
:102A3000810080918100816080938100809180007D
:102A40008160809380008091B10084608093B100A8
:102A50008091B00081608093B00080917A008460A2
:102A600080937A0080917A00826080937A008091CE
:102A70007A00816080937A0080917A0080688093E8
:102A80007A001092C1000E94140888E48093B80074
:102A9000E091CE04F091CF0482E08083E091CA04FB
:102AA000F091CB041082E091CC04F091CD0480E150
:102AB00080831092D604E091D204F091D30486E092
:102AC0008083E091D004F091D10480818061808383
:102AD000E091D004F091D104808188608083E091FE
:102AE000D004F091D104808180688083E091D0048B
:102AF000F091D10480818F7D808364E670E080E076
:102B000090E00E946C0B61E08EE00E944C086DEE3C
:102B100075E08EEB94E00E94940E66ED75E08EEB0E
:102B200094E00E94940E6FEB75E08EEB94E00E94AF
:102B3000940E64E170E080E090E00E946C0B6BEB1F
:102B400071E08E010F5F1F4FC8010E9420116FEBD3
:102B500071E0CE0141960E942011B801CE0141964C
:102B60000E94A60ECE0141960E946110C8010E94EB
:102B700061106BEB71E0C8010E9420116DEC71E0F7
:102B8000CE0141960E942011B801CE0141960E94CB
:102B9000A60ECE0141960E946110C8010E946110EC
:102BA0006BEB71E0C8010E94201169ED71E0CE016C
:102BB00041960E942011B801CE0141960E94A60EB6
:102BC000CE0141960E946110C8010E94611064EA22
:102BD00075E08EEB94E00E94AF0C20E14CE350E0F6
:102BE00060E070E08EEB94E00E94150E8EEB94E0B6
:102BF0000E94610E6AE070E080E090E00E946C0B41
:102C0000109262068CE3809361061092580610922F
:102C10005906EEE9F5E0A590B490E0EAF5E0D4902D
:102C2000E1EAF5E0E491E0935A06E2EAF5E0E491A6
:102C3000E0935B06E3EAF5E0E491E0935C06F12CB7
:102C4000E12CED1460F4F701EA0DFB1D649184E5BD
:102C500096E00E94D4042FEFE21AF20AF2CF10920B
:102C60005E060E944A0580915B06803429F40E942A
:102C70004A0581E080935E068AE890E090936006C2
:102C800080935F060E944A056FE770E08EEB94E048
:102C90000E94940E6AE070E080E090E00E946C0B6D
:102CA00084E096E09093600680935F0666EE71E0A4
:102CB0008EEB94E00E94820E63EF71E08EEB94E065
:102CC0000E94820E63EF71E08EEB94E00E94820E10
:102CD00063EF71E08EEB94E00E94820E88E199E24E
:102CE0000FB6F894A895809360000FBE9093600093
:102CF0008EEB94E00E94610E62E072E0C8010E94D7
:102D00002011C8010E94650EC8010E9461106AE08E
:102D100070E080E090E00E946C0B64E771E0CE010F
:102D200049960E94201128E0C22ED12CEE24E39473
:102D3000FC2CE0928E04C092B00410928F0410928A
:102D4000B1040E949E098111A4C062E172E0C80131
:102D50000E942011C8010E94AD0BC8010E946110A1
:102D60006AE172E0C8010E942011C8010E94AD0B07
:102D7000C8010E9461101A8A198A1C8A1B8A1E8A3D
:102D80001D8A4AE0B801C6010E94CF1EF8010190D9
:102D90000020E9F73197AF01401B510BB801CE017C
:102DA00041960E94C710898D9A8D009709F44FC0F3
:102DB00069897A896115710509F447C04B8D5C8D6D
:102DC0002D893E894217530708F43FC00E945921BC
:102DD0008D899E899E8F8D8F1E8A1D8ACE01419678
:102DE0000E9461101A8219821C821B821E821D821F
:102DF000698D7A8D6115710529F04D8D5E8DC80143
:102E00000E94C710C8010E94AD0BC8010E9461104A
:102E10006FE172E0C8010E942011C8010E94650E96
:102E2000C8010E946110E8ECEF0DE83008F0ABC17A
:102E3000F0E0E35EF84E0C94521F3817B718B7183D
:102E4000B718BA18BD18C318C0180E94F41F898992
:102E50009A899A8F898F8B899C899C8F8B8F8D897A
:102E60009E899E8F8D8F1A8A198A1C8A1B8AB4CFDD
:102E700063E272E0C8010E942011C8010E94650E41
:102E8000C8010E94611061E070E080E090E00E9463
:102E90006C0B4FEFC41AD40A58E7C516D10409F0D9
:102EA00047CF61E672E0C8010E942011C8010E946C
:102EB000650EC8010E9461106AE070E080E090E059
:102EC0000E946C0BCE0149960E94611063E772E08C
:102ED000C8010E942011C8010E94AD0BC8010E94C8
:102EE000611066EF77E08EEB94E00E94AF0C6AE031
:102EF00070E080E090E00E946C0B8EE0282E81E074
:102F0000382E84E191E09FA78EA792E1C92E96E02A
:102F1000D92ED101ED90FD901D01EEA5FFA5819068
:102F20009190FFA7EEA75401AA0CBB1CA80CB91CDA
:102F3000C5010E94581F009721F4B12CA12C912C9F
:102F4000812CF701E450F74FE491F0E0EE0FFF1F02
:102F5000EE50F74F25913491F701E252F74FE4918B
:102F6000F1E0D601FC9311961C92119713969C9256
:102F70008E9212971596BC92AE9214971796FC9269
:102F8000EE92169718961C9218971A969C938E9309
:102F9000199741E01B964C931B9752E01C965C934B
:102FA0001C971D961C921D971E964C931E971F965C
:102FB0001D921D921D921C92529754963C932E93F3
:102FC00053975596EC930E94F41FF7FC04C060E001
:102FD0008E2D0E944C08F6018681978197FD09C0CD
:102FE00061E00E944C0860E0D60116968C910E9428
:102FF000C80721E0F601218372E1E72E76E0F72E83
:10300000B12CA12CD70112968D919C911397A816E3
:10301000B90608F002C11E96EC911E9719968D9183
:103020009C911A971B962C91E213B0C09501220F28
:10303000331F2A0D3B1D820F931FD7011B96EC9166
:103040001B97E80FF92FF11D10821C96EC911C972D
:10305000E80FF92FF11D10821D962C911D97820FFC
:10306000911DFC01108219968D919C91892B09F478
:103070007AC0D7011F964D905D906D907C905297CD
:103080000E947909641575058605970538F40E9434
:103090007909F7016787708B818B928B0E94790980
:1030A000D7011F964D905D906D907C90529764195A
:1030B0007509860997096C32714081059105C8F23E
:1030C000F894F701848195819EA38DA30184F285F4
:1030D000E02D4F012FEF821A920A80818DA7D70130
:1030E0009C915396ED91FC91549755968C91992310
:1030F00009F458C09081982B9CA7908180958923D2
:103100008BA78BA588A7B8E0BFA36CA53BA55DA541
:103110004FA128A58DA19EA1D401608357FD262F24
:103120004A952083232F39F0551F00C000003083BB
:10313000000000C0F2CF48E05D91308300000197AD
:1031400061F7D7015496FC93EE9353975DA74FA375
:1031500028A79EA38DA378940E947909F701678719
:10316000708B818B928BFFEFAF1ABF0A4BCF64E35A
:1031700072E080CE6EE372E07DCE6EE472E07ACED5
:1031800063E572E077CE69E572E074CE9501220FB7
:10319000331F220F331F820F931FE80FF92FF11DEA
:1031A00010824BCF9081982B9CA79081809589238A
:1031B0008BA78BA58AA7B8E0B9A76CA53BA55DA591
:1031C00049A52AA58DA19EA1D401608357FD262F74
:1031D00000C000C0208300C000C000C000C000C00C
:1031E00030830000232F4A9541F0551F000000C096
:1031F00000C000C000C000C0E8CF48E05D9100C042
:10320000308300C0019709F7D7015496FC93EE93E1
:1032100053975DA749A72AA79CCF6AE070E080E09A
:1032200090E00E946C0B26E1E20EF11C4EE3E416E6
:1032300046E0F40609F0E4CE56E1C50ED11C82E169
:1032400091E08215930509F064CE68E270E080E0B9
:1032500090E00E946C0B6AEE77E08EEB94E00E94A7
:10326000940E6AE070E080E090E00E946C0B60E8F1
:1032700072E0C8010E942011C8010E94650EC801B9
:103280000E946110A8959AE7E92E95E0F92EB12CDD
:10329000A12C22E0622E38EE832E38E0932E44E1FA
:1032A000742E6DE872E0C8010E942011C8010E94CE
:1032B000AD0BC8010E946110B501C8010E94E81061
:1032C000C8010E94650EC8010E9461106EE778E097
:1032D0008EEB94E00E94AF0CD7015196CD90DC901C
:1032E000C114D10409F4D9C061E0F60183850E94BC
:1032F0004C0861E0D6011B968C910E94C807F6012C
:1033000080819181892B09F4A3C05FB6F8948091E4
:103310009D03811126C0E6E0F9E08491F4019491C7
:10332000E82FF0E0EE0FFF1FEA55F74FA591B4919B
:103330008C91982321F461E08AE00E94C80761E043
:103340008AE00E944C088CB580618CBD8CB580648D
:103350008CBD61E08DE00E944C0861E08BE00E9432
:103360004C0880919D038F5F80939D035FBE81E039
:10337000D6015B968C936092FC0344E650E061E0DA
:10338000C7010E94E40EF2E3F093FC0325E02093D2
:10339000FD034FEF4093FE0381E08093FF032093F2
:1033A000000444E650E065E0C7010E94E40ED12C21
:1033B000C12C6092FC0344E650E061E0C7010E942A
:1033C000E40E88AB811188C065E678E08EEB94E06E
:1033D0000E94AF0C56E0C516D104B4F16DE478E05C
:1033E0008EEB94E00E94AF0C65E070E080E090E02E
:1033F0000E946C0B65E078E08EEB94E00E94940EE6
:1034000062E370E080E090E00E946C0BF3E02F2E0E
:10341000312C412C512C2AE0B201A1018EEB94E019
:103420000E94150E8EEB94E00E94610E64E670E03F
:1034300080E090E00E946C0B81E0281A310841087E
:10344000510849F70C940000EFEFCE1ADE0AB1CF15
:1034500061E084850E944C08F60182858B7FD1F45F
:1034600060E084850E94C807F60185858F3F49F09A
:1034700061E00E944C0861E0D6011D968C910E948B
:10348000C807F60186858F3F09F471CF60E00E947E
:103490004C086DCF61E08485E5CF0E94140861E09F
:1034A000F70181810E94C80760E0D70111968C91D5
:1034B0000E94C80760E971E080E090E00E946C0B18
:1034C00061E0F70181810E94C8076AE070E080E056
:1034D00090E00E946C0B57CF4CE06CEF73E0C7019B
:1034E0000E94B60D46E050E060E071E08CEF93E0A2
:1034F0000E943A21892B09F067CF20900304309075
:103500000404322423243224512C412C542C432CE7
:10351000322C222480910504282A542C432C322C4E
:10352000222480910604282A2114310441045104E4
:1035300009F44ACF6EE378E08EEB94E00E94AF0C82
:10354000452D55276627772720E18EEB94E00E94D2
:10355000150E8EEB94E00E94610E6FE278E08EEB28
:1035600094E00E94AF0C442D50E070E060E02AE04F
:103570008EEB94E00E94150E6EE28EEB94E00E94BA
:10358000620C432D50E070E060E02AE08EEB94E0A6
:103590000E94150E8EEB94E00E94610E7092FC0367
:1035A00081E08093FD037092FE038093FF0344E665
:1035B00050E064E0C7010E94E40E882331F048E047
:1035C0006CEF73E0C7010E94B60D62E370E080E02B
:1035D00090E00E946C0B63E178E08EEB94E00E9437
:1035E000AF0C60EA72E0C8010E942011C8010E947D
:1035F000650EC8010E946110A8959FEFA91AB90A2B
:10360000A3E1EA0EF11CB3E0AB16B10409F049CE18
:10361000A8956FE370E0CE0141960E94E81069EA38
:1036200072E0C8010E9420114D895E8969897A89FA
:10363000C8010E949110811103C0C8010E944F105F
:103640001A8E198E1C8E1B8E1E8E1D8E69817A819C
:103650006115710531F04D815E81CE0149960E9460
:10366000C710CE0149960E94650ECE0149960E9470
:103670006110C8010E946110CE0141960E94611044
:103680008FE380935E050E94140880915C0580930F
:103690005F0561E080915E050E949D0A10924104E1
:1036A00080934004811101C0FFCF82EB94E00E941F
:1036B000290780935C055AE0E52E51E0F52E66E07F
:1036C000C62E61E0D62EAA24A394B12C47012091E6
:1036D0005D05D7018D919D917D01F50102C0EE0F31
:1036E000FF1F8A95E2F7CF01922F982B90935D05EB
:1036F00090915B058095892380935B050E94850AE4
:10370000D6012C91B2E0CB0ED11CC501F401008092
:1037100002C0880F991F0A94E2F790915B0522235B
:1037200009F41DC1892B80935B050E94850A67EB14
:1037300072E0C8010E942011C8010E94AD0BC801AF
:103740000E946110F701329760817181C8010E9467
:10375000E810C8010E94AD0BC8010E9461106FEB18
:1037600072E0C8010E942011C8010E94AD0BC8017F
:103770000E946110F601329760817181C8010E9438
:10378000E810C8010E94AD0BC8010E946110FEE064
:10379000EF16F1E0FF0609F099CF1A8219821C8218
:1037A0001B821E821D8266E170E0C8010E946910C2
:1037B0008111D8C0C8010E944F10CE0101960E940D
:1037C000650ECE0101960E946110A8952FB7F8945E
:1037D0008091AF039091B003A091B103B091B20377
:1037E0002FBF80939E0390939F03A093A003B09359
:1037F000A10362E070E080E090E00E946C0B8E011B
:103800000F5E1F4F6BEB71E0C8010E94201169EC45
:1038100072E0CE0101960E942011B801CE010196FE
:103820000E94A60ECE0101960E946110C8010E945E
:1038300061108EEB94E00E94610E64ED72E0CE01A7
:1038400001960E942011CE0101960E94650ECE01C4
:1038500001960E94611040E4642E2FB7F894809185
:10386000AF039091B003A091B103B091B2032FBF09
:1038700040919E0350919F036091A0037091A1031A
:10388000841B950BA60BB70B88389341A105B10596
:1038900098F02FB7F8948091AF039091B003A09166
:1038A000B103B091B2032FBF80939E0390939F0307
:1038B000A093A003B093A10364E771E0CE014F96FB
:1038C0000E94201148EA53E05FA74EA722EA822E09
:1038D00023E0922E3AE7E32E35E0F32E312C212C13
:1038E000512C77247394422CD801E7E01D92EA957D
:1038F000E9F786E0E8E2F1E0DE01599601900D92E9
:103900008A95E1F71A821982FAE4F093FC03709227
:10391000FD031092FE0350E040E063E0C7010E9407
:10392000E40E882389F1D70151968D919C91892BC2
:1039300021F144E16CEF73E0C7010E94B60D809164
:103940000304813009F5B0900804A9E0B4E0F8015F
:103950008E2F801B8B15F8F48D918193F9CF809574
:103960008923E1CE86E190E09E838D836FE878E045
:1039700089819A810E94BD1E20CF70E060E0C7015E
:103980000E94EE0C8111D5CF6FE173E0CE014F960E
:103990000E94BD10C8C086E0FE017996D7011A9634
:1039A00001900D928A95E1F7CB2CD12CA601B8019C
:1039B000C70102960E944721F701B1866092FC037D
:1039C0007092FD03F0E6F093FE037092FF0386E031
:1039D000F7013A96A0E0B4E001900D928A95E1F7E4
:1039E00040E053E1529D9001539D300D1124265823
:1039F0003A4F842F90E08C159D055CF4FC01E45057
:103A0000FC4F820F931FDC0112968C9182874F5FCF
:103A1000F0CF6AE06B0D44E650E0C7010E94E40E6F
:103A20008823A1F14CE06CEF73E0C7010E94B60D52
:103A30008091030481112AC06092FC037092FD03FF
:103A4000B0E3B093FE037092FF0344E650E064E0FD
:103A5000C7010E94E40E882301F14AE16CEF73E094
:103A6000C7010E94B60D80910304811116C080E148
:103A7000E4E0F4E0DE01119601900D928A95E1F701
:103A8000898181110DC06AEF72E002C062EE72E0BE
:103A90008EEB94E00E94820E77CF6EEE72E0F8CF4C
:103AA000F4018081918101969183808384E3A82E23
:103AB00081E0B82ECC24C394D12CBE016F5F7F4F20
:103AC000C5010E945021892B09F423C16AE173E0EA
:103AD000CE014F960E94BD104AE0B801C6010E9477
:103AE000C41EF80101900020E9F73197AF01401B97
:103AF000510BB801CE014F960E9491108FEF8C0DA3
:103B0000481207C0D4018D919C91119701968D9315
:103B10009C93E3E0AE0EB11CFFEFCF1ADF0A24E066
:103B2000C216D10451F641E050E061E272E0CE01EC
:103B30004F960E949110AEA5BFA52D913D91BFA7B4
:103B4000AEA7F401808191812817390751F083E0F5
:103B5000E2EAF3E0A8EAB3E001900D928A95E1F77A
:103B600058A8FFEF2F1A3F0A23E1E20EF11C42E0B2
:103B7000840E911C53E02516310409F0B4CE66E2A0
:103B800071E0CE014F960E94BD10552069F11A8A4E
:103B9000198A1C8A1B8A1E8A1D8A6F8D78A161155D
:103BA000710529F04BA15CA1C8010E94C710C80192
:103BB0000E94650EC8010E9461106BEB71E0C801A4
:103BC0000E94201162E273E0CE0149960E9420110A
:103BD000B801CE0149960E94A60ECE0149960E94D8
:103BE0006110C8010E946110CE014F960E946110C1
:103BF0008091A8039091A903892B09F476C0809144
:103C0000AA039091AB03892B09F46FC08091AC0398
:103C10009091AD03892B09F468C064E670E080E000
:103C200090E00E946C0B80915B05826080935B0545
:103C30000E94850A80915B058B7F80935B050E94C3
:103C4000850A68E873E180E090E00E946C0BA8951B
:103C5000A89568EB7BE080E090E00E946C0B80917F
:103C60005B058D7F80935B050E94850A60E373E0AE
:103C7000CE0101960E942011CE0101960E94650E90
:103C8000CE0101960E94611066E473E0CE010196B8
:103C90000E942011CE0101960E94650ECE01019670
:103CA0000E9461100FB6F894A89580916000886119
:103CB00080936000109260000FBE6BEB71E0CE014C
:103CC00001960E9420116BE573E0C8010E9420114B
:103CD000BE016F5F7F4FC8010E94A60EC8010E94FF
:103CE0006110CE0101960E946110A89566E970E00E
:103CF00080E090E00E946C0B80E090E0892B09F45A
:103D0000ACCD0E942C0C882309F4A7CD0E940000A2
:103D1000A4CDB2E04B12FDCE6CE173E0CE014F9624
:103D20000E94BD10F6CECF93DF93C4E5D6E0669730
:103D300089859A850E94F41F8E819F8197FD03C01B
:103D400060E00E944C0886E0C231D80781F783E624
:103D500096E00E94611089E696E00E9461108FE66D
:103D600096E00E94611085E796E00E9461108BE763
:103D700096E0DF91CF910C946110FB01DC0105907E
:103D80000D920020E1F70895BB274A3031F49923C2
:103D900022F4BDE2909581959F4F0C94D01EBB27D5
:103DA000FB015527AA27880F991FAA1FA41710F0F7
:103DB000A41B83955051B9F7A05DAA3308F0A95D03
:103DC000A193009779F7B111B1931192CB010C94A3
:103DD000E91EDC01FC01672F71917723E1F732972F
:103DE00004C07C916D9370836291AE17BF07C8F3D6
:103DF00008952F923F924F925F926F927F928F928F
:103E00009F92AF92BF92CF92DF92EF92FF920F9369
:103E10001F93CF93DF93CDB7DEB7CA1BDB0B0FB673
:103E2000F894DEBF0FBECDBF09942A883988488830
:103E30005F846E847D848C849B84AA84B984C884C6
:103E4000DF80EE80FD800C811B81AA81B981CE0FBD
:103E5000D11D0FB6F894DEBF0FBECDBFED010895A2
:103E6000A1E21A2EAA1BBB1BFD010DC0AA1FBB1F7E
:103E7000EE1FFF1FA217B307E407F50720F0A21BF0
:103E8000B30BE40BF50B661F771F881F991F1A945D
:103E900069F760957095809590959B01AC01BD0187
:103EA000CF010895EE0FFF1F0590F491E02D0994C6
:103EB0000F931F93CF93DF938230910510F482E02C
:103EC00090E0E0918306F091840630E020E0B0E0DD
:103ED000A0E0309799F42115310509F44AC0281B58
:103EE000390B24303105D8F58A819B816115710524
:103EF00089F1FB0193838283FE0111C040815181CE
:103F00000281138148175907E0F04817590799F4BF
:103F1000109761F012960C93129713961C93329699
:103F2000CF01DF91CF911F910F91089500938306E8
:103F300010938406F4CF2115310551F04217530731
:103F400038F0A901DB019A01BD01DF01F801C1CF01
:103F5000EF01F9CF9093840680938306CDCFFE01C5
:103F6000E20FF31F81939193225031093983288303
:103F7000D7CF2091810630918206232B41F42091E6
:103F800022013091230130938206209381062091F3
:103F90002001309121012115310541F42DB73EB7A3
:103FA0004091240150912501241B350BE09181069D
:103FB000F0918206E217F307A0F42E1B3F0B28179F
:103FC000390778F0AC014E5F5F4F2417350748F092
:103FD0004E0F5F1F50938206409381068193919309
:103FE0009FCFF0E0E0E09CCFCF93DF930097E9F024
:103FF000FC01329713821282A0918306B09184064D
:10400000ED0130E020E01097A1F420813181820F92
:10401000931F20918106309182062817390709F0F5
:1040200061C0F0938206E0938106DF91CF910895FD
:10403000EA01CE17DF07E8F54A815B819E01411551
:104040005105B1F7E901FB83EA8349915991C40F06
:10405000D51FEC17FD0761F4808191810296840FD2
:10406000951FE90199838883828193819B838A8349
:10407000F0E0E0E012968D919C9113970097B9F5CE
:104080002D913C911197CD010296820F931F2091A3
:104090008106309182062817390739F6309751F595
:1040A0001092840610928306B0938206A093810634
:1040B000BCCFD383C28340815181840F951FC81721
:1040C000D90761F44E5F5F4F88819981480F591F6E
:1040D000518340838A819B8193838283211531059B
:1040E00009F0B0CFF0938406E09383069ECFFD01E4
:1040F000DC01C0CF13821282D7CFB0E0A0E0E3E8AA
:10410000F0E20C94FB1E8C01009751F4CB010E944D
:10411000581F8C01C801CDB7DEB7E0E10C94171F22
:10412000FC01E60FF71F9C0122503109E217F3074B
:1041300008F49DC0D901CD91DC911197C617D7071E
:1041400098F0C530D10530F3CE0104978617970754
:1041500008F3C61BD70B2297C193D1936D937C9321
:10416000CF010E94F41FD6CF5B01AC1ABD0A4C01EF
:104170008C0E9D1EA0918306B0918406512C412C7B
:10418000F12CE12C109731F58091810690918206F7
:104190008815990509F05CC04616570608F058C006
:1041A0008091200190912101009741F48DB79EB735
:1041B0004091240150912501841B950BE817F907C4
:1041C00008F055C0F0938206E0938106F9017183EF
:1041D0006083A0CF8D919C91119712966C9012974D
:1041E00013967C901397A815B90559F56C0142E018
:1041F000C40ED11CCA14DB0420F1AC014A195B09BE
:10420000DA011296159780F062827382518340839F
:10421000D9016D937C93E114F10471F0D7011396E9
:10422000FC93EE93129776CF22968C0F9D1FF90187
:1042300091838083F301EFCFF0938406E0938306AC
:1042400069CF4816590608F42C017D01D3019ACF95
:10425000CB010E94581F7C01009749F0AE01B801C4
:104260000E944721C8010E94F41F870153CF10E02C
:1042700000E050CFFB01DC0104C08D91019080195A
:1042800021F441505040C8F7881B990B0895FB0159
:10429000DC0102C001900D9241505040D8F70895C2
:1042A000FB01DC018D91019080190110D9F3990B6C
:1042B0000895FB01DC0101900D920020E1F70895C3
:1042C00014E0C9E8D4E004C0FE010E94521F219608
:0A42D000CA38D107C9F7F894FFCFF0
:1042DA000000FF06FAD500000100010002000900F3
:1042EA00000000001F00000000000000FF00FF00A7
:1042FA000000850680000000FFFFFFFFFFFF6B0044
:10430A006C006D004148005344004746000000001D
:10431A0000000000700743079B0D19073C07290797
:10432A001A0700000000620CC20BEF0BCE0C200C27
:10433A00FE0B120C000000006805C20B9B0D9E0BC1
:10434A00620D0D0A002142722C002C446F6E652EFC
:10435A00005374757474676172742047616C6C657C
:10436A00727920412F420030322E30322E323032D2
:10437A00310076657273696F6E20312E30535400A6
:10438A004272524649440055564C00535953002133
:10439A006865616465725F626567696E0021686558
:1043AA00616465725F656E64002173657475705F20
:1043BA00626567696E0057445420656E6461626C79
:1043CA006564004D59204E45572056455253494F72
:1043DA004E00202020493243205363616E6E65727D
:1043EA003A00466F756E643A20002028307800291A
:1043FA002020004B657970616420286465666175C8
:10440A006C7429004B65797061642F494F004F6CB9
:10441A00656420202864656661756C7429004F6C98
:10442A0065640052656C617900556E6B6E6F776ECC
:10443A0000493243207363616E20636F6D706C654F
:10444A007465004C656420696E6974202E2E2E00F6
:10445A00207375636365737366756C2100524649F0
:10446A00442D52656164657220696E69743A200050
:10447A0073756363657373210072656C6179696E24
:10448A006974206F6E200052656C6179205B005D53
:10449A002073657420746F20002173657475705FD2
:1044AA00656E64000A3D3D3D53544152543D3D3DC5
:1044BA000A0041757468206661696C6564007265FA
:1044CA006164206661696C65640072656164206577
:1044DA006D7074792064617461626C6F636B202DF6
:1044EA003E20696E76616C6964004300554B005F3B
:1044FA005F004361726473204368616E676564009C
:10450A0057616974696E6720666F72206E657720DD
:10451A0047616D6521005265737461727420696E1A
:10452A00207265717569726564210047616D652045
:0A453A00436F6D706C65746500003E
:00000001FF
