:100000000C948A040C94B2040C94B2040C94521311
:100010000C942D130C9408130C94B2040C94B20499
:100020000C94B2040C94B2040C94B2040C94B20478
:100030000C94B2040C94B2040C94B2040C94B20468
:100040000C9466120C94B2040C94D6120C94B01258
:100050000C94B2040C94B2040C94B2040C94B20448
:100060000C9447110C94B204AEB08180A1A6A83FB5
:10007000AD8B32C8D300D580D91FDA12DB40AF5325
:1000800075636365737366756C001C620A0C20608F
:1000900002020508070D080204040507020402060F
:1000A00007060707070707070707020207070705ED
:1000B0000A070707080606080804060707090809CB
:1000C000070908070808070C0708060406040809BA
:1000D000030606060606050606020407020A0606C9
:1000E000060605050506060A0606050602060809AF
:1000F000000000007E7E3030070700070700000088
:100100000000C0D8F8DED8F8DE180030000030005B
:100110000000387C64FF64E4C8102020F020301018
:100120003C7E427E3CC02018E6F010F0E00000006B
:1001300000300000001030203010DCFE227EDC8019
:100140006020103020202010302007070000F8FE2B
:1001500007011070E0800107FEF880E07010120CBB
:100160003F0C120000000000202020FC2020200076
:100170000000100000000000F0702020202000008F
:100180000000000030300080E07C1F03C0F0300031
:100190000000FCFE020202FEFC1030202020301085
:1001A0000404FEFE0000202030302020040682C21D
:1001B000623E1C203030202020200406222222FE15
:1001C000DC10302020203010C0A09884FEFE80007B
:1001D000000000303000001E1E1212F2E21030202B
:1001E00020203010F8FC161212F2E01030202020EF
:1001F0003010020282E27A1E060020301000000059
:10020000DCFE222222FEDC103020202030103C7E3A
:10021000424242FEFC0020202030100018183030EE
:100220001818F0706060909008080400000000103A
:10023000102090909090909090000000000000009E
:100240000408089090606020101000000000046214
:10025000721E0C0030300000F00CF4FA0AFAFA04B6
:100260000CF00030205050505010100080F8FE86E6
:10027000FEF88030300000003030FEFE22223EFCCE
:10028000C030302020203010F8FC060202020400AA
:10029000103020202010FEFE02020206FCF8303052
:1002A000202020301000FEFE22222222303020208A
:1002B0002020FEFE22222222303000000000F8FC26
:1002C00006024242C2C40010302020203030FEFE20
:1002D00020202020FEFE303000000000303002FEE2
:1002E000FE022030302000020202FEFE20202020EC
:1002F0003010FEFE70D88C06023030000010302026
:10030000FEFE000000000030302020202020FE0EE5
:100310003CF0C0300CFEFE30000000000000303029
:10032000FE061C38E0C000FE300000000010303037
:10033000F8FC0602020206FCF800103020202030F3
:100340001000FEFE4242427E3C30300000000000C1
:10035000F8FC0602020206FCF80010302060E0B053
:100360009080FEFE2262E2BE1C00303000000010D1
:1003700030201C3E322262E2C410202020203010A7
:10038000020202FEFE020202000000303000000005
:10039000FEFE00000000FEFE103020202020301065
:1003A0000E7EF080F07E0E000030303000000E7EB9
:1003B000F080E03E3EE080F07E0E00003030000035
:1003C000000030300000068EF870F88E06303000E5
:1003D00000003030060E18F0F0180E060000003055
:1003E0003000000002C2F23E0E02303020202020F9
:1003F000FFFF0101F0F08080031F7CE0800000001F
:100400000030F0C00101FFFF8080F0F010180C06F2
:10041000060C1810000000000000000000000000A2
:100420000000000000808080808080808080010348
:1004300002000000C0E82828F8F0103020203030FA
:10044000FFFF0808F8F0303020203010F0F80808DE
:100450000810103020202010F0F80808FFFF10309E
:1004600020203030F0F848487870103020202010DC
:1004700008FEFF09090030300000F0F80808F8F81D
:1004800010B0A0A0F070FFFF0808F8F030300000B6
:100490003030FBFB30300008FBFB8080F070FFFF4A
:1004A00060F098080030300000103020FFFF30303E
:1004B000F8F81008F8F01008F8F03030000030308C
:1004C00000003030F8F80808F8F030300000303024
:1004D000F0F80808F8F0103020203010F8F808087C
:1004E000F8F0F0F020203010F0F80808F8F810309C
:1004F0002020F0F0F8F810181830300000003078A4
:1005000048C888202020301008FEFE08080010305F
:100510002020F8F80000F8F810302020303038F8AB
:10052000C0C0F83800103030100078F880C038387B
:10053000C080F8780030300000000030300018B87B
:10054000E0E0B81830300000303038F8C0C0F8387B
:100550000090F070100008C8E87818303020202093
:100560002020FEDF0101000070F08080FFFFF0F02E
:100570000101DFFE20208080F0700000E0101020DC
:10058000408080700000000000000000FE020202B7
:1005900002020202FE3020202020202020306800AD
:1005A000178040020A0A4F4C454420696E69742046
:1005B0006F6E20416464726573733A203078002B4B
:1005C0002D2D2D2D2D2D2D2D2D2D2D2D2D2D2D2D5B
:1005D0002D2D2D2D2B007C20202020456C65637453
:1005E000726F7363617065202020207C002B2D2D9D
:1005F0002D2D2D2D2D2D2D2D2D2D2D2D2D2D2D2D2B
:100600002D2D2B00000005072060000000000000D9
:10061000005F00000007000700147F147F14242AE5
:100620007F2A1223130864623649562050000807B7
:100630000300001C2241000041221C002A1C7F1CD8
:100640002A08083E080800807030000808080808DA
:10065000000060600020100804023E5149453E0041
:10066000427F400072494949462141494D3318149F
:10067000127F1027454545393C4A494931412111EE
:1006800009073649494936464949291E00001400E0
:100690000000403400000008142241141414141403
:1006A000004122140802015909063E415D594E7C61
:1006B0001211127C7F494949363E414141227F4116
:1006C00041413E7F494949417F090909013E414174
:1006D00051737F0808087F00417F41002040413F5F
:1006E000017F081422417F404040407F021C027F6E
:1006F0007F0408107F3E4141413E7F090909063EC3
:100700004151215E7F091929462649494932030191
:100710007F01033F4040403F1F2040201F3F4038A3
:10072000403F631408146303047804036159494D7E
:1007300043007F4141410204081020004141417FB4
:10074000040201020440404040400003070800202A
:10075000545478407F28444438384444442838442A
:1007600044287F385454541800087E090218A4A461
:100770009C787F0804047800447D40002040403D80
:10078000007F1028440000417F40007C04780478FA
:100790007C080404783844444438FC18242418188D
:1007A000242418FC7C0804040848545454240404E9
:1007B0003F44243C4040207C1C2040201C3C4030D6
:1007C000403C44281028444C9090907C4464544C05
:1007D0004400083641000000770000004136080060
:1007E00002010204023C2623263C207375636365E4
:1007F000737366756C000A0A4C454420696E69740F
:10080000202E2E2E0052657374617274696E6720FB
:10081000696E000A5246494420696E6974202E2E82
:100820002E205375636365737366756C200A0046EA
:1008300069726D77617265207665722E2000466F51
:10084000756E64206368697020504E3500504E35D7
:10085000333220737461727475702074696D6564CD
:10086000206F7574004469646E27742066696E6435
:1008700020504E35337820626F6172640A000A524C
:1008800046494420696E6974202E2E2E200A000AE3
:1008900072656C617920696E697420737563636534
:1008A000737366756C0000000000240027002A00A6
:1008B000000000080002010000030407000000001F
:1008C0000000000000030C0F30333C3FC0C3CCCF0E
:1008D000F0F3FCFF000000002300260029000102C5
:1008E00004081020408001020408102001020408BE
:1008F000102000000000250028002B000404040440
:1009000004040404020202020202030303030303B9
:10091000F313101E11241FBECFEFD8E0DEBFCDBFF2
:1009200026E0A0E2B3E001C01D92A533B207E1F7D3
:1009300013E0A0E0B1E0EAEFF1E402C005900D920F
:10094000A032B107D9F714E0C9E8D4E004C0219778
:10095000FE010E94DA1EC838D107C9F70E940C15A3
:100960000C94F0200C940000089508958FB7F8942B
:100970008091AB038FBF08958CBD9DBD0895CF932B
:10098000DF93EC019C818E81981758F4E881F981FE
:100990000084F185E02D42E0CE0109958C818F5FC6
:1009A0008C83DF91CF910895DC01ED91FC9100845F
:1009B000F185E02D40E009940F931F93CF938C01B4
:1009C000FC016483C085C60F6C2F6F700E94D40435
:1009D0006C2F62956F706061C801CF911F910F916C
:1009E0000C94D404FC012781269526952695621740
:1009F00020F46583606B0C94D40408951F93CF9307
:100A0000DF93EC01142F8E81681718F4CE010E9439
:100A1000DC04612FCE01DF91CF911F910C94F20481
:100A2000CF92DF92EF92FF920F931F93CF93DF93BA
:100A3000EC01162FC42ED22E8F8186958695869531
:100A4000081710F00FEF080FFD2C0F15B0F08E8176
:100A5000181720F4612FCE010E94DC046F2DCE0107
:100A60000E94F204E12ECE1430F060E0CE010E942C
:100A7000BF04E394F8CFF394E8CF4D2D612FCE015E
:100A8000DF91CF911F910F91FF90EF90DF90CF906A
:100A90000C94FE040F9300910B060695069506959F
:100AA000015040910A06415020E060E084E096E069
:100AB0000E94100581E090910E06911101C080E026
:100AC00080930E0660E484E096E00F910C94D404C9
:100AD0002F923F924F925F926F927F928F929F924E
:100AE000AF92BF92CF92DF92EF92FF920F931F933C
:100AF000CF93DF9300D000D01F92CDB7DEB7DC01DB
:100B00001B960D911C910115110509F468C19D8377
:100B10008C83F801449131965491319664903196CA
:100B20002491E22EF12CF7E0EF0EF11C73E0F59426
:100B3000E7947A95E1F7E982F80134963491319699
:100B4000E491631748F08E2F90E0FC01E30FF11D54
:100B50006E171F060CF487C06D3031F5AC81BD8176
:100B600016968C9181111AC081E090E00F900F9041
:100B70000F900F900F90DF91CF911F910F91FF90E9
:100B8000EF90DF90CF90BF90AF909F908F907F902D
:100B90006F905F904F903F902F90089560E08C8110
:100BA0009D810E94DC04E0CF6A3009F018C1EC811D
:100BB000FD818185D5808E9DD00C112487818695FD
:100BC00086958695D81630F08285882319F082E0C4
:100BD0008287D12C4D2D60E08C819D810E94FE0486
:100BE000AC81BD811A968C911A97823008F4BCCFE3
:100BF00015962C9115971B96ED91FC911C9700E092
:100C0000309739F03396E49119960C91E09F002DBE
:100C1000112410E0095F1F4F33E0159507953A95B1
:100C2000E1F78FEF820F080FEC81FD814681415083
:100C30006481CF010E941005AC81BD8119968C9111
:100C400019976D2D8E9D600D1124660F660F660F2E
:100C500017968C91861708F460E060648C819D8102
:100C60000E94D40481CF4527542745270A5F1F4F90
:100C7000631BEC81FD8121844230510508F06DC079
:100C8000452B09F0212C6E9CC0016F9C900D112406
:100C9000689FF001699FF00D11240E0F1F1F512C4A
:100CA000AC81BD811496BC91BA83EC81FD81F58144
:100CB000FB83862C912CAA24A394B12C312C8981FE
:100CC000381608F086C0412CAC81BD8119968C91F4
:100CD000481608F077C0311002C0442041F0EC8182
:100CE000FD8145814F5F6A81CF010E94FE04D12CB6
:100CF000C12CC61408F05AC0F801EC0DFD1D74900B
:100D0000552061F0EA14FB0449F4E72DF0E0052CCE
:100D100002C0F595E7950A94E2F77E2EAC81BD817D
:100D200019968C91823081F4442009F43BC072946E
:100D30008FE07822E72DF0E0EC53F74F7490672DA9
:100D40008C819D810E94BF04672D8C819D810E94B2
:100D5000BF04EFEFCE1ADE0ACCCF277038E0532E57
:100D6000521A211101C0512C50E040E030E020E047
:100D7000F801461740F4E40FF51FE4912E0F311DE2
:100D80004F5F5F4FF5CFE60FF11D6490E29EF001DB
:100D9000E39EF00DF29EF00D11248E0F9F1F080FA1
:100DA000191F7ECFB72DBF707B2EC4CFD12C2D1431
:100DB00039F060E08C819D810E94BF04D394F7CF0D
:100DC000439482CF3394080D191DFFEFAF1ABF0A69
:100DD00076CF6B818C819D810E94F204C5CE90E01C
:100DE00080E0C4CE20918803260F3327331F2132A1
:100DF0003105ECF420913804FC0190E080E02430CF
:100E000069F082E00895A09188032191AC014859CE
:100E10005C4FA40FB52FB11D2C930196861798F344
:100E200080918803680F6093880380E0089581E0D3
:100E300008950895E091F1038091F003E81730F4EC
:100E4000F0E0EE50FC4F808190E008958FEF9FEF2F
:100E500008959091F1038091F0032FEF3FEF9817E1
:100E600048F4E92FF0E0EE50FC4F208130E09F5F26
:100E70009093F103C90108958091F0039091F103DB
:100E8000891B990B0895CF92DF92EF92FF920F93F7
:100E90001F93CF93DF937C01CB018A0120913E0405
:100EA000222389F0EB016B01C40ED51ECC15DD05A4
:100EB00069F06991D701ED91FC910190F081E02DED
:100EC000C7010995F3CF642F0E94F206C801DF9194
:100ED000CF911F910F91FF90EF90DF90CF900895E9
:100EE000CF93DF931F92CDB7DEB7698320913E0485
:100EF0002223F9F020916104203258F021E030E003
:100F0000FC013383228390E080E00F90DF91CF914A
:100F1000089580913F04E82FF0E0E05CFB4F998159
:100F200090838F5F80933F048093610481E090E021
:100F3000ECCF61E0CE0101960E94F206F7CF83303C
:100F400081F028F4813099F08230A9F0089587303B
:100F5000A9F08830C9F08430B1F4809180008F7D91
:100F600003C0809180008F7780938000089584B5BE
:100F70008F7784BD089584B58F7DFBCF8091B000BD
:100F80008F778093B00008958091B0008F7DF9CF66
:100F90001F93CF93DF93282F30E0F901E055F74FEF
:100FA0008491F901E252F74FD491F901E450F74FDF
:100FB000C491CC23A9F0162F81110E949F07EC2F1A
:100FC000F0E0EE0FFF1FEE50F74FA591B4918FB7F1
:100FD000F894EC91111108C0D095DE23DC938FBFFB
:100FE000DF91CF911F910895DE2BF8CF1092380436
:100FF00081E0809337041092120461E082E10E9444
:10100000C80761E083E10E94C807E9EBF0E0808156
:101010008E7F808380818D7F808388E48093B80079
:1010200085E48093BC0008951092F1031092F003C0
:1010300010923F04109261040E94F60784EB94E042
:101040009093EF038093EE0385EB94E09093ED0390
:101050008093EC030895CF93DF9391E0909367031F
:101060008823B9F0C091B800D091BA008091BC003B
:101070008A7B8093BC0060E082E10E94C80760E048
:1010800083E10E94C8070E94F607D093BA00C0937C
:10109000B800DF91CF910895CF93DF9390E0FC01EA
:1010A000E252F74F24918450974FFC01849188239A
:1010B000D1F090E0880F991FFC01EA55F74FA591F8
:1010C000B491FC01EE50F74FC591D49161110EC05F
:1010D0009FB7F8948C91E22FE0958E238C93288112
:1010E000E223E8839FBFDF91CF9108958FB7F894F3
:1010F000EC91E22BEC938FBFF6CF8230910538F064
:10110000880F991F880F991F05970197F1F7089588
:10111000AF92BF92CF92DF92EF92FF920F931F9305
:10112000CF93DF93EC0188819981892B89F06EBD83
:101130000DB407FEFDCFBEB48B2DDF91CF911F9173
:101140000F91FF90EF90DF90CF90BF90AF900895F8
:101150008885998511E0892B09F010E8AA24A394C9
:10116000862F812309F0A12C062F2C813D814E81F1
:101170005F8160E271EA87E090E00E94B81EF22E83
:10118000B02EE12CC22ED12CFF2019F0C6010E94F6
:101190007D088A85877F09F042C08D858F3F89F061
:1011A000902F912381E009F480E08A1551F0EF85BA
:1011B000F8898F89992369F19081892B8083AA24EA
:1011C000A394E989FA898081998D892B8083FF20F6
:1011D00019F0C6010E947D088E858F3F39F0EB899A
:1011E000FC898081988D892309F0E12AE989FA89AF
:1011F0009081898D8095892380838E858F3F09F02A
:10120000BE2C88859985892BB9F5110F1111BCCF9A
:1012100093CF9081809589238083A12CD2CFE989B7
:10122000FA898081998D892B8083FF2019F0C6016E
:101230000E947D088D858F3F49F0EF85F8898F8961
:10124000902F9123A9F09081892B8083E989FA89D5
:101250009081898D8095892380838E858F3F69F267
:10126000EB89FC898081988D892339F2E12AC5CFE9
:10127000908180958923E9CF1695C8CFCF92DF92D0
:10128000EF92FF920F931F93CF93DF93EC018B01AB
:101290006A01790188819981892B31F0EA81FB818A
:1012A000808191810E94BC0460E08B850E94C80708
:1012B000F8016081CE010E9488088601EC0CFD1CBB
:1012C000E016F10641F06FEFCE010E948808F801A8
:1012D00081938F01F5CF61E08B850E94C80781E083
:1012E000DF91CF911F910F91FF90EF90DF90CF9002
:1012F00008953FB7F8948091630390916403A0919F
:101300006503B091660326B5A89B05C02F3F19F071
:101310000196A11DB11D3FBFBA2FA92F982F882775
:10132000BC01CD01620F711D811D911D42E0660F50
:10133000771F881F991F4A95D1F70895CF92DF92A2
:10134000EF92FF920F931F93CF93DF93D09161049D
:1013500081E0D13208F09CC0C09160040E947909FC
:101360006B017C018091380481116CC082E0809314
:10137000380481E0809337048FEF80933604109215
:101380003504D0933404A0E4B4E0E4E1F4E080E078
:10139000D8138DC01092130480911304CC0FC82B66
:1013A000C093130480911204813009F084C010921C
:1013B00012040E9479096B017C01809113048093CF
:1013C000BB0080913A0490913B04A0913C04B09101
:1013D0003D04892B8A2B8B2BA1F00E947909009167
:1013E0003A0410913B0420913C0430913D046C1967
:1013F0007D098E099F09061717072807390708F482
:1014000042C08091BC0083FDD8CF85EC8093BC00A6
:101410000E9479096B017C0180913804823009F4C3
:101420004CC0809136048F3F09F469C08091360426
:10143000803209F466C080913604803309F463C0B9
:1014400084E026C080913A0490913B04A0913C0432
:10145000B0913D04892B8A2B8B2B09F483CF0E94FA
:10146000790900913A0410913B0420913C04309199
:101470003D046C197D098E099F0906171707280777
:10148000390708F06FCF809139040E942B0885E05E
:1014900010923F041092610410923E04DF91CF91AC
:1014A0001F910F91FF90EF90DF90CF9008959D9145
:1014B00091938F5F6DCF85EEA9CF80913A04909183
:1014C0003B04A0913C04B0913D04892B8A2B8B2BCB
:1014D00009F4A2CF0E94790900913A0410913B04CB
:1014E00020913C0430913D046C197D098E099F09BF
:1014F000061717072807390708F08ECFC4CF80E0FA
:10150000C7CF82E0C5CF83E0C3CFEBE0F5E09181A8
:1015100062818081238131E030933E042093600416
:1015200010923F041092610460956923682B82E653
:1015300094E00E9470070C949E09CF92DF92EF9284
:10154000FF920F931F93CF93DF93D82FC62F613253
:1015500008F098C00E9479096B017C0180913804E1
:1015600081116BC081E080933804809337049FEF32
:1015700090933604109235049C0F9093340480931A
:10158000130480911304DD0FD82BD09313048091A2
:101590001204813009F078C0109212040E94790977
:1015A0006B017C01809113048093BB0080913A040D
:1015B00090913B04A0913C04B0913D04892B8A2B6F
:1015C0008B2BA1F00E94790900913A0410913B0401
:1015D00020913C0430913D046C197D098E099F09CE
:1015E000061717072807390708F448C08091BC0080
:1015F00083FDD8CF85EC8093BC000E9479096B01F4
:101600007C0180913804813009F440C08091350418
:101610008C1710F4C0913504E4E1F4E0A2EFB3E0DC
:1016200080E08C1355C08C2FDF91CF911F910F91CB
:10163000FF90EF90DF90CF90089580913A049091C1
:101640003B04A0913C04B0913D04892B8A2B8B2B49
:1016500009F484CF0E94790900913A0410913B0467
:1016600020913C0430913D046C197D098E099F093D
:10167000061717072807390708F070CF809139043B
:101680000E942B08C0E0CFCF85EEB5CF80913A0401
:1016900090913B04A0913C04B0913D04892B8A2B8E
:1016A0008B2B09F4AECF0E94790900913A04109176
:1016B0003B0420913C0430913D046C197D098E0956
:1016C0009F09061717072807390708F09ACFD6CFC2
:1016D00091919D938F5FA5CF8F929F92AF92BF9272
:1016E000CF92DF92EF92FF924B015C010E94790949
:1016F0006B017C010E9479096C197D098E099F0993
:10170000683E734081059105A8F321E0821A910893
:10171000A108B10888EEC80E83E0D81EE11CF11CB8
:1017200081149104A104B10429F7FF90EF90DF9098
:10173000CF90BF90AF909F908F9008950895DB0158
:1017400014964D915C9115976D917C91DC01ED9112
:10175000FC910280F381E02D0994CF93DF93EC019B
:1017600062E070E080E090E00E946C0BBE0184E0DB
:1017700096E00E949F0BBE018EE694E0DF91CF9130
:101780000C949F0BAF92BF92CF92DF92EF92FF9299
:101790000F931F93CF93DF936C017B018B01040F99
:1017A000151FEB015E01AE18BF08C017D10759F035
:1017B0006991D601ED91FC910190F081E02DC60177
:1017C0000995892B79F7C501DF91CF911F910F9171
:1017D000FF90EF90DF90CF90BF90AF900895FC0105
:1017E000538D448D252F30E0842F90E0821B930B86
:1017F000541710F0CF96089501970895FC01918D2C
:10180000828D981761F0A28DAE0FBF2FB11D5D962E
:101810008C91928D9F5F9F73928F90E008958FEFD0
:101820009FEF0895FC01918D828D981731F0828D84
:10183000E80FF11D858D90E008958FEF9FEF0895DB
:10184000FC01918D228D892F90E0805C9F4F821B3F
:1018500091098F73992708958EE694E00E94200CD9
:1018600021E0892B09F420E0822F089580E090E0A8
:10187000892B29F00E942C0C81110C9400000895F2
:10188000FC01A48DA80FB92FB11DA35ABF4F2C91F5
:10189000848D90E001968F739927848FA689B789EC
:1018A0002C93A089B1898C91837080648C93938DE3
:1018B000848D981306C00288F389E02D80818F7D86
:1018C00080830895EF92FF920F931F93CF93DF933E
:1018D000EC0181E0888F9B8D8C8D98131AC0E8896C
:1018E000F989808185FF15C09FB7F894EE89FF893B
:1018F0006083E889F98980818370806480839FBFD9
:1019000081E090E0DF91CF911F910F91FF90EF90D8
:101910000895F62E0B8D10E00F5F1F4F0F731127E8
:10192000E02E8C8D8E110CC00FB607FCFACFE88923
:10193000F989808185FFF5CFCE010E94400CF1CF5F
:10194000EB8DEC0FFD2FF11DE35AFF4FF0829FB797
:10195000F8940B8FEA89FB8980818062CFCFEF9268
:10196000FF920F931F93CF93DF938C017B01D0E005
:10197000C0E0F701EC0FFD1F6491662339F0C80148
:101980000E94620C892B11F02196F3CFCE01DF91DA
:10199000CF911F910F91FF90EF900895CF93DF9318
:1019A000EC01888D8823B9F0AA89BB89E889F98977
:1019B0008C9185FD03C0808186FD0DC00FB607FCAC
:1019C000F7CF8C9185FFF2CF808185FFEDCFCE01DF
:1019D0000E94400CE9CFDF91CF9108958F929F92A2
:1019E000AF92BF92CF92DF92EF92FF920F931F932D
:1019F000CF93DF9300D0CDB7DEB77C016B0110E051
:101A000000E0AA24A39492E0992EF701818992899B
:101A1000009701F19A8221E030E0AE014F5F5F4F05
:101A2000BE016E5F7F4F0E943E0981E09981913037
:101A300009F434C080E0C114D10429F0065F1F4FBF
:101A4000C016D10658F16AE070E080E090E00E9494
:101A50006C0BDBCF208130E0F901E055F74F84912A
:101A6000F901E252F74FB490F901E450F74F849036
:101A7000882079F081110E949F07E82DF0E0EE0F99
:101A8000FF1FEC52F74FA591B491EC91BE2281E07B
:101A900009F480E08A25817009F4CDCF0F900F9072
:101AA000DF91CF911F910F91FF90EF90DF90CF903A
:101AB000BF90AF909F908F900895682F82E694E03A
:101AC0000C9470070F931F93CF93DF93EC01062FB5
:101AD000142F8E85813120F4882329F0411103C011
:101AE0000E949E091E868E85811112C08D8591E00F
:101AF00090933E048093600410923F04109261041E
:101B000060E4111101C060E082E694E00E94700779
:101B1000602F82E694E00E947007123041F48E85B7
:101B20008F5F8E87DF91CF911F910F9108950E9453
:101B30009E091E86F7CF90E080E0089590E0FC01BA
:101B4000EE0FFF1FE852F74FA591B4912C91FC01C5
:101B5000E05BFC4F30812083880F991FFC01E45D1E
:101B6000FE4F0190F081E02D80810895CF92DF92A9
:101B7000EF92FF920F931F93CF93DF931F92CDB7F6
:101B8000DEB7062FD72E142FFC018189928900978A
:101B9000A9F023E02983242F30E0462F572FBE01E0
:101BA0006F5F7F4F0E943E090F90DF91CF911F9191
:101BB0000F91FF90EF90DF90CF90089562E070E07A
:101BC00080E090E00E946C0B62E0610F84E20E9472
:101BD0009D0A1092F1038093F00382E694E00E9444
:101BE0002907C02EE02EFD2C61E070E080E090E03F
:101BF0000E946C0B82E694E00E942907F701819312
:101C00007F018E2F8C19811778F3CECF2F923F92C0
:101C10004F925F926F927F928F929F92AF92BF92FC
:101C2000CF92DF92EF92FF920F931F93CF93DF93A8
:101C300000D000D000D01F92CDB7DEB77C014A01A2
:101C40002DB63EB6DC015196CD90DC90BB24B3940A
:101C5000B60EA62EA0946B2C712CC114D10409F4DD
:101C600095C04DB65EB670E0685F7F4FEDB7FEB7CA
:101C7000E61BF70B0FB6F894FEBF0FBEEDBF0DB716
:101C80001EB70F5F1F4F81E08183D80111961C9210
:101C9000119712961C9212978FEF13968C931397AD
:101CA0001496BC9214971596AC92159784ED1696DF
:101CB0008C932DB73EB7285F3F4FF90163EDA30129
:101CC000415051098E2F821B90E0841795073CF4F8
:101CD00084559C4FDC018C918193680FF3CF609504
:101CE00060831182B8E06B0E711CF60180819181D6
:101CF000892B39F00280F381E02D808191810E944F
:101D0000BC0460E0D6011B968C910E94C807580164
:101D1000F50161915F01C6010E948808C501801B21
:101D2000910B86159705A0F361E0D6011B968C9167
:101D30000E94C8070FB6F8945EBE0FBE4DBEB40138
:101D4000C7010E94EE0C182F811162C010E0812F94
:101D50000FB6F8943EBE0FBE2DBE27960FB6F89470
:101D6000DEBF0FBECDBFDF91CF911F910F91FF90CE
:101D7000EF90DF90CF90BF90AF909F908F907F902B
:101D80006F905F904F903F902F90089562E070E0C9
:101D900080E090E00E946C0B81E080933E0484E23E
:101DA0008093600410923F041092610480E00E94CE
:101DB0005D0D80E00E945D0D8FEF0E945D0D8B2D0B
:101DC0000E945D0D8A2D0E945D0D84ED0E945D0DC7
:101DD000C12C83EDD82EB1E06B1A71080C2D10E0E8
:101DE000061517055CF404551C4FF80180810E940C
:101DF0005D0DD8018C91D80EC394F0CF8D2D8095B8
:101E00000E945D0D80E00E945D0D0E949E0997CFAB
:101E1000F70181899289009721F123E02F8326E041
:101E200030E0AE014F5F5F4FBE01695F7F4F0E94A0
:101E30003E0946E050E06AE171E0CE0101960E9461
:101E4000CA20892B09F082CFD70151968D919C91A0
:101E5000892B09F47CCFB401C7010E94EE0C182F26
:101E600076CF46E0BE016F5F7F4FC7010E94B60D7F
:101E7000E0CF85ED8093BC0080913A0490913B04C3
:101E8000A0913C04B0913D040796A11DB11D23E033
:101E9000B695A795979587952A95D1F72091BC007F
:101EA00024FD03C010923804089540913A045091E3
:101EB0003B0460913C0470913D04452B462B472B1D
:101EC00069F30097A105B10541F025E32A95F1F7E3
:101ED00000000197A109B109E1CF809139040C9468
:101EE0002B08FB0101900020E9F73197AF01461B59
:101EF000570BDC01ED91FC910280F381E02D0994F8
:101F00008F929F92AF92BF92EF92FF920F931F9387
:101F1000CF93DF93CDB7DEB7A1970FB6F894DEBFAE
:101F20000FBECDBF7C01FA01CB0119A2223008F40B
:101F30002AE08E010F5D1F4F822E912CB12CA12C17
:101F4000BF01A50194010E94B81EF901CA016A30BF
:101F50000CF5605DD8016E938D01232B242B252B6E
:101F600079F790E080E0109721F0BD01C7010E9451
:101F7000710FA1960FB6F894DEBF0FBECDBFDF91F3
:101F8000CF911F910F91FF90EF90BF90AF909F90D6
:101F90008F900895695CDECF60E771E00C94710F5B
:101FA000CF93DF93EC0162E070E080E090E00E946C
:101FB0006C0BBE0184E096E00E949F0B84E096E0EB
:101FC0000E94CC0FBE018EE694E00E949F0B8EE62D
:101FD00094E0DF91CF910C94CC0F0F931F93CF938C
:101FE000DF93EC010E94710F8C01CE010E94CC0F97
:101FF000800F911FDF91CF911F910F9108950F9343
:102000001F93CF93DF93EC010E94AF0C8C01CE01A4
:102010000E94CC0F800F911FDF91CF911F910F91E4
:1020200008950F931F93CF93DF93EC018B0162E030
:1020300070E080E090E00E946C0B61E08EE00E9416
:10204000C8078EE694E00E94CC0F63E771E08EE64D
:1020500094E00E94710FB8018EE694E00E949F0BFD
:1020600066E771E08EE694E00E94710FBE018EE695
:1020700094E00E949F0B68E771E08EE694E00E9476
:10208000ED0F64E170E080E090E00E946C0B60E096
:102090008EE0DF91CF911F910F910C94C807CF93E1
:1020A000DF93EC0188819981009711F00E947C1FD9
:1020B000198218821D821C821B821A82DF91CF91A5
:1020C0000895FC0180819181009711F00C947C1F90
:1020D0000895CF93DF93FC01C081D181209761F0F7
:1020E0008991882349F0082E000C990B0E94C22088
:1020F000FE0131978083F4CFDF91CF9108950F9344
:102100001F93CF93DF93EC0188819981009759F059
:102110002A813B812617370730F081E0DF91CF918C
:102120001F910F9108958B016F5F7F4F0E940520D3
:10213000009759F0998388831B830A832C813D8102
:10214000232B59F7FC011082E8CF80E0E7CFEF9214
:10215000FF920F931F93CF93DF936115710541F4A5
:1021600080E0DF91CF911F910F91FF90EF90089544
:1021700041155105B1F07B01EC010C811D81040F6B
:10218000151FB8010E947F10882351F328813981DF
:102190008C819D81B701820F931F0E94E9201D83CE
:1021A0000C8381E0DECFFB0101900020E9F731973D
:1021B000AF01461B570B0C94A710EF92FF920F93A1
:1021C0001F93CF93DF93EC017B018A01BA010E9438
:1021D0007F1081110BC0CE010E944F10CE01DF9104
:1021E000CF911F910F91FF90EF9008951D830C8365
:1021F000B701888199810E94E920F0CFFC0111820A
:1022000010821382128215821482FB010190002039
:10221000E9F73197AF01461B570B0C94DD10EF9295
:10222000FF920F931F93CF93DF93CDB7DEB76297E3
:102230000FB6F894DEBF0FBECDBF8C01CB01F80105
:1022400011821082138212821582148250E09E0144
:102250002F5F3F4F7901B9010E94411EF7010190A4
:102260000020E9F73197AF014E195F09B701C801A6
:102270000E94DD1062960FB6F894DEBF0FBECDBF90
:10228000DF91CF911F910F91FF90EF9008951F92D2
:102290000F920FB60F9211242F933F934F935F939A
:1022A0006F937F938F939F93AF93BF93EF93FF931E
:1022B0008091B900887F803609F44AC0F0F58832F1
:1022C00009F4A7C018F5803109F49BC0B8F488233D
:1022D00009F4F9C0883009F494C0FF91EF91BF91DF
:1022E000AF919F918F917F916F915F914F913F91AE
:1022F0002F910F900FBE0F901F901895883109F401
:1023000088C0803251F78093360414C0803409F4B9
:102310009DC040F48033B9F38833F9F680933604D6
:1023200085ECB0C0803509F485C0883509F496C0C5
:10233000883499F60E94390FD0CF883909F48CC0BF
:1023400038F5883729F050F4883611F0803729F6AF
:1023500083E0809338041092AA0357C0883809F4A8
:102360007BC0803919F0803809F0B7CF8091AA037B
:10237000803208F071C0E091AA0381E08E0F809353
:10238000AA038091BB00F0E0E657FC4F80833DC07C
:10239000803B39F0E0F4803A09F479C0883A09F0DA
:1023A0009CCF84E0809338041092890310928803B4
:1023B000E091EE03F091EF0309958091880381117C
:1023C0000FC081E0809388031092680309C0803CAD
:1023D00009F4A6CF883C09F4A3CF883B09F07DCF50
:1023E000E091890381E08E0F80938903F0E0E85942
:1023F000FC4F80818093BB0090918903809188037A
:1024000029C0809113048093BB0085EC8093BC00AD
:1024100064CF9091350480913404981758F5E09179
:10242000350481E08E0F80933504F0E0EC5EFB4FC5
:102430008081E9CFE091350481E08E0F80933504EF
:102440008091BB00F0E0EC5EFB4F808390913504FF
:10245000809134049817C8F285E8D8CFE09135040C
:1024600081E08E0F809335048091BB00F0E0EC5E3C
:10247000FB4F80838091370481115CCF81E0809392
:10248000120484EA8093BC001092380426CF85ECB5
:102490008093BC00109238048091AA03803230F4FB
:1024A000E091AA03F0E0E657FC4F10826091AA0386
:1024B00070E0E091EC03F091ED038AE893E0099578
:1024C0001092AA030ACF1092360434CF1F920F92B3
:1024D0000FB60F9211242F933F938F939F93AF9337
:1024E000BF9380915F0390916003A0916103B091CD
:1024F000620330915E0323E0230F2D3758F50196D8
:10250000A11DB11D20935E0380935F039093600330
:10251000A0936103B093620380916303909164037D
:10252000A0916503B09166030196A11DB11D809332
:10253000630390936403A0936503B0936603BF9114
:10254000AF919F918F913F912F910F900FBE0F9060
:102550001F90189526E8230F0296A11DB11DD2CF1A
:102560001F920F920FB60F9211242F933F934F9308
:102570005F936F937F938F939F93AF93BF93EF93EB
:10258000FF938EE694E00E94400CFF91EF91BF9183
:10259000AF919F918F917F916F915F914F913F91FB
:1025A0002F910F900FBE0F901F9018951F920F92B2
:1025B0000FB60F9211242F938F939F93EF93FF9356
:1025C000E0917E04F0917F048081E0918404F09199
:1025D000850482FD1BC09081809187048F5F8F737B
:1025E00020918804821741F0E0918704F0E0E259DD
:1025F000FB4F958F80938704FF91EF919F918F916F
:102600002F910F900FBE0F901F9018958081F4CFDF
:102610001F920F920FB60F9211242F933F934F9357
:102620005F936F937F938F939F93AF93BF93EF933A
:10263000FF9382E00E949E0DFF91EF91BF91AF91B9
:102640009F918F917F916F915F914F913F912F91CA
:102650000F900FBE0F901F9018951F920F920FB6FC
:102660000F9211242F933F934F935F936F937F9318
:102670008F939F93AF93BF93EF93FF9381E00E945B
:102680009E0DFF91EF91BF91AF919F918F917F919F
:102690006F915F914F913F912F910F900FBE0F90CF
:1026A0001F9018951F920F920FB60F9211242F931F
:1026B0003F934F935F936F937F938F939F93AF93CA
:1026C000BF93EF93FF9380E00E949E0DFF91EF91E7
:1026D000BF91AF919F918F917F916F915F914F913A
:1026E0003F912F910F900FBE0F901F901895FF9262
:1026F0000F931F93CF93DF938C01F62E8FEFF8018A
:10270000808381838CE190E00E94E01EEC01FB86D7
:102710008DE08C878CE08E878BE08D876F2D70E04D
:10272000FB01E450F74FE491F0E0EE0FFF1FEE5095
:10273000F74F859194919E8B8D8BFB01E252F74F61
:10274000E491EA8FE7E0F9E0E491F0E0EE0FFF1F9B
:10275000EE50F74F85919491988B8F87E9EEF8E0D2
:10276000E491EF8BE8E0F9E0E491F0E0EE0FFF1F79
:10277000EC52F74F859194919C8B8B8BEAEEF8E0AD
:10278000E491E88FE9E0F9E0E491F0E0EE0FFF1F5B
:10279000EE50F74F859194919A8B898BEBEEF8E090
:1027A000E491E98F80EA96E8A1E0B0E08C839D8314
:1027B000AE83BF83198618861A861B8E82E090E04E
:1027C0000E94E01E23E7FC01208311829B838A8301
:1027D00019821882F801D28BC18BDF91CF911F91A2
:1027E0000F91FF900895109265041092640488EE92
:1027F00093E0A0E0B0E08093660490936704A09318
:102800006804B093690422E431E0309363042093B8
:102810006204109271041092700480937204909379
:102820007304A0937404B093750484E591E09093CD
:102830006F0480936E0485EC90E090937B0480930A
:102840007A0484EC90E090937D0480937C0480EC87
:1028500090E090937F0480937E0481EC90E09093CD
:1028600081048093800482EC90E0909383048093B1
:10287000820486EC90E09093850480938404109207
:102880008704109288041092890410928A046FE7DA
:1028900071E08BE296E00E94FE1065E971E085E24E
:1028A00096E00E94FE1060EA71E08FE196E00E94DF
:1028B000FE106EEA71E089E196E00E94FE1065EB81
:1028C00071E083E196E00E94FE10109207061092DC
:1028D000060681E080930D061092100610920F06F6
:1028E00086E691E09093050680930406E2ECF5E01D
:1028F00024E036E081E04FEF5FEF92E080831182C9
:1029000013821282158214825783468310861286A0
:10291000118683871486958786871786108A118A81
:10292000128A76962E173F0749F768E08FEA95E0FE
:102930000E94771367E08CE995E00E94771364E0CA
:1029400089E895E00E94771362E086E795E00E94AF
:10295000771383E1EFEAF5E0AAE2B5E001900D928A
:102960008A95E1F783E1ECE9F5E0ADE3B5E00190AC
:102970000D928A95E1F783E1E9E8F5E0A0E5B5E09D
:1029800001900D928A95E1F783E1E6E7F5E0A3E691
:10299000B5E001900D928A95E1F710920B05109227
:1029A0000C0510920D0510920E0510920F05109255
:1029B0001005109211051092120510921305109235
:1029C0001405109215051092160510921705109215
:1029D00018051092190510921B0510921A051092F5
:1029E0001D0510921C0510921F0510921E051092D5
:1029F00021051092200510922305109222051092B5
:102A00002505109224051092270510922605109294
:102A10002905109228050895CF93DF93CDB7DEB72F
:102A2000E8970FB6F894DEBF0FBECDBF789484B59B
:102A3000826084BD84B5816084BD85B5826085BDBA
:102A400085B5816085BD80916E00816080936E0048
:102A5000109281008091810082608093810080913A
:102A600081008160809381008091800081608093EB
:102A700080008091B10084608093B1008091B000AB
:102A800081608093B00080917A00846080937A00A6
:102A900080917A00826080937A0080917A008160D0
:102AA00080937A0080917A00806880937A001092F7
:102AB000C1000E94140888E48093B800E0917E046D
:102AC000F0917F0482E08083E0917A04F0917B04AE
:102AD0001082E0917C04F0917D0480E1808310926B
:102AE0008604E0918204F091830486E08083E09183
:102AF0008004F0918104808180618083E091800472
:102B0000F0918104808188608083E0918004F0915D
:102B10008104808180688083E0918004F091810449
:102B200080818F7D808364E670E080E090E00E9489
:102B30006C0B61E08EE00E944C086DEE75E08EE655
:102B400094E00E94FF0F66ED75E08EE694E00E942F
:102B5000FF0F6FEB75E08EE694E00E94FF0F64E1DB
:102B600070E080E090E00E946C0B69EB71E08E01F8
:102B70000F5F1F4FC8010E94FE106DEB71E0CE0188
:102B800041960E94FE10B801CE0141960E9411109C
:102B9000CE0141960E946110C8010E94611069EB4C
:102BA00071E0C8010E94FE106BEC71E0CE0141960D
:102BB0000E94FE10B801CE0141960E941110CE0174
:102BC00041960E946110C8010E94611069EB71E09A
:102BD000C8010E94FE1067ED71E0CE0141960E948F
:102BE000FE10B801CE0141960E941110CE0141960F
:102BF0000E946110C8010E94611064EA75E08EE6CF
:102C000094E00E94AF0C20E14CE350E060E070E003
:102C10008EE694E00E94800F8EE694E00E94CC0F36
:102C20006AE070E080E090E00E946C0B1092120667
:102C30008CE3809311061092080610920906EEE9C3
:102C4000F5E0A590B490E0EAF5E0D490E1EAF5E093
:102C5000E491E0930A06E2EAF5E0E491E0930B06E2
:102C6000E3EAF5E0E491E0930C06F12CE12CED149D
:102C700060F4F701EA0DFB1D649184E096E00E9488
:102C8000D4042FEFE21AF20AF2CF10920E060E943D
:102C90004A0580910B06803429F40E944A0581E0A0
:102CA00080930E068AE890E09093100680930F06BA
:102CB0000E944A056FE770E08EE694E00E94FF0FE5
:102CC0006AE070E080E090E00E946C0B84E096E0A7
:102CD0009093100680930F0664EE71E08EE694E008
:102CE0000E94ED0F88E199E20FB6F894A8958093C1
:102CF00060000FBE909360008EE694E00E94CC0FBF
:102D000061EF71E0C8010E94FE10C8010E94D00F5F
:102D1000C8010E9461106AE070E080E090E00E94CB
:102D20006C0B62E771E0CE0149960E94FE10B8E09C
:102D3000CB2ED12CEE24E394FC2CE0923E04C092E6
:102D4000600410923F04109261040E949E09811158
:102D5000A8C061E072E0C8010E94FE10C8010E9494
:102D6000AD0BC8010E94611069E072E0C8010E94C9
:102D7000FE10C8010E94AD0BC8010E9461101A8AA2
:102D8000198A1C8A1B8A1E8A1D8A40E1B801C60165
:102D90000E94571EF80101900020E9F73197AF011A
:102DA000401B510BB801CE0141960E94DD10898D68
:102DB0009A8D009709F453C069897A896115710564
:102DC00009F44BC04B8D5C8D2D893E89421753070A
:102DD00008F443C00E94E9208D899E899E8F8D8FC3
:102DE0001E8A1D8ACE0141960E946110CE0149962D
:102DF0000E9469101A8219821C821B821E821D8207
:102E0000698D7A8D6115710529F04D8D5E8DC80132
:102E10000E94DD10C8010E94AD0BC8010E94611024
:102E20006EE072E0C8010E94FE10C8010E94D00F3F
:102E3000C8010E946110E8ECEF0DE83008F0ABC16A
:102E4000F0E0EB5DF84E0C94DA1E4017BF18BF1887
:102E5000BF18C218C518CB18C8180E947C1F8989D2
:102E60009A899A8F898F8B899C899C8F8B8F8D896A
:102E70009E899E8F8D8F1A8A198A1C8A1B8AB0CFD1
:102E800062E172E0C8010E94FE10C8010E94D00FEA
:102E9000C8010E94611061E070E080E090E00E9453
:102EA0006C0B4FEFC41AD40A88E7C816D10409F096
:102EB00043CF60E572E0C8010E94FE10C8010E9485
:102EC000D00FC8010E9461106AE070E080E090E0DD
:102ED0000E946C0BCE0149960E94611062E672E07E
:102EE000C8010E94FE10C8010E94AD0BC8010E94DB
:102EF000611066EF77E08EE694E00E94AF0C6AE026
:102F000070E080E090E00E946C0BFEE02F2EF1E07C
:102F10003F2EA4E1B1E0BDABACABA2ECCA2EA5E064
:102F2000DA2EF101E190F1901F01ACA9BDA98D90BD
:102F30009D90BDABACAB5401AA0CBB1CA80CB91C3A
:102F4000C5010E94E01E009721F4B12CA12C912C08
:102F5000812CF701E450F74FE491F0E0EE0FFF1FF2
:102F6000EE50F74F25913491F701E252F74FE4917B
:102F7000F1E0D601FC9311961C92119713969C9246
:102F80008E9212971596BC92AE9214971796FC9259
:102F9000EE92169718961C9218971A969C938E93F9
:102FA000199741E01B964C931B97F2E01C96FC93FB
:102FB0001C971D961C921D971E964C931E971F964C
:102FC0001D921D921D921C92529754963C932E93E3
:102FD00053975596EC930E947C1FF7FC04C060E069
:102FE0008E2D0E944C08F6018681978197FD09C0BD
:102FF00061E00E944C0860E0D60116968C910E9418
:10300000C80721E0F601218362ECE62E65E0F62E8A
:10301000B12CA12CD70112968D919C911397A816D3
:10302000B90608F002C11E96EC911E9719968D9173
:103030009C911A971B962C91E213B0C09501220F18
:10304000331F2A0D3B1D820F931FD7011B96EC9156
:103050001B97E80FF92FF11D10821C96EC911C971D
:10306000E80FF92FF11D10821D962C911D97820FEC
:10307000911DFC01108219968D919C91892B09F468
:103080007AC0D7011F964D905D906D907C905297BD
:103090000E947909641575058605970538F40E9424
:1030A0007909F7016787708B818B928B0E94790970
:1030B000D7011F964D905D906D907C90529764194A
:1030C0007509860997096C32714081059105C8F22E
:1030D000F894F701848195819CA78BA70184F285E0
:1030E000E02D4F012FEF821A920A80818BABD7011E
:1030F0009C915396ED91FC91549755968C91992300
:1031000009F458C09081982B9AAB908180958923BF
:1031100089AB89A98EA7B8E0BDA76AA939A95BA91F
:103120004DA52EA58BA59CA5D401608357FD262F08
:103130004A952083232F39F0551F00C000003083AB
:10314000000000C0F2CF48E05D913083000001979D
:1031500061F7D7015496FC93EE9353975BAB4DA761
:103160002EA79CA78BA778940E947909F7016787FF
:10317000708B818B928BFFEFAF1ABF0A4BCF63E24C
:1031800072E080CE6DE272E07DCE6DE372E07ACEC9
:1031900062E472E077CE68E472E074CE9501220FAB
:1031A000331F220F331F820F931FE80FF92FF11DDA
:1031B00010824BCF9081982B9AAB90818095892378
:1031C00089AB89A988ABB8E0BFA76AA939A95BA96F
:1031D0004FA528A98BA59CA5D401608357FD262F58
:1031E00000C000C0208300C000C000C000C000C0FC
:1031F00030830000232F4A9541F0551F000000C086
:1032000000C000C000C000C0E8CF48E05D9100C031
:10321000308300C0019709F7D7015496FC93EE93D1
:1032200053975BAB4FA728AB9CCF6AE070E080E080
:1032300090E00E946C0B26E1E20EF11C4EEEE416CB
:1032400045E0F40609F0E4CE86E1C80ED11CA2E107
:10325000B1E0A215B30509F064CE68E270E080E049
:1032600090E00E946C0B6AEE77E08EE694E00E949C
:10327000FF0F6AE070E080E090E00E946C0B6FE668
:1032800072E0C8010E94FE10C8010E94D00FC80160
:103290000E946110A8958AE2E82E85E0F82EB12CF4
:1032A000A12C92E0692E28EE822E28E0922E34E1A5
:1032B000732E6CE772E0C8010E94FE10C8010E94E4
:1032C000AD0BC8010E9461104AE0B501C8010E941F
:1032D0000F11C8010E94D00FC8010E9461106EE753
:1032E00078E08EE694E00E94AF0CF701C188D288A6
:1032F000C114D10409F4DAC061E0D6011B968C91A7
:103300000E944C0861E0F60183850E94C807D6013F
:103310008D919C911197892B09F4A2C05FB6F89406
:1033200080915303811126C0E6E0F9E08491F40115
:103330009491E82FF0E0EE0FFF1FEA55F74FA591AB
:10334000B4918C91982321F461E08AE00E94C8072F
:1033500061E08AE00E944C088CB580618CBD8CB520
:1033600080648CBD61E08DE00E944C0861E08BE0E0
:103370000E944C08809153038F5F809353035FBE7C
:1033800081E0D6015B968C936092AC0344E650E0FA
:1033900061E0C7010E94060EF2E3F093AC0325E062
:1033A0002093AD034FEF4093AE0381E08093AF03D2
:1033B0002093B00344E650E065E0C7010E94060E8A
:1033C000D12CC12C6092AC0344E650E061E0C7010F
:1033D0000E94060E811189C065E678E08EE694E0D1
:1033E0000E94AF0C86E0C816D104B4F16DE478E019
:1033F0008EE694E00E94AF0C65E070E080E090E023
:103400000E946C0B65E078E08EE694E00E94FF0F6E
:1034100062E370E080E090E00E946C0BE3E02E2E0F
:10342000312C412C512C2AE0B201A1018EE694E00E
:103430000E94800F8EE694E00E94CC0F64E670E05C
:1034400080E090E00E946C0B91E0291A310841085D
:10345000510849F70C940000FFEFCF1ADF0AB2CFF2
:1034600061E01C968C910E944C08F60182858B7F4E
:10347000D1F460E084850E94C807F60185858F3FFE
:1034800049F061E00E944C0861E0D6011D968C91E4
:103490000E94C807F60186858F3F09F471CF60E06E
:1034A0000E944C086DCF61E08485E5CF0E9414082E
:1034B00061E0F70181810E94C80760E0D7011196A1
:1034C0008C910E94C80760E971E080E090E00E9462
:1034D0006C0B61E0F70181810E94C8076AE070E02F
:1034E00080E090E00E946C0B57CF4CE06CEA73E0F8
:1034F000C7010E94B60D46E050E060E071E08CEA42
:1035000093E00E94CA20892B09F066CF2090B30374
:103510003090B403322423243224512C412C542CD7
:10352000432C322C22248091B503282A542C432C7E
:10353000322C22248091B603282A2114310441041C
:10354000510409F449CF6EE378E08EE694E00E94DE
:10355000AF0C452D55276627772720E18EE694E0AE
:103560000E94800F8EE694E00E94CC0F6FE278E01C
:103570008EE694E00E94AF0C442D50E070E060E0D5
:103580002AE08EE694E00E94800F6EE28EE694E0E0
:103590000E94620C432D50E070E060E02AE08EE66D
:1035A00094E00E94800F8EE694E00E94CC0F70920F
:1035B000AC0381E08093AD037092AE038093AF03C0
:1035C00044E650E064E0C7010E94060E882331F013
:1035D00048E06CEA73E0C7010E94B60D62E370E058
:1035E00080E090E00E946C0B63E178E08EE694E06E
:1035F0000E94AF0C6FE872E0C8010E94FE10C80183
:103600000E94D00FC8010E946110A895AFEFAA1ABE
:10361000BA0AB3E1EB0EF11CE3E0AE16B10409F017
:1036200048CEA89540E16FE370E0CE0149960E9434
:103630000F11CE0149960E94691068E972E0C80135
:103640000E94FE104D8D5E8D698D7A8DC8010E949D
:10365000A710811103C0C8010E944F101A8A198A4D
:103660001C8A1B8A1E8A1D8A69817A8161157105EF
:1036700031F04D815E81CE0141960E94DD10CE0178
:1036800041960E94D00FCE0141960E946110C80160
:103690000E9461108FE380930E050E9414088091B0
:1036A0000C0580930F0561E080910E050E949D0A34
:1036B0001092F1038093F003811101C0FFCF82E6E5
:1036C00094E00E94290780930C053AE0C32E31E074
:1036D000D32E46E0E42E41E0F42E5AE0852E51E050
:1036E000952EAA24A394B12C20910D05C501D601D5
:1036F0000C9002C0880F991F0A94E2F7922F982B22
:1037000090930D0590910B058095892380930B056F
:103710000E94850AF7012081F2E0EF0EF11CC5013D
:10372000D6010C9002C0880F991F0A94E2F790917D
:103730000B05222309F42AC1892B80930B050E94D3
:10374000850A66EA72E0C8010E94FE10C8010E9464
:10375000AD0BC8010E946110F601619171916F017A
:103760004AE0C8010E940F11C8010E94AD0BC801B8
:103770000E9461106EEA72E0C8010E94FE10C8014A
:103780000E94AD0BC8010E946110F7013297608161
:1037900071814AE0C8010E940F11C8010E94AD0B5F
:1037A000C8010E9461108E149F0409F09DCF1A82F7
:1037B00019821C821B821E821D8266E170E0C80194
:1037C0000E947F108111E5C0C8010E944F10CE01F8
:1037D00001960E94D00FCE0101960E946110CE0189
:1037E00049960E946110A8952FB7F89480915F03C5
:1037F00090916003A0916103B09162032FBF809309
:10380000540390935503A0935603B093570362E07B
:1038100070E080E090E00E946C0B8E010F5E1F4F05
:1038200069EB71E0C8010E94FE1068EB72E0CE0106
:1038300001960E94FE10B801CE0101960E9411105F
:10384000CE0101960E946110C8010E9461108EE6AF
:1038500094E00E94CC0F63EC72E0CE0101960E94CE
:10386000FE10CE0101960E94D00FCE0101960E945B
:1038700061103E01F5E26F0E711C20E4C22E2FB7DD
:10388000F89480915F0390916003A0916103B091DF
:1038900062032FBF4091540350915503609156032A
:1038A00070915703841B950BA60BB70B8838934177
:1038B000A105B10598F02FB7F89480915F0390911E
:1038C0006003A0916103B09162032FBF8093540302
:1038D00090935503A0935603B0935703D301E6E0AA
:1038E0001D92EA95E9F762E771E0CE014F960E94DA
:1038F000FE1088E593E09FAB8EAB1301A2E3B1E02D
:10390000BDABACAB9AE2E92E95E0F92E512C412CDF
:10391000DD24D39448AEF80127E011922A95E9F707
:1039200086E0E6E2F1E0DE01599601900D928A957B
:10393000E1F71A8219824AE44093AC03D092AD03B6
:103940001092AE0350E040E063E0C7010E94060E13
:10395000882389F1D70151968D919C91892B21F172
:1039600044E16CEA73E0C7010E94B60D8091B30395
:10397000813009F59090B803A9EBB3E0F8018E2FE0
:10398000801B8915F8F48D918193F9CF8095892357
:10399000D4CE86E190E09E838D836FE878E08981C4
:1039A0009A810E943A1E13CF70E060E0C7010E9426
:1039B000EE0C8111D5CF6EE073E0CE014F960E94E0
:1039C000D310C8C086E0FE017996D7011A960190FF
:1039D0000D928A95E1F7A92CB12CA501B801C70178
:1039E00002960E94D720F7019186C092AC03D09234
:1039F000AD03F0E6F093AE03D092AF0386E0F7019B
:103A00003A96A0EBB3E001900D928A95E1F740E081
:103A100083E1849D9001859D300D1124265D3A4FF0
:103A2000842F90E08A159B055CF4FC01E455FC4F63
:103A3000820F931FDC0112968C9182874F5FF0CF2B
:103A40006AE0690D44E650E0C7010E94060E882333
:103A5000B9F1F101A080B1804CE06CEA73E0C701DC
:103A60000E94B60D8091B30381112AC0C092AC03AD
:103A7000D092AD03F0E3F093AE03D092AF0344E6EF
:103A800050E064E0C7010E94060E882301F14AE17C
:103A90006CEA73E0C7010E94B60D8091B3038111F7
:103AA00016C080E1E4EBF3E0DE01119601900D9287
:103AB0008A95E1F7898181110DC069EE72E002C03B
:103AC00061ED72E08EE694E00E94ED0F74CF6DED33
:103AD00072E0F8CF2FEFA21AB20AD101AD92BC92D8
:103AE000AA24A394B12CBE016F5F7F4F8CA99DA91E
:103AF0000E94E020892B09F488C0F1018080918028
:103B000069E073E0CE014F960E94D3104AE0B801FD
:103B1000C5010E944C1EF80101900020E9F7319781
:103B2000AF01401B510BB801CE014F960E94A71068
:103B30008FEF8A0DF8ADF81306C02FEF821A920AA4
:103B4000D1018D929C92EFEFAE1ABE0AF4E0AF164F
:103B5000B10449F641E050E060E172E0CE014F96D9
:103B60000E94A710AEA9BFA92D913D91BFABAEABEE
:103B7000F101819191911F0128173907F9F069EB43
:103B800071E0C8010E94FE1061E173E0CE01499628
:103B90000E94FE10B801CE0149960E941110CE017C
:103BA00049960E946110C8010E94611083E0F301F0
:103BB000A8E5B3E001900D928A95E1F7FFEF4F1A67
:103BC0005F0A23E1E20EF11C8CA99DA903969DAB2F
:103BD0008CAB93E04916510409F09CCECE014F9670
:103BE0000E94611064EF71E080E090E00E946C0B35
:103BF000A0E0B0E0AB2B09F442CE0E942C0C88234D
:103C000009F43DCE0E9400003ACEB8ADB23009F0C2
:103C10009ACF6BE073E0CE014F960E94D31093CF02
:103C2000CF93DF93C4E0D6E0669789859A850E949A
:103C30007C1F8E819F8197FD03C060E00E944C082D
:103C400085E0C23CD80781F783E196E00E946110CD
:103C500089E196E00E9461108FE196E00E94611078
:103C600085E296E00E9461108BE296E0DF91CF91B1
:103C70000C946110FB01DC0105900D920020E1F72E
:103C800008954532510520F4423010F00C944C1E3A
:103C9000FB011082CB010895BB274A3031F49923F0
:103CA00022F4BDE2909581959F4F0C94581EBB273E
:103CB000FB015527AA27880F991FAA1FA41710F0E8
:103CC000A41B83955051B9F7A05DAA3308F0A95DF4
:103CD000A193009779F7B111B1931192CB010C9494
:103CE000711EDC01FC01672F71917723E1F7329798
:103CF00004C07C916D9370836291AE17BF07C8F3C7
:103D000008952F923F924F925F926F927F928F927F
:103D10009F92AF92BF92CF92DF92EF92FF920F935A
:103D20001F93CF93DF93CDB7DEB7CA1BDB0B0FB664
:103D3000F894DEBF0FBECDBF09942A883988488821
:103D40005F846E847D848C849B84AA84B984C884B7
:103D5000DF80EE80FD800C811B81AA81B981CE0FAE
:103D6000D11D0FB6F894DEBF0FBECDBFED01089593
:103D7000A1E21A2EAA1BBB1BFD010DC0AA1FBB1F6F
:103D8000EE1FFF1FA217B307E407F50720F0A21BE1
:103D9000B30BE40BF50B661F771F881F991F1A944E
:103DA00069F760957095809590959B01AC01BD0178
:103DB000CF010895EE0FFF1F0590F491E02D0994B7
:103DC0000F931F93CF93DF938230910510F482E01D
:103DD00090E0E0913306F091340630E020E0B0E06E
:103DE000A0E0309799F42115310509F44AC0281B49
:103DF000390B24303105D8F58A819B816115710515
:103E000089F1FB0193838283FE0111C040815181BE
:103E10000281138148175907E0F04817590799F4B0
:103E2000109761F012960C93129713961C9332968A
:103E3000CF01DF91CF911F910F9108950093330629
:103E400010933406F4CF2115310551F04217530772
:103E500038F0A901DB019A01BD01DF01F801C1CFF2
:103E6000EF01F9CF9093340680933306CDCFFE0156
:103E7000E20FF31F819391932250310939832883F4
:103E8000D7CF2091310630913206232B41F4209177
:103E90002201309123013093320620933106209184
:103EA0002001309121012115310541F42DB73EB794
:103EB0004091240150912501241B350BE0913106DE
:103EC000F0913206E217F307A0F42E1B3F0B2817E0
:103ED000390778F0AC014E5F5F4F2417350748F083
:103EE0004E0F5F1F5093320640933106819391939A
:103EF0009FCFF0E0E0E09CCFCF93DF930097E9F015
:103F0000FC01329713821282A0913306B0913406DD
:103F1000ED0130E020E01097A1F420813181820F83
:103F2000931F20913106309132062817390709F086
:103F300061C0F0933206E0933106DF91CF9108958E
:103F4000EA01CE17DF07E8F54A815B819E01411542
:103F50005105B1F7E901FB83EA8349915991C40FF7
:103F6000D51FEC17FD0761F4808191810296840FC3
:103F7000951FE90199838883828193819B838A833A
:103F8000F0E0E0E012968D919C9113970097B9F5BF
:103F90002D913C911197CD010296820F931F209194
:103FA0003106309132062817390739F6309751F526
:103FB0001092340610923306B0933206A093310665
:103FC000BCCFD383C28340815181840F951FC81712
:103FD000D90761F44E5F5F4F88819981480F591F5F
:103FE000518340838A819B8193838283211531058C
:103FF00009F0B0CFF0933406E09333069ECFFD0175
:10400000DC01C0CF13821282D7CFB0E0A0E0EBE09A
:10401000F0E20C94831E8C01009751F4CB010E94B6
:10402000E01E8C01C801CDB7DEB7E0E10C949F1E05
:10403000FC01E60FF71F9C0122503109E217F3073C
:1040400008F49DC0D901CD91DC911197C617D7070F
:1040500098F0C530D10530F3CE0104978617970745
:1040600008F3C61BD70B2297C193D1936D937C9312
:10407000CF010E947C1FD6CF5B01AC1ABD0A4C0158
:104080008C0E9D1EA0913306B0913406512C412C0C
:10409000F12CE12C109731F5809131069091320688
:1040A0008815990509F05CC04616570608F058C0F7
:1040B0008091200190912101009741F48DB79EB726
:1040C0004091240150912501841B950BE817F907B5
:1040D00008F055C0F0933206E0933106F901718380
:1040E0006083A0CF8D919C91119712966C9012973E
:1040F00013967C901397A815B90559F56C0142E009
:10410000C40ED11CCA14DB0420F1AC014A195B09AE
:10411000DA011296159780F0628273825183408390
:10412000D9016D937C93E114F10471F0D7011396DA
:10413000FC93EE93129776CF22968C0F9D1FF90178
:1041400091838083F301EFCFF0933406E09333063D
:1041500069CF4816590608F42C017D01D3019ACF86
:10416000CB010E94E01E7C01009749F0AE01B8012E
:104170000E94D720C8010E947C1F870153CF10E006
:1041800000E050CF9111089581568A5108F4805271
:1041900085580895FB01DC0104C08D9101908019C0
:1041A00021F441505040C8F7881B990B0895FB013A
:1041B000DC0102C001900D9241505040D8F70895A3
:1041C000FB01DC018D91019080190110D9F3990B4D
:1041D0000895FB01DC0101900D920020E1F70895A4
:1041E00014E0C9E8D4E004C0FE010E94DA1E219662
:0A41F000CA38D107C9F7F894FFCFD1
:1041FA000000FF06FAD500000100010002000900D4
:10420A00000000001F00000000000000FF00FF0087
:10421A00000035068000FFFFFFFFFFFF6B006C0008
:10422A006D0041480053440047460000000000006A
:10423A000000700743079B0D19073C0729071A0757
:10424A0000000000620CC20BEF0BCE0C200CFE0B20
:10425A00120C000000006805C20B9B0D9E0B620D3C
:10426A000D0A002142722C002C446F6E652E0053F9
:10427A0074757474676172742047616C6C657279C5
:10428A0020412F420030322E30322E32303231006D
:10429A0076657273696F6E20312E30535400427204
:1042AA00524649440055564C0053595300216865FB
:1042BA00616465725F626567696E00216865616441
:1042CA0065725F656E64002173657475705F6265FF
:1042DA0067696E0057445420656E6461626C656458
:1042EA0000202020493243205363616E6E65723A82
:1042FA0000466F756E643A20002028307800292025
:10430A0020004B6579706164202864656661756C6C
:10431A007429004B65797061642F494F004F6C65B1
:10432A006420202864656661756C7429004F6C6589
:10433A00640052656C617900556E6B6E6F776E0022
:10434A00493243207363616E20636F6D706C6574CC
:10435A0065004C656420696E6974202E2E2E00203B
:10436A007375636365737366756C210052464944BD
:10437A002D52656164657220696E69743A20007312
:10438A00756363657373210072656C6179696E691F
:10439A0074206F6E200052656C6179205B005D208D
:1043AA0073657420746F20002173657475705F657E
:1043BA006E64000A3D3D3D53544152543D3D3D0A11
:1043CA000041757468206661696C65640072656194
:1043DA0064206661696C6564007265616420656D5C
:1043EA007074792064617461626C6F636B202D3E16
:1043FA0020696E76616C6964004300554B005F5F0B
:10440A00004361726473204368616E6765640000EB
:00000001FF
