:100000000C948A040C94B2040C94B2040C94521311
:100010000C942D130C9408130C94B2040C94B20499
:100020000C94B2040C94B2040C94B2040C94B20478
:100030000C94B2040C94B2040C94B2040C94B20468
:100040000C9466120C94B2040C94D6120C94B01258
:100050000C94B2040C94B2040C94B2040C94B20448
:100060000C9447110C94B204AEB08180A1A6A83FB5
:10007000AD8B32C8D300D580D91FDA12DB40AF5325
:1000800075636365737366756C001C620A0C20608F
:1000900002020508070D080204040507020402060F
:1000A00007060707070707070707020207070705ED
:1000B0000A070707080606080804060707090809CB
:1000C000070908070808070C0708060406040809BA
:1000D000030606060606050606020407020A0606C9
:1000E000060605050506060A0606050602060809AF
:1000F000000000007E7E3030070700070700000088
:100100000000C0D8F8DED8F8DE180030000030005B
:100110000000387C64FF64E4C8102020F020301018
:100120003C7E427E3CC02018E6F010F0E00000006B
:1001300000300000001030203010DCFE227EDC8019
:100140006020103020202010302007070000F8FE2B
:1001500007011070E0800107FEF880E07010120CBB
:100160003F0C120000000000202020FC2020200076
:100170000000100000000000F0702020202000008F
:100180000000000030300080E07C1F03C0F0300031
:100190000000FCFE020202FEFC1030202020301085
:1001A0000404FEFE0000202030302020040682C21D
:1001B000623E1C203030202020200406222222FE15
:1001C000DC10302020203010C0A09884FEFE80007B
:1001D000000000303000001E1E1212F2E21030202B
:1001E00020203010F8FC161212F2E01030202020EF
:1001F0003010020282E27A1E060020301000000059
:10020000DCFE222222FEDC103020202030103C7E3A
:10021000424242FEFC0020202030100018183030EE
:100220001818F0706060909008080400000000103A
:10023000102090909090909090000000000000009E
:100240000408089090606020101000000000046214
:10025000721E0C0030300000F00CF4FA0AFAFA04B6
:100260000CF00030205050505010100080F8FE86E6
:10027000FEF88030300000003030FEFE22223EFCCE
:10028000C030302020203010F8FC060202020400AA
:10029000103020202010FEFE02020206FCF8303052
:1002A000202020301000FEFE22222222303020208A
:1002B0002020FEFE22222222303000000000F8FC26
:1002C00006024242C2C40010302020203030FEFE20
:1002D00020202020FEFE303000000000303002FEE2
:1002E000FE022030302000020202FEFE20202020EC
:1002F0003010FEFE70D88C06023030000010302026
:10030000FEFE000000000030302020202020FE0EE5
:100310003CF0C0300CFEFE30000000000000303029
:10032000FE061C38E0C000FE300000000010303037
:10033000F8FC0602020206FCF800103020202030F3
:100340001000FEFE4242427E3C30300000000000C1
:10035000F8FC0602020206FCF80010302060E0B053
:100360009080FEFE2262E2BE1C00303000000010D1
:1003700030201C3E322262E2C410202020203010A7
:10038000020202FEFE020202000000303000000005
:10039000FEFE00000000FEFE103020202020301065
:1003A0000E7EF080F07E0E000030303000000E7EB9
:1003B000F080E03E3EE080F07E0E00003030000035
:1003C000000030300000068EF870F88E06303000E5
:1003D00000003030060E18F0F0180E060000003055
:1003E0003000000002C2F23E0E02303020202020F9
:1003F000FFFF0101F0F08080031F7CE0800000001F
:100400000030F0C00101FFFF8080F0F010180C06F2
:10041000060C1810000000000000000000000000A2
:100420000000000000808080808080808080010348
:1004300002000000C0E82828F8F0103020203030FA
:10044000FFFF0808F8F0303020203010F0F80808DE
:100450000810103020202010F0F80808FFFF10309E
:1004600020203030F0F848487870103020202010DC
:1004700008FEFF09090030300000F0F80808F8F81D
:1004800010B0A0A0F070FFFF0808F8F030300000B6
:100490003030FBFB30300008FBFB8080F070FFFF4A
:1004A00060F098080030300000103020FFFF30303E
:1004B000F8F81008F8F01008F8F03030000030308C
:1004C00000003030F8F80808F8F030300000303024
:1004D000F0F80808F8F0103020203010F8F808087C
:1004E000F8F0F0F020203010F0F80808F8F810309C
:1004F0002020F0F0F8F810181830300000003078A4
:1005000048C888202020301008FEFE08080010305F
:100510002020F8F80000F8F810302020303038F8AB
:10052000C0C0F83800103030100078F880C038387B
:10053000C080F8780030300000000030300018B87B
:10054000E0E0B81830300000303038F8C0C0F8387B
:100550000090F070100008C8E87818303020202093
:100560002020FEDF0101000070F08080FFFFF0F02E
:100570000101DFFE20208080F0700000E0101020DC
:10058000408080700000000000000000FE020202B7
:1005900002020202FE3020202020202020306800AD
:1005A000178040020A0A4F4C454420696E69742046
:1005B0006F6E20416464726573733A203078002B4B
:1005C0002D2D2D2D2D2D2D2D2D2D2D2D2D2D2D2D5B
:1005D0002D2D2D2D2B007C20202020456C65637453
:1005E000726F7363617065202020207C002B2D2D9D
:1005F0002D2D2D2D2D2D2D2D2D2D2D2D2D2D2D2D2B
:100600002D2D2B00000005072060000000000000D9
:10061000005F00000007000700147F147F14242AE5
:100620007F2A1223130864623649562050000807B7
:100630000300001C2241000041221C002A1C7F1CD8
:100640002A08083E080800807030000808080808DA
:10065000000060600020100804023E5149453E0041
:10066000427F400072494949462141494D3318149F
:10067000127F1027454545393C4A494931412111EE
:1006800009073649494936464949291E00001400E0
:100690000000403400000008142241141414141403
:1006A000004122140802015909063E415D594E7C61
:1006B0001211127C7F494949363E414141227F4116
:1006C00041413E7F494949417F090909013E414174
:1006D00051737F0808087F00417F41002040413F5F
:1006E000017F081422417F404040407F021C027F6E
:1006F0007F0408107F3E4141413E7F090909063EC3
:100700004151215E7F091929462649494932030191
:100710007F01033F4040403F1F2040201F3F4038A3
:10072000403F631408146303047804036159494D7E
:1007300043007F4141410204081020004141417FB4
:10074000040201020440404040400003070800202A
:10075000545478407F28444438384444442838442A
:1007600044287F385454541800087E090218A4A461
:100770009C787F0804047800447D40002040403D80
:10078000007F1028440000417F40007C04780478FA
:100790007C080404783844444438FC18242418188D
:1007A000242418FC7C0804040848545454240404E9
:1007B0003F44243C4040207C1C2040201C3C4030D6
:1007C000403C44281028444C9090907C4464544C05
:1007D0004400083641000000770000004136080060
:1007E00002010204023C2623263C207375636365E4
:1007F000737366756C000A0A4C454420696E69740F
:10080000202E2E2E0052657374617274696E6720FB
:10081000696E000A5246494420696E6974202E2E82
:100820002E205375636365737366756C200A0046EA
:1008300069726D77617265207665722E2000466F51
:10084000756E64206368697020504E3500504E35D7
:10085000333220737461727475702074696D6564CD
:10086000206F7574004469646E27742066696E6435
:1008700020504E35337820626F6172640A000A524C
:1008800046494420696E6974202E2E2E200A000AE3
:1008900072656C617920696E697420737563636534
:1008A000737366756C0000000000240027002A00A6
:1008B000000000080002010000030407000000001F
:1008C0000000000000030C0F30333C3FC0C3CCCF0E
:1008D000F0F3FCFF000000002300260029000102C5
:1008E00004081020408001020408102001020408BE
:1008F000102000000000250028002B000404040440
:1009000004040404020202020202030303030303B9
:10091000F313A91E11241FBECFEFD8E0DEBFCDBF59
:1009200026E0A8E6B3E001C01D92A338B207E1F7C4
:1009300013E0A0E0B1E0ECE2F3E402C005900D9218
:10094000A836B107D9F714E0C9E8D4E004C021976C
:10095000FE010E94731FC838D107C9F70E940C1509
:100960000C9489210C940000089508958FB7F89491
:100970008091F9038FBF08958CBD9DBD0895CF93DD
:10098000DF93EC019C818E81981758F4E881F981FE
:100990000084F185E02D42E0CE0109958C818F5FC6
:1009A0008C83DF91CF910895DC01ED91FC9100845F
:1009B000F185E02D40E009940F931F93CF938C01B4
:1009C000FC016483C085C60F6C2F6F700E94D40435
:1009D0006C2F62956F706061C801CF911F910F916C
:1009E0000C94D404FC012781269526952695621740
:1009F00020F46583606B0C94D40408951F93CF9307
:100A0000DF93EC01142F8E81681718F4CE010E9439
:100A1000DC04612FCE01DF91CF911F910C94F20481
:100A2000CF92DF92EF92FF920F931F93CF93DF93BA
:100A3000EC01162FC42ED22E8F8186958695869531
:100A4000081710F00FEF080FFD2C0F15B0F08E8176
:100A5000181720F4612FCE010E94DC046F2DCE0107
:100A60000E94F204E12ECE1430F060E0CE010E942C
:100A7000BF04E394F8CFF394E8CF4D2D612FCE015E
:100A8000DF91CF911F910F91FF90EF90DF90CF906A
:100A90000C94FE040F930091590606950695069551
:100AA000015040915806415020E060E082E596E018
:100AB0000E94100581E090915C06911101C080E0D8
:100AC00080935C0660E482E596E00F910C94D40478
:100AD0002F923F924F925F926F927F928F929F924E
:100AE000AF92BF92CF92DF92EF92FF920F931F933C
:100AF000CF93DF9300D000D01F92CDB7DEB7DC01DB
:100B00001B960D911C910115110509F468C19D8377
:100B10008C83F801449131965491319664903196CA
:100B20002491E22EF12CF7E0EF0EF11C73E0F59426
:100B3000E7947A95E1F7E982F80134963491319699
:100B4000E491631748F08E2F90E0FC01E30FF11D54
:100B50006E171F060CF487C06D3031F5AC81BD8176
:100B600016968C9181111AC081E090E00F900F9041
:100B70000F900F900F90DF91CF911F910F91FF90E9
:100B8000EF90DF90CF90BF90AF909F908F907F902D
:100B90006F905F904F903F902F90089560E08C8110
:100BA0009D810E94DC04E0CF6A3009F018C1EC811D
:100BB000FD818185D5808E9DD00C112487818695FD
:100BC00086958695D81630F08285882319F082E0C4
:100BD0008287D12C4D2D60E08C819D810E94FE0486
:100BE000AC81BD811A968C911A97823008F4BCCFE3
:100BF00015962C9115971B96ED91FC911C9700E092
:100C0000309739F03396E49119960C91E09F002DBE
:100C1000112410E0095F1F4F33E0159507953A95B1
:100C2000E1F78FEF820F080FEC81FD814681415083
:100C30006481CF010E941005AC81BD8119968C9111
:100C400019976D2D8E9D600D1124660F660F660F2E
:100C500017968C91861708F460E060648C819D8102
:100C60000E94D40481CF4527542745270A5F1F4F90
:100C7000631BEC81FD8121844230510508F06DC079
:100C8000452B09F0212C6E9CC0016F9C900D112406
:100C9000689FF001699FF00D11240E0F1F1F512C4A
:100CA000AC81BD811496BC91BA83EC81FD81F58144
:100CB000FB83862C912CAA24A394B12C312C8981FE
:100CC000381608F086C0412CAC81BD8119968C91F4
:100CD000481608F077C0311002C0442041F0EC8182
:100CE000FD8145814F5F6A81CF010E94FE04D12CB6
:100CF000C12CC61408F05AC0F801EC0DFD1D74900B
:100D0000552061F0EA14FB0449F4E72DF0E0052CCE
:100D100002C0F595E7950A94E2F77E2EAC81BD817D
:100D200019968C91823081F4442009F43BC072946E
:100D30008FE07822E72DF0E0EC53F74F7490672DA9
:100D40008C819D810E94BF04672D8C819D810E94B2
:100D5000BF04EFEFCE1ADE0ACCCF277038E0532E57
:100D6000521A211101C0512C50E040E030E020E047
:100D7000F801461740F4E40FF51FE4912E0F311DE2
:100D80004F5F5F4FF5CFE60FF11D6490E29EF001DB
:100D9000E39EF00DF29EF00D11248E0F9F1F080FA1
:100DA000191F7ECFB72DBF707B2EC4CFD12C2D1431
:100DB00039F060E08C819D810E94BF04D394F7CF0D
:100DC000439482CF3394080D191DFFEFAF1ABF0A69
:100DD00076CF6B818C819D810E94F204C5CE90E01C
:100DE00080E0C4CE2091D603260F3327331F213253
:100DF0003105ECF420918604FC0190E080E0243081
:100E000069F082E00895A091D6032191AC014A5483
:100E10005C4FA40FB52FB11D2C930196861798F344
:100E20008091D603680F6093D60380E0089581E037
:100E300008950895E0913F0480913E04E81730F44E
:100E4000F0E0E05CFB4F808190E008958FEF9FEF32
:100E5000089590913F0480913E042FEF3FEF981743
:100E600048F4E92FF0E0E05CFB4F208130E09F5F29
:100E700090933F04C901089580913E0490913F04EE
:100E8000891B990B0895CF92DF92EF92FF920F93F7
:100E90001F93CF93DF937C01CB018A0120918C04B7
:100EA000222389F0EB016B01C40ED51ECC15DD05A4
:100EB00069F06991D701ED91FC910190F081E02DED
:100EC000C7010995F3CF642F0E94F206C801DF9194
:100ED000CF911F910F91FF90EF90DF90CF900895E9
:100EE000CF93DF931F92CDB7DEB7698320918C0437
:100EF0002223F9F02091AF04203258F021E030E0B5
:100F0000FC013383228390E080E00F90DF91CF914A
:100F1000089580918D04E82FF0E0E257FB4F99810E
:100F200090838F5F80938D048093AF0481E090E085
:100F3000ECCF61E0CE0101960E94F206F7CF83303C
:100F400081F028F4813099F08230A9F0089587303B
:100F5000A9F08830C9F08430B1F4809180008F7D91
:100F600003C0809180008F7780938000089584B5BE
:100F70008F7784BD089584B58F7DFBCF8091B000BD
:100F80008F778093B00008958091B0008F7DF9CF66
:100F90001F93CF93DF93282F30E0F901E055F74FEF
:100FA0008491F901E252F74FD491F901E450F74FDF
:100FB000C491CC23A9F0162F81110E949F07EC2F1A
:100FC000F0E0EE0FFF1FEE50F74FA591B4918FB7F1
:100FD000F894EC91111108C0D095DE23DC938FBFFB
:100FE000DF91CF911F910895DE2BF8CF10928604E8
:100FF00081E0809385041092600461E082E10E94A8
:10100000C80761E083E10E94C807E9EBF0E0808156
:101010008E7F808380818D7F808388E48093B80079
:1010200085E48093BC00089510923F0410923E0422
:1010300010928D041092AF040E94F60784EB94E0A6
:1010400090933D0480933C0485EB94E090933B04A3
:1010500080933A040895CF93DF9391E09093B50382
:101060008823B9F0C091B800D091BA008091BC003B
:101070008A7B8093BC0060E082E10E94C80760E048
:1010800083E10E94C8070E94F607D093BA00C0937C
:10109000B800DF91CF910895CF93DF9390E0FC01EA
:1010A000E252F74F24918450974FFC01849188239A
:1010B000D1F090E0880F991FFC01EA55F74FA591F8
:1010C000B491FC01EE50F74FC591D49161110EC05F
:1010D0009FB7F8948C91E22FE0958E238C93288112
:1010E000E223E8839FBFDF91CF9108958FB7F894F3
:1010F000EC91E22BEC938FBFF6CF8230910538F064
:10110000880F991F880F991F05970197F1F7089588
:10111000AF92BF92CF92DF92EF92FF920F931F9305
:10112000CF93DF93EC0188819981892B89F06EBD83
:101130000DB407FEFDCFBEB48B2DDF91CF911F9173
:101140000F91FF90EF90DF90CF90BF90AF900895F8
:101150008885998511E0892B09F010E8AA24A394C9
:10116000862F812309F0A12C062F2C813D814E81F1
:101170005F8160E271EA87E090E00E94511FF22EE9
:10118000B02EE12CC22ED12CFF2019F0C6010E94F6
:101190007D088A85877F09F042C08D858F3F89F061
:1011A000902F912381E009F480E08A1551F0EF85BA
:1011B000F8898F89992369F19081892B8083AA24EA
:1011C000A394E989FA898081998D892B8083FF20F6
:1011D00019F0C6010E947D088E858F3F39F0EB899A
:1011E000FC898081988D892309F0E12AE989FA89AF
:1011F0009081898D8095892380838E858F3F09F02A
:10120000BE2C88859985892BB9F5110F1111BCCF9A
:1012100093CF9081809589238083A12CD2CFE989B7
:10122000FA898081998D892B8083FF2019F0C6016E
:101230000E947D088D858F3F49F0EF85F8898F8961
:10124000902F9123A9F09081892B8083E989FA89D5
:101250009081898D8095892380838E858F3F69F267
:10126000EB89FC898081988D892339F2E12AC5CFE9
:10127000908180958923E9CF1695C8CFCF92DF92D0
:10128000EF92FF920F931F93CF93DF93EC018B01AB
:101290006A01790188819981892B31F0EA81FB818A
:1012A000808191810E94BC0460E08B850E94C80708
:1012B000F8016081CE010E9488088601EC0CFD1CBB
:1012C000E016F10641F06FEFCE010E948808F801A8
:1012D00081938F01F5CF61E08B850E94C80781E083
:1012E000DF91CF911F910F91FF90EF90DF90CF9002
:1012F00008953FB7F8948091B1039091B203A09103
:10130000B303B091B40326B5A89B05C02F3F19F0D5
:101310000196A11DB11D3FBFBA2FA92F982F882775
:10132000BC01CD01620F711D811D911D42E0660F50
:10133000771F881F991F4A95D1F70895CF92DF92A2
:10134000EF92FF920F931F93CF93DF93D091AF044F
:1013500081E0D13208F09CC0C091AE040E947909AE
:101360006B017C018091860481116CC082E08093C6
:10137000860481E0809385048FEF8093840410922B
:101380008304D0938204AEE8B4E0E2E6F4E080E0C7
:10139000D8138DC01092610480916104CC0FC82BCA
:1013A000C093610480916004813009F084C0109280
:1013B00060040E9479096B017C0180916104809333
:1013C000BB008091880490918904A0918A04B09117
:1013D0008B04892B8A2B8B2BA1F00E947909009119
:1013E00088041091890420918A0430918B046C192F
:1013F0007D098E099F09061717072807390708F482
:1014000042C08091BC0083FDD8CF85EC8093BC00A6
:101410000E9479096B017C0180918604823009F475
:101420004CC0809184048F3F09F469C0809184048A
:10143000803209F466C080918404803309F463C06B
:1014400084E026C08091880490918904A0918A0448
:10145000B0918B04892B8A2B8B2B09F483CF0E94AC
:101460007909009188041091890420918A043091AF
:101470008B046C197D098E099F0906171707280729
:10148000390708F06FCF809187040E942B0885E010
:1014900010928D041092AF0410928C04DF91CF91C2
:1014A0001F910F91FF90EF90DF90CF9008959D9145
:1014B00091938F5F6DCF85EEA9CF80918804909135
:1014C0008904A0918A04B0918B04892B8A2B8B2BE1
:1014D00009F4A2CF0E94790900918804109189042F
:1014E00020918A0430918B046C197D098E099F0923
:1014F000061717072807390708F08ECFC4CF80E0FA
:10150000C7CF82E0C5CF83E0C3CFE9E5F5E09181A5
:1015100062818081238131E030938C042093AE047A
:1015200010928D041092AF0460956923682B80EBB4
:1015300094E00E9470070C949E09CF92DF92EF9284
:10154000FF920F931F93CF93DF93D82FC62F613253
:1015500008F098C00E9479096B017C018091860493
:1015600081116BC081E080938604809385049FEF96
:1015700090938404109283049C0F90938204809330
:10158000610480916104DD0FD82BD09361048091B8
:101590006004813009F078C0109260040E947909DB
:1015A0006B017C01809161048093BB008091880471
:1015B00090918904A0918A04B0918B04892B8A2B85
:1015C0008B2BA1F00E947909009188041091890465
:1015D00020918A0430918B046C197D098E099F0932
:1015E000061717072807390708F448C08091BC0080
:1015F00083FDD8CF85EC8093BC000E9479096B01F4
:101600007C0180918604813009F440C0809183047C
:101610008C1710F4C0918304E2E6F4E0A0E4B4E097
:1016200080E08C1355C08C2FDF91CF911F910F91CB
:10163000FF90EF90DF90CF90089580918804909173
:101640008904A0918A04B0918B04892B8A2B8B2B5F
:1016500009F484CF0E9479090091880410918904CB
:1016600020918A0430918B046C197D098E099F09A1
:10167000061717072807390708F070CF80918704ED
:101680000E942B08C0E0CFCF85EEB5CF80918804B3
:1016900090918904A0918A04B0918B04892B8A2BA4
:1016A0008B2B09F4AECF0E94790900918804109128
:1016B000890420918A0430918B046C197D098E096C
:1016C0009F09061717072807390708F09ACFD6CFC2
:1016D00091919D938F5FA5CF8F929F92AF92BF9272
:1016E000CF92DF92EF92FF924B015C010E94790949
:1016F0006B017C010E9479096C197D098E099F0993
:10170000683E734081059105A8F321E0821A910893
:10171000A108B10888EEC80E83E0D81EE11CF11CB8
:1017200081149104A104B10429F7FF90EF90DF9098
:10173000CF90BF90AF909F908F9008950895DB0158
:1017400014964D915C9115976D917C91DC01ED9112
:10175000FC910280F381E02D0994CF93DF93EC019B
:1017600062E070E080E090E00E946C0BBE0182E5D8
:1017700096E00E949F0BBE018CEB94E0DF91CF912D
:101780000C949F0BAF92BF92CF92DF92EF92FF9299
:101790000F931F93CF93DF936C017B018B01040F99
:1017A000151FEB015E01AE18BF08C017D10759F035
:1017B0006991D601ED91FC910190F081E02DC60177
:1017C0000995892B79F7C501DF91CF911F910F9171
:1017D000FF90EF90DF90CF90BF90AF900895FC0105
:1017E000538D448D252F30E0842F90E0821B930B86
:1017F000541710F0CF96089501970895FC01918D2C
:10180000828D981761F0A28DAE0FBF2FB11D5D962E
:101810008C91928D9F5F9F73928F90E008958FEFD0
:101820009FEF0895FC01918D828D981731F0828D84
:10183000E80FF11D858D90E008958FEF9FEF0895DB
:10184000FC01918D228D892F90E0805C9F4F821B3F
:1018500091098F73992708958CEB94E00E94200CD6
:1018600021E0892B09F420E0822F089580E090E0A8
:10187000892B29F00E942C0C81110C9400000895F2
:10188000FC01A48DA80FB92FB11DA35ABF4F2C91F5
:10189000848D90E001968F739927848FA689B789EC
:1018A0002C93A089B1898C91837080648C93938DE3
:1018B000848D981306C00288F389E02D80818F7D86
:1018C00080830895EF92FF920F931F93CF93DF933E
:1018D000EC0181E0888F9B8D8C8D98131AC0E8896C
:1018E000F989808185FF15C09FB7F894EE89FF893B
:1018F0006083E889F98980818370806480839FBFD9
:1019000081E090E0DF91CF911F910F91FF90EF90D8
:101910000895F62E0B8D10E00F5F1F4F0F731127E8
:10192000E02E8C8D8E110CC00FB607FCFACFE88923
:10193000F989808185FFF5CFCE010E94400CF1CF5F
:10194000EB8DEC0FFD2FF11DE35AFF4FF0829FB797
:10195000F8940B8FEA89FB8980818062CFCFEF9268
:10196000FF920F931F93CF93DF938C017B01D0E005
:10197000C0E0F701EC0FFD1F6491662339F0C80148
:101980000E94620C892B11F02196F3CFCE01DF91DA
:10199000CF911F910F91FF90EF900895CF93DF9318
:1019A000EC01888D8823B9F0AA89BB89E889F98977
:1019B0008C9185FD03C0808186FD0DC00FB607FCAC
:1019C000F7CF8C9185FFF2CF808185FFEDCFCE01DF
:1019D0000E94400CE9CFDF91CF9108958F929F92A2
:1019E000AF92BF92CF92DF92EF92FF920F931F932D
:1019F000CF93DF9300D0CDB7DEB77C016B0110E051
:101A000000E0AA24A39492E0992EF701818992899B
:101A1000009701F19A8221E030E0AE014F5F5F4F05
:101A2000BE016E5F7F4F0E943E0981E09981913037
:101A300009F434C080E0C114D10429F0065F1F4FBF
:101A4000C016D10658F16AE070E080E090E00E9494
:101A50006C0BDBCF208130E0F901E055F74F84912A
:101A6000F901E252F74FB490F901E450F74F849036
:101A7000882079F081110E949F07E82DF0E0EE0F99
:101A8000FF1FEC52F74FA591B491EC91BE2281E07B
:101A900009F480E08A25817009F4CDCF0F900F9072
:101AA000DF91CF911F910F91FF90EF90DF90CF903A
:101AB000BF90AF909F908F900895682F80EB94E037
:101AC0000C9470070F931F93CF93DF93EC01062FB5
:101AD000142F8E85813120F4882329F0411103C011
:101AE0000E949E091E868E85811112C08D8591E00F
:101AF00090938C048093AE0410928D041092AF04E6
:101B000060E4111101C060E080EB94E00E94700776
:101B1000602F80EB94E00E947007123041F48E85B4
:101B20008F5F8E87DF91CF911F910F9108950E9453
:101B30009E091E86F7CF90E080E0089590E0FC01BA
:101B4000EE0FFF1FE852F74FA591B4912C91FC01C5
:101B5000E856FC4F30812083880F991FFC01E45D1B
:101B6000FE4F0190F081E02D80810895CF92DF92A9
:101B7000EF92FF920F931F93CF93DF931F92CDB7F6
:101B8000DEB7062FD72E142FFC018189928900978A
:101B9000A9F023E02983242F30E0462F572FBE01E0
:101BA0006F5F7F4F0E943E090F90DF91CF911F9191
:101BB0000F91FF90EF90DF90CF90089562E070E07A
:101BC00080E090E00E946C0B62E0610F84E20E9472
:101BD0009D0A10923F0480933E0480EB94E00E94A3
:101BE0002907C02EE02EFD2C61E070E080E090E03F
:101BF0000E946C0B80EB94E00E942907F70181930F
:101C00007F018E2F8C19811778F3CECF2F923F92C0
:101C10004F925F926F927F928F929F92AF92BF92FC
:101C2000CF92DF92EF92FF920F931F93CF93DF93A8
:101C300000D000D000D01F92CDB7DEB77C014A01A2
:101C40002DB63EB6DC015196CD90DC90BB24B3940A
:101C5000B60EA62EA0946B2C712CC114D10409F4DD
:101C600095C04DB65EB670E0685F7F4FEDB7FEB7CA
:101C7000E61BF70B0FB6F894FEBF0FBEEDBF0DB716
:101C80001EB70F5F1F4F81E08183D80111961C9210
:101C9000119712961C9212978FEF13968C931397AD
:101CA0001496BC9214971596AC92159784ED1696DF
:101CB0008C932DB73EB7285F3F4FF90163EDA30129
:101CC000415051098E2F821B90E0841795073CF4F8
:101CD00086509C4FDC018C918193680FF3CF609507
:101CE00060831182B8E06B0E711CF60180819181D6
:101CF000892B39F00280F381E02D808191810E944F
:101D0000BC0460E0D6011B968C910E94C807580164
:101D1000F50161915F01C6010E948808C501801B21
:101D2000910B86159705A0F361E0D6011B968C9167
:101D30000E94C8070FB6F8945EBE0FBE4DBEB40138
:101D4000C7010E94EE0C182F811162C010E0812F94
:101D50000FB6F8943EBE0FBE2DBE27960FB6F89470
:101D6000DEBF0FBECDBFDF91CF911F910F91FF90CE
:101D7000EF90DF90CF90BF90AF909F908F907F902B
:101D80006F905F904F903F902F90089562E070E0C9
:101D900080E090E00E946C0B81E080938C0484E2F0
:101DA0008093AE0410928D041092AF0480E00E94E4
:101DB0005D0D80E00E945D0D8FEF0E945D0D8B2D0B
:101DC0000E945D0D8A2D0E945D0D84ED0E945D0DC7
:101DD000C12C83EDD82EB1E06B1A71080C2D10E0E8
:101DE000061517055CF406501C4FF80180810E940F
:101DF0005D0DD8018C91D80EC394F0CF8D2D8095B8
:101E00000E945D0D80E00E945D0D0E949E0997CFAB
:101E1000F70181899289009721F123E02F8326E041
:101E200030E0AE014F5F5F4FBE01695F7F4F0E94A0
:101E30003E0946E050E06AE171E0CE0101960E9461
:101E40006321892B09F082CFD70151968D919C9106
:101E5000892B09F47CCFB401C7010E94EE0C182F26
:101E600076CF46E0BE016F5F7F4FC7010E94B60D7F
:101E7000E0CF85ED8093BC00809188049091890427
:101E8000A0918A04B0918B040796A11DB11D23E097
:101E9000B695A795979587952A95D1F72091BC007F
:101EA00024FD03C010928604089540918804509147
:101EB000890460918A0470918B04452B462B472B33
:101EC00069F30097A105B10541F025E32A95F1F7E3
:101ED00000000197A109B109E1CF809187040C941A
:101EE0002B08CF93DF93EC0188819981009711F043
:101EF0000E941520198218821D821C821B821A8260
:101F0000DF91CF910895FC0180819181009711F0BC
:101F10000C9415200895FB0101900020E9F73197FA
:101F2000AF01461B570BDC01ED91FC910280F38160
:101F3000E02D09948F929F92AF92BF92EF92FF9201
:101F40000F931F93CF93DF93CDB7DEB7A1970FB653
:101F5000F894DEBF0FBECDBF7C01FA01CB0119A200
:101F6000223008F42AE08E010F5D1F4F822E912C43
:101F7000B12CA12CBF01A50194010E94511FF901B0
:101F8000CA016A300CF5605DD8016E938D01232B78
:101F9000242B252B79F790E080E0109721F0BD01EC
:101FA000C7010E948B0FA1960FB6F894DEBF0FBE3B
:101FB000CDBFDF91CF911F910F91FF90EF90BF9018
:101FC000AF909F908F900895695CDECF60E771E0DD
:101FD0000C948B0FCF93DF93EC0162E070E080E014
:101FE00090E00E946C0BBE0182E596E00E949F0B80
:101FF00082E596E00E94E60FBE018CEB94E00E9421
:102000009F0B8CEB94E0DF91CF910C94E60F0F9334
:102010001F93CF93DF93EC010E948B0F8C01CE01B5
:102020000E94E60F800F911FDF91CF911F910F91BA
:1020300008950F931F93CF93DF93EC010E94AF0C91
:102040008C01CE010E94E60F800F911FDF91CF918E
:102050001F910F9108950F931F93CF93DF93EC017E
:102060008B0162E070E080E090E00E946C0B61E028
:102070008EE00E94C8078CEB94E00E94E60F63E7B5
:1020800071E08CEB94E00E948B0FB8018CEB94E034
:102090000E949F0B66E771E08CEB94E00E948B0F2F
:1020A000BE018CEB94E00E949F0B68E771E08CEB23
:1020B00094E00E94071064E170E080E090E00E94EC
:1020C0006C0B60E08EE0DF91CF911F910F910C942B
:1020D000C807CF93DF93FC01C081D181209761F0C5
:1020E0008991882349F0082E000C990B0E945B21EE
:1020F000FE0131978083F4CFDF91CF9108950F9344
:102100001F93CF93DF93EC0188819981009759F059
:102110002A813B812617370730F081E0DF91CF918C
:102120001F910F9108958B016F5F7F4F0E949E203A
:10213000009759F0998388831B830A832C813D8102
:10214000232B59F7FC011082E8CF80E0E7CFEF9214
:10215000FF920F931F93CF93DF936115710541F4A5
:1021600080E0DF91CF911F910F91FF90EF90089544
:1021700041155105B1F07B01EC010C811D81040F6B
:10218000151FB8010E947F10882351F328813981DF
:102190008C819D81B701820F931F0E9482211D8334
:1021A0000C8381E0DECFFB0101900020E9F731973D
:1021B000AF01461B570B0C94A710EF92FF920F93A1
:1021C0001F93CF93DF93EC017B018A01BA010E9438
:1021D0007F1081110BC0CE010E94710FCE01DF91E3
:1021E000CF911F910F91FF90EF9008951D830C8365
:1021F000B701888199810E948221F0CFFC01118270
:1022000010821382128215821482FB010190002039
:10221000E9F73197AF01461B570B0C94DD10EF9295
:10222000FF920F931F93CF93DF93CDB7DEB76297E3
:102230000FB6F894DEBF0FBECDBF8C01CB01F80105
:1022400011821082138212821582148250E09E0144
:102250002F5F3F4F7901B9010E94DA1EF70101900B
:102260000020E9F73197AF014E195F09B701C801A6
:102270000E94DD1062960FB6F894DEBF0FBECDBF90
:10228000DF91CF911F910F91FF90EF9008951F92D2
:102290000F920FB60F9211242F933F934F935F939A
:1022A0006F937F938F939F93AF93BF93EF93FF931E
:1022B0008091B900887F803609F44AC0F0F58832F1
:1022C00009F4A7C018F5803109F49BC0B8F488233D
:1022D00009F4F9C0883009F494C0FF91EF91BF91DF
:1022E000AF919F918F917F916F915F914F913F91AE
:1022F0002F910F900FBE0F901F901895883109F401
:1023000088C0803251F78093840414C0803409F46B
:102310009DC040F48033B9F38833F9F68093840488
:1023200085ECB0C0803509F485C0883509F496C0C5
:10233000883499F60E94390FD0CF883909F48CC0BF
:1023400038F5883729F050F4883611F0803729F6AF
:1023500083E0809386041092F80357C0883809F40C
:102360007BC0803919F0803809F0B7CF8091F8032D
:10237000803208F071C0E091F80381E08E0F809305
:10238000F8038091BB00F0E0E852FC4F80833DC031
:10239000803B39F0E0F4803A09F479C0883A09F0DA
:1023A0009CCF84E0809386041092D7031092D603CA
:1023B000E0913C04F0913D0409958091D603811190
:1023C0000FC081E08093D6031092B60309C0803C11
:1023D00009F4A6CF883C09F4A3CF883B09F07DCF50
:1023E000E091D70381E08E0F8093D703F0E0EA54A9
:1023F000FC4F80818093BB009091D7038091D603DE
:1024000029C0809161048093BB0085EC8093BC005F
:1024100064CF9091830480918204981758F5E091DD
:10242000830481E08E0F80938304F0E0EE59FB4F2C
:102430008081E9CFE091830481E08E0F8093830453
:102440008091BB00F0E0EE59FB4F808390918304B4
:10245000809182049817C8F285E8D8CFE091830470
:1024600081E08E0F809383048091BB00F0E0EE59F1
:10247000FB4F80838091850481115CCF81E0809344
:10248000600484EA8093BC001092860426CF85EC19
:102490008093BC00109286048091F803803230F45F
:1024A000E091F803F0E0E852FC4F10826091F803ED
:1024B00070E0E0913A04F0913B0488ED93E00995D7
:1024C0001092F8030ACF1092840434CF1F920F9217
:1024D0000FB60F9211242F933F938F939F93AF9337
:1024E000BF938091AD039091AE03A091AF03B091E3
:1024F000B0033091AC0323E0230F2D3758F501963C
:10250000A11DB11D2093AC038093AD039093AE0346
:10251000A093AF03B093B0038091B1039091B20345
:10252000A091B303B091B4030196A11DB11D809396
:10253000B1039093B203A093B303B093B403BF91DC
:10254000AF919F918F913F912F910F900FBE0F9060
:102550001F90189526E8230F0296A11DB11DD2CF1A
:102560001F920F920FB60F9211242F933F934F9308
:102570005F936F937F938F939F93AF93BF93EF93EB
:10258000FF938CEB94E00E94400CFF91EF91BF9180
:10259000AF919F918F917F916F915F914F913F91FB
:1025A0002F910F900FBE0F901F9018951F920F92B2
:1025B0000FB60F9211242F938F939F93EF93FF9356
:1025C000E091CC04F091CD048081E091D204F091AF
:1025D000D30482FD1BC090818091D5048F5F8F73DF
:1025E0002091D604821741F0E091D504F0E0E45444
:1025F000FB4F958F8093D504FF91EF919F918F9121
:102600002F910F900FBE0F901F9018958081F4CFDF
:102610001F920F920FB60F9211242F933F934F9357
:102620005F936F937F938F939F93AF93BF93EF933A
:10263000FF9382E00E949E0DFF91EF91BF91AF91B9
:102640009F918F917F916F915F914F913F912F91CA
:102650000F900FBE0F901F9018951F920F920FB6FC
:102660000F9211242F933F934F935F936F937F9318
:102670008F939F93AF93BF93EF93FF9381E00E945B
:102680009E0DFF91EF91BF91AF919F918F917F919F
:102690006F915F914F913F912F910F900FBE0F90CF
:1026A0001F9018951F920F920FB60F9211242F931F
:1026B0003F934F935F936F937F938F939F93AF93CA
:1026C000BF93EF93FF9380E00E949E0DFF91EF91E7
:1026D000BF91AF919F918F917F916F915F914F913A
:1026E0003F912F910F900FBE0F901F901895FF9262
:1026F0000F931F93CF93DF938C01F62E8FEFF8018A
:10270000808381838CE190E00E94791FEC01FB863D
:102710008DE08C878CE08E878BE08D876F2D70E04D
:10272000FB01E450F74FE491F0E0EE0FFF1FEE5095
:10273000F74F859194919E8B8D8BFB01E252F74F61
:10274000E491EA8FE7E0F9E0E491F0E0EE0FFF1F9B
:10275000EE50F74F85919491988B8F87E9EEF8E0D2
:10276000E491EF8BE8E0F9E0E491F0E0EE0FFF1F79
:10277000EC52F74F859194919C8B8B8BEAEEF8E0AD
:10278000E491E88FE9E0F9E0E491F0E0EE0FFF1F5B
:10279000EE50F74F859194919A8B898BEBEEF8E090
:1027A000E491E98F80EA96E8A1E0B0E08C839D8314
:1027B000AE83BF83198618861A861B8E82E090E04E
:1027C0000E94791F23E7FC01208311829B838A8367
:1027D00019821882F801D28BC18BDF91CF911F91A2
:1027E0000F91FF9008951092B3041092B20488EEF6
:1027F00093E0A0E0B0E08093B4049093B504A0937C
:10280000B604B093B70422E431E03093B1042093CE
:10281000B0041092BF041092BE048093C004909341
:10282000C104A093C204B093C30484E591E09093E3
:10283000BD048093BC0485EC90E09093C904809320
:10284000C80484EC90E09093CB048093CA0480EC9D
:1028500090E09093CD048093CC0481EC90E0909331
:10286000CF048093CE0482EC90E09093D1048093C7
:10287000D00486EC90E09093D3048093D20410921D
:10288000D5041092D6041092D7041092D8046FE7A2
:1028900071E089E796E00E94FE1065E971E083E748
:1028A00096E00E94FE1060EA71E08DE696E00E94DC
:1028B000FE106EEA71E087E696E00E94FE1065EB7E
:1028C00071E081E696E00E94FE101092550610928B
:1028D000540681E080935B0610925E0610925D06BE
:1028E00086E691E09093530680935206E0E1F6E08D
:1028F00022E536E081E04FEF5FEF92E080831182C6
:1029000013821282158214825783468310861286A0
:10291000118683871486958786871786108A118A81
:10292000128A76962E173F0749F768E08DEF95E0FB
:102930000E94771367E08AEE95E00E94771364E0C7
:1029400087ED95E00E94771362E084EC95E00E94A9
:10295000771383E1EDEFF5E0A8E7B5E001900D9284
:102960008A95E1F783E1EAEEF5E0ABE8B5E00190A6
:102970000D928A95E1F783E1E7EDF5E0AEE9B5E088
:1029800001900D928A95E1F783E1E4ECF5E0A1EB8B
:10299000B5E001900D928A95E1F7109259051092D9
:1029A0005A0510925B0510925C0510925D0510921D
:1029B0005E0510925F0510926005109261051092FD
:1029C00062051092630510926405109265051092DD
:1029D00066051092670510926905109268051092BD
:1029E0006B0510926A0510926D0510926C0510929D
:1029F0006F0510926E05109271051092700510927D
:102A0000730510927205109275051092740510925C
:102A10007705109276050895CF93DF93CDB7DEB793
:102A2000E0970FB6F894DEBF0FBECDBF789484B5A3
:102A3000826084BD84B5816084BD85B5826085BDBA
:102A400085B5816085BD80916E00816080936E0048
:102A5000109281008091810082608093810080913A
:102A600081008160809381008091800081608093EB
:102A700080008091B10084608093B1008091B000AB
:102A800081608093B00080917A00846080937A00A6
:102A900080917A00826080937A0080917A008160D0
:102AA00080937A0080917A00806880937A001092F7
:102AB000C1000E94140888E48093B800E091CC041F
:102AC000F091CD0482E08083E091C804F091C904C4
:102AD0001082E091CA04F091CB0480E180831092CF
:102AE000D404E091D004F091D10486E08083E09199
:102AF000CE04F091CF04808180618083E091CE0488
:102B0000F091CF04808188608083E091CE04F091C1
:102B1000CF04808180688083E091CE04F091CF045F
:102B200080818F7D808364E670E080E090E00E9489
:102B30006C0B61E08EE00E944C086DEE75E08CEB52
:102B400094E00E94191066ED75E08CEB94E00E9411
:102B500019106FEB75E08CEB94E00E94191064E1A2
:102B600070E080E090E00E946C0B69EB71E08E01F8
:102B70000F5F1F4FC8010E94FE106DEB71E0CE0188
:102B800041960E94FE10B801CE0141960E942B1082
:102B9000CE0141960E94830FC8010E94830F69EB0A
:102BA00071E0C8010E94FE106BEC71E0CE0141960D
:102BB0000E94FE10B801CE0141960E942B10CE015A
:102BC00041960E94830FC8010E94830F69EB71E058
:102BD000C8010E94FE1067ED71E0CE0141960E948F
:102BE000FE10B801CE0141960E942B10CE014196F5
:102BF0000E94830FC8010E94830F64EA75E08CEB8A
:102C000094E00E94AF0C20E14CE350E060E070E003
:102C10008CEB94E00E949A0F8CEB94E00E94E60FFC
:102C20006AE070E080E090E00E946C0B1092600619
:102C30008CE380935F061092560610925706EEE9D9
:102C4000F5E0A590B490E0EAF5E0D490E1EAF5E093
:102C5000E491E0935806E2EAF5E0E491E093590646
:102C6000E3EAF5E0E491E0935A06F12CE12CED144F
:102C700060F4F501EE0DFF1D649182E596E00E947F
:102C8000D4042FEFE21AF20AF2CF10925C060E94EF
:102C90004A0580915906803429F40E944A0581E052
:102CA00080935C068AE890E090935E0680935D06D0
:102CB0000E944A056FE770E08CEB94E00E941910C7
:102CC0006AE070E080E090E00E946C0B84E096E0A7
:102CD00090935E0680935D0664EE71E08CEB94E069
:102CE0000E94071061EF71E08CEB94E00E940710E6
:102CF00061EF71E08CEB94E00E94071061EF71E0EE
:102D00008CEB94E00E94071088E199E20FB6F894EA
:102D1000A895809360000FBE909360008CEB94E0C8
:102D20000E94E60F60E072E0C8010E94FE10C80138
:102D30000E94EA0FC8010E94830F6AE070E080E001
:102D400090E00E946C0B62E771E0CE0149960E9410
:102D5000FE1028E0C22ED12CEE24E394FC2CE0924D
:102D60008C04C092AE0410928D041092AF040E94A5
:102D70009E098111A8C060E172E0C8010E94FE10A6
:102D8000C8010E94AD0BC8010E94830F68E172E088
:102D9000C8010E94FE10C8010E94AD0BC8010E942C
:102DA000830F1A8A198A1C8A1B8A1E8A1D8A40E18F
:102DB000B801C6010E94F01EF80101900020E9F759
:102DC0003197AF01401B510BB801CE0141960E94D3
:102DD000DD10898D9A8D009709F453C069897A892D
:102DE0006115710509F44BC04B8D5C8D2D893E89B1
:102DF0004217530708F443C00E9482218D899E899F
:102E00009E8F8D8F1E8A1D8ACE0141960E94830F50
:102E1000CE0149960E9469101A8219821C821B8277
:102E20001E821D82698D7A8D6115710529F04D8D87
:102E30005E8DC8010E94DD10C8010E94AD0BC80163
:102E40000E94830F6DE172E0C8010E94FE10C8016C
:102E50000E94EA0FC8010E94830FE8ECEF0DE830F2
:102E600008F0ABC1F0E0E95CF84E0C94731F521708
:102E7000D118D118D118D418D718DD18DA180E9433
:102E8000152089899A899A8F898F8B899C899C8F33
:102E90008B8F8D899E899E8F8D8F1A8A198A1C8AA5
:102EA0001B8AB0CF61E272E0C8010E94FE10C80127
:102EB0000E94EA0FC8010E94830F61E070E080E089
:102EC00090E00E946C0B4FEFC41AD40A88E7C81632
:102ED000D10409F043CF6FE572E0C8010E94FE10F3
:102EE000C8010E94EA0FC8010E94830F6AE070E0E7
:102EF00080E090E00E946C0BCE0149960E94830F07
:102F000061E772E0C8010E94FE10C8010E94AD0B8B
:102F1000C8010E94830F66EF77E08CEB94E00E947B
:102F2000AF0C6AE070E080E090E00E946C0B8EE0F5
:102F3000282E81E0382EA4E1B1E0BFA7AEA790E132
:102F4000C92E96E0D92EF101E190F1901F01AEA5B6
:102F5000BFA58D909D90BFA7AEA75401AA0CBB1C26
:102F6000A80CB91CC5010E94791F009721F4B12C4F
:102F7000A12C912C812CF701E450F74FE491F0E063
:102F8000EE0FFF1FEE50F74F25913491F701E252FB
:102F9000F74FE491F1E0D601FC9311961C92119742
:102FA00013969C928E9212971596BC92AE9214979D
:102FB0001796FC92EE92169718961C9218971A96EE
:102FC0009C938E93199741E01B964C931B97F2E0CC
:102FD0001C96FC931C971D961C921D971E964C9355
:102FE0001E971F961D921D921D921C9252975496E9
:102FF0003C932E9353975596EC930E941520F7FC23
:1030000004C060E08E2D0E944C08F60186819781F5
:1030100097FD09C061E00E944C0860E0D601169659
:103020008C910E94C80721E0F6012183F0E1EF2E88
:10303000F6E0FF2EB12CA12CD70112968D919C9118
:103040001397A816B90608F002C11E96EC911E97B8
:1030500019968D919C911A971B962C91E213B0C0F2
:103060009501220F331F2A0D3B1D820F931FD7019D
:103070001B96EC911B97E80FF92FF11D10821C96FF
:10308000EC911C97E80FF92FF11D10821D962C91E1
:103090001D97820F911DFC01108219968D919C91B4
:1030A000892B09F47AC0D7011F964D905D906D90E1
:1030B0007C9052970E9479096415750586059705DD
:1030C00038F40E947909F7016787708B818B928BA6
:1030D0000E947909D7011F964D905D906D907C906C
:1030E000529764197509860997096C3271408105F8
:1030F0009105C8F2F894F701848195819EA38DA370
:103100000184F285E02D4F012FEF821A920A80810F
:103110008DA7D7019C915396ED91FC9154975596AC
:103120008C91992309F458C09081982B9CA7908189
:10313000809589238BA78BA588A7B8E0BFA36CA532
:103140003BA55DA54FA128A58DA19EA1D4016083BB
:1031500057FD262F4A952083232F39F0551F00C095
:1031600000003083000000C0F2CF48E05D91308362
:103170000000019761F7D7015496FC93EE935397A3
:103180005DA74FA328A79EA38DA378940E947909D9
:10319000F7016787708B818B928BFFEFAF1ABF0AA5
:1031A0004BCF62E372E080CE6CE372E07DCE6CE4E4
:1031B00072E07ACE61E572E077CE67E572E074CEB8
:1031C0009501220F331F220F331F820F931FE80F29
:1031D000F92FF11D10824BCF9081982B9CA79081E5
:1031E000809589238BA78BA58AA7B8E0B9A76CA582
:1031F0003BA55DA549A52AA58DA19EA1D40160830B
:1032000057FD262F00C000C0208300C000C000C0B2
:1032100000C000C030830000232F4A9541F0551FA5
:10322000000000C000C000C000C000C0E8CF48E0FF
:103230005D9100C0308300C0019709F7D701549613
:10324000FC93EE9353975DA749A72AA79CCF6AE00A
:1032500070E080E090E00E946C0B26E1E20EF11C31
:103260004CE3E41646E0F40609F0E4CE86E1C80E2D
:10327000D11CA2E1B1E0A215B30509F064CE68E269
:1032800070E080E090E00E946C0B6AEE77E08CEBDF
:1032900094E00E9419106AE070E080E090E00E94E3
:1032A0006C0B6EE772E0C8010E94FE10C8010E941C
:1032B000EA0FC8010E94830FA89538E7E32E35E096
:1032C000F32EB12CA12C42E0642E58EE852E58E04E
:1032D000952E64E1762E6BE872E0C8010E94FE1024
:1032E000C8010E94AD0BC8010E94830F4AE0B501DE
:1032F000C8010E940F11C8010E94EA0FC8010E9474
:10330000830F6EE778E08CEB94E00E94AF0CF7013E
:10331000C188D288C114D10409F4DAC061E0D601B1
:103320001B968C910E944C0861E0F60183850E94F7
:10333000C807D6018D919C911197892B09F4A2C0E1
:103340005FB6F89480919B03811126C0E6E0F9E016
:103350008491F4019491E82FF0E0EE0FFF1FEA55FD
:10336000F74FA591B4918C91982321F461E08AE004
:103370000E94C80761E08AE00E944C088CB5806119
:103380008CBD8CB580648CBD61E08DE00E944C08E2
:1033900061E08BE00E944C0880919B038F5F8093DB
:1033A0009B035FBE81E0D6015B968C936092FA032B
:1033B00044E650E061E0C7010E94060EF2E3F0939C
:1033C000FA0325E02093FB034FEF4093FC0381E0D9
:1033D0008093FD032093FE0344E650E065E0C701BF
:1033E0000E94060ED12CC12C6092FA0344E650E0F4
:1033F00061E0C7010E94060E811189C065E678E090
:103400008CEB94E00E94AF0C86E0C816D104B4F1B6
:103410006DE478E08CEB94E00E94AF0C65E070E026
:1034200080E090E00E946C0B65E078E08CEB94E02B
:103430000E94191062E370E080E090E00E946C0B43
:10344000A3E02A2E312C412C512C2AE0B201A101FB
:103450008CEB94E00E949A0F8CEB94E00E94E60FB4
:1034600064E670E080E090E00E946C0B91E0291A25
:1034700031084108510849F70C940000FFEFCF1ABA
:10348000DF0AB2CF61E01C968C910E944C08F601D5
:1034900082858B7FD1F460E084850E94C807F601A5
:1034A00085858F3F49F061E00E944C0861E0D601BC
:1034B0001D968C910E94C807F60186858F3F09F4FE
:1034C00071CF60E00E944C086DCF61E08485E5CF4C
:1034D0000E94140861E0F70181810E94C80760E042
:1034E000D70111968C910E94C80760E971E080E0D5
:1034F00090E00E946C0B61E0F70181810E94C80797
:103500006AE070E080E090E00E946C0B57CF4CE0E6
:103510006AEF73E0C7010E94B60D46E050E060E03C
:1035200071E08AEF93E00E946321892B09F066CF56
:103530002090010430900204322423243224512CA0
:10354000412C542C432C322C222480910304282A11
:10355000542C432C322C222480910404282A211438
:1035600031044104510409F449CF6EE378E08CEB57
:1035700094E00E94AF0C452D55276627772720E160
:103580008CEB94E00E949A0F8CEB94E00E94E60F83
:103590006FE278E08CEB94E00E94AF0C442D50E099
:1035A00070E060E02AE08CEB94E00E949A0F6EE2FB
:1035B0008CEB94E00E94620C432D50E070E060E0E0
:1035C0002AE08CEB94E00E949A0F8CEB94E00E942E
:1035D000E60F7092FA0381E08093FB037092FC0384
:1035E0008093FD0344E650E064E0C7010E94060EAC
:1035F000882331F048E06AEF73E0C7010E94B60DFE
:1036000062E370E080E090E00E946C0B63E178E0A0
:103610008CEB94E00E94AF0C6EE972E0C8010E944E
:10362000FE10C8010E94EA0FC8010E94830FA895EE
:10363000AFEFAA1ABA0AB3E1EB0EF11CE3E0AE1643
:10364000B10409F048CEA89540E16FE370E0CE01E7
:1036500049960E940F11CE0149960E94691067EAAF
:1036600072E0C8010E94FE104D8D5E8D698D7A8DCD
:10367000C8010E94A710811103C0C8010E94710FE8
:103680001A8A198A1C8A1B8A1E8A1D8A69817A8174
:103690006115710531F04D815E81CE0141960E9428
:1036A000DD10CE0141960E94EA0FCE0141960E94A4
:1036B000830FC8010E94830F8FE380935C050E94F3
:1036C000140880915A0580935D0561E080915C0546
:1036D0000E949D0A10923F0480933E04811101C014
:1036E000FFCF80EB94E00E94290780935A055AE0AF
:1036F000C52E51E0D52E66E0E62E61E0F62E7AE08A
:10370000872E71E0972EAA24A394B12C20915B05FB
:10371000C501D6010C9002C0880F991F0A94E2F7E8
:10372000922F982B90935B05909159058095892352
:10373000809359050E94850AF7012081F2E0EF0E7F
:10374000F11CC501D6010C9002C0880F991F0A9484
:10375000E2F790915905222309F424C1892B809323
:1037600059050E94850A65EB72E0C8010E94FE10AF
:10377000C8010E94AD0BC8010E94830FF601619140
:1037800071916F014AE0C8010E940F11C8010E94A7
:10379000AD0BC8010E94830F6DEB72E0C8010E945F
:1037A000FE10C8010E94AD0BC8010E94830FF701F3
:1037B0003297608171814AE0C8010E940F11C801EF
:1037C0000E94AD0BC8010E94830F8E149F0409F064
:1037D0009DCF1A8219821C821B821E821D8266E185
:1037E00070E0C8010E947F108111DFC0C8010E94F3
:1037F000710FCE0101960E94EA0FCE0101960E9440
:10380000830FCE0149960E94830FA8952FB7F89495
:103810008091AD039091AE03A091AF03B091B0033E
:103820002FBF80939C0390939D03A0939E03B0931E
:103830009F0362E070E080E090E00E946C0B8E01DC
:103840000F5E1F4F69EB71E0C8010E94FE1067EC2C
:1038500072E0CE0101960E94FE10B801CE010196E1
:103860000E942B10CE0101960E94830FC8010E9476
:10387000830F8CEB94E00E94E60F62ED72E0CE01C4
:1038800001960E94FE10CE0101960E94EA0FCE0121
:1038900001960E94830F40E4442E2FB7F894809144
:1038A000AD039091AE03A091AF03B091B0032FBFD1
:1038B00040919C0350919D0360919E0370919F03E2
:1038C000841B950BA60BB70B88389341A105B10556
:1038D00098F02FB7F8948091AD039091AE03A0912A
:1038E000AF03B091B0032FBF80939C0390939D03CF
:1038F000A0939E03B0939F0362E771E0CE014F96C1
:103900000E94FE1086EA93E09FA78EA790EAC92E38
:1039100093E0D92E22E3622E21E0722E38E7E32EC7
:1039200035E0F32EB12CA12C55245394A8AAD8012C
:10393000E7E01D92EA95E9F786E0E6E2F1E0DE01D4
:10394000599601900D928A95E1F71A821982FAE44C
:10395000F093FA035092FB031092FC0350E040E016
:1039600063E0C7010E94060E882389F1D7015196B2
:103970008D919C91892B21F144E16AEF73E0C7019D
:103980000E94B60D80910104813009F590900604E3
:10399000A7E0B4E0F8018E2F801B8915F8F48D9113
:1039A0008193F9CF80958923DACE86E190E09E83DA
:1039B0008D836FE878E089819A810E94D31E19CFA8
:1039C00070E060E0C7010E94EE0C8111D5CF6DE17F
:1039D00073E0CE014F960E94D310C2C086E0FE0174
:1039E0007996D7011A9601900D928A95E1F7292CC4
:1039F000312CA101B801C70102960E947021F70184
:103A000091864092FA035092FB03F0E6F093FC0398
:103A10005092FD0386E0F7013A96AEEFB3E00190D5
:103A20000D928A95E1F740E083E18A9D90018B9D9C
:103A3000300D112428583A4F842F90E082159305B9
:103A40005CF4FC01E650FC4F820F931FDC011296E0
:103A50008C9182874F5FF0CF6AE0690D44E650E0B9
:103A6000C7010E94060E8823A1F14CE06AEF73E0C3
:103A7000C7010E94B60D8091010481112AC04092B5
:103A8000FA035092FB03B0E3B093FC035092FD03A2
:103A900044E650E064E0C7010E94060E882301F16D
:103AA0004AE16AEF73E0C7010E94B60D80910104FC
:103AB000811116C080E1E2E0F4E0DE011196019090
:103AC0000D928A95E1F7898181110DC068EF72E04E
:103AD00002C060EE72E08CEB94E00E94071077CF9A
:103AE0006CEE72E0F8CFF6018081918101969183AE
:103AF000808388248394912CBE016F5F7F4FC30124
:103B00000E947921892B09F419C168E173E0CE0183
:103B10004F960E94D3104AE0B801C4010E94E51EEE
:103B2000F80101900020E9F73197AF01401B510BDC
:103B3000B801CE014F960E94A7108FEF880DF8A90B
:103B4000F81307C0D6018D919C91119701968D9322
:103B50009C93EFEF8E1A9E0AF4E08F16910461F6A3
:103B600041E050E06FE172E0CE014F960E94A71055
:103B7000AEA5BFA52D913D91BFA7AEA7F60181913E
:103B800091916F0128173907B1F169EB71E0C80114
:103B90000E94FE1060E273E0CE0149960E94FE1082
:103BA000B801CE0149960E942B10CE0149960E9481
:103BB000830FC8010E94830F1A8A198A1C8A1B8AE4
:103BC0001E8A1D8A6F8D78A16115710529F04BA1A0
:103BD0005CA1C8010E94DD10C8010E94EA0FC80163
:103BE0000E94830F83E0E0EAF3E0A6EAB3E00190ED
:103BF0000D928A95E1F7FFEFAF1ABF0A23E1E20EBB
:103C0000F11C43E0640E711C83E0A816B10409F0B6
:103C10008DCECE014F960E94830F8091A603909186
:103C2000A703892B09F476C08091A8039091A9037A
:103C3000892B09F46FC08091AA039091AB03892B63
:103C400009F468C064E670E080E090E00E946C0BCC
:103C5000809159058260809359050E94850A809160
:103C600059058B7F809359050E94850A68E873E1A6
:103C700080E090E00E946C0BA895A89568EB7BE033
:103C800080E090E00E946C0B809159058D7F8093BD
:103C900059050E94850A6EE273E0CE0101960E94EA
:103CA000FE10CE0101960E94EA0FCE0101960E94FD
:103CB000830F64E473E0CE0101960E94FE10CE01F2
:103CC00001960E94EA0FCE0101960E94830F0FB663
:103CD000F894A895809160008861809360001092AC
:103CE00060000FBE69EB71E0CE0101960E94FE10EC
:103CF00069E573E0C8010E94FE10BE016F5F7F4F4F
:103D0000C8010E942B10C8010E94830FCE010196AA
:103D10000E94830FA89566E970E080E090E00E9421
:103D20006C0BA0E0B0E0AB2B09F4B7CD0E942C0CDB
:103D3000882309F4B2CD0E940000AFCDB8A9B230FB
:103D400009F007CF6AE173E0CE014F960E94D310CD
:103D500000CFCF93DF93C2E5D6E0669789859A8539
:103D60000E9415208E819F8197FD03C060E00E9414
:103D70004C0886E0C031D80781F781E696E00E94C2
:103D8000830F87E696E00E94830F8DE696E00E94FF
:103D9000830F83E796E00E94830F89E796E0DF9127
:103DA000CF910C94830FFB01DC0105900D92002054
:103DB000E1F708954532510520F4423010F00C949B
:103DC000E51EFB011082CB010895BB274A3031F478
:103DD000992322F4BDE2909581959F4F0C94F11E9A
:103DE000BB27FB015527AA27880F991FAA1FA417D5
:103DF00010F0A41B83955051B9F7A05DAA3308F0C9
:103E0000A95DA193009779F7B111B1931192CB01FC
:103E10000C940A1FDC01FC01672F71917723E1F7F5
:103E2000329704C07C916D9370836291AE17BF0787
:103E3000C8F308952F923F924F925F926F927F92B4
:103E40008F929F92AF92BF92CF92DF92EF92FF92AA
:103E50000F931F93CF93DF93CDB7DEB7CA1BDB0B56
:103E60000FB6F894DEBF0FBECDBF09942A883988FB
:103E700048885F846E847D848C849B84AA84B98402
:103E8000C884DF80EE80FD800C811B81AA81B9810E
:103E9000CE0FD11D0FB6F894DEBF0FBECDBFED0122
:103EA0000895A1E21A2EAA1BBB1BFD010DC0AA1F7B
:103EB000BB1FEE1FFF1FA217B307E407F50720F093
:103EC000A21BB30BE40BF50B661F771F881F991F0E
:103ED0001A9469F760957095809590959B01AC0157
:103EE000BD01CF010895EE0FFF1F0590F491E02D65
:103EF00009940F931F93CF93DF938230910510F4B1
:103F000082E090E0E0918106F091820630E020E0CE
:103F1000B0E0A0E0309799F42115310509F44AC0CA
:103F2000281B390B24303105D8F58A819B81611516
:103F3000710589F1FB0193838283FE0111C04081E9
:103F400051810281138148175907E0F0481759073A
:103F500099F4109761F012960C93129713961C9394
:103F60003296CF01DF91CF911F910F910895009369
:103F7000810610938206F4CF2115310551F04217C6
:103F8000530738F0A901DB019A01BD01DF01F801F7
:103F9000C1CFEF01F9CF9093820680938106CDCFF8
:103FA000FE01E20FF31F819391932250310939836F
:103FB0002883D7CF20917F0630918006232B41F4B0
:103FC00020912201309123013093800620937F06B7
:103FD00020912001309121012115310541F42DB7A7
:103FE0003EB74091240150912501241B350BE091EF
:103FF0007F06F0918006E217F307A0F42E1B3F0B1B
:104000002817390778F0AC014E5F5F4F241735074A
:1040100048F04E0F5F1F5093800640937F068193B8
:1040200091939FCFF0E0E0E09CCFCF93DF93009798
:10403000E9F0FC01329713821282A0918106B091BF
:104040008206ED0130E020E01097A1F4208131815B
:10405000820F931F20917F06309180062817390721
:1040600009F061C0F0938006E0937F06DF91CF9165
:104070000895EA01CE17DF07E8F54A815B819E01CA
:1040800041155105B1F7E901FB83EA834991599143
:10409000C40FD51FEC17FD0761F480819181029652
:1040A000840F951FE90199838883828193819B8383
:1040B0008A83F0E0E0E012968D919C91139700972F
:1040C000B9F52D913C911197CD010296820F931F66
:1040D00020917F06309180062817390739F63097EE
:1040E00051F51092820610928106B0938006A0933B
:1040F0007F06BCCFD383C28340815181840F951F3B
:10410000C817D90761F44E5F5F4F88819981480FC6
:10411000591F518340838A819B8193838283211518
:10412000310509F0B0CFF0938206E09381069ECF6F
:10413000FD01DC01C0CF13821282D7CFB0E0A0E036
:10414000E4EAF0E20C941C1F8C01009751F4CB01BF
:104150000E94791F8C01C801CDB7DEB7E0E10C9455
:10416000381FFC01E60FF71F9C0122503109E217AE
:10417000F30708F49DC0D901CD91DC911197C617C2
:10418000D70798F0C530D10530F3CE0104978617D4
:10419000970708F3C61BD70B2297C193D1936D9352
:1041A0007C93CF010E941520D6CF5B01AC1ABD0ACB
:1041B0004C018C0E9D1EA0918106B0918206512C5F
:1041C000412CF12CE12C109731F580917F069091D4
:1041D00080068815990509F05CC04616570608F058
:1041E00058C08091200190912101009741F48DB732
:1041F0009EB74091240150912501841B950BE8172F
:10420000F90708F055C0F0938006E0937F06F901A6
:1042100071836083A0CF8D919C91119712966C90C1
:10422000129713967C901397A815B90559F56C0150
:1042300042E0C40ED11CCA14DB0420F1AC014A19BF
:104240005B09DA011296159780F0628273825183BE
:104250004083D9016D937C93E114F10471F0D7018F
:104260001396FC93EE93129776CF22968C0F9D1F98
:10427000F90191838083F301EFCFF0938206E093FD
:10428000810669CF4816590608F42C017D01D30137
:104290009ACFCB010E94791F7C01009749F0AE01B3
:1042A000B8010E947021C8010E941520870153CFD8
:1042B00010E000E050CF9111089581568A5108F422
:1042C000805285580895FB01DC0104C08D91019056
:1042D000801921F441505040C8F7881B990B08956C
:1042E000FB01DC0102C001900D9241505040D8F713
:1042F0000895FB01DC018D91019080190110D9F323
:10430000990B0895FB01DC0101900D920020E1F76B
:10431000089514E0C9E8D4E004C0FE010E94731FB0
:0C4320002196CA38D107C9F7F894FFCFE6
:10432C000000FF06FAD500000100010002000900A0
:10433C00000000001F00000000000000FF00FF0054
:10434C00000083068000FFFFFFFFFFFF6B006C0087
:10435C006D00414800534400474600000000000037
:10436C000000700743079B0D19073C0729071A0724
:10437C0000000000620CC20BEF0BCE0C200CFE0BED
:10438C00120C000000006805C20B9B0D9E0B620D09
:10439C000D0A002142722C002C446F6E652E0053C6
:1043AC0074757474676172742047616C6C65727992
:1043BC0020412F420030322E30322E32303231003A
:1043CC0076657273696F6E20312E305354004272D1
:1043DC00524649440055564C0053595300216865C8
:1043EC00616465725F626567696E0021686561640E
:1043FC0065725F656E64002173657475705F6265CC
:10440C0067696E0057445420656E6461626C656424
:10441C00004D59204E45572056455253494F4E009A
:10442C00202020493243205363616E6E65723A003E
:10443C00466F756E643A20002028307800292020C1
:10444C00004B6579706164202864656661756C74D5
:10445C0029004B65797061642F494F004F6C65647E
:10446C0020202864656661756C7429004F6C656446
:10447C000052656C617900556E6B6E6F776E0049FA
:10448C003243207363616E20636F6D706C6574656D
:10449C00004C656420696E6974202E2E2E002073EA
:1044AC0075636365737366756C2100524649442DC0
:1044BC0052656164657220696E69743A2000737587
:1044CC006363657373210072656C6179696E6974DD
:1044DC00206F6E200052656C6179205B005D20734B
:1044EC00657420746F20002173657475705F656E40
:1044FC0064000A3D3D3D53544152543D3D3D0A003C
:10450C0041757468206661696C65640072656164EC
:10451C00206661696C6564007265616420656D700C
:10452C0074792064617461626C6F636B202D3E2022
:10453C00696E76616C6964004300554B005F5F00E7
:10454C004361726473204368616E676564005761F0
:10455C006974696E6720666F72206E65772047619B
:10456C006D6521005265737461727420696E2072DE
:10457C0065717569726564210047616D6520436FD3
:08458C006D706C6574650000A0
:00000001FF
