:100000000C9477000C949F000C949F000C94940E19
:100010000C946F0E0C944A0E0C949F000C949F004D
:100020000C949F000C949F000C949F000C949F00D4
:100030000C949F000C949F000C949F000C949F00C4
:100040000C94A80D0C949F000C94180E0C94F20DB7
:100050000C949F000C949F000C949F000C949F00A4
:100060000C94890C0C949F005363616E6E696E67EB
:100070002E2E2E00493243207363616E6E65723AF4
:100080000052657374617274696E6720696E000056
:10009000000000240027002A0000000008000201E0
:1000A0000000030407000000000000000000000042
:1000B00000230026002900010204081020408001CE
:1000C000020408102001020408102000000000258E
:1000D0000028002B000404040404040404020202A7
:1000E00002020203030303030300350FEF17112479
:1000F0001FBECFEFD8E0DEBFCDBF26E0A8EDB3E056
:1001000001C01D92A93EB207E1F713E0A0E0B1E003
:10011000EEE8F5E302C005900D92A83DB107D9F7CE
:1001200010E0C6E7D0E004C02197FE010E949D18B0
:10013000C537D107C9F70E943B100C94BA1A0C942A
:100140000000CF92DF92EF92FF921F93CF93DF9345
:10015000FC016B01EE24FF24CC2DBB27A72F962F8B
:10016000852F182FD42F2781222361F0C29E600192
:100170001124CD2D289FC0011124192F249FC001C7
:100180001124D92FA585808591853285A31799F0F3
:10019000472F552766277727222349F030E0249FF1
:1001A0007001259FF00C349FF00C11244F2DA80FE7
:1001B000B92FB11D4C93A285A80FB92FB11DCC93B7
:1001C000A385A80FB92FB11D1C932485820F911D03
:1001D000FC01D083DF91CF911F91FF90EF90DF90D2
:1001E000CF900895089508958FB7F8948091710481
:1001F0008FBF08958CBD9DBD089520914E04260F9C
:100200003327331F21323105ECF42091FE04FC0129
:1002100090E080E0243069F082E00895A0914E04DF
:100220002191AC01425D5B4FA40FB52FB11D2C9302
:100230000196861798F380914E04680F60934E04E0
:1002400080E0089581E008950895E0917704809119
:100250007604E81730F4F0E0E854FB4F808190E03A
:1002600008958FEF9FEF0895909177048091760421
:100270002FEF3FEF981748F4E92FF0E0E854FB4FD9
:10028000208130E09F5F90937704C90108958091A9
:10029000760490917704891B990B0895CF92DF9291
:1002A000EF92FF920F931F93CF93DF937C01CB01CB
:1002B0008A0120910405222389F0EB016B01C40E11
:1002C000D51ECC15DD0569F06991D701ED91FC9142
:1002D0000190F081E02DC7010995F3CF642F0E94B2
:1002E000FD00C801DF91CF911F910F91FF90EF901A
:1002F000DF90CF900895CF93DF931F92CDB7DEB7F5
:100300006983209104052223F9F0209127052032EA
:1003100058F021E030E0FC013383228390E080E05C
:100320000F90DF91CF91089580910505E82FF0E0BF
:10033000EA5FFA4F998190838F5F809305058093E0
:10034000270581E090E0ECCF61E0CE0101960E94AC
:10035000FD00F7CF833081F028F4813099F08230AE
:10036000A9F008958730A9F08830C9F08430B1F43D
:10037000809180008F7D03C0809180008F77809373
:100380008000089584B58F7784BD089584B58F7DEE
:10039000FBCF8091B0008F778093B000089580915B
:1003A000B0008F7DF9CF1F93CF93DF93282F30E0DC
:1003B000F901E756FF4F8491F901E954FF4FD491B9
:1003C000F901EB52FF4FC491CC23A9F0162F8111F4
:1003D0000E94AA01EC2FF0E0EE0FFF1FE553FF4F44
:1003E000A591B4918FB7F894EC91111108C0D095F4
:1003F000DE23DC938FBFDF91CF911F910895DE2B19
:10040000F8CF1092FE0481E08093FD041092D8048E
:1004100061E082E10E94D30161E083E10E94D301A7
:10042000E9EBF0E080818E7F808380818D7F808307
:1004300088E48093B80085E48093BC00089510920E
:1004400077041092760410920505109227050E94F9
:10045000010282EF90E0909375048093740483EF1F
:1004600090E090937304809372040895CF93DF9388
:1004700091E090932D048823B9F0C091B800D091F9
:10048000BA008091BC008A7B8093BC0060E082E16E
:100490000E94D30160E083E10E94D3010E94010227
:1004A000D093BA00C093B800DF91CF910895CF9355
:1004B000DF9390E0FC01E954FF4F24918B529F4F52
:1004C000FC0184918823D1F090E0880F991FFC01F2
:1004D000E157FF4FA591B491FC01E553FF4FC59142
:1004E000D49161110EC09FB7F8948C91E22FE095E2
:1004F0008E238C932881E223E8839FBFDF91CF91E5
:1005000008958FB7F894EC91E22BEC938FBFF6CF60
:100510008230910538F0880F991F880F991F059731
:100520000197F1F70895AF92BF92CF92DF92EF92C9
:10053000FF920F931F93CF93DF93EC0188819981F2
:10054000892B89F06EBD0DB407FEFDCFBEB48B2D97
:10055000DF91CF911F910F91FF90EF90DF90CF909F
:10056000BF90AF9008958885998511E0892B09F097
:1005700010E8AA24A394862F812309F0A12C062F2A
:100580002C813D814E815F8160E271EA87E090E0DD
:100590000E947B18F22EB02EE12CC22ED12CFF200F
:1005A00019F0C6010E9488028A85877F09F042C03F
:1005B0008D858F3F89F0902F912381E009F480E0B1
:1005C0008A1551F0EF85F8898F89992369F1908117
:1005D000892B8083AA24A394E989FA898081998D43
:1005E000892B8083FF2019F0C6010E9488028E8526
:1005F0008F3F39F0EB89FC898081988D892309F040
:10060000E12AE989FA899081898D809589238083FF
:100610008E858F3F09F0BE2C88859985892BB9F589
:10062000110F1111BCCF93CF9081809589238083C6
:10063000A12CD2CFE989FA898081998D892B808379
:10064000FF2019F0C6010E9488028D858F3F49F076
:10065000EF85F8898F89902F9123A9F09081892BBC
:100660008083E989FA899081898D809589238083A7
:100670008E858F3F69F2EB89FC898081988D892373
:1006800039F2E12AC5CF908180958923E9CF16956B
:10069000C8CFCF92DF92EF92FF920F931F93CF9329
:1006A000DF93EC018B016A01790188819981892BA3
:1006B00031F0EA81FB81808191810E94FA0060E043
:1006C0008B850E94D301F8016081CE010E949302C4
:1006D0008601EC0CFD1CE016F10641F06FEFCE0137
:1006E0000E949302F80181938F01F5CF61E08B8521
:1006F0000E94D30181E0DF91CF911F910F91FF9074
:10070000EF90DF90CF9008953FB7F894809129043F
:1007100090912A04A0912B04B0912C0426B5A89B9B
:1007200005C02F3F19F00196A11DB11D3FBFBA2F83
:10073000A92F982F8827BC01CD01620F711D811D43
:10074000911D42E0660F771F881F991F4A95D1F7C8
:1007500008958F929F92AF92BF92CF92DF92EF92C5
:10076000FF920F931F93CF93DF93D0912705D13240
:1007700008F0D7C0182FC09126050E9484036B0192
:100780007C018091FE0481116BC082E08093FE04A5
:100790001093FD048FEF8093FC041092FB04D09320
:1007A000FA04A6E0B5E0EAEDF4E080E0D81391C0E9
:1007B0001092D9048091D904CC0FC82BC093D904CE
:1007C0008091D804813009F088C01092D8040E942A
:1007D00084036B017C018091D9048093BB008091DC
:1007E000000590910105A0910205B0910305892BA8
:1007F0008A2B8B2BA1F00E9484030091000510919D
:10080000010520910205309103056C197D098E09BF
:100810009F09061717072807390708F442C0809177
:10082000BC0083FDD8CF85EC8093BC000E9484037C
:100830006B017C018091FE04823009F450C08091EC
:10084000FC048F3F09F46FC08091FC04803209F4EE
:100850006CC08091FC04803309F469C084E026C038
:100860008091000590910105A0910205B0910305CA
:10087000892B8A2B8B2B09F484CF0E9484038090D0
:10088000000590900105A0900205B09003056C1939
:100890007D098E099F0986169706A806B90608F0F5
:1008A00070CF8091FF040E94360285E0109205050A
:1008B0001092270510920405DF91CF911F910F919F
:1008C000FF90EF90DF90CF90BF90AF909F908F9070
:1008D00008959D9191938F5F69CF85EEA5CF80910B
:1008E000000590910105A0910205B0910305892BA7
:1008F0008A2B8B2B09F49ECF0E9484030091000564
:100900001091010520910205309103056C197D09B4
:100910008E099F09061717072807390708F08ACF9D
:10092000C0CF81E0C3CF80E0C1CF82E0BFCF83E002
:10093000BDCFE1EDF5E0918162818081238131E0DD
:100940003093040520932605109205051092270583
:1009500060956923682B88E295E00E947B0181E025
:100960000C94A903CF92DF92EF92FF920F931F9303
:10097000CF93DF93D82FC62F613208F098C00E9422
:1009800084036B017C018091FE0481116BC081E0C6
:100990008093FE048093FD049FEF9093FC041092DB
:1009A000FB049C0F9093FA048093D9048091D9049E
:1009B000DD0FD82BD093D9048091D804813009F071
:1009C00078C01092D8040E9484036B017C0180914E
:1009D000D9048093BB008091000590910105A091FE
:1009E0000205B0910305892B8A2B8B2BA1F00E9465
:1009F00084030091000510910105209102053091BA
:100A000003056C197D098E099F090617170728072A
:100A1000390708F448C08091BC0083FDD8CF85EC2D
:100A20008093BC000E9484036B017C018091FE04D2
:100A3000813009F440C08091FB048C1710F4C09100
:100A4000FB04EAEDF4E0A8EBB4E080E08C1355C0C1
:100A50008C2FDF91CF911F910F91FF90EF90DF903E
:100A6000CF9008958091000590910105A091020515
:100A7000B0910305892B8A2B8B2B09F484CF0E941C
:100A80008403009100051091010520910205309129
:100A900003056C197D098E099F090617170728079A
:100AA000390708F070CF8091FF040E943602C0E041
:100AB000CFCF85EEB5CF8091000590910105A09133
:100AC0000205B0910305892B8A2B8B2B09F4AECF3D
:100AD0000E948403009100051091010520910205F8
:100AE000309103056C197D098E099F0906171707B8
:100AF0002807390708F09ACFD6CF91919D938F5F41
:100B0000A5CF8F929F92AF92BF92CF92DF92EF923A
:100B1000FF924B015C010E9484036B017C010E94E7
:100B200084036C197D098E099F09683E7340810515
:100B30009105A8F321E0821A9108A108B10888EE76
:100B4000C80E83E0D81EE11CF11C81149104A1049D
:100B5000B10429F7FF90EF90DF90CF90BF90AF9056
:100B60009F908F900895AF92BF92CF92DF92EF92B5
:100B7000FF920F931F93CF93DF936C017B018B0147
:100B8000040F151FEB015E01AE18BF08C017D10797
:100B900059F06991D601ED91FC910190F081E02D21
:100BA000C6010995892B79F7C501DF91CF911F9176
:100BB0000F91FF90EF90DF90CF90BF90AF9008958E
:100BC00090E080E00895FC01538D448D252F30E0A6
:100BD000842F90E0821B930B541710F0CF9608954A
:100BE00001970895FC01918D828D981761F0A28D77
:100BF000AE0FBF2FB11D5D968C91928D9F5F9F733D
:100C0000928F90E008958FEF9FEF0895FC01918DF2
:100C1000828D981731F0828DE80FF11D858D90E05F
:100C200008958FEF9FEF0895FC01918D228D892FFC
:100C300090E0805C9F4F821B91098F7399270895E4
:100C400084E395E00E94140621E0892B09F420E05A
:100C5000822F089580E090E0892B29F00E942006E1
:100C600081110C9400000895FC01A48DA80FB92FE8
:100C7000B11DA35ABF4F2C91848D90E001968F73C4
:100C80009927848FA689B7892C93A089B1898C91E3
:100C9000837080648C93938D848D981306C0028832
:100CA000F389E02D80818F7D80830895EF92FF92FC
:100CB0000F931F93CF93DF93EC0181E0888F9B8D7F
:100CC0008C8D98131AC0E889F989808185FF15C039
:100CD0009FB7F894EE89FF896083E889F98980815C
:100CE0008370806480839FBF81E090E0DF91CF912B
:100CF0001F910F91FF90EF900895F62E0B8D10E04D
:100D00000F5F1F4F0F731127E02E8C8D8E110CC0BB
:100D10000FB607FCFACFE889F989808185FFF5CF06
:100D2000CE010E943406F1CFEB8DEC0FFD2FF11DAB
:100D3000E35AFF4FF0829FB7F8940B8FEA89FB8943
:100D400080818062CFCFCF93DF93EC01888D8823A1
:100D5000B9F0AA89BB89E889F9898C9185FD03C01E
:100D6000808186FD0DC00FB607FCF7CF8C9185FF03
:100D7000F2CF808185FFEDCFCE010E943406E9CF0E
:100D8000DF91CF9108958F929F92AF92BF92CF92B1
:100D9000DF92EF92FF920F931F93CF93DF9300D0D8
:100DA000CDB7DEB77C016B0110E000E0AA24A3946C
:100DB00092E0992EF70181899289009701F19A8238
:100DC00021E030E0AE014F5F5F4FBE016E5F7F4FAD
:100DD0000E94490381E09981913009F434C080E098
:100DE000C114D10429F0065F1F4FC016D10658F177
:100DF0006AE070E080E090E00E948105DBCF208116
:100E000030E0F901E756FF4F8491F901E954FF4FB3
:100E1000B490F901EB52FF4F8490882079F0811152
:100E20000E94AA01E82DF0E0EE0FFF1FE355FF4FEF
:100E3000A591B491EC91BE2281E009F480E08A256D
:100E4000817009F4CDCF0F900F90DF91CF911F915A
:100E50000F91FF90EF90DF90CF90BF90AF909F9059
:100E60008F900895682F88E295E00C947B01CF92D3
:100E7000DF92EF92FF920F931F93CF93DF93CDB743
:100E8000DEB729970FB6F894DEBF0FBECDBF8C0139
:100E9000DC0118968D919C91892B09F465C00E9404
:100EA0008403F801C684D784E088F1886C197D0931
:100EB0008E099F096C3271408105910580F3F89489
:100EC000D80114968D919C9115979A8389831896D1
:100ED000ED91FC917F01BFEFEB1AFB0A80818987BE
:100EE000F80190810288F389E02DD80154968C9105
:100EF000992309F448C09081982B98879081809518
:100F000089238F838F818C8388E08B8358856F81C1
:100F100049853B812C8189819A81D701508347FD86
:100F2000252F3A952083262F39F0441F00C000005A
:100F30006083000000C0F2CF38E04D916083000074
:100F4000019761F7D8015396FC93EE935297498726
:100F50003B832C839A83898378940E948403F801CD
:100F600066877787808B918B29960FB6F894DEBFC2
:100F70000FBECDBFDF91CF911F910F91FF90EF90EA
:100F8000DF90CF9008959081982B988790818095DD
:100F900089238F838F818E8388E08D8358856F812D
:100FA00049853D812E8189819A81D701508347FDF2
:100FB000252F00C000C0208300C000C000C000C0BA
:100FC00000C060830000262F3A9541F0441F0000C6
:100FD00000C000C000C000C000C0E8CF38E04D91A4
:100FE00000C0608300C0019709F7D8015396FC93B5
:100FF000EE93529749873D832E83ACCF90E0FC015E
:10100000EE0FFF1FEF54FF4FA591B4912C91FC01FF
:10101000E85FFB4F30812083880F991FFC01E35D5F
:10102000FE4F0190F081E02D80810895CF92DF92F4
:10103000EF92FF920F931F93CF93DF931F92CDB741
:10104000DEB7062FD72E142FFC01818992890097D5
:10105000A9F023E02983242F30E0462F572FBE012B
:101060006F5F7F4F0E9449030F90DF91CF911F91D7
:101070000F91FF90EF90DF90CF90089562E070E0C5
:1010800080E090E00E94810562E0610F84E20E94AE
:10109000B204109277048093760488E295E00E946F
:1010A0003401C02EE02EFD2C61E070E080E090E085
:1010B0000E94810588E295E00E943401F701819346
:1010C0007F018E2F8C19811778F3CECFFC01019010
:1010D0000020E9F73197AF01481B590BBC0184E3AD
:1010E00095E00C94B3058FE591E00C9466080F939E
:1010F0001F93CF93DF938C01D0E0C0E0F801EC0F99
:10110000FD1F6491662341F084E395E00E9456063A
:10111000892B11F02196F2CF0E9473088C0F9D1F2E
:10112000DF91CF911F910F9108958F929F92AF926F
:10113000BF920F931F93CF93DF93CDB7DEB7A197E5
:101140000FB6F894DEBF0FBECDBF19A2423008F42F
:101150004AE08E010F5D1F4F842E912CB12CA12CE3
:10116000A50194010E947B18E62FB901CA01EA305B
:10117000F4F4E05DD801EE938D01232B242B252B75
:1011800079F790E080E0109719F0CD010E94660891
:10119000A1960FB6F894DEBF0FBECDBFDF91CF9101
:1011A0001F910F91BF90AF909F908F900895E95C31
:1011B000E1CFCF92DF92EF92FF92CF93DF936B015B
:1011C0007C016DE284E395E00E945606EC016627FF
:1011D0007727CB016C197D098E099F094AE00E948F
:1011E00095088C0F9D1FDF91CF91FF90EF90DF90BE
:1011F000CF900895CF93DF93BC01990F880B990B83
:1012000097FF0AC00E94D908EC010E9473088C0F56
:101210009D1FDF91CF9108954AE00E949508F4CF79
:10122000CF93DF930E946608EC010E9473088C0F35
:101230009D1FDF91CF9108950C9466080F931F9323
:10124000CF93DF93EC018B0161E08EE00E94D3012C
:101250000E94730882E691E00E941C09F801448113
:1012600055816081718184E395E00E94B30585E634
:1012700091E00E941C094C815D816881798184E341
:1012800095E00E94B30587E691E00E94100962E3B1
:1012900070E080E090E00E94810560E08EE0DF91E8
:1012A000CF911F910F910C94D3012F923F924F92A7
:1012B0005F926F927F928F929F92AF92BF92CF92E6
:1012C000DF92EF92FF920F931F93CF93DF9300D0A3
:1012D00000D000D01F92CDB7DEB77C014A012DB6F9
:1012E0003EB6DC015196CD90DC90BB24B394B60E93
:1012F000A62EA0946B2C712CC114D10409F495C0B6
:101300004DB65EB670E0685F7F4FEDB7FEB7E61B87
:10131000F70B0FB6F894FEBF0FBEEDBF0DB71EB7AB
:101320000F5F1F4F81E08183D80111961C921197A6
:1013300012961C9212978FEF13968C931397149614
:10134000BC9214971596AC92159784ED16968C93D3
:101350002DB73EB7285F3F4FF90163EDA301415020
:1013600051098E2F821B90E0841795073CF4885812
:101370009B4FDC018C918193680FF3CF6095608364
:101380001182B8E06B0E711CF60180819181892B6E
:1013900039F00280F381E02D808191810E94FA0072
:1013A00060E0D6011B968C910E94D3015801F50193
:1013B00061915F01C6010E949302C501801B910BE0
:1013C00086159705A0F361E0D6011B968C910E94CB
:1013D000D3010FB6F8945EBE0FBE4DBEB401C70177
:1013E0000E94C306182F811163C010E0812F0FB631
:1013F000F8943EBE0FBE2DBE27960FB6F894DEBF02
:101400000FBECDBFDF91CF911F910F91FF90EF9055
:10141000DF90CF90BF90AF909F908F907F906F9014
:101420005F904F903F902F90089562E070E080E0D1
:1014300090E00E94810581E08093040584E280931E
:101440002605109205051092270580E00E943207BC
:1014500080E00E9432078FEF0E9432078B2D0E949E
:1014600032078A2D0E94320784ED0E943207C12C78
:1014700083EDD82EB1E06B1A71080C2D10E0061523
:1014800017055CF408581B4FF80180810E94320751
:10149000D8018C91D80EC394F0CF8D2D80950E94E9
:1014A000320780E00E94320781E00E94A90396CFB4
:1014B000F70181899289009721F123E02F8326E0AB
:1014C00030E0AE014F5F5F4FBE01695F7F4F0E940A
:1014D000490346E050E069E171E0CE0101960E94C7
:1014E000851A892B09F081CFD70151968D919C9156
:1014F000892B09F47BCFB401C7010E94C306182FC2
:1015000075CF46E0BE016F5F7F4FC7010E9416088E
:10151000E0CF85ED8093BC0080910005909101059E
:10152000A0910205B09103050796A11DB11D23E00E
:10153000B695A795979587952A95D1F72091BC00E8
:1015400024FD03C01092FE040895409100055091BF
:1015500001056091020570910305452B462B472B31
:1015600069F30097A105B10541F025E32A95F1F74C
:1015700000000197A109B109E1CF8091FF040C940B
:101580003602FC0124813581232B39F421E0FB0153
:101590008081882349F020E007C0808191810E94EA
:1015A0009B1A21E0892BB9F7822F08950F931F937F
:1015B000CF93DF93C82F8B016EE671E0C8010E94C4
:1015C000C10A811121C062E771E0C8010E94C10A0D
:1015D00040E05FEF60E070E081111AC068E771E001
:1015E000C8010E94C10A81110FC06EE771E0C801F5
:1015F0000E94C10A40E050E0BA01882349F040E06F
:1016000056E46FEF70E004C040E050E06FEF70E030
:1016100085E1C89FE0011124C857D94F8A819B8179
:10162000892B19F0CE010E94A100CE01DF91CF914C
:101630001F910F910C943707FC01808191810097D5
:1016400011F00C943F190895CF93DF93EC01888536
:101650009985009711F00E943F198E8187FD05C082
:1016600060E0DF91CF910C945702DF91CF91089504
:101670000F931F93CF93DF93EC018881998100979B
:1016800059F02A813B812617370730F081E0DF913E
:10169000CF911F910F9108958B016F5F7F4F0E9433
:1016A000C819009759F0998388831B830A832C817A
:1016B0003D81232B59F7FC011082E8CF80E0E7CF72
:1016C000EF92FF920F931F93CF93DF934115510534
:1016D000B1F07B01EC010C811D81040F151FB801D5
:1016E0000E94380B882361F0288139818C819D818B
:1016F000B701820F931F0E94A41A1D830C8381E0FF
:10170000DF91CF911F910F91FF90EF900895FB0112
:1017100001900020E9F73197AF01461B570B0C945D
:10172000600BEF92FF920F931F93CF93DF93EC0127
:10173000198218821B821A821D821C8286179707C3
:10174000D9F0FB010081118101151105A9F0E48098
:10175000F580B7010E94380B28813981811113C0AF
:101760002115310519F0C9010E943F19198218820B
:101770001D821C821B821A82DF91CF911F910F91D3
:10178000FF90EF900895FD82EC82B801C901DF91CE
:10179000CF911F910F91FF90EF900C94A41AEF92AC
:1017A000FF920F931F93CF93DF93EC017B0119827C
:1017B00018821B821A821D821C82FB01019000206C
:1017C000E9F731978F01061B170BB8010E94380B00
:1017D00028813981811113C02115310519F0C90102
:1017E0000E943F19198218821D821C821B821A8254
:1017F000DF91CF911F910F91FF90EF9008951D837E
:101800000C83B701C901DF91CF911F910F91FF9018
:10181000EF900C94A41AEF92FF921F93CF93DF9353
:1018200000D000D000D0CDB7DEB780911C049091DD
:101830001D0421E0009709F420E040911E0450911E
:101840001F04840F951F452B09F420E040912004CC
:1018500050912104840F951F452B09F420E0069731
:1018600001F510E062E771E0CE0101960E94CF0B16
:10187000BE016F5F7F4F812F0E94D60ACE01019675
:101880000E941C0B1F5F133069F726960FB6F89461
:10189000DEBF0FBECDBFDF91CF911F91FF90EF90C4
:1018A0000895211121C08CE1E82E84E0F82E10E08B
:1018B000F701819191917F0163E871E0892B11F02B
:1018C00068E771E0CE0101960E94CF0BBE016F5F09
:1018D0007F4F812F0E94D60ACE0101960E941C0BD9
:1018E0001F5F133029F7D1CF10E06EE671E0CE0113
:1018F00001960E94CF0BBE016F5F7F4F812F0E9428
:10190000D60ACE0101960E941C0B1F5F133069F7A7
:10191000BCCF1F920F920FB60F9211242F933F93BB
:101920004F935F936F937F938F939F93AF93BF93E7
:10193000EF93FF938091B900887F803609F44AC005
:10194000F0F5883209F4A7C018F5803109F49BC07E
:10195000B8F4882309F4F9C0883009F494C0FF91E1
:10196000EF91BF91AF919F918F917F916F915F9117
:101970004F913F912F910F900FBE0F901F90189590
:10198000883109F488C0803251F78093FC0414C078
:10199000803409F49DC040F48033B9F38833F9F6FC
:1019A0008093FC0485ECB0C0803509F485C088358F
:1019B00009F496C0883499F60E94890AD0CF8839F4
:1019C00009F48CC038F5883729F050F4883611F0C6
:1019D000803729F683E08093FE041092700457C08C
:1019E000883809F47BC0803919F0803809F0B7CF06
:1019F00080917004803208F071C0E091700481E041
:101A00008E0F809370048091BB00F0E0E05BFB4F91
:101A100080833DC0803B39F0E0F4803A09F479C01E
:101A2000883A09F09CCF84E08093FE0410924F0422
:101A300010924E04E0917404F09175040995809120
:101A40004E0481110FC081E080934E0410922E0449
:101A500009C0803C09F4A6CF883C09F4A3CF883B99
:101A600009F07DCFE0914F0481E08E0F80934F0409
:101A7000F0E0E25DFB4F80818093BB0090914F04CA
:101A800080914E0429C08091D9048093BB0085ECDD
:101A90008093BC0064CF9091FB048091FA04981766
:101AA00058F5E091FB0481E08E0F8093FB04F0E099
:101AB000E652FB4F8081E9CFE091FB0481E08E0F7D
:101AC0008093FB048091BB00F0E0E652FB4F8083E3
:101AD0009091FB048091FA049817C8F285E8D8CF5A
:101AE000E091FB0481E08E0F8093FB048091BB00AA
:101AF000F0E0E652FB4F80838091FD0481115CCFC2
:101B000081E08093D80484EA8093BC001092FE04A4
:101B100026CF85EC8093BC001092FE048091700467
:101B2000803230F4E0917004F0E0E05BFB4F108213
:101B30006091700470E0E0917204F091730480E5AC
:101B400094E00995109270040ACF1092FC0434CFEF
:101B50001F920F920FB60F9211242F933F938F93E2
:101B60009F93AF93BF938091250490912604A091F9
:101B70002704B09128043091240423E0230F2D374B
:101B800058F50196A11DB11D2093240480932504CE
:101B900090932604A0932704B093280480912904ED
:101BA00090912A04A0912B04B0912C040196A11DC0
:101BB000B11D8093290490932A04A0932B04B09321
:101BC0002C04BF91AF919F918F913F912F910F90D6
:101BD0000FBE0F901F90189526E8230F0296A11DA7
:101BE000B11DD2CF1F920F920FB60F9211242F93D7
:101BF0003F934F935F936F937F938F939F93AF9395
:101C0000BF93EF93FF9384E395E00E943406FF9126
:101C1000EF91BF91AF919F918F917F916F915F9164
:101C20004F913F912F910F900FBE0F901F901895DD
:101C30001F920F920FB60F9211242F938F939F93A1
:101C4000EF93FF93E0914405F09145058081E09189
:101C50004A05F0914B0582FD1BC0908180914D0596
:101C60008F5F8F7320914E05821741F0E0914D05F3
:101C7000F0E0EC5CFA4F958F80934D05FF91EF916A
:101C80009F918F912F910F900FBE0F901F901895DD
:101C90008081F4CF1F920F920FB60F9211242F93D1
:101CA0003F934F935F936F937F938F939F93AF93E4
:101CB000BF93EF93FF9382E00E94FE07FF91EF91A5
:101CC000BF91AF919F918F917F916F915F914F9154
:101CD0003F912F910F900FBE0F901F9018951F925C
:101CE0000F920FB60F9211242F933F934F935F9350
:101CF0006F937F938F939F93AF93BF93EF93FF93D4
:101D000081E00E94FE07FF91EF91BF91AF919F91FB
:101D10008F917F916F915F914F913F912F910F9094
:101D20000FBE0F901F9018951F920F920FB60F9233
:101D300011242F933F934F935F936F937F938F93D0
:101D40009F93AF93BF93EF93FF9380E00E94FE07B2
:101D5000FF91EF91BF91AF919F918F917F916F9183
:101D60005F914F913F912F910F900FBE0F901F9059
:101D70001895FF920F931F93CF93DF938C01F62E4C
:101D80008FEFF801808381838CE190E00E94A3189B
:101D9000EC01FB868DE08C878CE08E878BE08D8755
:101DA0006F2D70E0FB01EB52FF4FE491F0E0EE0F7E
:101DB000FF1FE553FF4F859194919E8B8D8BFB0107
:101DC000E954FF4FE491EA8FE0EEF0E0E491F0E0B7
:101DD000EE0FFF1FE553FF4F85919491988B8F87EE
:101DE000E2ECF0E0E491EF8BE1EEF0E0E491F0E082
:101DF000EE0FFF1FE355FF4F859194919C8B8B8BCA
:101E0000E3ECF0E0E491E88FE2EEF0E0E491F0E062
:101E1000EE0FFF1FE553FF4F859194919A8B898BAD
:101E2000E4ECF0E0E491E98F80E492E4AFE0B0E02C
:101E30008C839D83AE83BF83198618861A861B8E7A
:101E400082E090E00E94A31821E7FC012083118228
:101E50009B838A8319821882F801D28BC18BDF9110
:101E6000CF911F910F91FF90089510922B05109222
:101E70002A0588EE93E0A0E0B0E080932C059093D3
:101E80002D05A0932E05B0932F052FE331E030935D
:101E90002905209328051092370510923605809366
:101EA000380590933905A0933A05B0933B0581E539
:101EB00091E0909335058093340585EC90E0909304
:101EC00041058093400584EC90E090934305809316
:101ED000420580EC90E0909345058093440581ECA9
:101EE00090E0909347058093460582EC90E09093B4
:101EF00049058093480586EC90E090934B058093CC
:101F00004A0510924D0510924E0510924F05109201
:101F1000500569E871E08FED96E00E94CF0B6FE904
:101F200071E089ED96E00E94CF0B6AEA71E083EDE3
:101F300096E00E94CF0B68EB71E08DEC96E00E947A
:101F4000CF0B6FEB71E087EC96E00E94CF0BE8E8D7
:101F5000F6E027EC36E081E04FEF92E080831182DB
:101F6000138212821582148246831782118610868C
:101F7000828713869487858716861786108A118A2A
:101F800075962E173F0751F768E085E796E00E94A7
:101F9000B90E67E082E696E00E94B90E64E08FE435
:101FA00096E00E94B90E62E08CE396E00E94B90EC2
:101FB00083E1E5E7F6E0A0EFB5E001900D928A95A8
:101FC000E1F783E1E2E6F6E0A3E0B6E001900D92EE
:101FD0008A95E1F783E1EFE4F6E0A6E1B6E001904F
:101FE0000D928A95E1F783E1ECE3F6E0A9E2B6E031
:101FF00001900D928A95E1F71092D1051092D205C9
:102000001092D3051092D4051092D5051092D605E2
:102010001092D7051092D8051092D9051092DA05C2
:102020001092DB051092DC051092DD051092DE05A2
:102030001092DF051092E1051092E0051092E30581
:102040001092E2051092E5051092E4051092E70562
:102050001092E6051092E9051092E8051092EB0542
:102060001092EA051092ED051092EC051092EF0522
:102070001092EE050895CF93DF93CDB7DEB7EF97BB
:102080000FB6F894DEBF0FBECDBF789484B58260E2
:1020900084BD84B5816084BD85B5826085BD85B50C
:1020A000816085BD80916E00816080936E0010928A
:1020B0008100809181008260809381008091810005
:1020C0008160809381008091800081608093800096
:1020D0008091B10084608093B1008091B0008160F4
:1020E0008093B00080917A00846080937A00809120
:1020F0007A00826080937A0080917A008160809378
:102100007A0080917A00806880937A001092C100F2
:102110000E941F02E0914405F091450582E0808312
:10212000E0914005F09141051082E0914205F09167
:10213000430580E1808310924C05E0914805F091C1
:10214000490586E08083E0914605F091470580814E
:1021500080618083E0914605F09147058081886029
:102160008083E0914605F0914705808180688083F7
:10217000E0914605F091470580818F7D808364E67C
:1021800070E080E090E00E94810561E08EE00E94B6
:10219000570263EC71E0CE0101961C010E94CF0B47
:1021A0004E0191E2890E911C67EC71E0C4010E941E
:1021B000CF0BB101C4010E941E09C4010E941C0B77
:1021C000C1010E941C0B84ED91E00E94100988E17E
:1021D00099E20FB6F894A895809360000FBE909393
:1021E00060000E94730881EE91E00E941009540182
:1021F00068E8C62E66E0D62EDE019796BCAFABAF80
:1022000076018DAE9FAE44244A94542C642C712CDC
:1022100088E0E5E2F1E0ADADBFAD01900D928A95A9
:10222000E1F7F501019111915F011A8218861F866D
:10223000188A198A1A8A1E861B86F1E0FC8722E01A
:102240002D87F98383E090E09E838D830E94A318FD
:102250009A878987009709F401C223E0DC011D9267
:102260002A95E9F7E1E0F0E0FC83EB830F838A81B4
:10227000882341F061E0802F0E94570260E0802FA8
:102280000E94D3011127F801EB52FF4FE491F0E0D7
:10229000EE0FFF1FE553FF4F859194919C8B8B8B25
:1022A00009541F4FF80104910D8B85E1F101D7010D
:1022B00001900D928A95E1F7C1010E94240BD7018C
:1022C00016968C9187FD08C061E00E94570260E07D
:1022D000F70186810E94D301E1E0D7011196EC93CA
:1022E00080E090E0AFEFB0E089839A83AB83BC835A
:1022F00080E095EAAFEFB0E08D839E83AF83B8872F
:1023000080E09FEFAFEFB0E089879A87AB87BC870B
:1023100080E090E8A0E0B0E08D879E87AF87B88B23
:102320008FEF90E0A0E0B0E0898B9A8BAB8BBC8BF9
:1023300082E890E0ABE4B0E08D8B9E8BAF8BB88FE2
:102340008EEE92E8AEEEB0E0898F9A8FAB8FBC8FA5
:102350004D8E5E8E6F8E78A2A8958101D701129660
:102360008D919C91892B41F0F801408151816281CE
:102370007381C7010E94A100C7010E94370764EF63
:1023800071E080E090E00E9481050C5F1F4F08150E
:10239000190521F7A89568EE73E080E090E00E94AF
:1023A000810564E670E080E090E00E948105F5E13F
:1023B000EF0EF11C8BAD9CADA816B90609F028CF25
:1023C00064E670E080E090E00E948105D6011296FC
:1023D0008D919C91892B31F040E050E0BA01C6010B
:1023E0000E94A100C6010E943707B5E1CB0ED11CA7
:1023F000E7ECCE16E6E0DE0649F78BEE91E00E94B0
:102400001009A8950E94730884EF91E00E941009BA
:102410000E94730884E790E00E94770888E690E0C5
:102420000E94770848E0C42ED12CE12CF12C10E05A
:1024300001E000930405C092260510920505109254
:10244000270581E00E94A90381111DC08EEF91E054
:102450000E941C094AE0C701B6010E9495088EE05F
:1024600092E00E941C0940E1C701B6010E94950854
:1024700083E192E00E9410091F5F61E070E080E05C
:1024800090E00E948105FFEFCF1ADF0AEF0AFF0AF2
:1024900028E7C216D104E104F10459F688E691E078
:1024A0000E94100985E192E00E941C09612F70E0F2
:1024B00090E080E04AE00E9495088CE192E00E9462
:1024C000100988E292E00E941009A8950E94730802
:1024D00081E392E00E94100900EF15E0F12CE12C5D
:1024E00031ECA32E30E0B32ED101E7E01D92EA9546
:1024F000E9F7A8958CE392E00E941C09C7010E94AD
:10250000FA08D8015196CD90DC90C114D10409F499
:10251000CFC061E0F60183850E94570261E0D601D9
:102520001B968C910E94D301F60180819181892BA9
:1025300009F499C07FB6F89480910B04811126C0EC
:10254000EFEDF0E08491F5019491E82FF0E0EE0FCB
:10255000FF1FE157FF4FA591B4918C91982321F46F
:1025600061E08AE00E94D30161E08AE00E945702A4
:102570008CB580618CBD8CB580648CBD61E08DE0D4
:102580000E94570261E08BE00E94570280910B0489
:102590008F5F80930B047FBE81E0D6015B968C93A6
:1025A000B2E0B093780444E650E061E0C8010E94D4
:1025B0005509F2E3F093780425E0209379048FEF36
:1025C00080937A0481E080937B0420937C0444E62A
:1025D00050E065E0C8010E945509D12CC12C92E061
:1025E0009093780444E650E061E0C8010E945509E8
:1025F00081117DC082E592E00E941009A6E0CA1612
:10260000D10444F18AE692E00E94100981E890E04A
:102610000E94770862E370E080E090E00E9481050C
:10262000B3E04B2E512C612C712C4AE0C301B20156
:102630000E9495080E94730864E670E080E090E0D4
:102640000E948105B1E04B1A51086108710869F7D1
:102650000C940000FFEFCF1ADF0AC1CF1E821D824B
:102660001C821B8203CE61E084850E945702F60122
:1026700082858B7FD1F460E084850E94D301F601CE
:1026800085858F3F49F061E00E94570261E0D601E5
:102690001D968C910E94D301F60186858F3F09F427
:1026A0007BCF60E00E94570277CF61E08485E5CF61
:1026B0000E941F0261E0F80181810E94D30160E065
:1026C000D80111968C910E94D30160E971E080E0FD
:1026D00090E00E94810561E0F80181810E94D301B0
:1026E0006AE070E080E090E00E94810562CF4CE0FB
:1026F00068E774E0C8010E94160846E050E060E018
:1027000071E088E794E00E94851A892B09F072CF66
:1027100040907F0450908004542445245424712C0C
:10272000612C762C652C542C442480918104482AF9
:10273000762C652C542C442480918204482A411420
:1027400051046104710409F455CF8EE892E00E94AF
:102750001C09672D77278827992740E10E94950853
:102760000E9473088DE992E00E941C09662D70E0BA
:1027700090E080E04AE00E9495086EE284E395E0F4
:102780000E945606652D70E090E080E04AE00E94CD
:1027900095080E947308E4E1E093780481E0809357
:1027A0007904E0937A0480937B0444E650E064E08B
:1027B000C8010E945509882331F048E068E774E0B9
:1027C000C8010E94160861E070E080E090E00E947D
:1027D0008105FAE4F093780481E080937904109203
:1027E0007A0450E040E063E0C8010E945509D82E09
:1027F000882319F1D80151968D919C91892BB1F0C4
:1028000044E168E774E0C8010E94160880917F04E3
:10281000813099F490918404A5E8B4E0F1018E2F01
:102820008219891758F48D918193F9CF70E060E097
:10283000C8010E94C3068111E3CFD12CBFEFEB1A70
:10284000FB0A0D5E1F4FE3E0EE16F10409F04CCEDB
:102850008CEA92E0D11002C086EB92E00E9410094F
:10286000A8950E94730884EC92E00E94100980ED04
:1028700092E00E9410098FE38093D4050E941F020A
:102880008091D2058093D50561E08091D4050E94A6
:10289000B2041092770480937604811101C0FFCFB7
:1028A00088E295E00E9434018093D20577E3C72E39
:1028B00071E0D72EE3E3EE2EE1E0FE2E44244394B4
:1028C000512CD6010D911D916D018091D3055201BE
:1028D000002E01C0AA0C0A94EAF78A298093D30536
:1028E0008091D1056A2C609486218093D1050E9445
:1028F0009904F7017080F181FDAF22E0E20EF11C36
:102900008091D105772009F4DBC0A82AA092D105D7
:102910000E94990483EE92E00E941C0989EE92E0E5
:102920000E941C09B801110F880B990B97FFCCC0AE
:102930000E94D90881EF92E00E941C09872D9DAD6D
:102940000E94FA088BE3C81681E0D80609F0B9CFD7
:102950000E9473088BEF92E00E9410098AE193E0D5
:102960000E941009A8952FB7F894809125049091A2
:102970002604A0912704B09128042FBF80930C0453
:1029800090930D04A0930E04B0930F0463EC71E0D8
:10299000C1010E94CF0B65E273E0C4010E94CF0B1E
:1029A000B101C4010E941E09C4010E941C0BC10197
:1029B0000E941C0B6E0191E2C90ED11C1E01A5E301
:1029C0002A0E311C8E010F5F1F4F2FB7F894809194
:1029D000250490912604A0912704B09128042FBFCC
:1029E00040910C0450910D0460910E0470910F04FD
:1029F000841B950BA60BB70B88389341A105B10535
:102A0000B0F02FB7F8948091250490912604A091FE
:102A10002704B09128042FBF80930C0490930D04D9
:102A2000A0930E04B0930F0481E08093180180916D
:102A300023048111B8C2A89587E0D6011D928A951A
:102A4000E9F786E0F10111928A95E9F78CE194E0CB
:102A50009EAF8DAF41013C0160EFE62E65E0F62EA2
:102A6000B12CA12C55245394A8959AE49093780402
:102A70005092790410927A0450E040E063E0C7017C
:102A80000E945509882359F1D70151968D919C9147
:102A9000892BF1F044E168E774E0C7010E94160851
:102AA00080917F048130D9F480918404A5E8B4E05A
:102AB000F6019E2F9C199817E8F59D919193F9CFF7
:102AC00068226092D10524CF4AE00E94950832CF57
:102AD00070E060E0C7010E94C3068111DBCFD40122
:102AE0008D919C91F301208131812817390749F19B
:102AF0009183808363EC71E0CE0189960E94CF0BB5
:102B00006CE673E0CE018F960E94CF0BBE01675D2D
:102B10007F4FCE018F960E941E09CE018F960E9494
:102B20001C0BCE0189960E941C0B1092220450921D
:102B3000180107C0843009F450C084E393E00E9478
:102B40001009FFEFAF1ABF0A23E1E20EF11C82E089
:102B5000680E711C92E0890E911CA3E0AA16B104C4
:102B600009F082CF0E940B0CA89560901801662096
:102B700009F406C21092180161E671E0CE0189964F
:102B80000E94CF0B762C912C812CAA24A394B12CDB
:102B9000EDADFEAD81919191FEAFEDAF880E991E26
:102BA0008230910509F0D8C06AE773E0CE018996BA
:102BB0000E94870B4AE0B801C5010E940F18F80176
:102BC00001900020E9F73197AF01401B510BB8018C
:102BD000CE0189960E94600BF3C096E0E6E0F1E03A
:102BE000D7011A9601900D929A95E1F794E0F601BB
:102BF000D701129601900D929A95E1F7F70181871E
:102C0000F0E4F09378045092790420E620937A045B
:102C100050927B0486E0F7013A96ACE7B4E001906D
:102C20000D928A95E1F7D70112968C9112978093B5
:102C3000820413968C9113978093830414968C913D
:102C400014978093840415968C918093850444E6B0
:102C500050E06EE0C7010E945509882359F04CE00E
:102C600068E774E0C7010E941608442443948091E9
:102C70007F048111412C61E070E080E090E00E94CF
:102C80008105442009F463C0B0E4B0937804509205
:102C90007904E0E3E0937A0450927B0444E650E048
:102CA00064E0C7010E945509882309F44CC04AE139
:102CB00068E774E0C7010E94160880917F048111C3
:102CC00042C080E1E0E8F4E0D80101900D928A95DD
:102CD000E1F7E1E0F0E0D401ED93FC931B82C50144
:102CE000880F991F8A0D9B1D43E050E0B801805F5B
:102CF0009B4F0E94AB1A2A8130E040910D01042EB7
:102D0000000C550B81E04217530709F480E08195D0
:102D100040911001042E000C550B2417350709F4BF
:102D200081E040911301042E000C550B421753070C
:102D300089F08A151B0409F0D2CEE2E0F0E0D4015C
:102D4000ED93FC93CCCE80E493E00E94100980E6E2
:102D500093E0F5CE82E0EDCF8130910539F5750134
:102D6000EE0CFF1CEA0CFB1CC701835F9B4F7C0130
:102D7000BC018CE091E00E949B1A892B09F41CC1D4
:102D8000B7018FE091E00E949B1A892B09F423C1BF
:102D9000B70182E191E00E949B1A65ED73E0892BF7
:102DA00009F0D0C083E0E82EF12C09C1892B09F08D
:102DB000C7C06CE773E0CE0189960E94870B712C27
:102DC00041E050E067EE72E0CE0189960E94600B10
:102DD0009FEFA91AB90AA4E0AA16B10409F0D8CE47
:102DE00067EC76E0C6010E94910BBE01675D7F4FE4
:102DF000C8010E94910BB601C8010E941E09C801BA
:102E00000E941C0BC6010E941C0BB6E08B1691049D
:102E100009F09DC067EC76E0C6010E94910B62E864
:102E200073E0C8010E94CF0BB601C8010E941E09C1
:102E3000C8010E941C0BC6010E941C0B762CCE01FF
:102E400089960E941C0B80912204772009F498C077
:102E5000811196C082E993E00E9410090E940B0C38
:102E600064E670E080E090E00E9481058091D105E9
:102E70008D7F8093D1050E9499048091D105846053
:102E80008093D1050E9499040E940B0C68EE73E0B8
:102E900080E090E00E9481050E940B0C68EE73E0D8
:102EA00080E090E00E9481050E940B0C68EE73E0C8
:102EB00080E090E00E9481050E940B0C8091D1057A
:102EC00082608093D1050E949904FF24F394F092CC
:102ED0002204A8958CE993E00E941009F092230443
:102EE00082EB93E00E9410090FB6F894A8958091A8
:102EF0006000886180936000109260000FBE63ECF8
:102F000071E0C6010E94CF0B67EC73E0C8010E941C
:102F1000CF0BB601C8010E941E09C8010E941C0BFC
:102F2000C6010E941C0BE0E0F0E0EF2B09F44DCD50
:102F30000E942006882309F445CD0E9400003ECD62
:102F40006FE773E0CE0189960E94870B39CF772017
:102F500009F475CF67EC76E0C6010E94910B6BE82F
:102F600073E0C8010E94CF0BB601C8010E941E0980
:102F7000C8010E941C0BC6010E941C0B712C5FCF64
:102F8000809122048111CFCF8091D10582608093FE
:102F9000D1050E9499048091D1058B7F8093D10542
:102FA0000E949904C0CF0E940B0C64EF71E080E096
:102FB00090E00E948105B7CFEE24E394F12C6AE7FC
:102FC00073E0CE0189960E94870B4AE0B801C701E1
:102FD0000E941A18F4CD92E0E92EF12CF0CF82EB8A
:102FE00096E00E94240B8DE996E00E94240B88E86D
:102FF00096E00E94240B87EC96E00E941C0B8DEC5F
:1030000096E00E941C0B83ED96E00E941C0B89ED5C
:1030100096E00E941C0B8FED96E00C941C0BBB27D6
:103020004A3031F4992322F4BDE2909581959F4F67
:103030000C941B18BB27FB015527AA27880F991F43
:10304000AA1FA41710F0A41B83955051B9F7A05DD7
:10305000AA3308F0A95DA193009779F7B111B19354
:103060001192CB010C943418DC01FC01672F719193
:103070007723E1F7329704C07C916D93708362915E
:10308000AE17BF07C8F308952F923F924F925F92F9
:103090006F927F928F929F92AF92BF92CF92DF9268
:1030A000EF92FF920F931F93CF93DF93CDB7DEB7CD
:1030B000CA1BDB0B0FB6F894DEBF0FBECDBF099461
:1030C0002A88398848885F846E847D848C849B84B8
:1030D000AA84B984C884DF80EE80FD800C811B81C6
:1030E000AA81B981CE0FD11D0FB6F894DEBF0FBEF5
:1030F000CDBFED010895A1E21A2EAA1BBB1BFD0155
:103100000DC0AA1FBB1FEE1FFF1FA217B307E407C6
:10311000F50720F0A21BB30BE40BF50B661F771F1E
:10312000881F991F1A9469F76095709580959095FE
:103130009B01AC01BD01CF010895EE0FFF1F05906B
:10314000F491E02D09940F931F93CF93DF93823076
:10315000910510F482E090E0E091E706F091E80636
:1031600030E020E0B0E0A0E0309799F4211531057F
:1031700009F44AC0281B390B24303105D8F58A815F
:103180009B816115710589F1FB0193838283FE01A7
:1031900011C0408151810281138148175907E0F025
:1031A0004817590799F4109761F012960C931297EB
:1031B00013961C933296CF01DF91CF911F910F91FF
:1031C00008950093E7061093E806F4CF2115310522
:1031D00051F04217530738F0A901DB019A01BD01F4
:1031E000DF01F801C1CFEF01F9CF9093E80680939A
:1031F000E706CDCFFE01E20FF31F8193919322509A
:10320000310939832883D7CF2091E5063091E6062E
:10321000232B41F420912101309122013093E606C5
:103220002093E50620911F013091200121153105E1
:1032300041F42DB73EB74091230150912401241B46
:10324000350BE091E506F091E606E217F307A0F4EE
:103250002E1B3F0B2817390778F0AC014E5F5F4FEC
:103260002417350748F04E0F5F1F5093E606409332
:10327000E506819391939FCFF0E0E0E09CCFCF9360
:10328000DF930097E9F0FC01329713821282A0913C
:10329000E706B091E806ED0130E020E01097A1F4D8
:1032A00020813181820F931F2091E5063091E6063F
:1032B0002817390709F061C0F093E606E093E506A8
:1032C000DF91CF910895EA01CE17DF07E8F54A8133
:1032D0005B819E0141155105B1F7E901FB83EA834A
:1032E00049915991C40FD51FEC17FD0761F48081F6
:1032F00091810296840F951FE901998388838281C9
:1033000093819B838A83F0E0E0E012968D919C91FB
:1033100013970097B9F52D913C911197CD01029625
:10332000820F931F2091E5063091E6062817390792
:1033300039F6309751F51092E8061092E706B093EF
:10334000E606A093E506BCCFD383C28340815181BA
:10335000840F951FC817D90761F44E5F5F4F8881AE
:103360009981480F591F518340838A819B819383A0
:1033700082832115310509F0B0CFF093E806E09380
:10338000E7069ECFFD01DC01C0CF13821282D7CFAA
:10339000B0E0A0E0EEECF9E10C9446188C01009747
:1033A00051F4CB010E94A3188C01C801CDB7DEB740
:1033B000E0E10C946218FC01E60FF71F9C0122501B
:1033C0003109E217F30708F49DC0D901CD91DC91D2
:1033D0001197C617D70798F0C530D10530F3CE0145
:1033E00004978617970708F3C61BD70B2297C1933C
:1033F000D1936D937C93CF010E943F19D6CF5B018F
:10340000AC1ABD0A4C018C0E9D1EA091E706B0912E
:10341000E806512C412CF12CE12C109731F58091CC
:10342000E5069091E6068815990509F05CC04616F8
:10343000570608F058C080911F0190912001009715
:1034400041F48DB79EB74091230150912401841B14
:10345000950BE817F90708F055C0F093E606E093DE
:10346000E506F90171836083A0CF8D919C9111973E
:1034700012966C90129713967C901397A815B90525
:1034800059F56C0142E0C40ED11CCA14DB0420F1D2
:10349000AC014A195B09DA011296159780F0628235
:1034A000738251834083D9016D937C93E114F104BD
:1034B00071F0D7011396FC93EE93129776CF229674
:1034C0008C0F9D1FF90191838083F301EFCFF0935F
:1034D000E806E093E70669CF4816590608F42C0180
:1034E0007D01D3019ACFCB010E94A3187C010097E4
:1034F00049F0AE01B8010E94921AC8010E943F191A
:10350000870153CF10E000E050CFFB01DC0104C085
:103510008D910190801921F441505040C8F7881BCB
:10352000990B0895FB01DC0102C001900D924150FE
:103530005040D8F70895FB01DC018D91019080196E
:103540000110D9F3990B0895FB01DC0101900D9254
:103550000020E1F70895FB01DC014150504048F0A4
:1035600001900D920020C9F701C01D9241505040BA
:10357000E0F7089510E0C6E7D0E004C0FE010E9425
:0E3580009D182196C737D107C9F7F894FFCFE1
:10358E000000FF06FAD5FFFFFFFFFFFF4148005383
:10359E004400474600000000010000FF00FF00004D
:1035AE0000E906800009000600050003006B006CB0
:1035BE00006D000100000001000200000000007B11
:1035CE00014E01E0052401470134012501000000F0
:1035DE00005606B305E305A3061406F20506060D0E
:1035EE000A002142722C002C446F6E652E0072650B
:1035FE006400677265656E00776869746500676F51
:10360E006C6400626C61636B0053747574746761F3
:10361E0072742047616C6C65727920412F420030C4
:10362E00322E30322E323032310076657273696F3F
:10363E006E20312E3053540042725246494400558A
:10364E00564C0053595300215365747570204265D2
:10365E0067696E0057445420656E6461626C6564E0
:10366E00004C45443A202E2E2E20004C45443A2044
:10367E004F4B21004932433A202E2E2E2000466F0A
:10368E00756E6420616464726573733A200020283D
:10369E003078002900466F756E64200020646576D0
:1036AE006963652873292E004932433A204F4B2116
:1036BE0000524649443A202E2E2E2000696E69741F
:1036CE0069616C697A696E67207265616465723AC8
:1036DE0020004469646E27742066696E6420504E23
:1036EE0035337820626F61726400504E353332206C
:1036FE00737461727475702074696D6564206F7572
:10370E00742C2072657374617274696E6700466FF3
:10371E00756E64206368697020504E35004669727C
:10372E006D77617265207665722E2000524649448F
:10373E003A204F4B2100524649443A204641494CCB
:10374E004544210052656C61793A202E2E2E2000C0
:10375E00696E697469616C697A696E672072656CED
:10376E0061790020202020200052656C6179205B59
:10377E00005D2073657420746F200073756363653C
:10378E00737366756C6C7920696E697469616C69A6
:10379E007A65642072656C61790052656C61793A64
:1037AE00204F4B2100536574757020436F6D706C04
:1037BE006574650046616C73652043617264210017
:1037CE0052656164696E67206661696C65642C2060
:1037DE0064697363617264696E6720636172640009
:1037EE0072656164206661696C6564004361726430
:1037FE0073204368616E6765640043005F5F005528
:10380E006B0021436F7272656374002157726F6E85
:10381E00670047415445204F50454E00576169742B
:10382E00696E6720666F72206E65772047616D65E1
:10383E0021005265737461727420696E2072657115
:10384E007569726564210047616D6520436F6D7007
:08385E006C6574650058580008
:00000001FF
