:100000000C948A040C94B2040C94B2040C943C1327
:100010000C9417130C94F2120C94B2040C94B204C6
:100020000C94B2040C94B2040C94B2040C94B20478
:100030000C94B2040C94B2040C94B2040C94B20468
:100040000C9450120C94B2040C94C0120C949A129A
:100050000C94B2040C94B2040C94B2040C94B20448
:100060000C9431110C94B204AEB08180A1A6A83FCB
:10007000AD8B32C8D300D580D91FDA12DB40AF5325
:1000800075636365737366756C001C620A0C20608F
:1000900002020508070D080204040507020402060F
:1000A00007060707070707070707020207070705ED
:1000B0000A070707080606080804060707090809CB
:1000C000070908070808070C0708060406040809BA
:1000D000030606060606050606020407020A0606C9
:1000E000060605050506060A0606050602060809AF
:1000F000000000007E7E3030070700070700000088
:100100000000C0D8F8DED8F8DE180030000030005B
:100110000000387C64FF64E4C8102020F020301018
:100120003C7E427E3CC02018E6F010F0E00000006B
:1001300000300000001030203010DCFE227EDC8019
:100140006020103020202010302007070000F8FE2B
:1001500007011070E0800107FEF880E07010120CBB
:100160003F0C120000000000202020FC2020200076
:100170000000100000000000F0702020202000008F
:100180000000000030300080E07C1F03C0F0300031
:100190000000FCFE020202FEFC1030202020301085
:1001A0000404FEFE0000202030302020040682C21D
:1001B000623E1C203030202020200406222222FE15
:1001C000DC10302020203010C0A09884FEFE80007B
:1001D000000000303000001E1E1212F2E21030202B
:1001E00020203010F8FC161212F2E01030202020EF
:1001F0003010020282E27A1E060020301000000059
:10020000DCFE222222FEDC103020202030103C7E3A
:10021000424242FEFC0020202030100018183030EE
:100220001818F0706060909008080400000000103A
:10023000102090909090909090000000000000009E
:100240000408089090606020101000000000046214
:10025000721E0C0030300000F00CF4FA0AFAFA04B6
:100260000CF00030205050505010100080F8FE86E6
:10027000FEF88030300000003030FEFE22223EFCCE
:10028000C030302020203010F8FC060202020400AA
:10029000103020202010FEFE02020206FCF8303052
:1002A000202020301000FEFE22222222303020208A
:1002B0002020FEFE22222222303000000000F8FC26
:1002C00006024242C2C40010302020203030FEFE20
:1002D00020202020FEFE303000000000303002FEE2
:1002E000FE022030302000020202FEFE20202020EC
:1002F0003010FEFE70D88C06023030000010302026
:10030000FEFE000000000030302020202020FE0EE5
:100310003CF0C0300CFEFE30000000000000303029
:10032000FE061C38E0C000FE300000000010303037
:10033000F8FC0602020206FCF800103020202030F3
:100340001000FEFE4242427E3C30300000000000C1
:10035000F8FC0602020206FCF80010302060E0B053
:100360009080FEFE2262E2BE1C00303000000010D1
:1003700030201C3E322262E2C410202020203010A7
:10038000020202FEFE020202000000303000000005
:10039000FEFE00000000FEFE103020202020301065
:1003A0000E7EF080F07E0E000030303000000E7EB9
:1003B000F080E03E3EE080F07E0E00003030000035
:1003C000000030300000068EF870F88E06303000E5
:1003D00000003030060E18F0F0180E060000003055
:1003E0003000000002C2F23E0E02303020202020F9
:1003F000FFFF0101F0F08080031F7CE0800000001F
:100400000030F0C00101FFFF8080F0F010180C06F2
:10041000060C1810000000000000000000000000A2
:100420000000000000808080808080808080010348
:1004300002000000C0E82828F8F0103020203030FA
:10044000FFFF0808F8F0303020203010F0F80808DE
:100450000810103020202010F0F80808FFFF10309E
:1004600020203030F0F848487870103020202010DC
:1004700008FEFF09090030300000F0F80808F8F81D
:1004800010B0A0A0F070FFFF0808F8F030300000B6
:100490003030FBFB30300008FBFB8080F070FFFF4A
:1004A00060F098080030300000103020FFFF30303E
:1004B000F8F81008F8F01008F8F03030000030308C
:1004C00000003030F8F80808F8F030300000303024
:1004D000F0F80808F8F0103020203010F8F808087C
:1004E000F8F0F0F020203010F0F80808F8F810309C
:1004F0002020F0F0F8F810181830300000003078A4
:1005000048C888202020301008FEFE08080010305F
:100510002020F8F80000F8F810302020303038F8AB
:10052000C0C0F83800103030100078F880C038387B
:10053000C080F8780030300000000030300018B87B
:10054000E0E0B81830300000303038F8C0C0F8387B
:100550000090F070100008C8E87818303020202093
:100560002020FEDF0101000070F08080FFFFF0F02E
:100570000101DFFE20208080F0700000E0101020DC
:10058000408080700000000000000000FE020202B7
:1005900002020202FE3020202020202020306800AD
:1005A000178040020A0A4F4C454420696E69742046
:1005B0006F6E20416464726573733A203078002B4B
:1005C0002D2D2D2D2D2D2D2D2D2D2D2D2D2D2D2D5B
:1005D0002D2D2D2D2B007C20202020456C65637453
:1005E000726F7363617065202020207C002B2D2D9D
:1005F0002D2D2D2D2D2D2D2D2D2D2D2D2D2D2D2D2B
:100600002D2D2B00000005072060000000000000D9
:10061000005F00000007000700147F147F14242AE5
:100620007F2A1223130864623649562050000807B7
:100630000300001C2241000041221C002A1C7F1CD8
:100640002A08083E080800807030000808080808DA
:10065000000060600020100804023E5149453E0041
:10066000427F400072494949462141494D3318149F
:10067000127F1027454545393C4A494931412111EE
:1006800009073649494936464949291E00001400E0
:100690000000403400000008142241141414141403
:1006A000004122140802015909063E415D594E7C61
:1006B0001211127C7F494949363E414141227F4116
:1006C00041413E7F494949417F090909013E414174
:1006D00051737F0808087F00417F41002040413F5F
:1006E000017F081422417F404040407F021C027F6E
:1006F0007F0408107F3E4141413E7F090909063EC3
:100700004151215E7F091929462649494932030191
:100710007F01033F4040403F1F2040201F3F4038A3
:10072000403F631408146303047804036159494D7E
:1007300043007F4141410204081020004141417FB4
:10074000040201020440404040400003070800202A
:10075000545478407F28444438384444442838442A
:1007600044287F385454541800087E090218A4A461
:100770009C787F0804047800447D40002040403D80
:10078000007F1028440000417F40007C04780478FA
:100790007C080404783844444438FC18242418188D
:1007A000242418FC7C0804040848545454240404E9
:1007B0003F44243C4040207C1C2040201C3C4030D6
:1007C000403C44281028444C9090907C4464544C05
:1007D0004400083641000000770000004136080060
:1007E00002010204023C2623263C207375636365E4
:1007F000737366756C000A0A4C454420696E69740F
:10080000202E2E2E0052657374617274696E6720FB
:10081000696E000A5246494420696E6974202E2E82
:100820002E205375636365737366756C200A0046EA
:1008300069726D77617265207665722E2000466F51
:10084000756E64206368697020504E3500504E35D7
:10085000333220737461727475702074696D6564CD
:10086000206F7574004469646E27742066696E6435
:1008700020504E35337820626F6172640A000A524C
:1008800046494420696E6974202E2E2E200A000AE3
:1008900072656C617920696E697420737563636534
:1008A000737366756C0000000000240027002A00A6
:1008B000000000080002010000030407000000001F
:1008C0000000000000030C0F30333C3FC0C3CCCF0E
:1008D000F0F3FCFF000000002300260029000102C5
:1008E00004081020408001020408102001020408BE
:1008F000102000000000250028002B000404040440
:1009000004040404020202020202030303030303B9
:10091000DD13691E11241FBECFEFD8E0DEBFCDBFAF
:1009200026E0A2E6B3E001C01D92A937B207E1F7C5
:1009300013E0A0E0B1E0E6E8F2E402C005900D9219
:10094000A236B107D9F714E0C9E8D4E004C0219772
:10095000FE010E94281FC838D107C9F70E94F6146B
:100960000C9436210C940000089508958FB7F894E4
:100970008091EF038FBF08958CBD9DBD0895CF93E7
:10098000DF93EC019C818E81981758F4E881F981FE
:100990000084F185E02D42E0CE0109958C818F5FC6
:1009A0008C83DF91CF910895DC01ED91FC9100845F
:1009B000F185E02D40E009940F931F93CF938C01B4
:1009C000FC016483C085C60F6C2F6F700E94D40435
:1009D0006C2F62956F706061C801CF911F910F916C
:1009E0000C94D404FC012781269526952695621740
:1009F00020F46583606B0C94D40408951F93CF9307
:100A0000DF93EC01142F8E81681718F4CE010E9439
:100A1000DC04612FCE01DF91CF911F910C94F20481
:100A2000CF92DF92EF92FF920F931F93CF93DF93BA
:100A3000EC01162FC42ED22E8F8186958695869531
:100A4000081710F00FEF080FFD2C0F15B0F08E8176
:100A5000181720F4612FCE010E94DC046F2DCE0107
:100A60000E94F204E12ECE1430F060E0CE010E942C
:100A7000BF04E394F8CFF394E8CF4D2D612FCE015E
:100A8000DF91CF911F910F91FF90EF90DF90CF906A
:100A90000C94FE040F9300914F060695069506955B
:100AA000015040914E06415020E060E088E496E01D
:100AB0000E94100581E090915206911101C080E0E2
:100AC0008093520660E488E496E00F910C94D4047D
:100AD0002F923F924F925F926F927F928F929F924E
:100AE000AF92BF92CF92DF92EF92FF920F931F933C
:100AF000CF93DF9300D000D01F92CDB7DEB7DC01DB
:100B00001B960D911C910115110509F468C19D8377
:100B10008C83F801449131965491319664903196CA
:100B20002491E22EF12CF7E0EF0EF11C73E0F59426
:100B3000E7947A95E1F7E982F80134963491319699
:100B4000E491631748F08E2F90E0FC01E30FF11D54
:100B50006E171F060CF487C06D3031F5AC81BD8176
:100B600016968C9181111AC081E090E00F900F9041
:100B70000F900F900F90DF91CF911F910F91FF90E9
:100B8000EF90DF90CF90BF90AF909F908F907F902D
:100B90006F905F904F903F902F90089560E08C8110
:100BA0009D810E94DC04E0CF6A3009F018C1EC811D
:100BB000FD818185D5808E9DD00C112487818695FD
:100BC00086958695D81630F08285882319F082E0C4
:100BD0008287D12C4D2D60E08C819D810E94FE0486
:100BE000AC81BD811A968C911A97823008F4BCCFE3
:100BF00015962C9115971B96ED91FC911C9700E092
:100C0000309739F03396E49119960C91E09F002DBE
:100C1000112410E0095F1F4F33E0159507953A95B1
:100C2000E1F78FEF820F080FEC81FD814681415083
:100C30006481CF010E941005AC81BD8119968C9111
:100C400019976D2D8E9D600D1124660F660F660F2E
:100C500017968C91861708F460E060648C819D8102
:100C60000E94D40481CF4527542745270A5F1F4F90
:100C7000631BEC81FD8121844230510508F06DC079
:100C8000452B09F0212C6E9CC0016F9C900D112406
:100C9000689FF001699FF00D11240E0F1F1F512C4A
:100CA000AC81BD811496BC91BA83EC81FD81F58144
:100CB000FB83862C912CAA24A394B12C312C8981FE
:100CC000381608F086C0412CAC81BD8119968C91F4
:100CD000481608F077C0311002C0442041F0EC8182
:100CE000FD8145814F5F6A81CF010E94FE04D12CB6
:100CF000C12CC61408F05AC0F801EC0DFD1D74900B
:100D0000552061F0EA14FB0449F4E72DF0E0052CCE
:100D100002C0F595E7950A94E2F77E2EAC81BD817D
:100D200019968C91823081F4442009F43BC072946E
:100D30008FE07822E72DF0E0EC53F74F7490672DA9
:100D40008C819D810E94BF04672D8C819D810E94B2
:100D5000BF04EFEFCE1ADE0ACCCF277038E0532E57
:100D6000521A211101C0512C50E040E030E020E047
:100D7000F801461740F4E40FF51FE4912E0F311DE2
:100D80004F5F5F4FF5CFE60FF11D6490E29EF001DB
:100D9000E39EF00DF29EF00D11248E0F9F1F080FA1
:100DA000191F7ECFB72DBF707B2EC4CFD12C2D1431
:100DB00039F060E08C819D810E94BF04D394F7CF0D
:100DC000439482CF3394080D191DFFEFAF1ABF0A69
:100DD00076CF6B818C819D810E94F204C5CE90E01C
:100DE00080E0C4CE2091CC03260F3327331F21325D
:100DF0003105ECF420917C04FC0190E080E024308B
:100E000069F082E00895A091CC032191AC01445592
:100E10005C4FA40FB52FB11D2C930196861798F344
:100E20008091CC03680F6093CC0380E0089581E04B
:100E300008950895E091350480913404E81730F462
:100E4000F0E0EA5CFB4F808190E008958FEF9FEF28
:100E5000089590913504809134042FEF3FEF981757
:100E600048F4E92FF0E0EA5CFB4F208130E09F5F1F
:100E700090933504C901089580913404909135040C
:100E8000891B990B0895CF92DF92EF92FF920F93F7
:100E90001F93CF93DF937C01CB018A0120918204C1
:100EA000222389F0EB016B01C40ED51ECC15DD05A4
:100EB00069F06991D701ED91FC910190F081E02DED
:100EC000C7010995F3CF642F0E94F206C801DF9194
:100ED000CF911F910F91FF90EF90DF90CF900895E9
:100EE000CF93DF931F92CDB7DEB769832091820441
:100EF0002223F9F02091A504203258F021E030E0BF
:100F0000FC013383228390E080E00F90DF91CF914A
:100F1000089580918304E82FF0E0EC57FB4F99810E
:100F200090838F5F809383048093A50481E090E099
:100F3000ECCF61E0CE0101960E94F206F7CF83303C
:100F400081F028F4813099F08230A9F0089587303B
:100F5000A9F08830C9F08430B1F4809180008F7D91
:100F600003C0809180008F7780938000089584B5BE
:100F70008F7784BD089584B58F7DFBCF8091B000BD
:100F80008F778093B00008958091B0008F7DF9CF66
:100F90001F93CF93DF93282F30E0F901E055F74FEF
:100FA0008491F901E252F74FD491F901E450F74FDF
:100FB000C491CC23A9F0162F81110E949F07EC2F1A
:100FC000F0E0EE0FFF1FEE50F74FA591B4918FB7F1
:100FD000F894EC91111108C0D095DE23DC938FBFFB
:100FE000DF91CF911F910895DE2BF8CF10927C04F2
:100FF00081E080937B041092560461E082E10E94BC
:10100000C80761E083E10E94C807E9EBF0E0808156
:101010008E7F808380818D7F808388E48093B80079
:1010200085E48093BC000895109235041092340436
:10103000109283041092A5040E94F60784EB94E0BA
:10104000909333048093320485EB94E090933104C1
:10105000809330040895CF93DF9391E09093AB0396
:101060008823B9F0C091B800D091BA008091BC003B
:101070008A7B8093BC0060E082E10E94C80760E048
:1010800083E10E94C8070E94F607D093BA00C0937C
:10109000B800DF91CF910895CF93DF9390E0FC01EA
:1010A000E252F74F24918450974FFC01849188239A
:1010B000D1F090E0880F991FFC01EA55F74FA591F8
:1010C000B491FC01EE50F74FC591D49161110EC05F
:1010D0009FB7F8948C91E22FE0958E238C93288112
:1010E000E223E8839FBFDF91CF9108958FB7F894F3
:1010F000EC91E22BEC938FBFF6CF8230910538F064
:10110000880F991F880F991F05970197F1F7089588
:10111000AF92BF92CF92DF92EF92FF920F931F9305
:10112000CF93DF93EC0188819981892B89F06EBD83
:101130000DB407FEFDCFBEB48B2DDF91CF911F9173
:101140000F91FF90EF90DF90CF90BF90AF900895F8
:101150008885998511E0892B09F010E8AA24A394C9
:10116000862F812309F0A12C062F2C813D814E81F1
:101170005F8160E271EA87E090E00E94061FF22E34
:10118000B02EE12CC22ED12CFF2019F0C6010E94F6
:101190007D088A85877F09F042C08D858F3F89F061
:1011A000902F912381E009F480E08A1551F0EF85BA
:1011B000F8898F89992369F19081892B8083AA24EA
:1011C000A394E989FA898081998D892B8083FF20F6
:1011D00019F0C6010E947D088E858F3F39F0EB899A
:1011E000FC898081988D892309F0E12AE989FA89AF
:1011F0009081898D8095892380838E858F3F09F02A
:10120000BE2C88859985892BB9F5110F1111BCCF9A
:1012100093CF9081809589238083A12CD2CFE989B7
:10122000FA898081998D892B8083FF2019F0C6016E
:101230000E947D088D858F3F49F0EF85F8898F8961
:10124000902F9123A9F09081892B8083E989FA89D5
:101250009081898D8095892380838E858F3F69F267
:10126000EB89FC898081988D892339F2E12AC5CFE9
:10127000908180958923E9CF1695C8CFCF92DF92D0
:10128000EF92FF920F931F93CF93DF93EC018B01AB
:101290006A01790188819981892B31F0EA81FB818A
:1012A000808191810E94BC0460E08B850E94C80708
:1012B000F8016081CE010E9488088601EC0CFD1CBB
:1012C000E016F10641F06FEFCE010E948808F801A8
:1012D00081938F01F5CF61E08B850E94C80781E083
:1012E000DF91CF911F910F91FF90EF90DF90CF9002
:1012F00008953FB7F8948091A7039091A803A09117
:10130000A903B091AA0326B5A89B05C02F3F19F0E9
:101310000196A11DB11D3FBFBA2FA92F982F882775
:10132000BC01CD01620F711D811D911D42E0660F50
:10133000771F881F991F4A95D1F70895CF92DF92A2
:10134000EF92FF920F931F93CF93DF93D091A50459
:1013500081E0D13208F09CC0C091A4040E947909B8
:101360006B017C0180917C0481116CC082E08093D0
:101370007C0481E080937B048FEF80937A04109249
:101380007904D0937804A4E8B4E0E8E5F4E080E0E0
:10139000D8138DC01092570480915704CC0FC82BDE
:1013A000C093570480915604813009F084C0109294
:1013B00056040E9479096B017C0180915704809347
:1013C000BB0080917E0490917F04A0918004B09135
:1013D0008104892B8A2B8B2BA1F00E947909009123
:1013E0007E0410917F0420918004309181046C1957
:1013F0007D098E099F09061717072807390708F482
:1014000042C08091BC0083FDD8CF85EC8093BC00A6
:101410000E9479096B017C0180917C04823009F47F
:101420004CC080917A048F3F09F469C080917A049E
:10143000803209F466C080917A04803309F463C075
:1014400084E026C080917E0490917F04A091800466
:10145000B0918104892B8A2B8B2B09F483CF0E94B6
:10146000790900917E0410917F04209180043091CD
:1014700081046C197D098E099F0906171707280733
:10148000390708F06FCF80917D040E942B0885E01A
:10149000109283041092A50410928204DF91CF91E0
:1014A0001F910F91FF90EF90DF90CF9008959D9145
:1014B00091938F5F6DCF85EEA9CF80917E0490913F
:1014C0007F04A0918004B0918104892B8A2B8B2BFF
:1014D00009F4A2CF0E94790900917E0410917F0443
:1014E00020918004309181046C197D098E099F0937
:1014F000061717072807390708F08ECFC4CF80E0FA
:10150000C7CF82E0C5CF83E0C3CFEFE4F5E09181A0
:1015100062818081238131E0309382042093A4048E
:10152000109283041092A50460956923682B86EAC3
:1015300094E00E9470070C949E09CF92DF92EF9284
:10154000FF920F931F93CF93DF93D82FC62F613253
:1015500008F098C00E9479096B017C0180917C049D
:1015600081116BC081E080937C0480937B049FEFAA
:1015700090937A04109279049C0F9093780480934E
:10158000570480915704DD0FD82BD09357048091D6
:101590005604813009F078C0109256040E947909EF
:1015A0006B017C01809157048093BB0080917E0485
:1015B00090917F04A0918004B0918104892B8A2BA3
:1015C0008B2BA1F00E94790900917E0410917F0479
:1015D00020918004309181046C197D098E099F0946
:1015E000061717072807390708F448C08091BC0080
:1015F00083FDD8CF85EC8093BC000E9479096B01F4
:101600007C0180917C04813009F440C08091790490
:101610008C1710F4C0917904E8E5F4E0A6E3B4E097
:1016200080E08C1355C08C2FDF91CF911F910F91CB
:10163000FF90EF90DF90CF90089580917E0490917D
:101640007F04A0918004B0918104892B8A2B8B2B7D
:1016500009F484CF0E94790900917E0410917F04DF
:1016600020918004309181046C197D098E099F09B5
:10167000061717072807390708F070CF80917D04F7
:101680000E942B08C0E0CFCF85EEB5CF80917E04BD
:1016900090917F04A0918004B0918104892B8A2BC2
:1016A0008B2B09F4AECF0E94790900917E04109132
:1016B0007F0420918004309181046C197D098E098A
:1016C0009F09061717072807390708F09ACFD6CFC2
:1016D00091919D938F5FA5CF8F929F92AF92BF9272
:1016E000CF92DF92EF92FF924B015C010E94790949
:1016F0006B017C010E9479096C197D098E099F0993
:10170000683E734081059105A8F321E0821A910893
:10171000A108B10888EEC80E83E0D81EE11CF11CB8
:1017200081149104A104B10429F7FF90EF90DF9098
:10173000CF90BF90AF909F908F9008950895DB0158
:1017400014964D915C9115976D917C91DC01ED9112
:10175000FC910280F381E02D0994CF93DF93EC019B
:1017600062E070E080E090E00E946C0BBE0188E4D3
:1017700096E00E949F0BBE0182EB94E0DF91CF9137
:101780000C949F0BAF92BF92CF92DF92EF92FF9299
:101790000F931F93CF93DF936C017B018B01040F99
:1017A000151FEB015E01AE18BF08C017D10759F035
:1017B0006991D601ED91FC910190F081E02DC60177
:1017C0000995892B79F7C501DF91CF911F910F9171
:1017D000FF90EF90DF90CF90BF90AF900895FC0105
:1017E000538D448D252F30E0842F90E0821B930B86
:1017F000541710F0CF96089501970895FC01918D2C
:10180000828D981761F0A28DAE0FBF2FB11D5D962E
:101810008C91928D9F5F9F73928F90E008958FEFD0
:101820009FEF0895FC01918D828D981731F0828D84
:10183000E80FF11D858D90E008958FEF9FEF0895DB
:10184000FC01918D228D892F90E0805C9F4F821B3F
:1018500091098F739927089582EB94E00E94200CE0
:1018600021E0892B09F420E0822F089580E090E0A8
:10187000892B29F00E942C0C81110C9400000895F2
:10188000FC01A48DA80FB92FB11DA35ABF4F2C91F5
:10189000848D90E001968F739927848FA689B789EC
:1018A0002C93A089B1898C91837080648C93938DE3
:1018B000848D981306C00288F389E02D80818F7D86
:1018C00080830895EF92FF920F931F93CF93DF933E
:1018D000EC0181E0888F9B8D8C8D98131AC0E8896C
:1018E000F989808185FF15C09FB7F894EE89FF893B
:1018F0006083E889F98980818370806480839FBFD9
:1019000081E090E0DF91CF911F910F91FF90EF90D8
:101910000895F62E0B8D10E00F5F1F4F0F731127E8
:10192000E02E8C8D8E110CC00FB607FCFACFE88923
:10193000F989808185FFF5CFCE010E94400CF1CF5F
:10194000EB8DEC0FFD2FF11DE35AFF4FF0829FB797
:10195000F8940B8FEA89FB8980818062CFCFEF9268
:10196000FF920F931F93CF93DF938C017B01D0E005
:10197000C0E0F701EC0FFD1F6491662339F0C80148
:101980000E94620C892B11F02196F3CFCE01DF91DA
:10199000CF911F910F91FF90EF900895CF93DF9318
:1019A000EC01888D8823B9F0AA89BB89E889F98977
:1019B0008C9185FD03C0808186FD0DC00FB607FCAC
:1019C000F7CF8C9185FFF2CF808185FFEDCFCE01DF
:1019D0000E94400CE9CFDF91CF9108958F929F92A2
:1019E000AF92BF92CF92DF92EF92FF920F931F932D
:1019F000CF93DF9300D0CDB7DEB77C016B0110E051
:101A000000E0AA24A39492E0992EF701818992899B
:101A1000009701F19A8221E030E0AE014F5F5F4F05
:101A2000BE016E5F7F4F0E943E0981E09981913037
:101A300009F434C080E0C114D10429F0065F1F4FBF
:101A4000C016D10658F16AE070E080E090E00E9494
:101A50006C0BDBCF208130E0F901E055F74F84912A
:101A6000F901E252F74FB490F901E450F74F849036
:101A7000882079F081110E949F07E82DF0E0EE0F99
:101A8000FF1FEC52F74FA591B491EC91BE2281E07B
:101A900009F480E08A25817009F4CDCF0F900F9072
:101AA000DF91CF911F910F91FF90EF90DF90CF903A
:101AB000BF90AF909F908F900895682F86EA94E032
:101AC0000C9470070F931F93CF93DF93EC01062FB5
:101AD000142F8E85813120F4882329F0411103C011
:101AE0000E949E091E868E85811112C08D8591E00F
:101AF000909382048093A404109283041092A5040E
:101B000060E4111101C060E086EA94E00E94700771
:101B1000602F86EA94E00E947007123041F48E85AF
:101B20008F5F8E87DF91CF911F910F9108950E9453
:101B30009E091E86F7CF90E080E0089590E0FC01BA
:101B4000EE0FFF1FE852F74FA591B4912C91FC01C5
:101B5000EE56FC4F30812083880F991FFC01E45D15
:101B6000FE4F0190F081E02D80810895CF92DF92A9
:101B7000EF92FF920F931F93CF93DF931F92CDB7F6
:101B8000DEB7062FD72E142FFC018189928900978A
:101B9000A9F023E02983242F30E0462F572FBE01E0
:101BA0006F5F7F4F0E943E090F90DF91CF911F9191
:101BB0000F91FF90EF90DF90CF90089562E070E07A
:101BC00080E090E00E946C0B62E0610F84E20E9472
:101BD0009D0A109235048093340486EA94E00E94B2
:101BE0002907C02EE02EFD2C61E070E080E090E03F
:101BF0000E946C0B86EA94E00E942907F70181930A
:101C00007F018E2F8C19811778F3CECFFB010190C5
:101C10000020E9F73197AF01461B570BDC01ED912E
:101C2000FC910280F381E02D09948F929F92AF92F4
:101C3000BF92EF92FF920F931F93CF93DF93CDB795
:101C4000DEB7A1970FB6F894DEBF0FBECDBF7C0103
:101C5000FA01CB0119A2223008F42AE08E010F5DAF
:101C60001F4F822E912CB12CA12CBF01A5019401F4
:101C70000E94061FF901CA016A300CF5605DD801A7
:101C80006E938D01232B242B252B79F790E080E098
:101C9000109721F0BD01C7010E94060EA1960FB654
:101CA000F894DEBF0FBECDBFDF91CF911F910F9192
:101CB000FF90EF90BF90AF909F908F900895695CD8
:101CC000DECF60E771E00C94060ECF93DF93EC015A
:101CD00062E070E080E090E00E946C0BBE0188E45E
:101CE00096E00E949F0B88E496E00E94610EBE0180
:101CF00082EB94E00E949F0B82EB94E0DF91CF9106
:101D00000C94610E0F931F93CF93DF93EC010E940D
:101D1000060E8C01CE010E94610E800F911FDF9193
:101D2000CF911F910F9108950F931F93CF93DF933E
:101D3000EC010E94AF0C8C01CE010E94610E800F5D
:101D4000911FDF91CF911F910F9108950F931F93D2
:101D5000CF93DF93EC018B0162E070E080E090E0D4
:101D60000E946C0B61E08EE00E94C80782EB94E059
:101D70000E94610E63E771E082EB94E00E94060E20
:101D8000B80182EB94E00E949F0B66E771E082EB62
:101D900094E00E94060EBE0182EB94E00E949F0B2D
:101DA00068E771E082EB94E00E94820E64E170E0EB
:101DB00080E090E00E946C0B60E08EE0DF91CF91BC
:101DC0001F910F910C94C8072F923F924F925F92F0
:101DD0006F927F928F929F92AF92BF92CF92DF923B
:101DE000EF92FF920F931F93CF93DF9300D000D019
:101DF00000D01F92CDB7DEB77C014A012DB63EB6AA
:101E0000DC015196CD90DC90BB24B394B60EA62E87
:101E1000A0946B2C712CC114D10409F495C04DB65B
:101E20005EB670E0685F7F4FEDB7FEB7E61BF70B5D
:101E30000FB6F894FEBF0FBEEDBF0DB71EB70F5F14
:101E40001F4F81E08183D80111961C921197129641
:101E50001C9212978FEF13968C9313971496BC9243
:101E600014971596AC92159784ED16968C932DB712
:101E70003EB7285F3F4FF90163EDA301415051097F
:101E80008E2F821B90E0841795073CF480519C4F65
:101E9000DC018C918193680FF3CF60956083118290
:101EA000B8E06B0E711CF60180819181892B39F0AD
:101EB0000280F381E02D808191810E94BC0460E06A
:101EC000D6011B968C910E94C8075801F5016191BB
:101ED0005F01C6010E948808C501801B910B861511
:101EE0009705A0F361E0D6011B968C910E94C8076C
:101EF0000FB6F8945EBE0FBE4DBEB401C7010E947E
:101F0000EE0C182F811162C010E0812F0FB6F894EB
:101F10003EBE0FBE2DBE27960FB6F894DEBF0FBE95
:101F2000CDBFDF91CF911F910F91FF90EF90DF9088
:101F3000CF90BF90AF909F908F907F906F905F9069
:101F40004F903F902F90089562E070E080E090E025
:101F50000E946C0B81E08093820484E28093A4044D
:101F6000109283041092A50480E00E945D0D80E031
:101F70000E945D0D8FEF0E945D0D8B2D0E945D0D07
:101F80008A2D0E945D0D84ED0E945D0DC12C83EDB4
:101F9000D82EB1E06B1A71080C2D10E0061517054C
:101FA0005CF400511C4FF80180810E945D0DD80146
:101FB0008C91D80EC394F0CF8D2D80950E945D0D2D
:101FC00080E00E945D0D0E949E0997CFF7018189F4
:101FD0009289009721F123E02F8326E030E0AE01C3
:101FE0004F5F5F4FBE01695F7F4F0E943E0946E031
:101FF00050E06AE171E0CE0101960E941021892B28
:1020000009F082CFD70151968D919C91892B09F4CB
:102010007CCFB401C7010E94EE0C182F76CF46E0AA
:10202000BE016F5F7F4FC7010E94B60DE0CF85ED07
:102030008093BC0080917E0490917F04A0918004E5
:10204000B09181040796A11DB11D23E0B695A79517
:10205000979587952A95D1F72091BC0024FD03C060
:1020600010927C04089540917E0450917F04609109
:10207000800470918104452B462B472B69F3009710
:10208000A105B10541F025E32A95F1F7000001977C
:10209000A109B109E1CF80917D040C942B08CF9365
:1020A000DF93EC0188819981009711F00E94CA1F8B
:1020B000198218821D821C821B821A82DF91CF91A5
:1020C0000895FC0180819181009711F00C94CA1F42
:1020D00008950F931F93CF93DF93EC01888199812B
:1020E000009759F02A813B812617370730F081E0AD
:1020F000DF91CF911F910F9108958B016F5F7F4FFB
:102100000E945320009759F0998388831B830A8388
:102110002C813D81232B59F7FC011082E8CF80E010
:10212000E7CFEF92FF920F931F93CF93DF93611549
:10213000710541F480E0DF91CF911F910F91FF90E5
:10214000EF90089541155105B1F07B01EC010C8130
:102150001D81040F151FB8010E946910882351F3D7
:10216000288139818C819D81B701820F931F0E9444
:102170002F211D830C8381E0DECFFB010190002025
:10218000E9F73197AF01461B570B0C949110EF9272
:10219000FF920F931F93CF93DF93EC017B018A0192
:1021A000BA010E94691081110BC0CE010E944F102C
:1021B000CE01DF91CF911F910F91FF90EF90089585
:1021C0001D830C83B701888199810E942F21F0CF54
:1021D000EF92FF920F931F93CF93DF93CDB7DEB7AC
:1021E00062970FB6F894DEBF0FBECDBF8C01CB0156
:1021F000F8011182108213821282158214824AE041
:102200009E012F5F3F4F7901B9010E949A1EF7018D
:1022100001900020E9F73197AF014E195F09B7012E
:10222000C8010E94C71062960FB6F894DEBF0FBEB9
:10223000CDBFDF91CF911F910F91FF90EF90089547
:10224000FC01118210821382128215821482FB011A
:1022500001900020E9F73197AF01461B570B0C9412
:10226000C7101F920F920FB60F9211242F933F9316
:102270004F935F936F937F938F939F93AF93BF938E
:10228000EF93FF938091B900887F803609F44AC0AC
:10229000F0F5883209F4A7C018F5803109F49BC025
:1022A000B8F4882309F4F9C0883009F494C0FF9188
:1022B000EF91BF91AF919F918F917F916F915F91BE
:1022C0004F913F912F910F900FBE0F901F90189537
:1022D000883109F488C0803251F780937A0414C0A1
:1022E000803409F49DC040F48033B9F38833F9F6A3
:1022F00080937A0485ECB0C0803509F485C08835B8
:1023000009F496C0883499F60E941710D0CF883906
:1023100009F48CC038F5883729F050F4883611F06C
:10232000803729F683E080937C041092EE0357C037
:10233000883809F47BC0803919F0803809F0B7CFAC
:102340008091EE03803208F071C0E091EE0381E0ED
:102350008E0F8093EE038091BB00F0E0E253FC4FC0
:1023600080833DC0803B39F0E0F4803A09F479C0C5
:10237000883A09F09CCF84E080937C041092CD03CE
:102380001092CC03E0913204F091330409958091CE
:10239000CC0381110FC081E08093CC031092AC0379
:1023A00009C0803C09F4A6CF883C09F4A3CF883B40
:1023B00009F07DCFE091CD0381E08E0F8093CD03B6
:1023C000F0E0E455FC4F80818093BB009091CD03F9
:1023D0008091CC0329C0809157048093BB0085EC89
:1023E0008093BC0064CF9091790480917804981711
:1023F00058F5E091790481E08E0F80937904F0E044
:10240000E85AFB4F8081E9CFE091790481E08E0F9B
:10241000809379048091BB00F0E0E85AFB4F808301
:1024200090917904809178049817C8F285E8D8CF04
:10243000E091790481E08E0F809379048091BB0054
:10244000F0E0E85AFB4F808380917B0481115CCFE0
:1024500081E08093560484EA8093BC0010927C044F
:1024600026CF85EC8093BC0010927C048091EE0313
:10247000803230F4E091EE03F0E0E253FC4F108242
:102480006091EE0370E0E0913004F09131048EEC45
:1024900093E009951092EE030ACF10927A0434CF9C
:1024A0001F920F920FB60F9211242F933F938F9389
:1024B0009F93AF93BF938091A3039091A403A091A6
:1024C000A503B091A6033091A20323E0230F2D377B
:1024D00058F50196A11DB11D2093A2038093A3037B
:1024E0009093A403A093A503B093A6038091A703A0
:1024F0009091A803A091A903B091AA030196A11DF0
:10250000B11D8093A7039093A803A093A903B09350
:10251000AA03BF91AF919F918F913F912F910F90FF
:102520000FBE0F901F90189526E8230F0296A11D4D
:10253000B11DD2CF1F920F920FB60F9211242F937D
:102540003F934F935F936F937F938F939F93AF933B
:10255000BF93EF93FF9382EB94E00E94400CFF91B6
:10256000EF91BF91AF919F918F917F916F915F910B
:102570004F913F912F910F900FBE0F901F90189584
:102580001F920F920FB60F9211242F938F939F9348
:10259000EF93FF93E091C204F091C3048081E09136
:1025A000C804F091C90482FD1BC090818091CB04C6
:1025B0008F5F8F732091CC04821741F0E091CB04A0
:1025C000F0E0EE54FB4F958F8093CB04FF91EF9199
:1025D0009F918F912F910F900FBE0F901F90189584
:1025E0008081F4CF1F920F920FB60F9211242F9378
:1025F0003F934F935F936F937F938F939F93AF938B
:10260000BF93EF93FF9382E00E949E0DFF91EF91A5
:10261000BF91AF919F918F917F916F915F914F91FA
:102620003F912F910F900FBE0F901F9018951F9202
:102630000F920FB60F9211242F933F934F935F93F6
:102640006F937F938F939F93AF93BF93EF93FF937A
:1026500081E00E949E0DFF91EF91BF91AF919F91FC
:102660008F917F916F915F914F913F912F910F903B
:102670000FBE0F901F9018951F920F920FB60F92DA
:1026800011242F933F934F935F936F937F938F9377
:102690009F93AF93BF93EF93FF9380E00E949E0DB3
:1026A000FF91EF91BF91AF919F918F917F916F912A
:1026B0005F914F913F912F910F900FBE0F901F9000
:1026C0001895FF920F931F93CF93DF938C01F62EF3
:1026D0008FEFF801808381838CE190E00E942E1FB0
:1026E000EC01FB868DE08C878CE08E878BE08D87FC
:1026F0006F2D70E0FB01E450F74FE491F0E0EE0F36
:10270000FF1FEE50F74F859194919E8B8D8BFB01AF
:10271000E252F74FE491EA8FE7E0F9E0E491F0E06C
:10272000EE0FFF1FEE50F74F85919491988B8F8796
:10273000E9EEF8E0E491EF8BE8E0F9E0E491F0E015
:10274000EE0FFF1FEC52F74F859194919C8B8B8B72
:10275000EAEEF8E0E491E88FE9E0F9E0E491F0E0F6
:10276000EE0FFF1FEE50F74F859194919A8B898B56
:10277000EBEEF8E0E491E98F80EA96E8A1E0B0E0C2
:102780008C839D83AE83BF83198618861A861B8E21
:1027900082E090E00E942E1F23E7FC01208311823B
:1027A0009B838A8319821882F801D28BC18BDF91B7
:1027B000CF911F910F91FF9008951092A90410924C
:1027C000A80488EE93E0A0E0B0E08093AA04909380
:1027D000AB04A093AC04B093AD0422E431E0309399
:1027E000A7042093A6041092B5041092B404809319
:1027F000B6049093B704A093B804B093B90484E5E9
:1028000091E09093B3048093B20485EC90E09093B0
:10281000BF048093BE0484EC90E09093C104809345
:10282000C00480EC90E09093C3048093C20481ECD8
:1028300090E09093C5048093C40482EC90E0909360
:10284000C7048093C60486EC90E09093C9048093FB
:10285000C8041092CB041092CC041092CD041092B4
:10286000CE046FE771E08FE696E00E94201165E9E3
:1028700071E089E696E00E94201160EA71E083E64B
:1028800096E00E9420116EEA71E08DE596E00E94CC
:10289000201165EB71E087E596E00E94201110920F
:1028A0004B0610924A0681E080935106109254061E
:1028B0001092530686E691E090934906809348066D
:1028C000E6E0F6E028E436E081E04FEF5FEF92E0EB
:1028D0008083118213821282158214825783468369
:1028E00010861286118683871486958786871786B9
:1028F000108A118A128A76962E173F0749F768E0E8
:1029000083EF95E00E94611367E080EE95E00E94FE
:10291000611364E08DEC95E00E94611362E08AEB44
:1029200095E00E94611383E1E3EFF5E0AEE6B5E0E8
:1029300001900D928A95E1F783E1E0EEF5E0A1E8E0
:10294000B5E001900D928A95E1F783E1EDECF5E0B9
:10295000A4E9B5E001900D928A95E1F783E1EAEBF5
:10296000F5E0A7EAB5E001900D928A95E1F71092A3
:102970004F05109250051092510510925205109279
:102980005305109254051092550510925605109259
:102990005705109258051092590510925A05109239
:1029A0005B0510925C0510925D0510925F05109218
:1029B0005E051092610510926005109263051092F9
:1029C00062051092650510926405109267051092D9
:1029D0006605109269051092680510926B051092B9
:1029E0006A0510926D0510926C050895CF93DF93E0
:1029F000CDB7DEB7E8970FB6F894DEBF0FBECDBFF8
:102A0000789484B5826084BD84B5816084BD85B5C9
:102A1000826085BD85B5816085BD80916E008160D5
:102A200080936E001092810080918100826080937B
:102A3000810080918100816080938100809180007D
:102A40008160809380008091B10084608093B100A8
:102A50008091B00081608093B00080917A008460A2
:102A600080937A0080917A00826080937A008091CE
:102A70007A00816080937A0080917A0080688093E8
:102A80007A001092C1000E94140888E48093B80074
:102A9000E091C204F091C30482E08083E091BE041F
:102AA000F091BF041082E091C004F091C10480E174
:102AB00080831092CA04E091C604F091C70486E0B6
:102AC0008083E091C404F091C5048081806180839B
:102AD000E091C404F091C504808188608083E09116
:102AE000C404F091C504808180688083E091C404AF
:102AF000F091C50480818F7D808364E670E080E082
:102B000090E00E946C0B61E08EE00E944C086DEE3C
:102B100075E082EB94E00E94940E66ED75E082EB26
:102B200094E00E94940E6FEB75E082EB94E00E94BB
:102B3000940E64E170E080E090E00E946C0B69EB21
:102B400071E08E010F5F1F4FC8010E9420116DEBD5
:102B500071E0CE0141960E942011B801CE0141964C
:102B60000E94A60ECE0141960E946110C8010E94EB
:102B7000611069EB71E0C8010E9420116BEC71E0FB
:102B8000CE0141960E942011B801CE0141960E94CB
:102B9000A60ECE0141960E946110C8010E946110EC
:102BA00069EB71E0C8010E94201167ED71E0CE0170
:102BB00041960E942011B801CE0141960E94A60EB6
:102BC000CE0141960E946110C8010E94611064EA22
:102BD00075E082EB94E00E94AF0C20E14CE350E002
:102BE00060E070E082EB94E00E94150E82EB94E0CE
:102BF0000E94610E6AE070E080E090E00E946C0B41
:102C0000109256068CE38093550610924C06109253
:102C10004D06EEE9F5E0A590B490E0EAF5E0D49039
:102C2000E1EAF5E0E491E0934E06E2EAF5E0E491B2
:102C3000E0934F06E3EAF5E0E491E0935006F12CCF
:102C4000E12CED1460F4F501EE0DFF1D649188E4B4
:102C500096E00E94D4042FEFE21AF20AF2CF10920B
:102C600052060E944A0580914F06803429F40E9442
:102C70004A0581E0809352068AE890E090935406DA
:102C8000809353060E944A056FE770E082EB94E060
:102C90000E94940E6AE070E080E090E00E946C0B6D
:102CA00084E096E0909354068093530664EE71E0BE
:102CB00082EB94E00E94820E88E199E20FB6F894CC
:102CC000A895809360000FBE9093600082EB94E023
:102CD0000E94610E61EF71E0C8010E942011C801DD
:102CE0000E94650EC8010E9461106AE070E080E0F9
:102CF00090E00E946C0B62E771E0CE0149960E9461
:102D0000201198E0C92ED12CEE24E394FC2CE09203
:102D10008204C092A404109283041092A5040E941D
:102D20009E098111A4C061E072E0C8010E942011D7
:102D3000C8010E94AD0BC8010E94611069E072E0F9
:102D4000C8010E942011C8010E94AD0BC8010E9459
:102D500061101A8A198A1C8A1B8A1E8A1D8A4AE0F7
:102D6000B801C6010E94A51EF80101900020E9F7F4
:102D70003197AF01401B510BB801CE0141960E9423
:102D8000C710898D9A8D009709F44FC069897A8997
:102D90006115710509F447C04B8D5C8D2D893E8905
:102DA0004217530708F43FC00E942F218D899E8946
:102DB0009E8F8D8F1E8A1D8ACE0141960E946110C2
:102DC0001A8219821C821B821E821D82698D7A8D55
:102DD0006115710529F04D8D5E8DC8010E94C710E7
:102DE000C8010E94AD0BC8010E9461106EE072E044
:102DF000C8010E942011C8010E94650EC8010E94EE
:102E00006110E8ECEF0DE83008F0B9C1F0E0E55FE3
:102E1000F84E0C94281F2617B318B318B318B61819
:102E2000B918BF18BC180E94CA1F89899A899A8F3D
:102E3000898F8B899C899C8F8B8F8D899E899E8F92
:102E40008D8F1A8A198A1C8A1B8AB4CF62E172E0BC
:102E5000C8010E942011C8010E94650EC8010E948D
:102E6000611061E070E080E090E00E946C0B3FEF49
:102E7000C31AD30A68E7C616D10409F047CF60E544
:102E800072E0C8010E942011C8010E94650EC801AD
:102E90000E9461106AE070E080E090E00E946C0B9C
:102EA000CE0149960E94611062E672E0C8010E945C
:102EB0002011C8010E94AD0BC8010E94611066EF8D
:102EC00077E082EB94E00E94AF0C6AE070E080E073
:102ED00090E00E946C0BAEE02A2EA1E03A2E84E135
:102EE00091E09DAB8CABB2E06B2E712C55245394CA
:102EF00088E0482ED101CD90DD901D01ECA9FDA9FF
:102F000081909190FDABECAB5401AA0CBB1CA80CBA
:102F1000B91CC5010E942E1F009721F4B12CA12CD1
:102F2000912C812CF601E450F74FE491F0E0EE0F84
:102F3000FF1FEE50F74F259134913FAB2EABF601BA
:102F4000E252F74FE4912AEEB3012603A001279F36
:102F5000500D1124BA016A5F794F7B01DB019C9609
:102F60005C929C979D961C929D979F969C928E92A8
:102F70009E97D196BC92AE92D097D396DC92CE9289
:102F8000D297D4961C92D497D6969C938E93D5972D
:102F9000D7965C92D797F2E0D896FC93D897D996BB
:102FA0001C92D997DA965C92DA97DB961D921D9265
:102FB0001D921C92DE97DF962EA93FA911963C9395
:102FC0002E931296EC930E94CA1FD7FC04C060E0B7
:102FD0008C2D0E944C08D701D2968D919C9197FD23
:102FE00008C061E00E944C0860E0F70182A90E94DD
:102FF000C807D7019D965C9266E0E62E66E0F62E45
:10300000D12CC12CF70182819381C816D90608F012
:1030100003C1E685D70119968D919C911A971B964D
:103020002C91E213B3C09601220F331F2C0D3D1DCE
:10303000820F931FD7011B96EC911B97E80FF92F76
:10304000F11D10821C96EC911C97E80FF92FF11DD1
:1030500010821D962C911D97820F911DFC011082EC
:1030600019968D919C91892B09F479C0D7011F96EF
:103070008D909D90AD90BC9052970E9479096815F3
:1030800079058A059B0538F40E947909F70167875D
:10309000708B818B928B0E947909D7011F968D903E
:1030A0009D90AD90BC905297681979098A099B0947
:1030B0006C32714081059105C8F2F894F701848162
:1030C00095819CA78BA70184F285E02D5F012FEFEE
:1030D000A21AB20A80818BABD7019C915396ED91D5
:1030E000FC91549755968C91992309F45BC090817B
:1030F000982B9AAB90818095892389AB89A98EA75B
:103100004DA63AA949A96BA95DA52EA58BA59CA59D
:10311000D501308367FD232F5A952083242F39F062
:10312000661F00C000004083000000C0F2CF58E0DE
:103130006D9140830000019761F7D7015496FC938D
:10314000EE9353976BAB5DA72EA79CA78BA77894A4
:103150000E947909F7016787708B818B928BFFEF53
:10316000CF1ADF0A4FCF63E272E072CE6DE272E0F7
:103170006FCE6DE372E06CCE62E472E069CE68E41B
:1031800072E066CE66246394712CB4CE9601220F51
:10319000331F220F331F820F931FE80FF92FF11DEA
:1031A000108248CF9081982B9AAB9081809589238B
:1031B00089AB89A988AB4FA63AA949A96BA95FA594
:1031C00028A98BA59CA5D501308367FD232F00C0BE
:1031D00000C0208300C000C000C000C000C0408309
:1031E0000000242F5A9541F0661F000000C000C067
:1031F00000C000C000C0E8CF58E06D9100C040831F
:1032000000C0019709F7D7015496FC93EE935397AA
:103210006BAB5FA728AB99CF6AE070E080E090E0ED
:103220000E946C0B26E1E20EF11C32E3E31636E05D
:10323000F30609F0E5CE6A94672809F0A3CF68E2A7
:1032400070E080E090E00E946C0B6AEE77E082EB29
:1032500094E00E94940E6AE070E080E090E00E94AA
:103260006C0B6FE672E0C8010E942011C8010E9439
:10327000650EC8010E946110A8958EE6E82E85E0D3
:10328000F82EB12CA12C92E0692E28EE822E28E097
:10329000922E34E1732E6CE772E0C8010E94201177
:1032A000C8010E94AD0BC8010E946110B501C801A0
:1032B0000E94E810C8010E94650EC8010E946110BA
:1032C0006EE778E082EB94E00E94AF0CD701519654
:1032D000CD90DC90C114D10409F4D8C061E0F601AE
:1032E00083850E944C0861E0D6011B968C910E9458
:1032F000C807F60180819181892B09F4A2C05FB6CD
:10330000F89480919503811126C0E6E0F9E084915C
:10331000F4019491E82FF0E0EE0FFF1FEA55F74F0C
:10332000A591B4918C91982321F461E08AE00E94E8
:10333000C80761E08AE00E944C088CB580618CBDB2
:103340008CB580648CBD61E08DE00E944C0861E02A
:103350008BE00E944C08809195038F5F80939503CA
:103360005FBE81E0D6015B968C936092F00344E6E9
:1033700050E061E0C7010E94E40EF2E3F093F00335
:1033800025E02093F1033FEF3093F20381E0809337
:10339000F3032093F40344E650E065E0C7010E9484
:1033A000E40ED12CC12C6092F00344E650E061E0C1
:1033B000C7010E94E40E811188C065E678E082EBC7
:1033C00094E00E94AF0C66E0C616D104B4F16DE43F
:1033D00078E082EB94E00E94AF0C65E070E080E062
:1033E00090E00E946C0B65E078E082EB94E00E9434
:1033F000940E62E370E080E090E00E946C0BE3E0EA
:103400002E2E312C412C512C2AE0B201A10182EB4D
:1034100094E00E94150E82EB94E00E94610E64E637
:1034200070E080E090E00E946C0B71E0271A310898
:103430004108510849F70C940000BFEFCB1ADB0A92
:10344000B2CF61E084850E944C08F60182858B7FB3
:10345000D1F460E084850E94C807F60185858F3F1E
:1034600049F061E00E944C0861E0D6011D968C9104
:103470000E94C807F60186858F3F09F472CF60E08D
:103480000E944C086ECF61E08485E5CF0E9414084D
:1034900061E0F70181810E94C80760E0D7011196C1
:1034A0008C910E94C80760E971E080E090E00E9482
:1034B0006C0B61E0F70181810E94C8076AE070E04F
:1034C00080E090E00E946C0B58CF4CE060EF73E01E
:1034D000C7010E94B60D46E050E060E071E080EF69
:1034E00093E00E941021892B09F067CF2090F70309
:1034F0003090F803322423243224512C412C542CB4
:10350000432C322C22248091F903282A542C432C5A
:10351000322C22248091FA03282A211431044104F8
:10352000510409F44ACF6EE378E082EB94E00E9404
:10353000AF0C452D55276627772720E182EB94E0D5
:103540000E94150E82EB94E00E94610E6FE278E01B
:1035500082EB94E00E94AF0C442D50E070E060E0FC
:103560002AE082EB94E00E94150E6EE282EB94E07A
:103570000E94620C432D50E070E060E02AE082EB94
:1035800094E00E94150E82EB94E00E94610E70920E
:10359000F00381E08093F1037092F2038093F303D0
:1035A00044E650E064E0C7010E94E40E882331F055
:1035B00048E060EF73E0C7010E94B60D62E370E07F
:1035C00080E090E00E946C0B63E178E082EB94E095
:1035D0000E94AF0C6FE872E0C8010E942011C80180
:1035E0000E94650EC8010E946110A8958FEFA81A6D
:1035F000B80A93E1E90EF11CA3E0AA16B10409F0A0
:103600004ACEA8956FE370E0CE0141960E94E81083
:1036100068E972E0C8010E9420114D895E896989BC
:103620007A89C8010E949110811103C0C8010E94CB
:103630004F101A8E198E1C8E1B8E1E8E1D8E698148
:103640007A816115710531F04D815E81CE01499617
:103650000E94C710CE0149960E94650ECE01499680
:103660000E946110C8010E946110CE0141960E9423
:1036700061108FE3809352050E94140880915005D9
:103680008093530561E0809152050E949D0A10923B
:10369000350480933404811101C0FFCF86EA94E0A1
:1036A0000E942907809350053AE0C32E31E0D32EC3
:1036B00046E0E42E41E0F42E5AE0852E51E0952EAE
:1036C000AA24A394B12C20915105C501F6010080D4
:1036D00002C0880F991F0A94E2F7922F982B9093BB
:1036E000510590914F058095892380934F050E9445
:1036F000850AD7012C91B2E0EB0EF11CC501F60151
:10370000008002C0880F991F0A94E2F790914F053C
:10371000222309F429C1892B80934F050E94850A31
:1037200066EA72E0C8010E942011C8010E94AD0B38
:10373000C8010E946110D6016D917D916D01C80193
:103740000E94E810C8010E94AD0BC8010E946110E0
:103750006EEA72E0C8010E942011C8010E94AD0B00
:10376000C8010E946110F701329760817181C80120
:103770000E94E810C8010E94AD0BC8010E946110B0
:103780008E149F0409F09FCF1A8219821C821B821B
:103790001E821D8266E170E0C8010E9469108111DD
:1037A000E6C0C8010E944F10CE0101960E94650E2E
:1037B000CE0101960E946110A8952FB7F8948091D0
:1037C000A3039091A403A091A503B091A6032FBFDA
:1037D0008093960390939703A0939803B0939903D3
:1037E00062E070E080E090E00E946C0B8E010F5E62
:1037F0001F4F69EB71E0C8010E94201168EB72E075
:10380000CE0101960E942011B801CE0101960E94BE
:10381000A60ECE0101960E946110C8010E9461109F
:1038200082EB94E00E94610E63EC72E0CE0101969F
:103830000E942011CE0101960E94650ECE010196D4
:103840000E9461103E01B5E26B0E711C20E4C22E95
:103850002FB7F8948091A3039091A403A091A5039E
:10386000B091A6032FBF40919603509197036091AA
:10387000980370919903841B950BA60BB70B88389E
:103880009341A105B10598F02FB7F8948091A30357
:103890009091A403A091A503B091A6032FBF80939C
:1038A000960390939703A0939803B0939903809104
:1038B000A103811107C2A89586E0D3011D928A95C4
:1038C000E9F762E771E0CE014F960E942011EAE924
:1038D000F3E0FFABEEAB130122E331E03DAB2CABE9
:1038E0009EE6E92E95E0F92E512C412CDD24D3944F
:1038F00048AED801E7E01D92EA95E9F786E0E6E2F6
:10390000F1E0DE01599601900D928A95E1F71A8255
:103910001982FAE4F093F003D092F1031092F203CB
:1039200050E040E063E0C7010E94E40E882389F183
:10393000D70151968D919C91892B21F144E160EF43
:1039400073E0C7010E94B60D8091F703813009F53D
:103950009090FC03ADEFB3E0F8018E2F801B89152A
:10396000F8F48D918193F9CF80958923D5CE86E1A6
:1039700090E09E838D836FE878E089819A810E9430
:10398000931E12CF70E060E0C7010E94EE0C81111F
:10399000D5CF6EE073E0CE014F960E94BD10C8C037
:1039A00086E0FE017996D7011A9601900D928A95CC
:1039B000E1F7A92CB12CA501B801C70102960E941C
:1039C0001D21F7019186C092F003D092F103F0E639
:1039D000F093F203D092F30386E0F7013A96A4EF56
:1039E000B3E001900D928A95E1F740E063E1649DB8
:1039F0009001659D300D112422593A4F842F90E09B
:103A00008A159B055CF4FC01E051FC4F820F931F6B
:103A1000DC0112968C9182874F5FF0CF6AE0690DCE
:103A200044E650E0C7010E94E40E8823B9F1F10199
:103A3000A080B1804CE060EF73E0C7010E94B60D3A
:103A40008091F70381112AC0C092F003D092F10354
:103A5000F0E3F093F203D092F30344E650E064E025
:103A6000C7010E94E40E882301F14AE160EF73E090
:103A7000C7010E94B60D8091F703811116C080E145
:103A8000E8EFF3E0DE01119601900D928A95E1F7DF
:103A9000898181110DC069EE72E002C061ED72E0B2
:103AA00082EB94E00E94820E74CF6DED72E0F8CF4D
:103AB0002FEFA21AB20AD101AD92BC92AA24A3940C
:103AC000B12CBE016F5F7F4F8CA99DA90E9426215A
:103AD000892B09F4ECC0F1018080918069E073E0EA
:103AE000CE014F960E94BD104AE0B801C5010E9468
:103AF0009A1EF80101900020E9F73197AF01401BB1
:103B0000510BB801CE014F960E9491108FEF8A0D94
:103B1000F8ADF81306C02FEF821A920AD1018D92E8
:103B20009C92EFEFAE1ABE0AF4E0AF16B10449F66C
:103B300041E050E060E172E0CE014F960E949110AA
:103B4000AEA9BFA92D913D91BFABAEABF101819163
:103B500091911F0128173907F9F069EB71E0C8014D
:103B60000E94201161E173E0CE0149960E9420116C
:103B7000B801CE0149960E94A60ECE0149960E9438
:103B80006110C8010E94611083E0F301AAE9B3E06B
:103B900001900D928A95E1F7FFEF4F1A5F0A23E13A
:103BA000E20EF11C6CA97DA96D5F7F4F7DAB6CAB04
:103BB00073E04716510409F09BCECE014F960E9448
:103BC0006110A8958091A003811164C06FE173E03A
:103BD00082EB94E00E94820E64E670E080E090E068
:103BE0000E946C0B80914F05826080934F050E946C
:103BF000850A80914F058B7F80934F050E94850A2F
:103C000068E873E180E090E00E946C0BA895A895AD
:103C100068EB7BE080E090E00E946C0B80914F05A8
:103C20008D7F80934F050E94850AFF24F394F092C4
:103C3000A003A89569E273E082EB94E00E94820EF3
:103C4000F092A1036FE373E082EB94E00E94820E96
:103C50000FB6F894A8958091600088618093600009
:103C6000109260000FBE69EB71E0C8010E94201144
:103C700064E573E0CE0101960E942011B801CE01E7
:103C800001960E94A60ECE0101960E946110C80105
:103C90000E94611080E090E0892B09F4D9CD0E9448
:103CA0002C0C882309F4D4CD0E940000D1CDB8ADEE
:103CB000B23009F036CF6BE073E0CE014F960E9430
:103CC000BD102FCF64EF71E080E090E00E946C0B9C
:103CD000E1CFCF93DF93C8E4D6E0669789859A85D4
:103CE0000E94CA1F8E819F8197FD03C060E00E94E1
:103CF0004C0886E0C630D80781F787E596E00E9439
:103D000061108DE596E00E94611083E696E00E94C6
:103D1000611089E696E00E9461108FE696E0DF91DF
:103D2000CF910C946110FB01DC0105900D920020F5
:103D3000E1F70895BB274A3031F4992322F4BDE21C
:103D4000909581959F4F0C94A61EBB27FB0155278C
:103D5000AA27880F991FAA1FA41710F0A41B8395E8
:103D60005051B9F7A05DAA3308F0A95DA19300975F
:103D700079F7B111B1931192CB010C94BF1EDC0104
:103D8000FC01672F71917723E1F7329704C07C9192
:103D90006D9370836291AE17BF07C8F308952F9299
:103DA0003F924F925F926F927F928F929F92AF92CB
:103DB000BF92CF92DF92EF92FF920F931F93CF9318
:103DC000DF93CDB7DEB7CA1BDB0B0FB6F894DEBFAF
:103DD0000FBECDBF09942A88398848885F846E84D5
:103DE0007D848C849B84AA84B984C884DF80EE801F
:103DF000FD800C811B81AA81B981CE0FD11D0FB628
:103E0000F894DEBF0FBECDBFED010895A1E21A2EDA
:103E1000AA1BBB1BFD010DC0AA1FBB1FEE1FFF1F6E
:103E2000A217B307E407F50720F0A21BB30BE40BBE
:103E3000F50B661F771F881F991F1A9469F7609505
:103E40007095809590959B01AC01BD01CF010895BF
:103E5000EE0FFF1F0590F491E02D09940F931F932F
:103E6000CF93DF938230910510F482E090E0E091EF
:103E70007706F091780630E020E0B0E0A0E03097DF
:103E800099F42115310509F44AC0281B390B243057
:103E90003105D8F58A819B816115710589F1FB0196
:103EA00093838283FE0111C040815181028113817D
:103EB00048175907E0F04817590799F4109761F02F
:103EC00012960C93129713961C933296CF01DF91A2
:103ED000CF911F910F910895009377061093780664
:103EE000F4CF2115310551F04217530738F0A901DD
:103EF000DB019A01BD01DF01F801C1CFEF01F9CF6C
:103F00009093780680937706CDCFFE01E20FF31FE2
:103F1000819391932250310939832883D7CF2091FF
:103F2000750630917606232B41F4209122013091C1
:103F3000230130937606209375062091200130915D
:103F400021012115310541F42DB73EB740912401DF
:103F500050912501241B350BE0917506F0917606F2
:103F6000E217F307A0F42E1B3F0B2817390778F050
:103F7000AC014E5F5F4F2417350748F04E0F5F1FAF
:103F80005093760640937506819391939FCFF0E00E
:103F9000E0E09CCFCF93DF930097E9F0FC013297EC
:103FA00013821282A0917706B0917806ED0130E07D
:103FB00020E01097A1F420813181820F931F20917E
:103FC0007506309176062817390709F061C0F0931D
:103FD0007606E0937506DF91CF910895EA01CE173A
:103FE000DF07E8F54A815B819E0141155105B1F774
:103FF000E901FB83EA8349915991C40FD51FEC175E
:10400000FD0761F4808191810296840F951FE9017B
:1040100099838883828193819B838A83F0E0E0E0A7
:1040200012968D919C9113970097B9F52D913C9123
:104030001197CD010296820F931F20917506309142
:1040400076062817390739F6309751F51092780619
:1040500010927706B0937606A0937506BCCFD383F3
:10406000C28340815181840F951FC817D90761F41D
:104070004E5F5F4F88819981480F591F518340835C
:104080008A819B81938382832115310509F0B0CF0A
:10409000F0937806E09377069ECFFD01DC01C0CF58
:1040A00013821282D7CFB0E0A0E0E9E5F0E20C94F1
:1040B000D11E8C01009751F4CB010E942E1F8C0160
:1040C000C801CDB7DEB7E0E10C94ED1EFC01E60FB0
:1040D000F71F9C0122503109E217F30708F49DC035
:1040E000D901CD91DC911197C617D70798F0C5304B
:1040F000D10530F3CE0104978617970708F3C61B46
:10410000D70B2297C193D1936D937C93CF010E94DB
:10411000CA1FD6CF5B01AC1ABD0A4C018C0E9D1E86
:10412000A0917706B0917806512C412CF12CE12C0E
:10413000109731F58091750690917606881599054E
:1041400009F05CC04616570608F058C0809120015F
:1041500090912101009741F48DB79EB740912401C1
:1041600050912501841B950BE817F90708F055C0FD
:10417000F0937606E0937506F90171836083A0CF12
:104180008D919C91119712966C90129713967C903A
:104190001397A815B90559F56C0142E0C40ED11C5E
:1041A000CA14DB0420F1AC014A195B09DA0112964A
:1041B000159780F06282738251834083D9016D9399
:1041C0007C93E114F10471F0D7011396FC93EE9304
:1041D000129776CF22968C0F9D1FF90191838083D1
:1041E000F301EFCFF0937806E093770669CF481696
:1041F000590608F42C017D01D3019ACFCB010E940E
:104200002E1F7C01009749F0AE01B8010E941D21CC
:10421000C8010E94CA1F870153CF10E000E050CFB1
:10422000FB01DC0104C08D910190801921F4415003
:104230005040C8F7881B990B0895FB01DC0102C0B0
:1042400001900D9241505040D8F70895FB01DC01D8
:104250008D91019080190110D9F3990B0895FB01FC
:10426000DC0101900D920020E1F7089514E0C9E807
:10427000D4E004C0FE010E94281F2196CA38D1074D
:06428000C9F7F894FFCF1E
:104286000000FF06FAD50000010001000200090047
:10429600000000001F00000000000000FF00FF00FB
:1042A600000079068000FFFFFFFFFFFF6B006C0038
:1042B6006D004148005344004746000000000000DE
:1042C6000000700743079B0D19073C0729071A07CB
:1042D60000000000620CC20BEF0BCE0C200CFE0B94
:1042E600120C000000006805C20B9B0D9E0B620DB0
:1042F6000D0A002142722C002C446F6E652E00536D
:1043060074757474676172742047616C6C65727938
:1043160020412F420030322E30322E3230323100E0
:1043260076657273696F6E20312E30535400427277
:10433600524649440055564C00535953002168656E
:10434600616465725F626567696E002168656164B4
:1043560065725F656E64002173657475705F626572
:1043660067696E0057445420656E6461626C6564CB
:1043760000202020493243205363616E6E65723AF5
:1043860000466F756E643A20002028307800292098
:1043960020004B6579706164202864656661756CE0
:1043A6007429004B65797061642F494F004F6C6525
:1043B6006420202864656661756C7429004F6C65FD
:1043C600640052656C617900556E6B6E6F776E0096
:1043D600493243207363616E20636F6D706C657440
:1043E60065004C656420696E6974202E2E2E0020AF
:1043F6007375636365737366756C21005246494431
:104406002D52656164657220696E69743A20007385
:10441600756363657373210072656C6179696E6992
:1044260074206F6E200052656C6179205B005D2000
:1044360073657420746F20002173657475705F65F1
:104446006E64000A3D3D3D53544152543D3D3D0A84
:104456000041757468206661696C65640072656107
:1044660064206661696C6564007265616420656DCF
:104476007074792064617461626C6F636B202D3E89
:1044860020696E76616C6964004300554B005F5F7E
:10449600004361726473204368616E676564004718
:1044A600415445204F50454E0057616974696E6707
:1044B60020666F72206E65772047616D6521005218
:1044C60065737461727420696E20726571756972A4
:1044D6006564210047616D6520436F6D706C65747E
:0244E60065006F
:00000001FF
