:100000000C94BD070C94E5070C94E5070C940D14B3
:100010000C94E8130C94C3130C94E5070C94E507B7
:100020000C94E5070C94E5070C94E5070C94E507A0
:100030000C94E5070C94E5070C94E5070C94E50790
:100040000C9421130C94E5070C9491130C946B13EE
:100050000C94E5070C94E5070C94E5070C94E50770
:100060000C9432140C94E507AEB08180A1A6A83F91
:10007000AD8B32C8D300D580D91FDA12DB40AF0078
:100080000005072060000000000000005F00000085
:1000900007000700147F147F14242A7F2A122313D9
:1000A00008646236495620500008070300001C22ED
:1000B00041000041221C002A1C7F1C2A08083E081F
:1000C0000800807030000808080808000060600020
:1000D00020100804023E5149453E00427F40007214
:1000E000494949462141494D331814127F1027458B
:1000F0004545393C4A4949314121110907364949A9
:100100004936464949291E000014000000403400C9
:10011000000008142241141414141400412214087D
:1001200002015909063E415D594E7C1211127C7F35
:10013000494949363E414141227F4141413E7F4943
:100140004949417F090909013E414151737F08082E
:10015000087F00417F41002040413F017F08142279
:10016000417F404040407F021C027F7F0408107F97
:100170003E4141413E7F090909063E4151215E7FD2
:1001800009192946264949493203017F01033F40A5
:1001900040403F1F2040201F3F4038403F6314082D
:1001A000146303047804036159494D43007F4141BE
:1001B000410204081020004141417F040201020471
:1001C0004040404040000307080020545478407FDE
:1001D000284444383844444428384444287F385418
:1001E00054541800087E090218A4A49C787F0804BF
:1001F000047800447D40002040403D007F102844AA
:100200000000417F40007C047804787C0804047876
:100210003844444438FC1824241818242418FC7C3E
:1002200008040408485454542404043F44243C4023
:1002300040207C1C2040201C3C4030403C44281086
:1002400028444C9090907C4464544C4400083641BF
:10025000000000770000004136080002010204029D
:100260003C2623263C000000002300260029000035
:10027000030C0F30333C3FC0C3CCCFF0F3FCFF5333
:1002800075636365737366756C001C620A0C20608D
:1002900002020508070D080204040507020402060D
:1002A00007060707070707070707020207070705EB
:1002B0000A070707080606080804060707090809C9
:1002C000070908070808070C0708060406040809B8
:1002D000030606060606050606020407020A0606C7
:1002E000060605050506060A0606050602060809AD
:1002F000000000007E7E3030070700070700000086
:100300000000C0D8F8DED8F8DE1800300000300059
:100310000000387C64FF64E4C8102020F020301016
:100320003C7E427E3CC02018E6F010F0E000000069
:1003300000300000001030203010DCFE227EDC8017
:100340006020103020202010302007070000F8FE29
:1003500007011070E0800107FEF880E07010120CB9
:100360003F0C120000000000202020FC2020200074
:100370000000100000000000F0702020202000008D
:100380000000000030300080E07C1F03C0F030002F
:100390000000FCFE020202FEFC1030202020301083
:1003A0000404FEFE0000202030302020040682C21B
:1003B000623E1C203030202020200406222222FE13
:1003C000DC10302020203010C0A09884FEFE800079
:1003D000000000303000001E1E1212F2E210302029
:1003E00020203010F8FC161212F2E01030202020ED
:1003F0003010020282E27A1E060020301000000057
:10040000DCFE222222FEDC103020202030103C7E38
:10041000424242FEFC0020202030100018183030EC
:100420001818F07060609090080804000000001038
:10043000102090909090909090000000000000009C
:100440000408089090606020101000000000046212
:10045000721E0C0030300000F00CF4FA0AFAFA04B4
:100460000CF00030205050505010100080F8FE86E4
:10047000FEF88030300000003030FEFE22223EFCCC
:10048000C030302020203010F8FC060202020400A8
:10049000103020202010FEFE02020206FCF8303050
:1004A000202020301000FEFE222222223030202088
:1004B0002020FEFE22222222303000000000F8FC24
:1004C00006024242C2C40010302020203030FEFE1E
:1004D00020202020FEFE303000000000303002FEE0
:1004E000FE022030302000020202FEFE20202020EA
:1004F0003010FEFE70D88C06023030000010302024
:10050000FEFE000000000030302020202020FE0EE3
:100510003CF0C0300CFEFE30000000000000303027
:10052000FE061C38E0C000FE300000000010303035
:10053000F8FC0602020206FCF800103020202030F1
:100540001000FEFE4242427E3C30300000000000BF
:10055000F8FC0602020206FCF80010302060E0B051
:100560009080FEFE2262E2BE1C00303000000010CF
:1005700030201C3E322262E2C410202020203010A5
:10058000020202FEFE020202000000303000000003
:10059000FEFE00000000FEFE103020202020301063
:1005A0000E7EF080F07E0E000030303000000E7EB7
:1005B000F080E03E3EE080F07E0E00003030000033
:1005C000000030300000068EF870F88E06303000E3
:1005D00000003030060E18F0F0180E060000003053
:1005E0003000000002C2F23E0E02303020202020F7
:1005F000FFFF0101F0F08080031F7CE0800000001D
:100600000030F0C00101FFFF8080F0F010180C06F0
:10061000060C1810000000000000000000000000A0
:100620000000000000808080808080808080010346
:1006300002000000C0E82828F8F0103020203030F8
:10064000FFFF0808F8F0303020203010F0F80808DC
:100650000810103020202010F0F80808FFFF10309C
:1006600020203030F0F848487870103020202010DA
:1006700008FEFF09090030300000F0F80808F8F81B
:1006800010B0A0A0F070FFFF0808F8F030300000B4
:100690003030FBFB30300008FBFB8080F070FFFF48
:1006A00060F098080030300000103020FFFF30303C
:1006B000F8F81008F8F01008F8F03030000030308A
:1006C00000003030F8F80808F8F030300000303022
:1006D000F0F80808F8F0103020203010F8F808087A
:1006E000F8F0F0F020203010F0F80808F8F810309A
:1006F0002020F0F0F8F810181830300000003078A2
:1007000048C888202020301008FEFE08080010305D
:100710002020F8F80000F8F810302020303038F8A9
:10072000C0C0F83800103030100078F880C0383879
:10073000C080F8780030300000000030300018B879
:10074000E0E0B81830300000303038F8C0C0F83879
:100750000090F070100008C8E87818303020202091
:100760002020FEDF0101000070F08080FFFFF0F02C
:100770000101DFFE20208080F0700000E0101020DA
:10078000408080700000000000000000FE020202B5
:1007900002020202FE3020202020202020306800AB
:1007A000178040020A0A4F4C454420696E69742044
:1007B0006F6E20416464726573733A203078002B49
:1007C0002D2D2D2D2D2D2D2D2D2D2D2D2D2D2D2D59
:1007D0002D2D2D2D2B007C20202020456C65637451
:1007E000726F7363617065202020207C002B2D2D9B
:1007F0002D2D2D2D2D2D2D2D2D2D2D2D2D2D2D2D29
:100800002D2D2B00000005072060000000000000D7
:10081000005F00000007000700147F147F14242AE3
:100820007F2A1223130864623649562050000807B5
:100830000300001C2241000041221C002A1C7F1CD6
:100840002A08083E080800807030000808080808D8
:10085000000060600020100804023E5149453E003F
:10086000427F400072494949462141494D3318149D
:10087000127F1027454545393C4A494931412111EC
:1008800009073649494936464949291E00001400DE
:100890000000403400000008142241141414141401
:1008A000004122140802015909063E415D594E7C5F
:1008B0001211127C7F494949363E414141227F4114
:1008C00041413E7F494949417F090909013E414172
:1008D00051737F0808087F00417F41002040413F5D
:1008E000017F081422417F404040407F021C027F6C
:1008F0007F0408107F3E4141413E7F090909063EC1
:100900004151215E7F09192946264949493203018F
:100910007F01033F4040403F1F2040201F3F4038A1
:10092000403F631408146303047804036159494D7C
:1009300043007F4141410204081020004141417FB2
:100940000402010204404040404000030708002028
:10095000545478407F284444383844444428384428
:1009600044287F385454541800087E090218A4A45F
:100970009C787F0804047800447D40002040403D7E
:10098000007F1028440000417F40007C04780478F8
:100990007C080404783844444438FC18242418188B
:1009A000242418FC7C0804040848545454240404E7
:1009B0003F44243C4040207C1C2040201C3C4030D4
:1009C000403C44281028444C9090907C4464544C03
:1009D000440008364100000077000000413608005E
:1009E00002010204023C2623263C0A72656C6179EE
:1009F00020696E6974207375636365737366756CC3
:100A0000001C620A0C206002020508070D0802049F
:100A1000040507020402060706070707070707077A
:100A2000070202070707050A07070708060608085E
:100A300004060707090809070908070808070C073B
:100A40000806040604080903060606060605060647
:100A5000020407020A0606060605050506060A063A
:100A600006050602060809000000007E7E303007F9
:100A7000070007070000000000C0D8F8DED8F8DE45
:100A8000180030000030000000387C64FF64E4C8C7
:100A9000102020F02030103C7E427E3CC02018E622
:100AA000F010F0E0000000003000000010302030B6
:100AB00010DCFE227EDC80602010302020201030F0
:100AC0002007070000F8FE07011070E0800107FE14
:100AD000F880E07010120C3F0C12000000000020A3
:100AE0002020FC202020000000100000000000F06A
:100AF000702020202000000000000030300080E046
:100B00007C1F03C0F030000000FCFE020202FEFC6D
:100B1000103020202030100404FEFE000020203081
:100B2000302020040682C2623E1C2030302020206B
:100B3000200406222222FEDC10302020203010C0AB
:100B4000A09884FEFE8000000000303000001E1ED1
:100B50001212F2E210302020203010F8FC1612128F
:100B6000F2E010302020203010020282E27A1E06CD
:100B700000203010000000DCFE222222FEDC1030BB
:100B800020202030103C7E424242FEFC00202020EB
:100B9000301000181830301818F07060609090080D
:100BA0000804000000001010209090909090909009
:100BB0000000000000000004080890906060201011
:100BC00010000000000462721E0C0030300000F0C3
:100BD0000CF4FA0AFAFA040CF0003020505050508D
:100BE00010100080F8FE86FEF880303000000030E3
:100BF00030FEFE22223EFCC030302020203010F893
:100C0000FC060202020400103020202010FEFE022A
:100C1000020206FCF83030202020301000FEFE22B8
:100C2000222222303020202020FEFE2222222230CA
:100C30003000000000F8FC06024242C2C40010303E
:100C40002020203030FEFE20202020FEFE3030000C
:100C5000000000303002FEFE022030302000020290
:100C600002FEFE202020203010FEFE70D88C0602EE
:100C700030300000103020FEFE0000000000303058
:100C80002020202020FE0E3CF0C0300CFEFE300064
:100C900000000000003030FE061C38E0C000FE30CE
:100CA00000000000103030F8FC0602020206FCF8DA
:100CB000001030202020301000FEFE4242427E3CD8
:100CC00030300000000000F8FC0602020206FCF8CA
:100CD0000010302060E0B09080FEFE2262E2BE1C78
:100CE0000030300000001030201C3E322262E2C48E
:100CF00010202020203010020202FEFE020202001C
:100D000000003030000000FEFE00000000FEFE107B
:100D1000302020202030100E7EF080F07E0E00006B
:100D200030303000000E7EF080E03E3EE080F07E0D
:100D30000E000030300000000030300000068EF859
:100D400070F88E0630300000003030060E18F0F0DB
:100D5000180E06000000303000000002C2F23E0E05
:100D600002303020202020FFFF0101F0F0808003BE
:100D70001F7CE0800000000030F0C00101FFFF8018
:100D800080F0F010180C06060C181000000000008F
:100D90000000000000000000000000008080808053
:100DA0008080808080010302000000C0E82828F8CD
:100DB000F0103020203030FFFF0808F8F0303020ED
:100DC000203010F0F808080810103020202010F013
:100DD000F80808FFFF103020203030F0F84848783D
:100DE0007010302020201008FEFF0909003030006C
:100DF00000F0F80808F8F810B0A0A0F070FFFF08A5
:100E000008F8F0303000003030FBFB30300008FBD9
:100E1000FB8080F070FFFF60F09808003030000029
:100E2000103020FFFF3030F8F81008F8F01008F804
:100E3000F030300000303000003030F8F80808F8AA
:100E4000F0303000003030F0F80808F8F0103020B2
:100E5000203010F8F80808F8F0F0F020203010F0FA
:100E6000F80808F8F810302020F0F0F8F8101818FA
:100E70003030000000307848C8882020203010082A
:100E8000FEFE08080010302020F8F80000F8F810E6
:100E9000302020303038F8C0C0F838001030301022
:100EA0000078F880C03838C080F878003030000012
:100EB000000030300018B8E0E0B8183030000030E2
:100EC0003038F8C0C0F8380090F070100008C8E85A
:100ED000781830302020202020FEDF010100007033
:100EE000F08080FFFFF0F00101DFFE20208080F025
:100EF000700000E0101020408080700000000000B2
:100F0000000000FE02020202020202FE3020202047
:100F10002020202030206F6B0A004B6579706164BF
:100F20003A202E2E2E0000000000240027002A0068
:100F300000000000250028002B0004040404040421
:100F40000404020202020202030303030303010278
:100F50000408102040800102040810200102040847
:100F60001020000000080002010000030407000038
:100F700000000000000051150E1C11241FBECFEF11
:100F8000D8E0DEBFCDBF25E0A2EEB2E001C01D92E9
:100F9000A336B207E1F712E0A0E0B1E0EAE5FDE335
:100FA00002C005900D92A23EB107D9F717E0CCEB35
:100FB000D7E004C02197FE010E94A01CCB3BD107C3
:100FC000C9F70E947E160C94A01E0C94000096E0B7
:100FD000899FD0011124A754BB4F90967C936E93A8
:100FE0005F9791E091969C939197E0912605F091FF
:100FF000270590912505992339F0309751F08111FB
:1010000008C08091D5040994309719F05C968C91B2
:10101000FACF0895833081F028F4813099F082303E
:10102000A9F008958730A9F08830C9F08430B1F470
:10103000809180008F7D03C0809180008F778093A6
:101040008000089584B58F7784BD089584B58F7D21
:10105000FBCF8091B0008F778093B000089580918E
:10106000B0008F7DF9CF1F93CF93DF93282F30E00F
:10107000F901EE59F04F8491F901E25BF04FD49100
:10108000F901E65CF04FC491CC23A9F0162F811131
:101090000E940A08EC2FF0E0EE0FFF1FE05DF04F1A
:1010A000A591B4918FB7F894EC91111108C0D09527
:1010B000DE23DC938FBFDF91CF911F910895DE2B4C
:1010C000F8CFCF93DF9390E0FC01E25BF04F2491E7
:1010D000865C904FFC0184918823C9F090E0880FD2
:1010E000991FFC01EA5DF04FA591B491FC01E05D10
:1010F000F04FC591D49161110DC09FB7F8948C91B8
:10110000209582238C938881282328839FBFDF9199
:10111000CF910895623051F49FB7F8943C91822F9B
:10112000809583238C93E8812E2BEFCF8FB7F89493
:10113000EC912E2B2C938FBFEACF3FB7F894809180
:10114000860390918703A0918803B091890326B507
:10115000A89B05C02F3F19F00196A11DB11D3FBFEF
:10116000BA2FA92F982F8827BC01CD01620F711DBE
:10117000811D911D42E0660F771F881F991F4A95B8
:10118000D1F708958F929F92AF92BF92CF92DF9244
:10119000EF92FF924B015C010E949D086B017C0164
:1011A0000E949D086C197D098E099F09683E734055
:1011B00081059105A8F321E0821A9108A108B108E0
:1011C00088EEC80E83E0D81EE11CF11C8114910446
:1011D000A104B10429F7FF90EF90DF90CF90BF906A
:1011E000AF909F908F9008952FB7F89460918203ED
:1011F0007091830380918403909185032FBF08959C
:101200000F931F93CF93DF93C82FD62F86E0C89FED
:10121000F0011124E754FB4F11A2878D90A181307A
:101220009105F1F058F082309105F1F1039709F43E
:1012300040C0DF91CF911F910F9108956623C9F3AC
:1012400061E070E08C2F0E94E7070E94F408609331
:101250001105709312058093130590931405E9CF3F
:101260000E94F408009111051091120520911305B8
:1012700030911405AB01BC01401B510B620B730B89
:101280008091230590912405B0E0A0E08417950794
:10129000A607B70748F462E070E08C2FDF91CF918A
:1012A0001F910F910C94E70763E070E0D111C1CF5B
:1012B000F4CF70E060E0F1CF089508950895809133
:1012C0007D0390917E03891B990B08950895DB019E
:1012D00014964D915C9115976D917C91DC01ED9187
:1012E000FC910280F381E02D0994CF93DF93EC0110
:1012F00062E070E080E090E00E94C208BE0182E3FC
:1013000095E00E946709BE018AED93E0DF91CF91DD
:101310000C946709AF92BF92CF92DF92EF92FF9247
:101320000F931F93CF93DF936C017B018B01040F0D
:10133000151FEB015E01AE18BF08C017D10759F0A9
:101340006991D601ED91FC910190F081E02DC601EB
:101350000995892B79F7C501DF91CF911F910F91E5
:10136000FF90EF90DF90CF90BF90AF900895FC0179
:10137000538D448D252F30E0842F90E0821B930BFA
:10138000541710F0CF96089501970895FC01918DA0
:10139000828D981761F0A28DAE0FBF2FB11D5D96A3
:1013A0008C91928D9F5F9F73928F90E008958FEF45
:1013B0009FEF0895FC01918D828D981731F0828DF9
:1013C000E80FF11D858D90E008958FEF9FEF089550
:1013D000FC01918D228D892F90E0805C9F4F821BB4
:1013E00091098F73992708958AED93E00E94E80987
:1013F00021E0892B09F420E0822F089580E090E01D
:10140000892B29F00E94F40981110C9400000895A1
:10141000FC01A48DA80FB92FB11DA35ABF4F2C9169
:10142000848D90E001968F739927848FA689B78960
:101430002C93A089B1898C91837080648C93938D57
:10144000848D981306C00288F389E02D80818F7DFA
:1014500080830895EF92FF920F931F93CF93DF93B2
:10146000EC0181E0888F9B8D8C8D98131AC0E889E0
:10147000F989808185FF15C09FB7F894EE89FF89AF
:101480006083E889F98980818370806480839FBF4D
:1014900081E090E0DF91CF911F910F91FF90EF904D
:1014A0000895F62E0B8D10E00F5F1F4F0F7311275D
:1014B000E02E8C8D8E110CC00FB607FCFACFE88998
:1014C000F989808185FFF5CFCE010E94080AF1CF0E
:1014D000EB8DEC0FFD2FF11DE35AFF4FF0829FB70C
:1014E000F8940B8FEA89FB8980818062CFCFEF92DD
:1014F000FF920F931F93CF93DF938C017B01D0E07A
:10150000C0E0F701EC0FFD1F6491662339F0C801BC
:101510000E942A0A892B11F02196F3CFCE01DF9188
:10152000CF911F910F91FF90EF900895CF93DF938C
:10153000EC01888D8823B9F0AA89BB89E889F989EB
:101540008C9185FD03C0808186FD0DC00FB607FC20
:10155000F7CF8C9185FFF2CF808185FFEDCFCE0153
:101560000E94080AE9CFDF91CF910895CF93DF93CE
:10157000EC019C818E81981758F4E881F9810084F0
:10158000F185E02D42E0CE0109958C818F5F8C833F
:10159000DF91CF910895DC01ED91FC910084F185FC
:1015A000E02D40E009940F931F93CF938C01FC0131
:1015B0006483C085C60F6C2F6F700E94CB0A6C2F9E
:1015C00062956F706061C801CF911F910F910C946B
:1015D000CB0AFC012781269526952695621720F4D3
:1015E0006583606B0C94CB0A08951F93CF93DF93B0
:1015F000EC01142F8E81681718F4CE010E94D30AD3
:10160000612FCE01DF91CF911F910C94E90ACF9207
:10161000DF92EF92FF920F931F93CF93DF93EC0132
:10162000162FC42ED22E8F81869586958695081703
:1016300010F00FEF080FFD2C0F15B0F08E8118176A
:1016400020F4612FCE010E94D30A6F2DCE010E949B
:10165000E90AE12ECE1430F060E0CE010E94B60A15
:10166000E394F8CFF394E8CF4D2D612FCE01DF91B5
:10167000CF911F910F91FF90EF90DF90CF900C943E
:10168000F50A2F923F924F925F926F927F928F92C4
:101690009F92AF92BF92CF92DF92EF92FF920F9301
:1016A0001F93CF93DF9300D000D01F92CDB7DEB74A
:1016B000DC011B960D911C910115110509F468C1FF
:1016C0009D838C83F80144913196549131966490B6
:1016D00031962491E22EF12CF7E0EF0EF11C73E02D
:1016E000F594E7947A95E1F7E982F801349634911C
:1016F0003196E491631748F08E2F90E0FC01E30FE0
:10170000F11D6E171F060CF487C06D3031F5AC81EA
:10171000BD8116968C9181111AC081E090E00F90E6
:101720000F900F900F900F90DF91CF911F910F911D
:10173000FF90EF90DF90CF90BF90AF909F908F90F1
:101740007F906F905F904F903F902F90089560E052
:101750008C819D810E94D30AE0CF6A3009F018C1C4
:10176000EC81FD818185D5808E9DD00C11248781EF
:10177000869586958695D81630F08285882319F04F
:1017800082E08287D12C4D2D60E08C819D810E946A
:10179000F50AAC81BD811A968C911A97823008F4B3
:1017A000BCCF15962C9115971B96ED91FC911C972B
:1017B00000E0309739F03396E49119960C91E09F50
:1017C000002D112410E0095F1F4F33E01595079598
:1017D0003A95E1F78FEF820F080FEC81FD8146818A
:1017E00041506481CF010E94070BAC81BD811996E5
:1017F0008C9119976D2D8E9D600D1124660F660FCB
:10180000660F17968C91861708F460E060648C81EF
:101810009D810E94CB0A81CF4527542745270A5F27
:101820001F4F631BEC81FD8121844230510508F07C
:101830006DC0452B09F0212C6E9CC0016F9C900D52
:101840001124689FF001699FF00D11240E0F1F1FD6
:10185000512CAC81BD811496BC91BA83EC81FD8181
:10186000F581FB83862C912CAA24A394B12C312CD6
:101870008981381608F086C0412CAC81BD8119964B
:101880008C91481608F077C0311002C0442041F016
:10189000EC81FD8145814F5F6A81CF010E94F50A8D
:1018A000D12CC12CC61408F05AC0F801EC0DFD1D56
:1018B0007490552061F0EA14FB0449F4E72DF0E040
:1018C000052C02C0F595E7950A94E2F77E2EAC81CF
:1018D000BD8119968C91823081F4442009F43BC07B
:1018E00072948FE07822E72DF0E0E159FD4F74907B
:1018F000672D8C819D810E94B60A672D8C819D8108
:101900000E94B60AEFEFCE1ADE0ACCCF277038E07D
:10191000532E521A211101C0512C50E040E030E00A
:1019200020E0F801461740F4E40FF51FE4912E0F74
:10193000311D4F5F5F4FF5CFE60FF11D6490E29EC2
:10194000F001E39EF00DF29EF00D11248E0F9F1F0B
:10195000080F191F7ECFB72DBF707B2EC4CFD12C9F
:101960002D1439F060E08C819D810E94B60AD394D9
:10197000F7CF439482CF3394080D191DFFEFAF1AB0
:10198000BF0A76CF6B818C819D810E94E90AC5CE0A
:1019900090E080E0C4CE0F93CF93DF93EC010F81F2
:1019A00006950695069501504E81415020E060E075
:1019B0000E94070B81E09A85911101C080E08A871F
:1019C00060E4CE01DF91CF910F910C94CB0A90E0AF
:1019D000FC01EE0FFF1FE759FD4FA591B4912C912B
:1019E000FC01EA58FC4F30812083880F991FFC01CD
:1019F000E05EFE4F0190F081E02D808108952091FE
:101A00002303260F3327331F21323105ECF42091B5
:101A1000D403FC0190E080E0243069F082E0089576
:101A2000A09123032191AC014D5F5C4FA40FB52F12
:101A3000B11D2C930196861798F380912303680FAC
:101A40006093230380E0089581E008951092D40309
:101A500081E08093B3031092AE0361E082E10E94C3
:101A6000330861E083E10E943308E9EBF0E0808114
:101A70008E7F808380818D7F808388E48093B8000F
:101A800085E48093BC000895CF93DF9391E0909319
:101A900002038823B9F0C091B800D091BA008091B8
:101AA000BC008A7B8093BC0060E082E10E94330826
:101AB00060E083E10E9433080E94260DD093BA00B3
:101AC000C093B800DF91CF910895CF92DF92EF924B
:101AD000FF920F931F93CF93DF93D82FC62F6132BE
:101AE00008F098C00E949D086B017C018091D4038E
:101AF00081116BC081E08093D4038093B3039FEF87
:101B00009093B2031092B1039C0F9093B003809313
:101B1000AF038091AF03DD0FD82BD093AF0380913B
:101B2000AE03813009F078C01092AE030E949D0888
:101B30006B017C018091AF038093BB008091D60341
:101B40009091D703A091D803B091D903892B8A2B08
:101B50008B2BA1F00E949D080091D6031091D70312
:101B60002091D8033091D9036C197D098E099F0902
:101B7000061717072807390708F448C08091BC00EA
:101B800083FDD8CF85EC8093BC000E949D086B013B
:101B90007C018091D403813009F440C08091B1036D
:101BA0008C1710F4C091B103EEE8F3E0A4EBB3E0BE
:101BB00080E08C1355C08C2FDF91CF911F910F9136
:101BC000FF90EF90DF90CF9008958091D603909191
:101BD000D703A091D803B091D903892B8A2B8B2BE3
:101BE00009F484CF0E949D080091D6031091D70379
:101BF0002091D8033091D9036C197D098E099F0972
:101C0000061717072807390708F070CF8091D5030A
:101C10000E94440DC0E0CFCF85EEB5CF8091D603B2
:101C20009091D703A091D803B091D903892B8A2B27
:101C30008B2B09F4AECF0E949D080091D603109122
:101C4000D7032091D8033091D9036C197D098E09EF
:101C50009F09061717072807390708F09ACFD6CF2C
:101C600091919D938F5FA5CF0895E0917E03809120
:101C70007D03E81730F4F0E0EC54FC4F808190E0F5
:101C800008958FEF9FEF089590917E0380917D03DB
:101C90002FEF3FEF981748F4E92FF0E0EC54FC4F9A
:101CA000208130E09F5F90937E03C9010895CF9219
:101CB000DF92EF92FF920F931F93CF93DF937C01FC
:101CC000CB018A0120918D03222389F0EB016B0166
:101CD000C40ED51ECC15DD0569F06991D701ED91D3
:101CE000FC910190F081E02DC7010995F3CF642F9D
:101CF0000E94FF0CC801DF91CF911F910F91FF90BF
:101D0000EF90DF90CF900895CF93DF931F92CDB7E0
:101D1000DEB7698320918D032223F9F020918A0395
:101D2000203258F021E030E0FC013383228390E040
:101D300080E00F90DF91CF91089580918B03E82F81
:101D4000F0E0EE51FD4F998190838F5F80938B037C
:101D500080938A0381E090E0ECCF61E0CE010196B0
:101D60000E94FF0CF7CFCF92DF92EF92FF920F937A
:101D70001F93CF93DF93D0918A0381E0D13208F093
:101D80009CC0C0918C030E949D086B017C018091D6
:101D9000D40381116CC082E08093D40381E08093EE
:101DA000B3038FEF8093B2031092B103D093B003CB
:101DB000A2EEB2E0EEE8F3E080E0D8138DC010921E
:101DC000AF038091AF03CC0FC82BC093AF038091BA
:101DD000AE03813009F084C01092AE030E949D08CA
:101DE0006B017C018091AF038093BB008091D6038F
:101DF0009091D703A091D803B091D903892B8A2B56
:101E00008B2BA1F00E949D080091D6031091D7035F
:101E10002091D8033091D9036C197D098E099F094F
:101E2000061717072807390708F442C08091BC003D
:101E300083FDD8CF85EC8093BC000E949D086B0188
:101E40007C018091D403823009F44CC08091B203AC
:101E50008F3F09F469C08091B203803209F466C0F3
:101E60008091B203803309F463C084E026C080917E
:101E7000D6039091D703A091D803B091D903892BB1
:101E80008A2B8B2B09F483CF0E949D080091D603E7
:101E90001091D7032091D8033091D9036C197D0993
:101EA0008E099F09061717072807390708F06FCF13
:101EB0008091D5030E94440D85E010928B0310920F
:101EC0008A0310928D03DF91CF911F910F91FF90A4
:101ED000EF90DF90CF9008959D9191938F5F6DCF9C
:101EE00085EEA9CF8091D6039091D703A091D80316
:101EF000B091D903892B8A2B8B2B09F4A2CF0E9496
:101F00009D080091D6031091D7032091D8033091FA
:101F1000D9036C197D098E099F0906171707280731
:101F2000390708F08ECFC4CF80E0C7CF82E0C5CF9D
:101F300083E0C3CFE7E7F4E0918162818081238170
:101F400031E030938D0320938C0310928B03109219
:101F50008A0360956923682B8DEA94E00E94840EC1
:101F60008DEA94E00C94B30E0F931F93CF93DF93FD
:101F7000EC01062F142F8E85813120F4882339F04F
:101F8000411105C08DEA94E00E94B30E1E868E8535
:101F9000811112C08D8591E090938D0380938C0305
:101FA00010928B0310928A0360E4111101C060E06B
:101FB0008DEA94E00E94840E602F8DEA94E00E94E6
:101FC000840E123041F48E858F5F8E87DF91CF9122
:101FD0001F910F9108958DEA94E00E94B30E1E8622
:101FE000F5CFEF92FF920F931F93CF93DF93EC0106
:101FF0007B018C010D581F4FD8018D919C91FE01E2
:10200000E159FF4F208131E030938D0320938C0301
:1020100010928B0310928A03DC01ED91FC910190E8
:10202000F081E02D0995FE01E059FF4F808182305B
:1020300058F0F80180819181DC01ED91FC910190D3
:10204000F081E02D6F2D0995F801808191810E942A
:10205000B30ECF58DF4FE882F982DF91CF911F9105
:102060000F91FF90EF90089521E030E002C0220F21
:10207000331F6A95E2F7FC01EF58FF4F60817181D1
:10208000442341F0262B372B3183208360817181DB
:102090000C94F10F2095309526233723F5CF90E04F
:1020A00080E00895CF93DF9370E0FB01EE59F04F8D
:1020B0008491FB01E25BF04FD491665C704FFB01B1
:1020C000C491CC23A1F081110E940A08EC2FF0E00A
:1020D000EE0FFF1FEB59FD4FA591B491EC91ED234D
:1020E00081E090E009F480E0DF91CF91089580E0F5
:1020F00090E0FACF862F642F0C943308862F642F3C
:102100000C946108CF92DF92EF92FF920F931F938E
:10211000CF93DF93EC0181E090E07C0102C0EE0CF4
:10212000FF1C6A95E2F76E0180E7C80ED11CD6014C
:102130006C91613208F060E2FE01E159FF4F80814D
:102140000E94650D10927E0380937D03CD58DF4F72
:1021500088819981DC01ED91FC910284F385E02D69
:1021600009958C01F6018081823060F08881998127
:10217000DC01ED91FC910284F385E02D099520E0CE
:10218000022B182B0E211F2181E090E00E151F0558
:1021900011F090E080E0DF91CF911F910F91FF90BF
:1021A000EF90DF90CF900895CF93DF93EC0188817B
:1021B0009981009711F00E94421D198218821D8298
:1021C0001C821B821A82DF91CF910895FC018081CD
:1021D0009181009711F00C94421D0895FB0101902C
:1021E0000020E9F73197AF01461B570BDC01ED9159
:1021F000FC910280F381E02D099462E671E00C9479
:10220000EE10CF93DF93EC0162E070E080E090E0AD
:102210000E94C208BE0182E395E00E94670982E342
:1022200095E00E94FD10BE018AED93E00E946709CF
:102230008AED93E0DF91CF910C94FD100F931F93E3
:10224000CF93DF93EC010E94EE108C01CE010E942F
:10225000FD10800F911FDF91CF911F910F91089575
:102260000F931F93CF93DF93EC010E94770A8C01A9
:10227000CE010E94FD10800F911FDF91CF911F9121
:102280000F9108950F931F93CF93DF93EC018B0170
:1022900062E070E080E090E00E94C20861E08EE0C1
:1022A0000E9433088AED93E00E94FD1065E671E01C
:1022B0008AED93E00E94EE10B8018AED93E00E944F
:1022C000670968E671E08AED93E00E94EE10BE01B6
:1022D0008AED93E00E9467096AE671E08AED93E077
:1022E0000E941E1164E170E080E090E00E94C2084C
:1022F00060E08EE0DF91CF911F910F910C94330835
:10230000CF93DF9382E395E00E94CB0CC2E3D5E04C
:102310008FE790E09C878B8761E771E0CE010E9498
:10232000EE1081E09AE09C878B8765E771E0CE0133
:10233000DF91CF910C941E1180919604882331F087
:102340001092AA04109296040C9480110895209182
:102350009604222309F43FC08091AB049091AC0411
:10236000FC013191A7E9B4E0449631111FC021115D
:1023700024C00E94801164E670E080E090E00E943A
:10238000C208809177048062809377040E949A0F3C
:1023900068E871E08AED93E00E941E11A8956AE05A
:1023A00070E080E090E00E94C208F8CF321305C0D0
:1023B00031912D918E179F07C1F66DEA71E082E38E
:1023C00095E00E941E1168EE73E080E090E00E94AC
:1023D000C2080E949C1180E00895CF932091D804F8
:1023E0003091D9042130310509F049C0C82F0E942D
:1023F000F40860932E0570932F0580933005909319
:102400003105C332B1F1CA32B9F1E091AA04E33126
:1024100069F091E09E0F9093AA04F0E0EA56FB4F1A
:10242000C083E92FF0E0EA56FB4F108282E395E08B
:102430000E94CB0C8FE790E090933E0580933D0582
:1024400061E771E082E395E00E94EE1081E09AE09E
:1024500090933E0580933D0560EC71E082E395E04A
:102460000E94EE1066E974E082E395E0CF910C944F
:102470001E11CF910C94A711CF910C949C11CF9168
:102480000895CF93DF93FC01C081D181209761F043
:102490008991882349F0082E000C990B0E94881E10
:1024A000FE0131978083F4CFDF91CF9108950F9390
:1024B0001F93CF93DF93EC0188819981009759F0A6
:1024C0002A813B812617370730F081E0DF91CF91D9
:1024D0001F910F9108958B016F5F7F4F0E94CB1D5D
:1024E000009759F0998388831B830A832C813D814F
:1024F000232B59F7FC011082E8CF80E0E7CFEF9261
:10250000FF920F931F93CF93DF93EC017B018A011E
:10251000BA010E94571281110BC0CE010E94D41043
:10252000CE01DF91CF911F910F91FF90EF90089511
:102530001D830C83B701888199810E94991EF0CF79
:10254000FC01118210821382128215821482FB0117
:1025500001900020E9F73197AF01461B570B0C940F
:102560007F12EF92FF920F931F93CF93DF93CDB71C
:10257000DEB762970FB6F894DEBF0FBECDBF8C01F9
:10258000CB01F8011182108213821282158214820B
:1025900050E09E012F5F3F4F7901B9010E94291C35
:1025A000F70101900020E9F73197AF014E195F095B
:1025B000B701C8010E947F1262960FB6F894DEBF81
:1025C0000FBECDBFDF91CF911F910F91FF90EF9084
:1025D000089585ED8093BC008091D6039091D70338
:1025E000A091D803B091D9030796A11DB11D23E096
:1025F000B695A795979587952A95D1F72091BC0018
:1026000024FD03C01092D40308954091D603509145
:10261000D7036091D8037091D903452B462B472BE4
:1026200069F30097A105B10541F025E32A95F1F77B
:1026300000000197A109B109E1CF8091D5030C9465
:10264000440D1F920F920FB60F9211242F933F93B8
:102650008F939F93AF93BF93809182039091830355
:10266000A0918403B09185033091810323E0230F6F
:102670002D3758F50196A11DB11D2093810380933C
:10268000820390938303A0938403B0938503809186
:10269000860390918703A0918803B09189030196E6
:1026A000A11DB11D8093860390938703A093880397
:1026B000B0938903BF91AF919F918F913F912F91DB
:1026C0000F900FBE0F901F90189526E8230F0296CB
:1026D000A11DB11DD2CF1F920F920FB60F921124E0
:1026E0002F933F934F935F936F937F938F939F931A
:1026F000AF93BF93EF93FF938AED93E00E94080A94
:10270000FF91EF91BF91AF919F918F917F916F91C9
:102710005F914F913F912F910F900FBE0F901F909F
:1027200018951F920F920FB60F9211242F938F932B
:102730009F93EF93FF93E091EA03F091EB03808185
:10274000E091F003F091F10382FD1BC09081809134
:10275000F3038F5F8F732091F403821741F0E091B0
:10276000F303F0E0E652FC4F958F8093F303FF9163
:10277000EF919F918F912F910F900FBE0F901F900F
:1027800018958081F4CF1F920F920FB60F921124EB
:102790002F933F934F935F936F937F938F939F9369
:1027A000AF93BF93EF93FF9382E00E94E70CFF91FA
:1027B000EF91BF91AF919F918F917F916F915F91B9
:1027C0004F913F912F910F900FBE0F901F90189532
:1027D0001F920F920FB60F9211242F933F934F9396
:1027E0005F936F937F938F939F93AF93BF93EF9379
:1027F000FF9381E00E94E70CFF91EF91BF91AF91B1
:102800009F918F917F916F915F914F913F912F9108
:102810000F900FBE0F901F9018951F920F920FB63A
:102820000F9211242F933F934F935F936F937F9356
:102830008F939F93AF93BF93EF93FF9380E00E949A
:10284000E70CFF91EF91BF91AF919F918F917F9195
:102850006F915F914F913F912F910F900FBE0F900D
:102860001F9018951F920F920FB60F9211242F935D
:102870003F934F935F936F937F938F939F93AF9308
:10288000BF93EF93FF938091B900887F803609F45E
:102890004AC0F0F5883209F4A7C018F5803109F470
:1028A0009BC0B8F4882309F4F9C0883009F494C0B7
:1028B000FF91EF91BF91AF919F918F917F916F9118
:1028C0005F914F913F912F910F900FBE0F901F90EE
:1028D0001895883109F488C0803251F78093B2038B
:1028E00014C0803409F49DC040F48033B9F38833B8
:1028F000F9F68093B20385ECB0C0803509F485C049
:10290000883509F496C0883499F60E94E912D0CF30
:10291000883909F48CC038F5883729F050F48836A6
:1029200011F0803729F683E08093D4031092450399
:1029300057C0883809F47BC0803919F0803809F015
:10294000B7CF80914503803208F071C0E091450314
:1029500081E08E0F809345038091BB00F0E0EB5D3A
:10296000FC4F80833DC0803B39F0E0F4803A09F4AD
:1029700079C0883A09F09CCF84E08093D403109208
:10298000240310922303E0917903F0917A030995CF
:102990008091230381110FC081E080932303109263
:1029A000030309C0803C09F4A6CF883C09F4A3CFF7
:1029B000883B09F07DCFE091240381E08E0F809366
:1029C0002403F0E0ED5FFC4F80818093BB00909189
:1029D00024038091230329C08091AF038093BB001F
:1029E00085EC8093BC0064CF9091B1038091B003DB
:1029F000981758F5E091B10381E08E0F8093B103F1
:102A0000F0E0E257FC4F8081E9CFE091B10381E033
:102A10008E0F8093B1038091BB00F0E0E257FC4F32
:102A200080839091B1038091B0039817C8F285E834
:102A3000D8CFE091B10381E08E0F8093B1038091F4
:102A4000BB00F0E0E257FC4F80838091B30381111B
:102A50005CCF81E08093AE0384EA8093BC00109247
:102A6000D40326CF85EC8093BC001092D4038091D0
:102A70004503803230F4E0914503F0E0EB5DFC4F1C
:102A800010826091450370E0E0917B03F0917C033C
:102A900085E293E00995109245030ACF1092B203A4
:102AA00034CF1092DD031092DC0388EE93E0A0E0B7
:102AB000B0E08093DE039093DF03A093E003B09334
:102AC000E1032AE231E03093DB032093DA0325ECC3
:102AD00030E03093E7032093E60324EC30E03093BA
:102AE000E9032093E80320EC30E03093EB032093DC
:102AF000EA0321EC30E03093ED032093EC0322EC69
:102B000030E03093EF032093EE0326EC30E0309377
:102B1000F1032093F0031092F3031092F403109248
:102B2000F5031092F6031092B0041092AF04809354
:102B3000B1049093B204A093B304B093B4048CE3B3
:102B400091E09093AE048093AD046AEC71E089E566
:102B500095E00E94A01266ED71E083E595E00E9489
:102B6000A01261EE71E08DE495E00E94A0126DEE7E
:102B700071E087E495E00E94A01263EF71E081E4C8
:102B800095E00E94A012109235051092340581E064
:102B900080933B0510923E0510923D058EE491E036
:102BA00090933305809332050E94F40860932E05BC
:102BB00070932F0580933005909331051092BB04DC
:102BC0001092BF041092BE041092C004E5EDF4E030
:102BD0001082148213821582369685E0E131F8075F
:102BE000B9F78AE091E090931C0580931B0587E07C
:102BF00091E090931E0580931D0584E080931F054E
:102C000083E0809320058EE091E090931A058093F5
:102C100019058AE090E0909322058093210584EFC6
:102C200091E090932405809323051092270510923C
:102C30002605109215051092160510921705109290
:102C40001805109225058CE591E09093BA048093C5
:102C5000B90488E38093280581E0809329058DEAF3
:102C600094E090932D0580932C0582E091E0909361
:102C7000AC048093AB041092AA04109296041092B4
:102C80007704109278041092790410927A041092CA
:102C90007B0410927C0410927D0410927E041092AA
:102CA0007F0410928004109281041092820410928A
:102CB0008304109284041092850410928704109269
:102CC0008604109289041092880410928B0410924A
:102CD0008A0410928D0410928C0410928F0410922A
:102CE0008E0410929104109290041092930410920A
:102CF000920410929504109294040895CF93DF9358
:102D0000CDB7DEB7AD970FB6F894DEBF0FBECDBF1F
:102D1000789484B5826084BD84B5816084BD85B5B6
:102D2000826085BD85B5816085BD80916E008160C2
:102D300080936E0010928100809181008260809368
:102D4000810080918100816080938100809180006A
:102D50008160809380008091B10084608093B10095
:102D60008091B00081608093B00080917A0084608F
:102D700080937A0080917A00826080937A008091BB
:102D80007A00816080937A0080917A0080688093D5
:102D90007A001092C10010927E0310927D0310926F
:102DA0008B0310928A030E94260D8DE599E0909383
:102DB0007A03809379038EE599E090937C03809366
:102DC0007B0388E48093B800E091EA03F091EB0381
:102DD00082E08083E091E603F091E7031082E091C6
:102DE000E803F091E90380E180831092F203E0911F
:102DF000EE03F091EF0386E08083E091EC03F09125
:102E0000ED03808180618083E091EC03F091ED031C
:102E1000808188608083E091EC03F091ED038081F4
:102E200080688083E091EC03F091ED0380818F7DD9
:102E3000808364E670E080E090E00E94C20861E078
:102E40008EE00E9461086DEE77E08AED93E00E94CB
:102E5000301166ED77E08AED93E00E9430116FEB60
:102E600077E08AED93E00E94301164E170E080E049
:102E700090E00E94C20867EF71E08E010F5F1F4F64
:102E8000C8010E94A0126BEF71E0CE0182960E94F1
:102E9000A012B801CE0182960E944211CE01829604
:102EA0000E94E610C8010E94E61067EF71E0C801B9
:102EB0000E94A01269E072E0CE0182960E94A012E8
:102EC000B801CE0182960E944211CE0182960E94E4
:102ED000E610C8010E94E61067EF71E0C8010E9489
:102EE000A01265E172E0CE0182960E94A012B801A4
:102EF000CE0182960E944211CE0182960E94E61077
:102F0000C8010E94E61064EA77E08AED93E00E942F
:102F1000770A19A283E488A383E38F8FBE01615EE1
:102F20007F4F8AED93E00E94EE108AED93E00E94BD
:102F3000FD106AE070E080E090E00E94C20810920C
:102F400040058CE380933F051092360510923705BB
:102F5000EEE9F7E085919491C82EE0EAF7E0D4908D
:102F6000E1EAF7E0E491E0933805E2EAF7E0E49182
:102F7000E0933905E3EAF7E0E491E0933A057C0158
:102F80008E2D8C198D1550F4F701649182E395E034
:102F90000E94CB0AFFEFEF1AFF0AF2CF10923C0516
:102FA00082E395E00E94CB0C80913905803439F49E
:102FB00082E395E00E94CB0C81E080933C058AE897
:102FC00092E090933E0580933D0582E395E00E9458
:102FD000CB0C6FE772E08AED93E00E9430116AE05B
:102FE00070E080E090E00E94C20884E098E0909356
:102FF0003E0580933D0562E272E0C8010E94A01286
:10300000C8010E940111C8010E94E61088E199E2FE
:103010000FB6F894A895809360000FBE909360005F
:103020008AED93E00E94FD106FE272E0C8010E94F9
:10303000A012C8010E940111C8010E94E6106AE0B6
:1030400070E080E090E00E94C20864E771E0CE0189
:1030500088960E94A01268E0C62ED12CEE24E3943C
:10306000FC2CE0928D03C0928C0310928B03109283
:103070008A038DEA94E00E94B30E8111A8C06FE329
:1030800072E0C8010E94A012C8010E947509C8011F
:103090000E94E61067E472E0C8010E94A012C80115
:1030A0000E947509C8010E94E6101BA21AA21DA267
:1030B0001CA21FA21EA240E1B801C6010E943F1C33
:1030C000F80101900020E9F73197AF01401B510B47
:1030D000B801CE0182960E947F1288A599A500971B
:1030E00009F453C06AA17BA16115710509F44BC0B5
:1030F0004AA55BA52EA13FA14217530708F443C080
:103100000E94991E8EA19FA19DA78CA71FA21EA2FF
:10311000CE0182960E94E610CE0188960E9441124E
:103120001A8219821C821B821E821D8268A579A5C3
:103130006115710529F04CA55DA5C8010E947F129B
:10314000C8010E947509C8010E94E6106CE472E093
:10315000C8010E94A012C8010E940111C8010E946A
:10316000E610E8ECEF0DE83008F0CBC0F0E0E554F5
:10317000F74E0C94A01CD618751975197519781985
:103180007B1981197E190E94421D8AA19BA199A7D2
:1031900088A78CA19DA19BA78AA78EA19FA19DA76F
:1031A0008CA71BA21AA21DA21CA2B0CF60E572E0E0
:1031B000C8010E94A012C8010E940111C8010E940A
:1031C000E61061E070E080E090E00E94C2082FEF1E
:1031D000C21AD20A58E7C516D10409F041CF6EE8E9
:1031E00072E0C8010E94A012C8010E940111C8012A
:1031F0000E94E6106AE070E080E090E00E94C20861
:10320000CE0188960E94E61040E16FE370E0CE01A7
:1032100088960E94B112CE0188960E94411260EAFF
:1032200072E0C8010E94A0128CA59DA5C8A4D9A4D3
:10323000ED80FE80E80EF91EC114D10409F464C0CB
:10324000892B91F0B701C8010E945712882309F415
:103250005BC029813A818D819E81B601820F931FC7
:103260000E94991EFE82ED821BA21AA21DA21CA220
:103270001FA21EA269817A816115710531F04D810D
:103280005E81CE0182960E947F12CE0182960E94BC
:103290000111CE0182960E94E610C8010E94E6103C
:1032A0008FE380937A0410927E0310928B03109226
:1032B0008A030E94260D8DE599E090937A0380930E
:1032C00079038EE599E090937C0380937B03809152
:1032D000780480937B0461E080917A040E94650DFC
:1032E00080937D03811114C0FFCF61E672E060CF4F
:1032F0006BE672E05DCF6BE772E05ACF60E872E098
:1033000057CF66E872E054CFC8010E94D410ACCF0A
:103310008DEA94E00E94440E809378042091790411
:10332000EE24E394F12CC7010090000102C0880F45
:10333000991F0A94E2F7922F982B90937904909119
:10334000770480958923809377040E949A0F809157
:1033500000019091010120917F03992790917704BA
:1033600001C0EE0C8A95EAF7211156C1E094E922DA
:10337000E09277040E949A0F6EEA72E0C8010E9400
:10338000A012C8010E947509C8010E94E610609150
:103390000001709101014AE0C8010E94B112C80108
:1033A0000E947509C8010E94E61066EB72E0C80130
:1033B0000E94A012C8010E947509C8010E94E6106F
:1033C00060917F03709180034AE0C8010E94B112AE
:1033D000C8010E947509C8010E94E6101A8219826C
:1033E0001C821B821E821D8266E170E0C8010E9461
:1033F0005712811113C1C8010E94D410C8010E9444
:103400000111C8010E94E610CE0188960E94E610C4
:10341000A89562E370E080E090E00E94C2086AE153
:103420007FE08AED93E00E94770A8DEE91E1909320
:103430002705809326058EE091E090931A058093EE
:1034400019056FEF7FEF89EB94E00E94F10F609117
:103450002905613208F060E2809128050E94650D1F
:1034600010927E0380937D0380912C0590912D0511
:10347000DC01ED91FC910284F385E02D0995909398
:103480002B0580932A05809129058230B8F0809120
:103490002C0590912D05DC01ED91FC910284F385C2
:1034A000E02D099520E0382F80912A0590912B0579
:1034B000822B932B90932B0580932A0588E893E128
:1034C000909324058093230584E190E09093220556
:1034D0008093210565E17FE08AED93E00E94770A01
:1034E000A89565E070E080E090E00E94C20881E06D
:1034F0009AE090933E0580933D0562E070E080E0A5
:1035000090E00E94C20867EF71E0CE0182960E94AF
:10351000A01260EC72E0C8010E94A012BE016E5DB4
:103520007F4FC8010E944211C8010E94E610CE01DF
:1035300082960E94E6108AED93E00E94FD106BECEB
:1035400072E0C8010E94A012C8010E940111C801C6
:103550000E94E610412C512C3201439440E0A42EED
:1035600040E0B42EA895B1E0B09325050E94F40880
:103570000091150510911605209117053091180539
:10358000AB01BC01401B510B620B730B80912105F9
:1035900090912205B0E0A0E0312C84179507A60792
:1035A000B70708F459C0109225050E94F40800914D
:1035B0002E0510912F052091300530913105601BAB
:1035C000710B820B930B683B7B4081059105C0F02A
:1035D0000E94F40860932E0570932F0580933005A8
:1035E0009093310580919604882341F00E94A711A1
:1035F00069ED72E08AED93E00E941E110E949C1119
:10360000A114B10409F4AECF0E94F409882309F48F
:10361000A9CF0E940000A6CFE92AAACE86E190E0B9
:103620009E838D836AEE79E089819A810E94221CB3
:10363000E5CE808191818E219F214FC080911D0513
:1036400090911E05C80ED91E41E0F601608189EBFC
:1036500094E00E943410339480912005381608F0CD
:1036600040C0C32CD12CE0911D05F0911E05EC0D3E
:10367000FD1D40E0608189EB94E00E943410D3018D
:10368000C201032C04C0880F991FAA1FBB1F0A94F4
:10369000D2F74C017C01E094F094212C80911F051D
:1036A000281660F6022D10E0E0911B05F0911C0534
:1036B000E00FF11F608189EB94E00E9482100C5FA3
:1036C0001F4F000F111FF801E754FB4F892B09F022
:1036D000B0CF808191818829992991838083239417
:1036E000DDCF09EB14E07801D7015F968D919C91B5
:1036F0009097892B59F45C961C925C97EFEFFFEF43
:103700005E96FC93EE935D9791961C92F6E0EF0E19
:10371000F11C85EF94E08E159F0531F7D12C809137
:103720001F05D81608F053C0C12C8D2C912C880C85
:10373000991CD401AF53BB4F4D0120912005C216F7
:1037400008F043C0F401608171810C2C02C07695B1
:1037500067950A94E2F7D29E900111242C0D311D39
:10376000E9EBF4E080E0458D568D2417350709F428
:1037700053C08F5F36968A30B1F760FF24C0E9EB03
:10378000F4E090E080E0448D411118C0E09119050B
:10379000F0911A05E20FF31F408156E0589FF001A7
:1037A000599FF00D1124E754FB4F448F368F258F1E
:1037B00010A2178E61E00E94000905C0019636969E
:1037C0008A30910501F7C394B8CFD394A8CFD12CF8
:1037D000D80191968C918111D82E0A5F1F4FE01667
:1037E000F106B1F70E94F408609315057093160571
:1037F0008093170590931805DD2009F4D4CE8091AD
:10380000DA04882309F4CFCE8091D8049091D904AA
:10381000019709F0C8CEC9CE6170CDCF81E495E0A3
:103820000E94E61087E495E00E94E6108DE495E0A2
:103830000E94E61083E595E00E94E61089E595E098
:103840000C94E610FB01DC0105900D920020E1F7DD
:1038500008954532510520F4423010F00C94341C88
:10386000FB011082CB010895BB274A3031F4992324
:1038700022F4BDE2909581959F4F0C94401CBB278C
:10388000FB015527AA27880F991FAA1FA41710F01C
:10389000A41B83955051B9F7A05DAA3308F0A95D28
:1038A000A193009779F7B111B1931192CB010C94C8
:1038B000591CDC01FC01672F71917723E1F73297E6
:1038C00004C07C916D9370836291AE17BF07C8F3FB
:1038D00008952F923F924F925F926F927F928F92B4
:1038E0009F92AF92BF92CF92DF92EF92FF920F938F
:1038F0001F93CF93DF93CDB7DEB7CA1BDB0B0FB699
:10390000F894DEBF0FBECDBF09942A883988488855
:103910005F846E847D848C849B84AA84B984C884EB
:10392000DF80EE80FD800C811B81AA81B981CE0FE2
:10393000D11D0FB6F894DEBF0FBECDBFED010895C7
:10394000EE0FFF1F0590F491E02D09940F931F9344
:10395000CF93DF938230910510F482E090E0E09104
:103960006105F091620530E020E0B0E0A0E0309722
:1039700099F42115310509F44AC0281B390B24306C
:103980003105D8F58A819B816115710589F1FB01AB
:1039900093838283FE0111C0408151810281138192
:1039A00048175907E0F04817590799F4109761F044
:1039B00012960C93129713961C933296CF01DF91B7
:1039C000CF911F910F9108950093610510936205A7
:1039D000F4CF2115310551F04217530738F0A901F2
:1039E000DB019A01BD01DF01F801C1CFEF01F9CF81
:1039F0009093620580936105CDCFFE01E20FF31F26
:103A0000819391932250310939832883D7CF209114
:103A10005F0530916005232B41F420911C0130910A
:103A20001D013093600520935F0520911A013091AC
:103A30001B012115310541F42DB73EB740911E0100
:103A400050911F01241B350BE0915F05F09160053B
:103A5000E217F307A0F42E1B3F0B2817390778F065
:103A6000AC014E5F5F4F2417350748F04E0F5F1FC4
:103A70005093600540935F05819391939FCFF0E051
:103A8000E0E09CCFCF93DF930097E9F0FC01329701
:103A900013821282A0916105B0916205ED0130E0C0
:103AA00020E01097A1F420813181820F931F209193
:103AB0005F05309160052817390709F061C0F09360
:103AC0006005E0935F05DF91CF910895EA01CE177D
:103AD000DF07E8F54A815B819E0141155105B1F789
:103AE000E901FB83EA8349915991C40FD51FEC1773
:103AF000FD0761F4808191810296840F951FE90191
:103B000099838883828193819B838A83F0E0E0E0BC
:103B100012968D919C9113970097B9F52D913C9138
:103B20001197CD010296820F931F20915F0530916E
:103B300060052817390739F6309751F5109262055C
:103B400010926105B0936005A0935F05BCCFD3834D
:103B5000C28340815181840F951FC817D90761F432
:103B60004E5F5F4F88819981480F591F5183408371
:103B70008A819B81938382832115310509F0B0CF1F
:103B8000F0936205E09361059ECFFD01DC01C0CF9B
:103B900013821282D7CFB0E0A0E0E1EDFDE10C94FA
:103BA0006B1C8C01009751F4CB010E94A61C8C0168
:103BB000C801CDB7DEB7E0E10C94871CFC01E60F2D
:103BC000F71F9C0122503109E217F30708F49DC04A
:103BD000D901CD91DC911197C617D70798F0C53060
:103BE000D10530F3CE0104978617970708F3C61B5B
:103BF000D70B2297C193D1936D937C93CF010E94F1
:103C0000421DD6CF5B01AC1ABD0A4C018C0E9D1E25
:103C1000A0916105B0916205512C412CF12CE12C51
:103C2000109731F580915F05909160058815990591
:103C300009F05CC04616570608F058C080911A017A
:103C400090911B01009741F48DB79EB740911E01E2
:103C500050911F01841B950BE817F90708F055C018
:103C6000F0936005E0935F05F90171836083A0CF55
:103C70008D919C91119712966C90129713967C904F
:103C80001397A815B90559F56C0142E0C40ED11C73
:103C9000CA14DB0420F1AC014A195B09DA0112965F
:103CA000159780F06282738251834083D9016D93AE
:103CB0007C93E114F10471F0D7011396FC93EE9319
:103CC000129776CF22968C0F9D1FF90191838083E6
:103CD000F301EFCFF0936205E093610569CF4816D9
:103CE000590608F42C017D01D3019ACFCB010E9423
:103CF000A61C7C01009749F0AE01B8010E94901EFD
:103D0000C8010E94421D870153CF10E000E050CF50
:103D10009111089581568A5108F48052855808956A
:103D2000FB01DC0102C001900D9241505040D8F7D8
:103D30000895FB01DC0101900D920020E1F7089548
:103D400017E0CCEBD7E004C0FE010E94A01C219636
:0A3D5000CD3BD107C9F7F894FFCF6F
:103D5A00050035333134000200040106050331320F
:103D6A00333435363738392A30230000630580006A
:103D7A006B006C006D00000000002A0A8A09B7096E
:103D8A00960AE809C609DA0900000000840E570EEF
:103D9A004F10340E5F09440E350E00000000410B2F
:103DAA008A094F106609B40F000000005C0934103C
:103DBA0082100D0A002142722C002C446F6E652E6F
:103DCA00000A0A0A0020205479706520796F7572FA
:103DDA0020636F64652E2E00526964646C652053FB
:103DEA006F6C7665642C20506C6561736520726512
:103DFA00737461727420627261696E2100202020DE
:103E0A00204143434553532044454E4945442100EC
:103E1A002020202020202020200053656372657412
:103E2A0020446F6F720031322E30342E32303231EC
:103E3A000076657273696F6E20312E3000427253BC
:103E4A0045430046504B005359530021686561644D
:103E5A0065725F626567696E002168656164657293
:103E6A005F656E64002173657475705F626567696A
:103E7A006E0057445420656E6461626C656400206C
:103E8A002020493243205363616E6E65723A0046C0
:103E9A006F756E643A2000202830780029202000AF
:103EAA004B6579706164202864656661756C742954
:103EBA00004B65797061642F494F004F6C6564202F
:103ECA00202864656661756C7429004F6C6564000E
:103EDA0052656C617900556E6B6E6F776E00493270
:103EEA0043207363616E20636F6D706C6574650047
:103EFA0072656C6179696E6974206F6E2000526513
:103F0A006C6179205B005D2073657420746F2000FA
:103F1A002173657475705F656E64000A3D3D3D539B
:103F2A00544152543D3D3D0A002154696D656F75F7
:023F3A00740011
:00000001FF
