:100000000C9434040C945C040C945C040C94ED107B
:100010000C94C8100C94A3100C945C040C945C0415
:100020000C945C040C945C040C945C040C945C04D0
:100030000C945C040C945C040C945C040C945C04C0
:100040000C9401100C945C040C9471100C944B10E3
:100050000C945C040C945C040C945C040C945C04A0
:100060000C9412110C945C04AEB08180A1A6A83F40
:10007000AD8B32C8D300D580D91FDA12DB40AF1C5C
:10008000620A0C206002020508070D08020404053C
:100090000702040206070607070707070707070204
:1000A00002070707050A07070708060608080406E7
:1000B0000707090809070908070808070C070806C1
:1000C00004060408090306060606060506060204D9
:1000D00007020A0606060605050506060A060605BF
:1000E0000602060809000000007E7E303007070087
:1000F00007070000000000C0D8F8DED8F8DE1800BE
:1001000030000030000000387C64FF64E4C8102038
:1001100020F02030103C7E427E3CC02018E6F010DB
:10012000F0E000000000300000001030203010DC53
:10013000FE227EDC8060201030202020103020073E
:10014000070000F8FE07011070E0800107FEF8804C
:10015000E07010120C3F0C12000000000020202064
:10016000FC202020000000100000000000F07020A3
:1001700020202000000000000030300080E07C1FC4
:1001800003C0F030000000FCFE020202FEFC103052
:1001900020202030100404FEFE00002020303020FB
:1001A00020040682C2623E1C203030202020200421
:1001B00006222222FEDC10302020203010C0A09821
:1001C00084FEFE8000000000303000001E1E12126F
:1001D000F2E210302020203010F8FC161212F2E06B
:1001E00010302020203010020282E27A1E06002009
:1001F0003010000000DCFE222222FEDC1030202025
:100200002030103C7E424242FEFC00202020301074
:1002100000181830301818F07060609090080804CA
:10022000000000001010209090909090909000009E
:10023000000000000004080890906060201010008A
:100240000000000462721E0C0030300000F00CF45C
:10025000FA0AFAFA040CF0003020505050501010F6
:100260000080F8FE86FEF88030300000003030FE5E
:10027000FE22223EFCC030302020203010F8FC0648
:100280000202020400103020202010FEFE020202B2
:1002900006FCF83030202020301000FEFE22222202
:1002A00022303020202020FEFE2222222230300068
:1002B000000000F8FC06024242C2C40010302020B8
:1002C000203030FEFE20202020FEFE3030000000D6
:1002D00000303002FEFE022030302000020202FE1A
:1002E000FE202020203010FEFE70D88C0602303018
:1002F0000000103020FEFE00000000003030202002
:10030000202020FE0E3CF0C0300CFEFE300000002D
:100310000000003030FE061C38E0C000FE30000057
:100320000000103030F8FC0602020206FCF8001053
:1003300030202020301000FEFE4242427E3C303011
:100340000000000000F8FC0602020206FCF80010A3
:10035000302060E0B09080FEFE2262E2BE1C0030E1
:10036000300000001030201C3E322262E2C4102017
:100370002020203010020202FEFE020202000000D5
:100380003030000000FEFE00000000FEFE103020B5
:1003900020202030100E7EF080F07E0E00003030E5
:1003A0003000000E7EF080E03E3EE080F07E0E00E9
:1003B0000030300000000030300000068EF870F889
:1003C0008E0630300000003030060E18F0F0180EA7
:1003D00006000000303000000002C2F23E0E023083
:1003E0003020202020FFFF0101F0F08080031F7CDF
:1003F000E0800000000030F0C00101FFFF8080F0CD
:10040000F010180C06060C18100000000000000088
:1004100000000000000000000000808080808080DC
:10042000808080010302000000C0E82828F8F01056
:100430003020203030FFFF0808F8F0303020203026
:1004400010F0F808080810103020202010F0F808EC
:1004500008FFFF103020203030F0F8484878701046
:10046000302020201008FEFF09090030300000F085
:10047000F80808F8F810B0A0A0F070FFFF0808F81E
:10048000F0303000003030FBFB30300008FBFB80E8
:1004900080F070FFFF60F0980800303000001030EE
:1004A00020FFFF3030F8F81008F8F01008F8F030AE
:1004B000300000303000003030F8F80808F8F03034
:1004C0003000003030F0F80808F8F010302020300C
:1004D00010F8F80808F8F0F0F020203010F0F808D4
:1004E00008F8F810302020F0F0F8F8101818303024
:1004F000000000307848C888202020301008FEFE18
:1005000008080010302020F8F80000F8F81030201B
:1005100020303038F8C0C0F8380010303010007883
:10052000F880C03838C080F8780030300000000013
:1005300030300018B8E0E0B8183030000030303803
:10054000F8C0C0F8380090F070100008C8E87818BB
:1005500030302020202020FEDF0101000070F080DC
:1005600080FFFFF0F00101DFFE20208080F07000AE
:1005700000E01010204080807000000000000000AB
:1005800000FE02020202020202FE30202020202091
:10059000202030000005072060000000000000005F
:1005A0005F00000007000700147F147F14242A7FD7
:1005B0002A122313086462364956205000080703A4
:1005C00000001C2241000041221C002A1C7F1C2A22
:1005D00008083E0808008070300008080808080075
:1005E0000060600020100804023E5149453E004270
:1005F0007F400072494949462141494D3318141240
:100600007F1027454545393C4A4949314121110967
:10061000073649494936464949291E000014000059
:100620000040340000000814224114141414140073
:100630004122140802015909063E415D594E7C12BF
:1006400011127C7F494949363E414141227F414157
:10065000413E7F494949417F090909013E414151D4
:10066000737F0808087F00417F41002040413F011F
:100670007F081422417F404040407F021C027F7F60
:100680000408107F3E4141413E7F090909063E4171
:1006900051215E7F09192946264949493203017FC4
:1006A00001033F4040403F1F2040201F3F40384053
:1006B0003F631408146303047804036159494D43EC
:1006C000007F4141410204081020004141417F0464
:1006D000020102044040404040000307080020544B
:1006E0005478407F284444383844444428384444AB
:1006F000287F385454541800087E090218A4A49C7A
:10070000787F0804047800447D40002040403D008C
:100710007F1028440000417F40007C047804787CEE
:10072000080404783844444438FC18242418182455
:100730002418FC7C08040408485454542404043F3E
:1007400044243C4040207C1C2040201C3C40304045
:100750003C44281028444C9090907C4464544C4471
:100760000008364100000077000000413608000212
:10077000010204023C2623263C00030C0F30333CCC
:100780003FC0C3CCCFF0F3FCFF00000000230026E5
:100790000029005363616E6E696E672E2E2E00492C
:1007A0003243207363616E6E65723A006800178091
:1007B00040024F6C656420696E69740A000A2073F8
:1007C00075636365737366756C6C7920696E6974A3
:1007D00069616C697A65642072656C61790A0021CF
:1007E00073657475705F656E640A0A00206F6B0A2A
:1007F000004B65797061643A202E2E2E0052656C94
:1008000061793A202E2E2E004F6C6564733A202EAB
:100810002E2E0000000000240027002A0000000007
:1008200000250028002B000404040404040404022E
:10083000020202020203030303030301020408107D
:10084000204080010204081020010204081020004A
:10085000000008000201000003040700000000007F
:10086000000000003112671711241FBECFEFD8E03F
:10087000DEBFCDBF25E0A4EDB2E001C01D92A335DF
:10088000B207E1F712E0A0E0B1E0E2EBF3E302C06F
:1008900005900D92A43DB107D9F714E0C3E3D4E06D
:1008A00004C02197FE010E94D417C233D107C9F7B3
:1008B0000E945E130C94CC190C94000096E0899F62
:1008C000D0011124A755BB4F90967C936E935F97F0
:1008D00091E091969C939197E0911605F091170500
:1008E00090911505992339F0309751F0811108C086
:1008F0008091C5040994309719F05C968C91FACFD9
:100900000895833081F028F4813099F08230A9F085
:1009100008958730A9F08830C9F08430B1F480910F
:1009200080008F7D03C0809180008F77809380004E
:10093000089584B58F7784BD089584B58F7DFBCFEE
:100940008091B0008F778093B00008958091B000BF
:100950008F7DF9CF1F93CF93DF93282F30E0F901DC
:10096000E15BF74F8491F901E55CF74FD491F90110
:10097000E95DF74FC491CC23A9F0162F81110E9495
:100980008104EC2FF0E0EE0FFF1FE35EF74FA5911F
:10099000B4918FB7F894EC91111108C0D095DE2373
:1009A000DC938FBFDF91CF911F910895DE2BF8CF9D
:1009B000CF93DF9390E0FC01E55CF74F2491895DD4
:1009C000974FFC0184918823C9F090E0880F991F0C
:1009D000FC01ED5EF74FA591B491FC01E35EF74F8A
:1009E000C591D49161110DC09FB7F8948C91209559
:1009F00082238C938881282328839FBFDF91CF9106
:100A00000895623051F49FB7F8943C91822F8095FD
:100A100083238C93E8812E2BEFCF8FB7F894EC9142
:100A20002E2B2C938FBFEACF3FB7F894809176039B
:100A300090917703A0917803B091790326B5A89B94
:100A400005C02F3F19F00196A11DB11D3FBFBA2F60
:100A5000A92F982F8827BC01CD01620F711D811D20
:100A6000911D42E0660F771F881F991F4A95D1F7A5
:100A700008958F929F92AF92BF92CF92DF92EF92A2
:100A8000FF924B015C010E9414056B017C010E94E6
:100A900014056C197D098E099F09683E7340810514
:100AA0009105A8F321E0821A9108A108B10888EE07
:100AB000C80E83E0D81EE11CF11C81149104A1042E
:100AC000B10429F7FF90EF90DF90CF90BF90AF90E7
:100AD0009F908F9008952FB7F89460917203709152
:100AE000730380917403909175032FBF08950F9342
:100AF0001F93CF93DF93C82FD62F86E0C89FF001B6
:100B00001124E755FB4F11A2878D90A181309105EB
:100B1000F1F058F082309105F1F1039709F440C0EB
:100B2000DF91CF911F910F9108956623C9F361E082
:100B300070E08C2F0E945E040E946B05609301059B
:100B4000709302058093030590930405E9CF0E94FA
:100B50006B0500910105109102052091030530916C
:100B60000405AB01BC01401B510B620B730B809160
:100B7000130590911405B0E0A0E084179507A6072F
:100B8000B70748F462E070E08C2FDF91CF911F919E
:100B90000F910C945E0463E070E0D111C1CFF4CFEB
:100BA00070E060E0F1CF08950895089580916F039B
:100BB00090917003891B990B0895AF92BF92CF92C9
:100BC000DF92EF92FF920F931F93CF93DF936C010D
:100BD0007B018B01040F151FEB015E01AE18BF08EE
:100BE000C017D10759F06991D601ED91FC910190A0
:100BF000F081E02DC6010995892B79F7C501DF91B8
:100C0000CF911F910F91FF90EF90DF90CF90BF9009
:100C1000AF900895FC01538D448D252F30E0842F33
:100C200090E0821B930B541710F0CF960895019714
:100C30000895FC01918D828D981761F0A28DAE0F01
:100C4000BF2FB11D5D968C91928D9F5F9F73928F88
:100C500090E008958FEF9FEF0895FC01918D828DB4
:100C6000981731F0828DE80FF11D858D90E0089581
:100C70008FEF9FEF0895FC01918D228D892F90E0D9
:100C8000805C9F4F821B91098F73992708958AEC8E
:100C900093E00E943B0621E0892B09F420E0822F9B
:100CA000089580E090E0892B29F00E944706811189
:100CB0000C9400000895FC01A48DA80FB92FB11D5C
:100CC000A35ABF4F2C91848D90E001968F73992782
:100CD000848FA689B7892C93A089B1898C91837060
:100CE00080648C93938D848D981306C00288F38959
:100CF000E02D80818F7D80830895EF92FF920F9386
:100D00001F93CF93DF93EC0181E0888F9B8D8C8DB7
:100D100098131AC0E889F989808185FF15C09FB7AB
:100D2000F894EE89FF896083E889F989808183706E
:100D3000806480839FBF81E090E0DF91CF911F911D
:100D40000F91FF90EF900895F62E0B8D10E00F5F3E
:100D50001F4F0F731127E02E8C8D8E110CC00FB614
:100D600007FCFACFE889F989808185FFF5CFCE01AC
:100D70000E945B06F1CFEB8DEC0FFD2FF11DE35AC6
:100D8000FF4FF0829FB7F8940B8FEA89FB8980812F
:100D90008062CFCFEF92FF920F931F93CF93DF9399
:100DA0008C017B01D0E0C0E0F701EC0FFD1F6491E6
:100DB000662339F0C8010E947D06892B11F0219627
:100DC000F3CFCE01DF91CF911F910F91FF90EF9064
:100DD0000895CF93DF93EC01888D8823B9F0AA8919
:100DE000BB89E889F9898C9185FD03C0808186FDE6
:100DF0000DC00FB607FCF7CF8C9185FFF2CF808135
:100E000085FFEDCFCE010E945B06E9CFDF91CF9148
:100E1000089590E0FC01EE0FFF1FE357F84FA591F6
:100E2000B4912C91FC01E859FC4F30812083880F4C
:100E3000991FFC01E25EFE4F0190F081E02D808160
:100E40000895CF93DF9370E0FB01E15BF74F84914E
:100E5000FB01E55CF74FD491695D774FFB01C491CD
:100E6000CC23A1F081110E948104EC2FF0E0EE0F61
:100E7000FF1FE757F84FA591B491EC91ED2381E066
:100E800090E009F480E0DF91CF91089580E090E058
:100E9000FACF862F642F0C94AA04862F642F0C940B
:100EA000D804CF93DF93EC019C818E81981758F47E
:100EB000E881F9810084F185E02D42E0CE010995B9
:100EC0008C818F5F8C83DF91CF910895DC01ED9150
:100ED000FC910084F185E02D40E009940F931F936D
:100EE000CF938C01FC016483C085C60F6C2F6F709B
:100EF0000E9466076C2F62956F706061C801CF9188
:100F00001F910F910C946607FC0127812695269569
:100F10002695621720F46583606B0C94660708952C
:100F20001F93CF93DF93EC01142F8E81681718F471
:100F3000CE010E946E07612FCE01DF91CF911F91EC
:100F40000C948407CF92DF92EF92FF920F931F933E
:100F5000CF93DF93EC01162FC42ED22E8F8186956E
:100F600086958695081710F00FEF080FFD2C0F15CA
:100F7000B0F08E81181720F4612FCE010E946E0709
:100F80006F2DCE010E948407E12ECE1430F060E078
:100F9000CE010E945107E394F8CFF394E8CF4D2D92
:100FA000612FCE01DF91CF911F910F91FF90EF90B4
:100FB000DF90CF900C9490070F9300912905069530
:100FC00006950695015040912805415020E060E0CB
:100FD00082E295E00E94A20781E090912C05911198
:100FE00001C080E080932C0560E482E295E00F91DF
:100FF0000C9466072F923F924F925F926F927F926E
:101000008F929F92AF92BF92CF92DF92EF92FF9218
:101010000F931F93CF93DF9300D000D01F92CDB7D3
:10102000DEB7DC011B960D911C910115110509F429
:1010300068C19D838C83F801449131965491319617
:10104000649031962491E22EF12CF7E0EF0EF11C22
:1010500073E0F594E7947A95E1F7E982F801349624
:1010600034913196E491631748F08E2F90E0FC01A3
:10107000E30FF11D6E171F060CF487C06D3031F5BC
:10108000AC81BD8116968C9181111AC081E090E0EF
:101090000F900F900F900F900F90DF91CF911F91B5
:1010A0000F91FF90EF90DF90CF90BF90AF909F9007
:1010B0008F907F906F905F904F903F902F9008950A
:1010C00060E08C819D810E946E07E0CF6A3009F05C
:1010D00018C1EC81FD818185D5808E9DD00C1124B5
:1010E0008781869586958695D81630F082858823E7
:1010F00019F082E08287D12C4D2D60E08C819D819A
:101100000E949007AC81BD811A968C911A9782300B
:1011100008F4BCCF15962C9115971B96ED91FC9178
:101120001C9700E0309739F03396E49119960C91B2
:10113000E09F002D112410E0095F1F4F33E015954B
:1011400007953A95E1F78FEF820F080FEC81FD814B
:10115000468141506481CF010E94A207AC81BD81CC
:1011600019968C9119976D2D8E9D600D1124660F27
:10117000660F660F17968C91861708F460E060641E
:101180008C819D810E94660781CF45275427452782
:101190000A5F1F4F631BEC81FD81218442305105A2
:1011A00008F06DC0452B09F0212C6E9CC0016F9C8E
:1011B000900D1124689FF001699FF00D11240E0F0E
:1011C0001F1F512CAC81BD811496BC91BA83EC8158
:1011D000FD81F581FB83862C912CAA24A394B12C4C
:1011E000312C8981381608F086C0412CAC81BD8134
:1011F00019968C91481608F077C0311002C044202F
:1012000041F0EC81FD8145814F5F6A81CF010E94F1
:101210009007D12CC12CC61408F05AC0F801EC0D6F
:10122000FD1D7490552061F0EA14FB0449F4E72D8C
:10123000F0E0052C02C0F595E7950A94E2F77E2EC2
:10124000AC81BD8119968C91823081F4442009F4DF
:101250003BC072948FE07822E72DF0E0E758F84F1A
:101260007490672D8C819D810E945107672D8C8120
:101270009D810E945107EFEFCE1ADE0ACCCF277076
:1012800038E0532E521A211101C0512C50E040E099
:1012900030E020E0F801461740F4E40FF51FE49138
:1012A0002E0F311D4F5F5F4FF5CFE60FF11D64909C
:1012B000E29EF001E39EF00DF29EF00D11248E0FE0
:1012C0009F1F080F191F7ECFB72DBF707B2EC4CF75
:1012D000D12C2D1439F060E08C819D810E94510742
:1012E000D394F7CF439482CF3394080D191DFFEFA9
:1012F000AF1ABF0A76CF6B818C819D810E948407D3
:10130000C5CE90E080E0C4CE20911503260F332790
:10131000331F21323105ECF42091C003FC0190E031
:1013200080E0243069F082E00895A09115032191B6
:10133000AC014B505D4FA40FB52FB11D2C930196FE
:10134000861798F380911503680F6093150380E06A
:10135000089581E008951092C00381E080939F0377
:1013600010929A0361E082E10E94AA0461E083E1A5
:101370000E94AA04E9EBF0E080818E7F8083808167
:101380008D7F808388E48093B80085E48093BC00DF
:101390000895CF93DF9391E09093F4028823B9F0FE
:1013A000C091B800D091BA008091BC008A7B809334
:1013B000BC0060E082E10E94AA0460E083E10E9438
:1013C000AA040E94AB09D093BA00C093B800DF9181
:1013D000CF910895CF92DF92EF92FF920F931F93D8
:1013E000CF93DF93D82FC62F613208F098C00E94A8
:1013F00014056B017C018091C00381116BC081E0F9
:101400008093C00380939F039FEF90939E0310925D
:101410009D039C0F90939C0380939B0380919B035F
:10142000DD0FD82BD0939B0380919A03813009F074
:1014300078C010929A030E9414056B017C01809180
:101440009B038093BB008091C2039091C303A09142
:10145000C403B091C503892B8A2B8B2BA1F00E946A
:1014600014050091C2031091C3032091C40330916D
:10147000C5036C197D098E099F09061717072807F0
:10148000390708F448C08091BC0083FDD8CF85ECB3
:101490008093BC000E9414056B017C018091C00305
:1014A000813009F440C080919D038C1710F4C091E5
:1014B0009D03EAE7F3E0A0EAB3E080E08C1355C0B7
:1014C0008C2FDF91CF911F910F91FF90EF90DF90C4
:1014D000CF9008958091C2039091C303A091C4035B
:1014E000B091C503892B8A2B8B2B09F484CF0E94E2
:1014F00014050091C2031091C3032091C4033091DD
:10150000C5036C197D098E099F090617170728075F
:10151000390708F070CF8091C1030E94C909C0E06B
:10152000CFCF85EEB5CF8091C2039091C303A09138
:10153000C403B091C503892B8A2B8B2B09F4AECF42
:101540000E9414050091C2031091C3032091C403AB
:101550003091C5036C197D098E099F09061717077D
:101560002807390708F09ACFD6CF91919D938F5FC6
:10157000A5CF0895E091700380916F03E81730F4D0
:10158000F0E0E056FC4F808190E008958FEF9FEFF0
:1015900008959091700380916F032FEF3FEF98179C
:1015A00048F4E92FF0E0E056FC4F208130E09F5FE7
:1015B00090937003C9010895CF92DF92EF92FF924A
:1015C0000F931F93CF93DF937C01CB018A0120916E
:1015D000C903222389F0EB016B01C40ED51ECC1583
:1015E000DD0569F06991D701ED91FC910190F081E1
:1015F000E02DC7010995F3CF642F0E948409C8012B
:10160000DF91CF911F910F91FF90EF90DF90CF90DE
:101610000895CF93DF931F92CDB7DEB769832091F2
:10162000C9032223F9F02091C603203258F021E0AB
:1016300030E0FC013383228390E080E00F90DF9163
:10164000CF9108958091C703E82FF0E0EC52FD4F51
:10165000998190838F5F8093C7038093C60381E055
:1016600090E0ECCF61E0CE0101960E948409F7CFB3
:10167000CF92DF92EF92FF920F931F93CF93DF935E
:10168000D091C60381E0D13208F09CC0C091C8035C
:101690000E9414056B017C018091C00381116CC014
:1016A00082E08093C00381E080939F038FEF80935B
:1016B0009E0310929D03D0939C03A4EDB2E0EAE751
:1016C000F3E080E0D8138DC010929B0380919B03C0
:1016D000CC0FC82BC0939B0380919A03813009F0F3
:1016E00084C010929A030E9414056B017C018091C2
:1016F0009B038093BB008091C2039091C303A09190
:10170000C403B091C503892B8A2B8B2BA1F00E94B7
:1017100014050091C2031091C3032091C4033091BA
:10172000C5036C197D098E099F090617170728073D
:10173000390708F442C08091BC0083FDD8CF85EC06
:101740008093BC000E9414056B017C018091C00352
:10175000823009F44CC080919E038F3F09F469C028
:1017600080919E03803209F466C080919E0380338D
:1017700009F463C084E026C08091C2039091C30342
:10178000A091C403B091C503892B8A2B8B2B09F43C
:1017900083CF0E9414050091C2031091C3032091CE
:1017A000C4033091C5036C197D098E099F09061782
:1017B00017072807390708F06FCF8091C1030E94EF
:1017C000C90985E01092C7031092C6031092C9039D
:1017D000DF91CF911F910F91FF90EF90DF90CF900D
:1017E00008959D9191938F5F6DCF85EEA9CF8091E4
:1017F000C2039091C303A091C403B091C503892B88
:101800008A2B8B2B09F4A2CF0E9414050091C203EE
:101810001091C3032091C4033091C5036C197D0955
:101820008E099F09061717072807390708F08ECF7A
:10183000C4CF80E0C7CF82E0C5CF83E0C3CFE7E667
:10184000F4E0918162818081238131E03093C9038A
:101850002093C8031092C7031092C60360956923B2
:10186000682B8DE994E00E94090B8DE994E00C94BB
:10187000380BEF92FF920F931F93CF93DF93EC01FE
:101880007B018C010D581F4FD8018D919C91FE0159
:10189000E159FF4F208131E03093C9032093C80301
:1018A0001092C7031092C603DC01ED91FC910190E8
:1018B000F081E02D0995FE01E059FF4F80818230D3
:1018C00058F0F80180819181DC01ED91FC9101904B
:1018D000F081E02D6F2D0995F801808191810E94A2
:1018E000380BCF58DF4FE882F982DF91CF911F91FB
:1018F0000F91FF90EF90089521E030E002C0220F99
:10190000331F6A95E2F7FC01EF58FF4F6081718148
:10191000442341F0262B372B318320836081718152
:101920000C94390C2095309526233723F5CF0F934F
:101930001F93CF93DF93EC01062F142F8E858131F7
:1019400020F4882339F0411105C08DE994E00E940C
:10195000380B1E868E85811112C08D8591E0909383
:10196000C9038093C8031092C7031092C60360E4B2
:10197000111101C060E08DE994E00E94090B602F15
:101980008DE994E00E94090B123041F48E858F5F3F
:101990008E87DF91CF911F910F9108958DE994E08B
:1019A0000E94380B1E86F5CF089590E080E00895E0
:1019B000CF92DF92EF92FF920F931F93CF93DF931B
:1019C000EC0181E090E07C0102C0EE0CFF1C6A9506
:1019D000E2F76E0180E7C80ED11CD6016C9161322E
:1019E00008F060E2FE01E159FF4F80810E94EA09A0
:1019F0001092700380936F03CD58DF4F88819981D7
:101A0000DC01ED91FC910284F385E02D09958C01B8
:101A1000F6018081823060F088819981DC01ED914E
:101A2000FC910284F385E02D099520E0022B182B10
:101A30000E211F2181E090E00E151F0511F090E0AE
:101A400080E0DF91CF911F910F91FF90EF90DF9099
:101A5000CF900895FC0180819181009711F00C9442
:101A6000761808950F931F93CF93DF93EC0188812D
:101A70009981009759F02A813B812617370730F06A
:101A800081E0DF91CF911F910F9108958B016F5FDE
:101A90007F4F0E94FF18009759F0998388831B831A
:101AA0000A832C813D81232B59F7FC011082E8CF5A
:101AB00080E0E7CFEF92FF920F931F93CF93DF93D6
:101AC000EC01198218821B821A821D821C8285E019
:101AD000C133D807F9F00091310510913205011595
:101AE0001105C1F0E0903505F0903605B701CE0143
:101AF0000E94320D28813981811113C021153105D1
:101B000019F0C9010E947618198218821D821C8260
:101B10001B821A82DF91CF911F910F91FF90EF905E
:101B20000895FD82EC82B801C901DF91CF911F9128
:101B30000F91FF90EF900C94C519EF92FF920F93C5
:101B40001F93CF93DF93EC017B01198218821B82D4
:101B50001A821D821C82FB0101900020E9F7319757
:101B60008F01061B170BB8010E94320D28813981A5
:101B7000811113C02115310519F0C9010E94761891
:101B8000198218821D821C821B821A82DF91CF91DA
:101B90001F910F91FF90EF9008951D830C83B70163
:101BA000C901DF91CF911F910F91FF90EF900C949D
:101BB000C519FB0101900020E9F73197AF01461BE1
:101BC000570BDC01ED91FC910280F381E02D09942B
:101BD0008F929F92AF92BF920F931F93CF93DF93F9
:101BE000CDB7DEB7A1970FB6F894DEBF0FBECDBF5D
:101BF00019A2423008F44AE08E010F5D1F4F842E77
:101C0000912CB12CA12CA50194010E94B217E62FB2
:101C1000B901CA01EA3004F5E05DD801EE938D0107
:101C2000232B242B252B79F790E080E0109729F0C7
:101C3000BD018AEC93E00E94D90DA1960FB6F894ED
:101C4000DEBF0FBECDBFDF91CF911F910F91BF902F
:101C5000AF909F908F900895E95CDFCF60E671E0D0
:101C60000C94D90D0F931F93CF93DF93EC010E9437
:101C7000D90D8C01CE010E942E0E800F911FDF9195
:101C8000CF911F910F9108950F931F93CF93DF93DF
:101C9000EC018B0161E08EE00E94AA048AEC93E0E3
:101CA0000E942E0E63E671E08AEC93E00E94D90D4B
:101CB000F80144815581608171818AEC93E00E9432
:101CC000DD0566E671E08AEC93E00E94D90D4C8157
:101CD0005D81688179818AEC93E00E94DD0568E688
:101CE00071E08AEC93E00E94320E62E370E080E0E3
:101CF00090E00E94390560E08EE0DF91CF911F9166
:101D00000F910C94AA04CF93DF930E94DC07C2E2E8
:101D1000D5E083E995E09C878B876FE671E0CE0183
:101D20000E94D90D8FE790E09C878B8763E771E075
:101D3000CE01DF91CF910C94320E809186048823DE
:101D400031F010929A04109286040C94830E089538
:101D5000CF93DF93CDB7DEB72C970FB6F894DEBFE5
:101D60000FBECDBF20918604222309F48AC0809142
:101D70009B0490919C04FC013191A7E8B4E0449647
:101D8000311150C0211156C0CE0107960E945A0D44
:101D900066E871E0CE0101960E949D0DBE01695F6B
:101DA0007F4FCE0101960E94440ECE0101960E9403
:101DB0002A0DCE0107960E942A0D0E94DC0783E9B6
:101DC00095E090932E0580932D056FE671E082E2F9
:101DD00095E00E94D90D8FE790E090932E058093B7
:101DE0002D056FE871E082E295E00E94320E64E614
:101DF00070E080E090E00E94390580916704806285
:101E0000809367040E941F0C62EA71E08AEC93E001
:101E10000E94320EA8956AE070E080E090E00E9497
:101E20003905F8CF321306C031912D91E817F90723
:101E300009F0A6CFCE0107960E945A0D67EC71E01B
:101E4000CE0101960E949D0DBE01695F7F4FCE01BC
:101E500001960E94440ECE0101960E942A0DCE01E9
:101E600007960E942A0D6EEC71E082E295E00E94D6
:101E7000320E68EE73E080E090E00E9439050E9427
:101E80009D0E80E02C960FB6F894DEBF0FBECDBF3E
:101E9000DF91CF9108951F93CF93DF93CDB7DEB736
:101EA0002C970FB6F894DEBF0FBECDBF2091C804AB
:101EB0003091C9042130310509F05EC0182F0E940D
:101EC0006B0560931E0570931F058093200590930A
:101ED0002105133209F44EC01A3209F457C0E091BB
:101EE0009A04E33169F091E09E0F90939A04F0E038
:101EF000EA57FB4F1083E92FF0E0EA57FB4F1082BF
:101F00000E94DC0783E995E090932E0580932D05D0
:101F10006FE671E082E295E00E94D90D8FE790E0D4
:101F200090932E0580932D0561EE71E082E295E09D
:101F30000E94D90D66E874E082E295E00E94320EBC
:101F4000CE0107960E945A0D66E874E0CE01019614
:101F50000E949D0DBE01695F7F4FCE0101960E94D8
:101F6000440ECE0101960E942A0DCE0107960E94D2
:101F70002A0D02C00E94A80E2C960FB6F894DEBF60
:101F80000FBECDBFDF91CF911F9108950E949D0E8E
:101F9000F3CF85ED8093BC008091C2039091C30381
:101FA000A091C403B091C5030796A11DB11D23E004
:101FB000B695A795979587952A95D1F72091BC005E
:101FC00024FD03C01092C00308954091C2035091B4
:101FD000C3036091C4037091C503452B462B472B67
:101FE00069F30097A105B10541F025E32A95F1F7C2
:101FF00000000197A109B109E1CF8091C1030C94C0
:10200000C9091F920F920FB60F9211242F933F937D
:102010008F939F93AF93BF938091720390917303BB
:10202000A0917403B09175033091710323E0230FE5
:102030002D3758F50196A11DB11D20937103809392
:10204000720390937303A0937403B093750380910C
:10205000760390917703A0917803B091790301966C
:10206000A11DB11D8093760390937703A09378030D
:10207000B0937903BF91AF919F918F913F912F9131
:102080000F900FBE0F901F90189526E8230F029611
:10209000A11DB11DD2CF1F920F920FB60F92112426
:1020A0002F933F934F935F936F937F938F939F9360
:1020B000AF93BF93EF93FF938AEC93E00E945B068C
:1020C000FF91EF91BF91AF919F918F917F916F9110
:1020D0005F914F913F912F910F900FBE0F901F90E6
:1020E00018951F920F920FB60F9211242F938F9372
:1020F0009F93EF93FF93E091DA03F091DB038081EC
:10210000E091E003F091E10382FD1BC0908180919A
:10211000E3038F5F8F732091E403821741F0E09116
:10212000E303F0E0E653FC4F958F8093E303FF91C8
:10213000EF919F918F912F910F900FBE0F901F9055
:1021400018958081F4CF1F920F920FB60F92112431
:102150002F933F934F935F936F937F938F939F93AF
:10216000AF93BF93EF93FF9382E00E940907FF9123
:10217000EF91BF91AF919F918F917F916F915F91FF
:102180004F913F912F910F900FBE0F901F90189578
:102190001F920F920FB60F9211242F933F934F93DC
:1021A0005F936F937F938F939F93AF93BF93EF93BF
:1021B000FF9381E00E940907FF91EF91BF91AF91DA
:1021C0009F918F917F916F915F914F913F912F914F
:1021D0000F900FBE0F901F9018951F920F920FB681
:1021E0000F9211242F933F934F935F936F937F939D
:1021F0008F939F93AF93BF93EF93FF9380E00E94E1
:102200000907FF91EF91BF91AF919F918F917F91BE
:102210006F915F914F913F912F910F900FBE0F9053
:102220001F9018951F920F920FB60F9211242F93A3
:102230003F934F935F936F937F938F939F93AF934E
:10224000BF93EF93FF938091B900887F803609F4A4
:102250004AC0F0F5883209F4A7C018F5803109F4B6
:102260009BC0B8F4882309F4F9C0883009F494C0FD
:10227000FF91EF91BF91AF919F918F917F916F915E
:102280005F914F913F912F910F900FBE0F901F9034
:102290001895883109F488C0803251F780939E03E5
:1022A00014C0803409F49DC040F48033B9F38833FE
:1022B000F9F680939E0385ECB0C0803509F485C0A3
:1022C000883509F496C0883499F60E94C90FD0CF9A
:1022D000883909F48CC038F5883729F050F48836ED
:1022E00011F0803729F683E08093C0031092370302
:1022F00057C0883809F47BC0803919F0803809F05C
:10230000B7CF80913703803208F071C0E091370376
:1023100081E08E0F809337038091BB00F0E0E95E8F
:10232000FC4F80833DC0803B39F0E0F4803A09F4F3
:1023300079C0883A09F09CCF84E08093C003109262
:10234000160310921503E0916D03F0916E03099549
:102350008091150381110FC081E0809315031092C5
:10236000F50209C0803C09F4A6CF883C09F4A3CF4C
:10237000883B09F07DCFE091160381E08E0F8093BA
:102380001603F0E0EB50FD4F80818093BB009091ED
:1023900016038091150329C080919B038093BB0095
:1023A00085EC8093BC0064CF90919D0380919C0349
:1023B000981758F5E0919D0381E08E0F80939D035F
:1023C000F0E0E658FC4F8081E9CFE0919D0381E089
:1023D0008E0F80939D038091BB00F0E0E658FC4F88
:1023E000808390919D0380919C039817C8F285E8A3
:1023F000D8CFE0919D0381E08E0F80939D03809163
:10240000BB00F0E0E658FC4F808380919F03811170
:102410005CCF81E080939A0384EA8093BC001092A1
:10242000C00326CF85EC8093BC001092C00380913E
:102430003703803230F4E0913703F0E0E95EFC4F7F
:1024400010826091370370E0E0916B03F0916C03B0
:1024500087E193E00995109237030ACF10929E030B
:1024600034CF1092CD031092CC0388EE93E0A0E01D
:10247000B0E08093CE039093CF03A093D003B093AA
:10248000D10328E231E03093CB032093CA0325EC3B
:1024900030E03093D7032093D60324EC30E0309320
:1024A000D9032093D80320EC30E03093DB03209352
:1024B000DA0321EC30E03093DD032093DC0322ECDF
:1024C00030E03093DF032093DE0326EC30E03093DE
:1024D000E1032093E0031092E3031092E4031092CF
:1024E000E5031092E6031092A00410929F048093DB
:1024F000A1049093A204A093A304B093A4048AE33C
:1025000091E090939E0480939D046BEE71E089E4CA
:1025100095E00E949D0D67EF71E083E495E00E94D5
:102520009D0D62E072E08DE395E00E949D0D6EE0EE
:1025300072E087E395E00E949D0D64E172E081E323
:1025400095E00E949D0D109225051092240581E0D2
:1025500080932B0510922E0510922D0586E591E0B3
:1025600090932305809322050E946B0560931E05BE
:1025700070931F0580932005909321051092AB0462
:102580001092AF041092AE041092B004E5ECF4E0A7
:102590001082148213821582369685E0E130F807A6
:1025A000B9F788E091E090930C0580930B0585E0E6
:1025B00091E090930E0580930D0584E080930F05C4
:1025C00083E0809310058CE091E090930A0580935E
:1025D00009058AE090E0909312058093110584EF3D
:1025E00091E09093140580931305109217051092B3
:1025F0001605109205051092060510920705109217
:102600000805109215058CE491E09093AA0480933C
:10261000A90488E38093180581E0809319058DE96A
:1026200094E090931D0580931C0580E091E09093C9
:102630009C0480939B0410929A041092860410923A
:102640006704109268041092690410926A04109250
:102650006B0410926C0410926D0410926E04109230
:102660006F04109270041092710410927204109210
:1026700073041092740410927504109277041092EF
:102680007604109279041092780410927B041092D0
:102690007A0410927D0410927C0410927F041092B0
:1026A0007E04109281041092800410928304109290
:1026B000820410928504109284040895CF93DF93CE
:1026C000CDB7DEB72C970FB6F894DEBF0FBECDBFE7
:1026D000789484B5826084BD84B5816084BD85B5FD
:1026E000826085BD85B5816085BD80916E00816009
:1026F00080936E00109281008091810082608093AF
:1027000081008091810081608093810080918000B0
:102710008160809380008091B10084608093B100DB
:102720008091B00081608093B00080917A008460D5
:1027300080937A0080917A00826080937A00809101
:102740007A00816080937A0080917A00806880931B
:102750007A001092C1001092700310926F031092D1
:10276000C7031092C6030E94AB0984ED95E09093D5
:102770006E0380936D0385ED95E090936C038093D9
:102780006B03E091DA03F091DB0382E08083E09158
:10279000D603F091D7031082E091D803F091D903CA
:1027A00080E180831092E203E091DE03F091DF0389
:1027B00086E08083E091DC03F091DD03808180611D
:1027C0008083E091DC03F091DD0380818860808369
:1027D000E091DC03F091DD03808180688083E091EB
:1027E000DC03F091DD0380818F7D808364E670E0FF
:1027F00080E090E00E94390561E08EE00E94D804FC
:1028000068E172E0CE0101960E949D0D6CE172E0DC
:10281000CE0107960E949D0DBE016F5F7F4FCE01D6
:1028200007960E94440ECE0107960E942A0DCE0103
:1028300001960E942A0D69E272E08AEC93E00E9400
:10284000320E88E199E20FB6F894A8958093600063
:102850000FBE90936000A89566E372E08AEC93E067
:102860000E94320E8AEC93E00E942E0E6FE977E010
:102870008AEC93E00E94CA068AEC93E00E942E0E36
:1028800063E977E08AEC93E00E94CA068AEC93E061
:102890000E942E0E58E0C52ED12CE12CF12C10E018
:1028A00001E00093C903C092C8031092C7031092BD
:1028B000C6038DE994E00E94380B811123C063E4C4
:1028C00072E08AEC93E00E94D90D4AE0C701B6019C
:1028D0000E94E80D63E572E08AEC93E00E94D90D56
:1028E00040E1C701B6010E94E80D68E572E08AEC9C
:1028F00093E00E94320E1F5F61E070E080E090E0A4
:102900000E9439052FEFC21AD20AE20AF20A58E7EA
:10291000C516D104E104F10421F669E671E08AEC00
:1029200093E00E94320E6AE572E08AEC93E00E9426
:10293000D90D612F70E090E080E04AE00E94E80D40
:1029400061E672E08AEC93E00E94320E68E078E083
:102950008AEC93E00E94CA0662EB77E08AEC93E08F
:102960000E94CA06109230058CE380932F051092C6
:10297000260510922705ECEAF7E085919491E82E60
:10298000EEEAF7E0F490EFEAF7E0E491E09328054F
:10299000E0EBF7E0E491E0932905E1EBF7E0E49167
:1029A000E0932A058C01802F8E198F1548F4F801C9
:1029B000649182E295E00E9466070F5F1F4FF3CF9C
:1029C00010922C050E94DC078CE08093B800809167
:1029D0002905803429F40E94DC0781E080932C05CE
:1029E0000E94830E68EE73E080E090E00E9439055B
:1029F0006DE672E08AEC93E00E94320E6DEF77E0B4
:102A00008AEC93E00E94CA066FE772E08AEC93E0DA
:102A10000E94320E8FE380936A041092700310922A
:102A2000C7031092C6030E94AB0984ED95E0909312
:102A30006E0380936D0385ED95E090936C03809316
:102A40006B038091680480936B0461E080916A0459
:102A50000E94EA0980936F03811101C0FFCF8DE9C5
:102A600094E00E94C90A809368048091690480629E
:102A700080936904809167048F7D809367040E942E
:102A80001F0C809167048F7D809367040E941F0C48
:102A90006DEB77E08AEC93E00E94CA0662E972E08F
:102AA0008AEC93E00E94320EA89562E370E080E029
:102AB00090E00E94390561EF77E08AEC93E00E9494
:102AC000CA068BE49FE090931705809316058CE06F
:102AD00091E090930A05809309056FEF7FEF89EAF3
:102AE00094E00E94390C60911905613208F060E2AF
:102AF000809118050E94EA091092700380936F0379
:102B000080911C0590911D05DC01ED91FC910284E2
:102B1000F385E02D099590931B0580931A0580910C
:102B200019058230B8F080911C0590911D05DC01DB
:102B3000ED91FC910284F385E02D099520E0382F7A
:102B400080911A0590911B05822B932B90931B0566
:102B500080931A0588E893E19093140580931305F8
:102B600084E190E090931205809311056CEE77E07C
:102B70008AEC93E00E94CA06A89565E070E080E0C8
:102B800090E00E9439058AEC93E00E942E0E66E9DF
:102B900072E08AEC93E00E94320E8AEC93E00E948D
:102BA0002E0E6FED77E08AEC93E00E94CA0660ED8E
:102BB00077E080E090E00E943905412C512C3201F1
:102BC000439440E0A42E40E0B42EA895B1E0B09329
:102BD00015050E946B0500910505109106052091D1
:102BE000070530910805AB01BC01401B510B620B7E
:102BF000730B8091110590911205B0E0A0E0312C8B
:102C000084179507A607B70708F466C01092150544
:102C10000E946B0500911E0510911F052091200553
:102C200030912105601B710B820B930B683B7B403D
:102C30008105910590F10E946B0560931E057093CC
:102C40001F05809320059093210580918604882399
:102C500009F421C10E94A80ECE0107960E945A0DC8
:102C600064EC72E0CE0101960E949D0DBE01695F89
:102C70007F4FCE0101960E94440ECE0101960E9424
:102C80002A0DCE0107960E942A0D6BEC72E08AECA9
:102C900093E00E94320E0E949D0EA114B10409F42B
:102CA00094CF0E944706882309F48FCF0E9400002A
:102CB0008CCF808191818E219F214FC080910D0505
:102CC00090910E05C80ED91E41E0F601608189EA97
:102CD00094E00E947C0C339480911005381608F023
:102CE00040C0C32CD12CE0910D05F0910E05EC0DE8
:102CF000FD1D40E0608189EA94E00E947C0CD301D4
:102D0000C201032C04C0880F991FAA1FBB1F0A947D
:102D1000D2F74C017C01E094F094212C80910F05B6
:102D2000281660F6022D10E0E0910B05F0910C05DD
:102D3000E00FF11F608189EA94E00E94D80C0C5FDB
:102D40001F4F000F111FF801E755FB4F892B09F0AA
:102D5000B0CF8081918188299929918380832394A0
:102D6000DDCF09EA14E07801D7015F968D919C913F
:102D70009097892B59F45C961C925C97EFEFFFEFCC
:102D80005E96FC93EE935D9791961C92F6E0EF0EA3
:102D9000F11C25EEE21624E0F20631F7912C809129
:102DA0000F05981608F053C0812CC92CD12CCC0CDF
:102DB000DD1CC6018F549B4F6C01209110058216BB
:102DC00008F043C0D6016D917C91082C02C0769525
:102DD00067950A94E2F7929E90011124280D311D07
:102DE000E9EAF4E080E0458D568D2417350709F4B3
:102DF0006CC08F5F36968A30B1F760FF24C0E9EA75
:102E0000F4E090E080E0448D411118C0E0910905A4
:102E1000F0910A05E20FF31F4081B6E0B89FF00180
:102E2000B99FF00D1124E755FB4F448F368F258F46
:102E300010A2178E61E00E94770505C001963696B4
:102E40008A30910501F78394B8CF9394A8CFD12C01
:102E5000F80181A18111D82E0A5F1F4FE016F106FB
:102E6000B9F70E946B056093050570930605809382
:102E7000070590930805DD2009F4C8CE8091CA04A7
:102E8000882309F4C3CE8091C8049091C9040197A6
:102E900009F0BCCEBDCECE0107960E945A0D62E766
:102EA00071E0CE0101960E949D0DBE01695F7F4FCA
:102EB000CE0101960E94440ECE0101960E942A0D79
:102EC000CE0107960E942A0DE6CE6170B4CF81E351
:102ED00095E00E942A0D87E395E00E942A0D8DE37C
:102EE00095E00E942A0D83E495E00E942A0D89E472
:102EF00095E00C942A0D2F923F924F925F926F9221
:102F00007F928F929F92AF92BF92CF92DF92EF9279
:102F1000FF920F931F93CF93DF93CDB7DEB7CA1BFA
:102F2000DB0B0FB6F894DEBF0FBECDBF09942A8825
:102F3000398848885F846E847D848C849B84AA84CD
:102F4000B984C884DF80EE80FD800C811B81AA815A
:102F5000B981CE0FD11D0FB6F894DEBF0FBECDBF25
:102F6000ED010895A1E21A2EAA1BBB1BFD010DC0A5
:102F7000AA1FBB1FEE1FFF1FA217B307E407F50729
:102F800020F0A21BB30BE40BF50B661F771F881F05
:102F9000991F1A9469F760957095809590959B019B
:102FA000AC01BD01CF010895EE0FFF1F0590F49114
:102FB000E02D09940F931F93CF93DF9382309105F7
:102FC00010F482E090E0E0915105F091520530E07C
:102FD00020E0B0E0A0E0309799F42115310509F424
:102FE0004AC0281B390B24303105D8F58A819B81D2
:102FF0006115710589F1FB0193838283FE0111C084
:10300000408151810281138148175907E0F0481728
:10301000590799F4109761F012960C931297139632
:103020001C933296CF01DF91CF911F910F9108959C
:103030000093510510935205F4CF2115310551F03D
:103040004217530738F0A901DB019A01BD01DF01E6
:10305000F801C1CFEF01F9CF90935205809351054C
:10306000CDCFFE01E20FF31F8193919322503109DE
:1030700039832883D7CF20914F0530915005232BDA
:1030800041F420911A0130911B0130935005209397
:103090004F0520911801309119012115310541F496
:1030A0002DB73EB740911C0150911D01241B350BDB
:1030B000E0914F05F0915005E217F307A0F42E1BA5
:1030C0003F0B2817390778F0AC014E5F5F4F24178C
:1030D000350748F04E0F5F1F5093500540934F0542
:1030E000819391939FCFF0E0E0E09CCFCF93DF936B
:1030F0000097E9F0FC01329713821282A0915105EA
:10310000B0915205ED0130E020E01097A1F420814C
:103110003181820F931F20914F0530915005281760
:10312000390709F061C0F0935005E0934F05DF9136
:10313000CF910895EA01CE17DF07E8F54A815B8158
:103140009E0141155105B1F7E901FB83EA834991DD
:103150005991C40FD51FEC17FD0761F4808191814F
:103160000296840F951FE901998388838281938158
:103170009B838A83F0E0E0E012968D919C911397F7
:103180000097B9F52D913C911197CD010296820FD0
:10319000931F20914F05309150052817390739F6B4
:1031A000309751F51092520510925105B093500589
:1031B000A0934F05BCCFD383C28340815181840F3C
:1031C000951FC817D90761F44E5F5F4F88819981B9
:1031D000480F591F518340838A819B819383828347
:1031E0002115310509F0B0CFF0935205E093510558
:1031F0009ECFFD01DC01C0CF13821282D7CFB0E099
:10320000A0E0E5E0F9E10C947D178C01009751F402
:10321000CB010E94DA178C01C801CDB7DEB7E0E11F
:103220000C949917FC01E60FF71F9C0122503109FD
:10323000E217F30708F49DC0D901CD91DC911197F5
:10324000C617D70798F0C530D10530F3CE010497E3
:103250008617970708F3C61BD70B2297C193D19304
:103260006D937C93CF010E947618D6CF5B01AC1A88
:10327000BD0A4C018C0E9D1EA0915105B0915205C6
:10328000512C412CF12CE12C109731F580914F05F8
:10329000909150058815990509F05CC046165706AF
:1032A00008F058C08091180190911901009741F4DD
:1032B0008DB79EB740911C0150911D01841B950B49
:1032C000E817F90708F055C0F0935005E0934F0553
:1032D000F90171836083A0CF8D919C911197129613
:1032E0006C90129713967C901397A815B90559F511
:1032F0006C0142E0C40ED11CCA14DB0420F1AC0105
:103300004A195B09DA011296159780F0628273827E
:1033100051834083D9016D937C93E114F10471F0E2
:10332000D7011396FC93EE93129776CF22968C0FCB
:103330009D1FF90191838083F301EFCFF093520534
:10334000E093510569CF4816590608F42C017D0118
:10335000D3019ACFCB010E94DA177C01009749F084
:10336000AE01B8010E94BC19C8010E9476188701FD
:1033700053CF10E000E050CFFB01DC0102C0019010
:103380000D9241505040D8F70895FB01DC010190A7
:103390000D920020E1F7089514E0C3E3D4E004C0E7
:1033A000FE010E94D4172196C433D107C9F7F894BF
:0233B000FFCF4D
:1033B200353331340002000401060503313233345F
:1033C20035363738392A30230000530580006B0028
:1033D2006C006D00000000007D06DD050A06E906AE
:1033E2003B0619062D0600000000090BDC0AD50C6D
:1033F200B90AD605C90ABA0A00000000D3057C0C36
:10340200D80C00000000FA07DD05D50CD40C970C8F
:103412000D0A002142722C002C446F6E652E000AA8
:103422000A0A0020205479706520796F7572206332
:103432006F64652E2E0021436F72726563740020E3
:103442002020414343455353204752414E54454463
:103452002100526964646C6520536F6C7665642C3C
:1034620020506C656173652072657374617274209B
:10347200627261696E21002157726F6E67002020AF
:1034820020204143434553532044454E494544215E
:103492000020202020202020202000536563726518
:1034A2007420446F6F720031322E30342E3230323B
:1034B200310076657273696F6E20312E3000427270
:1034C2005345430046504B005359530021536574F2
:1034D200757020426567696E0057445420656E64BA
:1034E20061626C6564002173657475705F62656703
:1034F200696E00466F756E642061646472657373F1
:103502003A200020283078002900466F756E64202A
:1035120000206465766963652873292E00206C6932
:10352200676874204F4C4544206F6B2E2E2E006925
:103532006E697469616C697A696E672072656C6123
:103542007900206F6B003D3D3D3D3D3D3D3D3D3DA4
:103552003D3D3D3D3D3D3D3D3D53544152543D3D3C
:103562003D3D3D3D3D3D3D3D3D3D3D3D3D3D3D3D89
:103572003D3D3D00215265736574002154696D65BE
:043582006F757400ED
:00000001FF
