:100000000C94BD070C94E5070C94E5070C9492142E
:100010000C946D140C9448140C94E5070C94E507AB
:100020000C94E5070C94E5070C94E5070C94E507A0
:100030000C94E5070C94E5070C94E5070C94E50790
:100040000C94A6130C94E5070C9416140C94F0135E
:100050000C94E5070C94E5070C94E5070C94E50770
:100060000C94B7140C94E507AEB08180A1A6A83F0C
:10007000AD8B32C8D300D580D91FDA12DB40AF0078
:100080000005072060000000000000005F00000085
:1000900007000700147F147F14242A7F2A122313D9
:1000A00008646236495620500008070300001C22ED
:1000B00041000041221C002A1C7F1C2A08083E081F
:1000C0000800807030000808080808000060600020
:1000D00020100804023E5149453E00427F40007214
:1000E000494949462141494D331814127F1027458B
:1000F0004545393C4A4949314121110907364949A9
:100100004936464949291E000014000000403400C9
:10011000000008142241141414141400412214087D
:1001200002015909063E415D594E7C1211127C7F35
:10013000494949363E414141227F4141413E7F4943
:100140004949417F090909013E414151737F08082E
:10015000087F00417F41002040413F017F08142279
:10016000417F404040407F021C027F7F0408107F97
:100170003E4141413E7F090909063E4151215E7FD2
:1001800009192946264949493203017F01033F40A5
:1001900040403F1F2040201F3F4038403F6314082D
:1001A000146303047804036159494D43007F4141BE
:1001B000410204081020004141417F040201020471
:1001C0004040404040000307080020545478407FDE
:1001D000284444383844444428384444287F385418
:1001E00054541800087E090218A4A49C787F0804BF
:1001F000047800447D40002040403D007F102844AA
:100200000000417F40007C047804787C0804047876
:100210003844444438FC1824241818242418FC7C3E
:1002200008040408485454542404043F44243C4023
:1002300040207C1C2040201C3C4030403C44281086
:1002400028444C9090907C4464544C4400083641BF
:10025000000000770000004136080002010204029D
:100260003C2623263C000000002300260029000035
:10027000030C0F30333C3FC0C3CCCFF0F3FCFF5333
:1002800075636365737366756C001C620A0C20608D
:1002900002020508070D080204040507020402060D
:1002A00007060707070707070707020207070705EB
:1002B0000A070707080606080804060707090809C9
:1002C000070908070808070C0708060406040809B8
:1002D000030606060606050606020407020A0606C7
:1002E000060605050506060A0606050602060809AD
:1002F000000000007E7E3030070700070700000086
:100300000000C0D8F8DED8F8DE1800300000300059
:100310000000387C64FF64E4C8102020F020301016
:100320003C7E427E3CC02018E6F010F0E000000069
:1003300000300000001030203010DCFE227EDC8017
:100340006020103020202010302007070000F8FE29
:1003500007011070E0800107FEF880E07010120CB9
:100360003F0C120000000000202020FC2020200074
:100370000000100000000000F0702020202000008D
:100380000000000030300080E07C1F03C0F030002F
:100390000000FCFE020202FEFC1030202020301083
:1003A0000404FEFE0000202030302020040682C21B
:1003B000623E1C203030202020200406222222FE13
:1003C000DC10302020203010C0A09884FEFE800079
:1003D000000000303000001E1E1212F2E210302029
:1003E00020203010F8FC161212F2E01030202020ED
:1003F0003010020282E27A1E060020301000000057
:10040000DCFE222222FEDC103020202030103C7E38
:10041000424242FEFC0020202030100018183030EC
:100420001818F07060609090080804000000001038
:10043000102090909090909090000000000000009C
:100440000408089090606020101000000000046212
:10045000721E0C0030300000F00CF4FA0AFAFA04B4
:100460000CF00030205050505010100080F8FE86E4
:10047000FEF88030300000003030FEFE22223EFCCC
:10048000C030302020203010F8FC060202020400A8
:10049000103020202010FEFE02020206FCF8303050
:1004A000202020301000FEFE222222223030202088
:1004B0002020FEFE22222222303000000000F8FC24
:1004C00006024242C2C40010302020203030FEFE1E
:1004D00020202020FEFE303000000000303002FEE0
:1004E000FE022030302000020202FEFE20202020EA
:1004F0003010FEFE70D88C06023030000010302024
:10050000FEFE000000000030302020202020FE0EE3
:100510003CF0C0300CFEFE30000000000000303027
:10052000FE061C38E0C000FE300000000010303035
:10053000F8FC0602020206FCF800103020202030F1
:100540001000FEFE4242427E3C30300000000000BF
:10055000F8FC0602020206FCF80010302060E0B051
:100560009080FEFE2262E2BE1C00303000000010CF
:1005700030201C3E322262E2C410202020203010A5
:10058000020202FEFE020202000000303000000003
:10059000FEFE00000000FEFE103020202020301063
:1005A0000E7EF080F07E0E000030303000000E7EB7
:1005B000F080E03E3EE080F07E0E00003030000033
:1005C000000030300000068EF870F88E06303000E3
:1005D00000003030060E18F0F0180E060000003053
:1005E0003000000002C2F23E0E02303020202020F7
:1005F000FFFF0101F0F08080031F7CE0800000001D
:100600000030F0C00101FFFF8080F0F010180C06F0
:10061000060C1810000000000000000000000000A0
:100620000000000000808080808080808080010346
:1006300002000000C0E82828F8F0103020203030F8
:10064000FFFF0808F8F0303020203010F0F80808DC
:100650000810103020202010F0F80808FFFF10309C
:1006600020203030F0F848487870103020202010DA
:1006700008FEFF09090030300000F0F80808F8F81B
:1006800010B0A0A0F070FFFF0808F8F030300000B4
:100690003030FBFB30300008FBFB8080F070FFFF48
:1006A00060F098080030300000103020FFFF30303C
:1006B000F8F81008F8F01008F8F03030000030308A
:1006C00000003030F8F80808F8F030300000303022
:1006D000F0F80808F8F0103020203010F8F808087A
:1006E000F8F0F0F020203010F0F80808F8F810309A
:1006F0002020F0F0F8F810181830300000003078A2
:1007000048C888202020301008FEFE08080010305D
:100710002020F8F80000F8F810302020303038F8A9
:10072000C0C0F83800103030100078F880C0383879
:10073000C080F8780030300000000030300018B879
:10074000E0E0B81830300000303038F8C0C0F83879
:100750000090F070100008C8E87818303020202091
:100760002020FEDF0101000070F08080FFFFF0F02C
:100770000101DFFE20208080F0700000E0101020DA
:10078000408080700000000000000000FE020202B5
:1007900002020202FE3020202020202020306800AB
:1007A000178040020A0A4F4C454420696E69742044
:1007B0006F6E20416464726573733A203078002B49
:1007C0002D2D2D2D2D2D2D2D2D2D2D2D2D2D2D2D59
:1007D0002D2D2D2D2B007C20202020456C65637451
:1007E000726F7363617065202020207C002B2D2D9B
:1007F0002D2D2D2D2D2D2D2D2D2D2D2D2D2D2D2D29
:100800002D2D2B00000005072060000000000000D7
:10081000005F00000007000700147F147F14242AE3
:100820007F2A1223130864623649562050000807B5
:100830000300001C2241000041221C002A1C7F1CD6
:100840002A08083E080800807030000808080808D8
:10085000000060600020100804023E5149453E003F
:10086000427F400072494949462141494D3318149D
:10087000127F1027454545393C4A494931412111EC
:1008800009073649494936464949291E00001400DE
:100890000000403400000008142241141414141401
:1008A000004122140802015909063E415D594E7C5F
:1008B0001211127C7F494949363E414141227F4114
:1008C00041413E7F494949417F090909013E414172
:1008D00051737F0808087F00417F41002040413F5D
:1008E000017F081422417F404040407F021C027F6C
:1008F0007F0408107F3E4141413E7F090909063EC1
:100900004151215E7F09192946264949493203018F
:100910007F01033F4040403F1F2040201F3F4038A1
:10092000403F631408146303047804036159494D7C
:1009300043007F4141410204081020004141417FB2
:100940000402010204404040404000030708002028
:10095000545478407F284444383844444428384428
:1009600044287F385454541800087E090218A4A45F
:100970009C787F0804047800447D40002040403D7E
:10098000007F1028440000417F40007C04780478F8
:100990007C080404783844444438FC18242418188B
:1009A000242418FC7C0804040848545454240404E7
:1009B0003F44243C4040207C1C2040201C3C4030D4
:1009C000403C44281028444C9090907C4464544C03
:1009D000440008364100000077000000413608005E
:1009E00002010204023C2623263C0A72656C6179EE
:1009F00020696E6974207375636365737366756CC3
:100A0000001C620A0C206002020508070D0802049F
:100A1000040507020402060706070707070707077A
:100A2000070202070707050A07070708060608085E
:100A300004060707090809070908070808070C073B
:100A40000806040604080903060606060605060647
:100A5000020407020A0606060605050506060A063A
:100A600006050602060809000000007E7E303007F9
:100A7000070007070000000000C0D8F8DED8F8DE45
:100A8000180030000030000000387C64FF64E4C8C7
:100A9000102020F02030103C7E427E3CC02018E622
:100AA000F010F0E0000000003000000010302030B6
:100AB00010DCFE227EDC80602010302020201030F0
:100AC0002007070000F8FE07011070E0800107FE14
:100AD000F880E07010120C3F0C12000000000020A3
:100AE0002020FC202020000000100000000000F06A
:100AF000702020202000000000000030300080E046
:100B00007C1F03C0F030000000FCFE020202FEFC6D
:100B1000103020202030100404FEFE000020203081
:100B2000302020040682C2623E1C2030302020206B
:100B3000200406222222FEDC10302020203010C0AB
:100B4000A09884FEFE8000000000303000001E1ED1
:100B50001212F2E210302020203010F8FC1612128F
:100B6000F2E010302020203010020282E27A1E06CD
:100B700000203010000000DCFE222222FEDC1030BB
:100B800020202030103C7E424242FEFC00202020EB
:100B9000301000181830301818F07060609090080D
:100BA0000804000000001010209090909090909009
:100BB0000000000000000004080890906060201011
:100BC00010000000000462721E0C0030300000F0C3
:100BD0000CF4FA0AFAFA040CF0003020505050508D
:100BE00010100080F8FE86FEF880303000000030E3
:100BF00030FEFE22223EFCC030302020203010F893
:100C0000FC060202020400103020202010FEFE022A
:100C1000020206FCF83030202020301000FEFE22B8
:100C2000222222303020202020FEFE2222222230CA
:100C30003000000000F8FC06024242C2C40010303E
:100C40002020203030FEFE20202020FEFE3030000C
:100C5000000000303002FEFE022030302000020290
:100C600002FEFE202020203010FEFE70D88C0602EE
:100C700030300000103020FEFE0000000000303058
:100C80002020202020FE0E3CF0C0300CFEFE300064
:100C900000000000003030FE061C38E0C000FE30CE
:100CA00000000000103030F8FC0602020206FCF8DA
:100CB000001030202020301000FEFE4242427E3CD8
:100CC00030300000000000F8FC0602020206FCF8CA
:100CD0000010302060E0B09080FEFE2262E2BE1C78
:100CE0000030300000001030201C3E322262E2C48E
:100CF00010202020203010020202FEFE020202001C
:100D000000003030000000FEFE00000000FEFE107B
:100D1000302020202030100E7EF080F07E0E00006B
:100D200030303000000E7EF080E03E3EE080F07E0D
:100D30000E000030300000000030300000068EF859
:100D400070F88E0630300000003030060E18F0F0DB
:100D5000180E06000000303000000002C2F23E0E05
:100D600002303020202020FFFF0101F0F0808003BE
:100D70001F7CE0800000000030F0C00101FFFF8018
:100D800080F0F010180C06060C181000000000008F
:100D90000000000000000000000000008080808053
:100DA0008080808080010302000000C0E82828F8CD
:100DB000F0103020203030FFFF0808F8F0303020ED
:100DC000203010F0F808080810103020202010F013
:100DD000F80808FFFF103020203030F0F84848783D
:100DE0007010302020201008FEFF0909003030006C
:100DF00000F0F80808F8F810B0A0A0F070FFFF08A5
:100E000008F8F0303000003030FBFB30300008FBD9
:100E1000FB8080F070FFFF60F09808003030000029
:100E2000103020FFFF3030F8F81008F8F01008F804
:100E3000F030300000303000003030F8F80808F8AA
:100E4000F0303000003030F0F80808F8F0103020B2
:100E5000203010F8F80808F8F0F0F020203010F0FA
:100E6000F80808F8F810302020F0F0F8F8101818FA
:100E70003030000000307848C8882020203010082A
:100E8000FEFE08080010302020F8F80000F8F810E6
:100E9000302020303038F8C0C0F838001030301022
:100EA0000078F880C03838C080F878003030000012
:100EB000000030300018B8E0E0B8183030000030E2
:100EC0003038F8C0C0F8380090F070100008C8E85A
:100ED000781830302020202020FEDF010100007033
:100EE000F08080FFFFF0F00101DFFE20208080F025
:100EF000700000E0101020408080700000000000B2
:100F0000000000FE02020202020202FE3020202047
:100F10002020202030206F6B0A004B6579706164BF
:100F20003A202E2E2E0000000000240027002A0068
:100F300000000000250028002B0004040404040421
:100F40000404020202020202030303030303010278
:100F50000408102040800102040810200102040847
:100F60001020000000080002010000030407000038
:100F7000000000000000D6159C1C11241FBECFEFFE
:100F8000D8E0DEBFCDBF25E0AAE0B3E001C01D92EE
:100F9000AB38B207E1F713E0A0E0B1E0E6E7FEE32B
:100FA00002C005900D92AA30B107D9F717E0CCEB3B
:100FB000D7E004C02197FE010E942E1DCB3BD10734
:100FC000C9F70E9403170C942E1F0C94000096E0A2
:100FD000899FD0011124AF51BB4F90967C936E93A3
:100FE0005F9791E091969C939197E0914E05F091D7
:100FF0004F0590914D05992339F0309751F08111AB
:1010000008C08091FD040994309719F05C968C918A
:10101000FACF0895833081F028F4813099F082303E
:10102000A9F008958730A9F08830C9F08430B1F470
:10103000809180008F7D03C0809180008F778093A6
:101040008000089584B58F7784BD089584B58F7D21
:10105000FBCF8091B0008F778093B000089580918E
:10106000B0008F7DF9CF1F93CF93DF93282F30E00F
:10107000F901EE59F04F8491F901E25BF04FD49100
:10108000F901E65CF04FC491CC23A9F0162F811131
:101090000E940A08EC2FF0E0EE0FFF1FE05DF04F1A
:1010A000A591B4918FB7F894EC91111108C0D09527
:1010B000DE23DC938FBFDF91CF911F910895DE2B4C
:1010C000F8CFCF93DF9390E0FC01E25BF04F2491E7
:1010D000865C904FFC0184918823C9F090E0880FD2
:1010E000991FFC01EA5DF04FA591B491FC01E05D10
:1010F000F04FC591D49161110DC09FB7F8948C91B8
:10110000209582238C938881282328839FBFDF9199
:10111000CF910895623051F49FB7F8943C91822F9B
:10112000809583238C93E8812E2BEFCF8FB7F89493
:10113000EC912E2B2C938FBFEACF3FB7F894809180
:10114000AE039091AF03A091B003B091B10326B567
:10115000A89B05C02F3F19F00196A11DB11D3FBFEF
:10116000BA2FA92F982F8827BC01CD01620F711DBE
:10117000811D911D42E0660F771F881F991F4A95B8
:10118000D1F708958F929F92AF92BF92CF92DF9244
:10119000EF92FF924B015C010E949D086B017C0164
:1011A0000E949D086C197D098E099F09683E734055
:1011B00081059105A8F321E0821A9108A108B108E0
:1011C00088EEC80E83E0D81EE11CF11C8114910446
:1011D000A104B10429F7FF90EF90DF90CF90BF906A
:1011E000AF909F908F9008952FB7F8946091AA03C5
:1011F0007091AB038091AC039091AD032FBF089524
:101200000F931F93CF93DF93C82FD62F86E0C89FED
:10121000F0011124EF51FB4F11A2878D90A1813075
:101220009105F1F058F082309105F1F1039709F43E
:1012300040C0DF91CF911F910F9108956623C9F3AC
:1012400061E070E08C2F0E94E7070E94F408609331
:10125000390570933A0580933B0590933C05E9CF9F
:101260000E94F4080091390510913A0520913B0540
:1012700030913C05AB01BC01401B510B620B730B61
:1012800080914B0590914C05B0E0A0E08417950744
:10129000A607B70748F462E070E08C2FDF91CF918A
:1012A0001F910F910C94E70763E070E0D111C1CF5B
:1012B000F4CF70E060E0F1CF089508950895809133
:1012C000A5039091A603891B990B08950895DB014E
:1012D00014964D915C9115976D917C91DC01ED9187
:1012E000FC910280F381E02D0994CF93DF93EC0110
:1012F00062E070E080E090E00E94C208BE018AE5F2
:1013000095E00E946709BE0182E094E0DF91CF91F1
:101310000C946709AF92BF92CF92DF92EF92FF9247
:101320000F931F93CF93DF936C017B018B01040F0D
:10133000151FEB015E01AE18BF08C017D10759F0A9
:101340006991D601ED91FC910190F081E02DC601EB
:101350000995892B79F7C501DF91CF911F910F91E5
:10136000FF90EF90DF90CF90BF90AF900895FC0179
:10137000538D448D252F30E0842F90E0821B930BFA
:10138000541710F0CF96089501970895FC01918DA0
:10139000828D981761F0A28DAE0FBF2FB11D5D96A3
:1013A0008C91928D9F5F9F73928F90E008958FEF45
:1013B0009FEF0895FC01918D828D981731F0828DF9
:1013C000E80FF11D858D90E008958FEF9FEF089550
:1013D000FC01918D228D892F90E0805C9F4F821BB4
:1013E00091098F739927089582E094E00E94E8099B
:1013F00021E0892B09F420E0822F089580E090E01D
:10140000892B29F00E94F40981110C9400000895A1
:10141000FC01A48DA80FB92FB11DA35ABF4F2C9169
:10142000848D90E001968F739927848FA689B78960
:101430002C93A089B1898C91837080648C93938D57
:10144000848D981306C00288F389E02D80818F7DFA
:1014500080830895EF92FF920F931F93CF93DF93B2
:10146000EC0181E0888F9B8D8C8D98131AC0E889E0
:10147000F989808185FF15C09FB7F894EE89FF89AF
:101480006083E889F98980818370806480839FBF4D
:1014900081E090E0DF91CF911F910F91FF90EF904D
:1014A0000895F62E0B8D10E00F5F1F4F0F7311275D
:1014B000E02E8C8D8E110CC00FB607FCFACFE88998
:1014C000F989808185FFF5CFCE010E94080AF1CF0E
:1014D000EB8DEC0FFD2FF11DE35AFF4FF0829FB70C
:1014E000F8940B8FEA89FB8980818062CFCFEF92DD
:1014F000FF920F931F93CF93DF938C017B01D0E07A
:10150000C0E0F701EC0FFD1F6491662339F0C801BC
:101510000E942A0A892B11F02196F3CFCE01DF9188
:10152000CF911F910F91FF90EF900895CF93DF938C
:10153000EC01888D8823B9F0AA89BB89E889F989EB
:101540008C9185FD03C0808186FD0DC00FB607FC20
:10155000F7CF8C9185FFF2CF808185FFEDCFCE0153
:101560000E94080AE9CFDF91CF910895CF93DF93CE
:10157000EC019C818E81981758F4E881F9810084F0
:10158000F185E02D42E0CE0109958C818F5F8C833F
:10159000DF91CF910895DC01ED91FC910084F185FC
:1015A000E02D40E009940F931F93CF938C01FC0131
:1015B0006483C085C60F6C2F6F700E94CB0A6C2F9E
:1015C00062956F706061C801CF911F910F910C946B
:1015D000CB0AFC012781269526952695621720F4D3
:1015E0006583606B0C94CB0A08951F93CF93DF93B0
:1015F000EC01142F8E81681718F4CE010E94D30AD3
:10160000612FCE01DF91CF911F910C94E90ACF9207
:10161000DF92EF92FF920F931F93CF93DF93EC0132
:10162000162FC42ED22E8F81869586958695081703
:1016300010F00FEF080FFD2C0F15B0F08E8118176A
:1016400020F4612FCE010E94D30A6F2DCE010E949B
:10165000E90AE12ECE1430F060E0CE010E94B60A15
:10166000E394F8CFF394E8CF4D2D612FCE01DF91B5
:10167000CF911F910F91FF90EF90DF90CF900C943E
:10168000F50A2F923F924F925F926F927F928F92C4
:101690009F92AF92BF92CF92DF92EF92FF920F9301
:1016A0001F93CF93DF9300D000D01F92CDB7DEB74A
:1016B000DC011B960D911C910115110509F468C1FF
:1016C0009D838C83F80144913196549131966490B6
:1016D00031962491E22EF12CF7E0EF0EF11C73E02D
:1016E000F594E7947A95E1F7E982F801349634911C
:1016F0003196E491631748F08E2F90E0FC01E30FE0
:10170000F11D6E171F060CF487C06D3031F5AC81EA
:10171000BD8116968C9181111AC081E090E00F90E6
:101720000F900F900F900F90DF91CF911F910F911D
:10173000FF90EF90DF90CF90BF90AF909F908F90F1
:101740007F906F905F904F903F902F90089560E052
:101750008C819D810E94D30AE0CF6A3009F018C1C4
:10176000EC81FD818185D5808E9DD00C11248781EF
:10177000869586958695D81630F08285882319F04F
:1017800082E08287D12C4D2D60E08C819D810E946A
:10179000F50AAC81BD811A968C911A97823008F4B3
:1017A000BCCF15962C9115971B96ED91FC911C972B
:1017B00000E0309739F03396E49119960C91E09F50
:1017C000002D112410E0095F1F4F33E01595079598
:1017D0003A95E1F78FEF820F080FEC81FD8146818A
:1017E00041506481CF010E94070BAC81BD811996E5
:1017F0008C9119976D2D8E9D600D1124660F660FCB
:10180000660F17968C91861708F460E060648C81EF
:101810009D810E94CB0A81CF4527542745270A5F27
:101820001F4F631BEC81FD8121844230510508F07C
:101830006DC0452B09F0212C6E9CC0016F9C900D52
:101840001124689FF001699FF00D11240E0F1F1FD6
:10185000512CAC81BD811496BC91BA83EC81FD8181
:10186000F581FB83862C912CAA24A394B12C312CD6
:101870008981381608F086C0412CAC81BD8119964B
:101880008C91481608F077C0311002C0442041F016
:10189000EC81FD8145814F5F6A81CF010E94F50A8D
:1018A000D12CC12CC61408F05AC0F801EC0DFD1D56
:1018B0007490552061F0EA14FB0449F4E72DF0E040
:1018C000052C02C0F595E7950A94E2F77E2EAC81CF
:1018D000BD8119968C91823081F4442009F43BC07B
:1018E00072948FE07822E72DF0E0E159FD4F74907B
:1018F000672D8C819D810E94B60A672D8C819D8108
:101900000E94B60AEFEFCE1ADE0ACCCF277038E07D
:10191000532E521A211101C0512C50E040E030E00A
:1019200020E0F801461740F4E40FF51FE4912E0F74
:10193000311D4F5F5F4FF5CFE60FF11D6490E29EC2
:10194000F001E39EF00DF29EF00D11248E0F9F1F0B
:10195000080F191F7ECFB72DBF707B2EC4CFD12C9F
:101960002D1439F060E08C819D810E94B60AD394D9
:10197000F7CF439482CF3394080D191DFFEFAF1AB0
:10198000BF0A76CF6B818C819D810E94E90AC5CE0A
:1019900090E080E0C4CE0F93CF93DF93EC010F81F2
:1019A00006950695069501504E81415020E060E075
:1019B0000E94070B81E09A85911101C080E08A871F
:1019C00060E4CE01DF91CF910F910C94CB0A90E0AF
:1019D000FC01EE0FFF1FE759FD4FA591B4912C912B
:1019E000FC01E256FC4F30812083880F991FFC01D7
:1019F000E05EFE4F0190F081E02D808108952091FE
:101A00004B03260F3327331F21323105ECF420918D
:101A1000F803FC0190E080E0243069F082E0089552
:101A2000A0914B032191AC01455D5C4FA40FB52FF4
:101A3000B11D2C930196861798F380914B03680F84
:101A400060934B0380E0089581E008951092F803BD
:101A500081E08093D7031092D20361E082E10E947B
:101A6000330861E083E10E943308E9EBF0E0808114
:101A70008E7F808380818D7F808388E48093B8000F
:101A800085E48093BC000895CF93DF9391E0909319
:101A90002A038823B9F0C091B800D091BA00809190
:101AA000BC008A7B8093BC0060E082E10E94330826
:101AB00060E083E10E9433080E94260DD093BA00B3
:101AC000C093B800DF91CF910895CF92DF92EF924B
:101AD000FF920F931F93CF93DF93D82FC62F6132BE
:101AE00008F098C00E949D086B017C018091F8036A
:101AF00081116BC081E08093F8038093D7039FEF3F
:101B00009093D6031092D5039C0F9093D4038093A7
:101B1000D3038091D303DD0FD82BD093D3038091CF
:101B2000D203813009F078C01092D2030E949D0840
:101B30006B017C018091D3038093BB008091FA03F9
:101B40009091FB03A091FC03B091FD03892B8A2B9C
:101B50008B2BA1F00E949D080091FA031091FB03CA
:101B60002091FC033091FD036C197D098E099F09BA
:101B7000061717072807390708F448C08091BC00EA
:101B800083FDD8CF85EC8093BC000E949D086B013B
:101B90007C018091F803813009F440C08091D50325
:101BA0008C1710F4C091D503E2EBF3E0A8EDB3E09D
:101BB00080E08C1355C08C2FDF91CF911F910F9136
:101BC000FF90EF90DF90CF9008958091FA0390916D
:101BD000FB03A091FC03B091FD03892B8A2B8B2B77
:101BE00009F484CF0E949D080091FA031091FB0331
:101BF0002091FC033091FD036C197D098E099F092A
:101C0000061717072807390708F070CF8091F903E6
:101C10000E94440DC0E0CFCF85EEB5CF8091FA038E
:101C20009091FB03A091FC03B091FD03892B8A2BBB
:101C30008B2B09F4AECF0E949D080091FA031091FE
:101C4000FB032091FC033091FD036C197D098E0983
:101C50009F09061717072807390708F09ACFD6CF2C
:101C600091919D938F5FA5CF0895E091A6038091F8
:101C7000A503E81730F4F0E0E852FC4F808190E0D3
:101C800008958FEF9FEF08959091A6038091A5038B
:101C90002FEF3FEF981748F4E92FF0E0E852FC4FA0
:101CA000208130E09F5F9093A603C9010895CF92F1
:101CB000DF92EF92FF920F931F93CF93DF937C01FC
:101CC000CB018A0120910104222389F0EB016B01F1
:101CD000C40ED51ECC15DD0569F06991D701ED91D3
:101CE000FC910190F081E02DC7010995F3CF642F9D
:101CF0000E94FF0CC801DF91CF911F910F91FF90BF
:101D0000EF90DF90CF900895CF93DF931F92CDB7E0
:101D1000DEB76983209101042223F9F02091FE03AC
:101D2000203258F021E030E0FC013383228390E040
:101D300080E00F90DF91CF9108958091FF03E82F0D
:101D4000F0E0E65FFC4F998190838F5F8093FF0303
:101D50008093FE0381E090E0ECCF61E0CE0101963C
:101D60000E94FF0CF7CFCF92DF92EF92FF920F937A
:101D70001F93CF93DF93D091FE0381E0D13208F01F
:101D80009CC0C09100040E949D086B017C01809161
:101D9000F80381116CC082E08093F80381E08093A6
:101DA000D7038FEF8093D6031092D503D093D4033B
:101DB000AAE0B3E0E2EBF3E080E0D8138DC010922C
:101DC000D3038091D303CC0FC82BC093D30380914E
:101DD000D203813009F084C01092D2030E949D0882
:101DE0006B017C018091D3038093BB008091FA0347
:101DF0009091FB03A091FC03B091FD03892B8A2BEA
:101E00008B2BA1F00E949D080091FA031091FB0317
:101E10002091FC033091FD036C197D098E099F0907
:101E2000061717072807390708F442C08091BC003D
:101E300083FDD8CF85EC8093BC000E949D086B0188
:101E40007C018091F803823009F44CC08091D60364
:101E50008F3F09F469C08091D603803209F466C0CF
:101E60008091D603803309F463C084E026C080915A
:101E7000FA039091FB03A091FC03B091FD03892B21
:101E80008A2B8B2B09F483CF0E949D080091FA03C3
:101E90001091FB032091FC033091FD036C197D0927
:101EA0008E099F09061717072807390708F06FCF13
:101EB0008091F9030E94440D85E01092FF03109277
:101EC000FE0310920104DF91CF911F910F91FF90BB
:101ED000EF90DF90CF9008959D9191938F5F6DCF9C
:101EE00085EEA9CF8091FA039091FB03A091FC03AA
:101EF000B091FD03892B8A2B8B2B09F4A2CF0E9472
:101F00009D080091FA031091FB032091FC0330918E
:101F1000FD036C197D098E099F090617170728070D
:101F2000390708F08ECFC4CF80E0C7CF82E0C5CF9D
:101F300083E0C3CFEFE9F4E0918162818081238166
:101F400031E030930104209300041092FF031092BB
:101F5000FE0360956923682B85ED94E00E94840E52
:101F600085ED94E00C94B30E0F931F93CF93DF9302
:101F7000EC01062F142F8E85813120F4882339F04F
:101F8000411105C085ED94E00E94B30E1E868E853A
:101F9000811112C08D8591E090930104809300041B
:101FA0001092FF031092FE0360E4111101C060E083
:101FB00085ED94E00E94840E602F85ED94E00E94F0
:101FC000840E123041F48E858F5F8E87DF91CF9122
:101FD0001F910F91089585ED94E00E94B30E1E8627
:101FE000F5CFEF92FF920F931F93CF93DF93EC0106
:101FF0007B018C010D581F4FD8018D919C91FE01E2
:10200000E159FF4F208131E0309301042093000417
:102010001092FF031092FE03DC01ED91FC91019000
:10202000F081E02D0995FE01E059FF4F808182305B
:1020300058F0F80180819181DC01ED91FC910190D3
:10204000F081E02D6F2D0995F801808191810E942A
:10205000B30ECF58DF4FE882F982DF91CF911F9105
:102060000F91FF90EF90089521E030E002C0220F21
:10207000331F6A95E2F7FC01EF58FF4F60817181D1
:10208000442341F0262B372B3183208360817181DB
:102090000C94F10F2095309526233723F5CF90E04F
:1020A00080E00895CF93DF9370E0FB01EE59F04F8D
:1020B0008491FB01E25BF04FD491665C704FFB01B1
:1020C000C491CC23A1F081110E940A08EC2FF0E00A
:1020D000EE0FFF1FEB59FD4FA591B491EC91ED234D
:1020E00081E090E009F480E0DF91CF91089580E0F5
:1020F00090E0FACF862F642F0C943308862F642F3C
:102100000C946108CF92DF92EF92FF920F931F938E
:10211000CF93DF93EC0181E090E07C0102C0EE0CF4
:10212000FF1C6A95E2F76E0180E7C80ED11CD6014C
:102130006C91613208F060E2FE01E159FF4F80814D
:102140000E94650D1092A6038093A503CD58DF4F22
:1021500088819981DC01ED91FC910284F385E02D69
:1021600009958C01F6018081823060F08881998127
:10217000DC01ED91FC910284F385E02D099520E0CE
:10218000022B182B0E211F2181E090E00E151F0558
:1021900011F090E080E0DF91CF911F910F91FF90BF
:1021A000EF90DF90CF900895CF93DF93EC0188817B
:1021B0009981009711F00E94D01D198218821D820A
:1021C0001C821B821A82DF91CF910895FC018081CD
:1021D0009181009711F00C94D01D0895FB0101909E
:1021E0000020E9F73197AF01461B570BDC01ED9159
:1021F000FC910280F381E02D099462E671E00C9479
:10220000EE10CF93DF93EC0162E070E080E090E0AD
:102210000E94C208BE018AE595E00E9467098AE52E
:1022200095E00E94FD10BE0182E094E00E946709E3
:1022300082E094E0DF91CF910C94FD100F931F93F7
:10224000CF93DF93EC010E94EE108C01CE010E942F
:10225000FD10800F911FDF91CF911F910F91089575
:102260000F931F93CF93DF93EC010E94770A8C01A9
:10227000CE010E94FD10800F911FDF91CF911F9121
:102280000F9108950F931F93CF93DF93EC018B0170
:1022900062E070E080E090E00E94C20861E08EE0C1
:1022A0000E94330882E094E00E94FD1065E671E030
:1022B00082E094E00E94EE10B80182E094E00E9477
:1022C000670968E671E082E094E00E94EE10BE01CA
:1022D00082E094E00E9467096AE671E082E094E09F
:1022E0000E941E1164E170E080E090E00E94C2084C
:1022F00060E08EE0DF91CF911F910F910C94330835
:10230000CF93DF9361E771E082E094E00E941E11B9
:102310008AE595E00E94CB0CCAE5D5E08FE790E016
:102320009C878B876CE771E0CE010E94EE1081E004
:102330009AE09C878B8760E871E0CE01DF91CF91B6
:102340000C941E118091BE04882331F01092D204A7
:102350001092BE040C9480110895CF93DF93FC017A
:10236000C081D181209761F08991882349F0082E9E
:10237000000C990B0E94161FFE0131978083F4CF49
:10238000DF91CF9108950F931F93CF93DF93EC01CB
:1023900088819981009759F02A813B812617370758
:1023A00030F081E0DF91CF911F910F9108958B0163
:1023B0006F5F7F4F0E94591E009759F09983888361
:1023C0001B830A832C813D81232B59F7FC0110824A
:1023D000E8CF80E0E7CFEF92FF920F931F93CF9368
:1023E000DF93EC017B018A01BA010E94C3118111C4
:1023F0000BC0CE010E94D410CE01DF91CF911F916E
:102400000F91FF90EF9008951D830C83B701888191
:1024100099810E94271FF0CFFC0111821082138244
:10242000128215821482FB0101900020E9F7319796
:10243000AF01461B570B0C94EB11CF93DF93CDB735
:10244000DEB72C970FB6F894DEBF0FBECDBF20913C
:10245000BE04222309F494C08091D3049091D40443
:10246000FC013191AFEBB4E0449631116BC0211106
:1024700071C018861F821A8619861C861B86609179
:10248000690570916A056115710541F040916D050E
:1024900050916E05CE0107960E94EB1163E971E041
:1024A000CE0101960E940C12BE01695F7F4FCE01E2
:1024B00001960E944211CE0101960E94E610CE01C3
:1024C00007960E94E6108AE595E00E94CB0C8FE704
:1024D00090E090936605809365056CE771E08AE56E
:1024E00095E00E94EE1081E09AE09093660580935B
:1024F00065056CE971E0CE0101960E940C12CE01D7
:1025000001960E940111CE0101960E94E61064E638
:1025100070E080E090E00E94C20880919F04806299
:1025200080939F040E949A0F6FEA71E082E094E02A
:102530000E941E11A89564EF71E080E090E00E9477
:10254000C208F8CF321306C031912D91E817F90770
:1025500009F08BCF64ED71E0CE0101960E940C1260
:10256000CE0101960E940111CE0101960E94E61053
:1025700068EE73E080E090E00E94C2080E94A21121
:1025800080E02C960FB6F894DEBF0FBECDBFDF9172
:10259000CF9108951F93CF93DF9300D000D000D048
:1025A000CDB7DEB72091000530910105213031050E
:1025B00009F04FC0182F0E94F408609356057093DD
:1025C00057058093580590935905133209F43FC07D
:1025D0001A3209F448C0E091D204E33169F091E085
:1025E0009E0F9093D204F0E0E254FB4F1083E92F4A
:1025F000F0E0E254FB4F10828AE595E00E94CB0C9C
:102600008FE790E090936605809365056CE771E035
:102610008AE595E00E94EE1081E09AE090936605CD
:102620008093650567EE71E08AE595E00E94EE1003
:102630006EEB74E0CE0101960E940C12CE01019661
:102640000E940111CE0101960E94E61002C00E9474
:102650001D1226960FB6F894DEBF0FBECDBFDF91D8
:10266000CF911F9108950E94A211F3CFEF92FF9294
:102670000F931F93CF93DF93CDB7DEB762970FB65B
:10268000F894DEBF0FBECDBF8C01CB01F8011182E3
:102690001082138212821582148250E09E012F5FF5
:1026A0003F4F7901B9010E94B71CF701019000204A
:1026B000E9F73197AF014E195F09B701C8010E94D0
:1026C000EB1162960FB6F894DEBF0FBECDBFDF915F
:1026D000CF911F910F91FF90EF90089585ED80931A
:1026E000BC008091FA039091FB03A091FC03B09190
:1026F000FD030796A11DB11D23E0B695A7959795FB
:1027000087952A95D1F72091BC0024FD03C0109233
:10271000F80308954091FA035091FB036091FC0384
:102720007091FD03452B462B472B69F30097A105BC
:10273000B10541F025E32A95F1F700000197A109C1
:10274000B109E1CF8091F9030C94440D1F920F92CF
:102750000FB60F9211242F933F938F939F93AF93B4
:10276000BF938091AA039091AB03A091AC03B09169
:10277000AD033091A90323E0230F2D3758F50196BF
:10278000A11DB11D2093A9038093AA039093AB03CD
:10279000A093AC03B093AD038091AE039091AF03CF
:1027A000A091B003B091B1030196A11DB11D80931A
:1027B000AE039093AF03A093B003B093B103BF9166
:1027C000AF919F918F913F912F910F900FBE0F90DE
:1027D0001F90189526E8230F0296A11DB11DD2CF98
:1027E0001F920F920FB60F9211242F933F934F9386
:1027F0005F936F937F938F939F93AF93BF93EF9369
:10280000FF9382E094E00E94080AFF91EF91BF914C
:10281000AF919F918F917F916F915F914F913F9178
:102820002F910F900FBE0F901F9018951F920F922F
:102830000FB60F9211242F938F939F93EF93FF93D3
:10284000E0911204F09113048081E0911804F0915A
:10285000190482FD1BC0908180911B048F5F8F73D0
:1028600020911C04821741F0E0911B04F0E0EE5F20
:10287000FB4F958F80931B04FF91EF919F918F9158
:102880002F910F900FBE0F901F9018958081F4CF5D
:102890001F920F920FB60F9211242F933F934F93D5
:1028A0005F936F937F938F939F93AF93BF93EF93B8
:1028B000FF9382E00E94E70CFF91EF91BF91AF91EF
:1028C0009F918F917F916F915F914F913F912F9148
:1028D0000F900FBE0F901F9018951F920F920FB67A
:1028E0000F9211242F933F934F935F936F937F9396
:1028F0008F939F93AF93BF93EF93FF9381E00E94D9
:10290000E70CFF91EF91BF91AF919F918F917F91D4
:102910006F915F914F913F912F910F900FBE0F904C
:102920001F9018951F920F920FB60F9211242F939C
:102930003F934F935F936F937F938F939F93AF9347
:10294000BF93EF93FF9380E00E94E70CFF91EF911C
:10295000BF91AF919F918F917F916F915F914F91B7
:102960003F912F910F900FBE0F901F9018951F92BF
:102970000F920FB60F9211242F933F934F935F93B3
:102980006F937F938F939F93AF93BF93EF93FF9337
:102990008091B900887F803609F44AC0F0F588320A
:1029A00009F4A7C018F5803109F49BC0B8F4882356
:1029B00009F4F9C0883009F494C0FF91EF91BF91F8
:1029C000AF919F918F917F916F915F914F913F91C7
:1029D0002F910F900FBE0F901F901895883109F41A
:1029E00088C0803251F78093D60314C0803409F434
:1029F0009DC040F48033B9F38833F9F68093D60351
:102A000085ECB0C0803509F485C0883509F496C0DE
:102A1000883499F60E946E13D0CF883909F48CC09F
:102A200038F5883729F050F4883611F0803729F6C8
:102A300083E08093F80310926D0357C0883809F43F
:102A40007BC0803919F0803809F0B7CF80916D03D1
:102A5000803208F071C0E0916D0381E08E0F8093A9
:102A60006D038091BB00F0E0E35BFC4F80833DC0D1
:102A7000803B39F0E0F4803A09F479C0883A09F0F3
:102A80009CCF84E08093F80310924C0310924B0388
:102A9000E091A103F091A203099580914B0381116C
:102AA0000FC081E080934B0310922B0309C0803C40
:102AB00009F4A6CF883C09F4A3CF883B09F07DCF69
:102AC000E0914C0381E08E0F80934C03F0E0E55DD4
:102AD000FC4F80818093BB0090914C0380914B030D
:102AE00029C08091D3038093BB0085EC8093BC0008
:102AF00064CF9091D5038091D403981758F5E09155
:102B0000D50381E08E0F8093D503F0E0EE54FC4FA7
:102B10008081E9CFE091D50381E08E0F8093D503CA
:102B20008091BB00F0E0EE54FC4F80839091D50380
:102B30008091D4039817C8F285E8D8CFE091D503E7
:102B400081E08E0F8093D5038091BB00F0E0EE54BE
:102B5000FC4F80838091D70381115CCF81E080930B
:102B6000D20384EA8093BC001092F80326CF85EC50
:102B70008093BC001092F80380916D03803230F492
:102B8000E0916D03F0E0E35BFC4F108260916D0318
:102B900070E0E091A303F091A4038DE493E0099524
:102BA00010926D030ACF1092D60334CF1092050411
:102BB0001092040488EE93E0A0E0B0E08093060455
:102BC00090930704A0930804B09309042AE231E02B
:102BD000309303042093020425EC30E030930F047B
:102BE00020930E0424EC30E0309311042093100461
:102BF00020EC30E0309313042093120421EC30E0F9
:102C0000309315042093140422EC30E03093170421
:102C10002093160426EC30E0309319042093180416
:102C200010921B0410921C0410921D0410921E049A
:102C30001092D8041092D7048093D9049093DA04A8
:102C4000A093DB04B093DC048CE391E09093D60472
:102C50008093D50461EF71E081E895E00E940C1249
:102C60006DEF71E08BE795E00E940C1268E072E076
:102C700085E795E00E940C1264E172E08FE695E032
:102C80000E940C126AE172E089E695E00E940C1243
:102C900010925D0510925C0581E0809363051092AF
:102CA0006605109265058EE491E090935B05809334
:102CB0005A050E94F4086093560570935705809357
:102CC0005805909359051092E3041092E70410926E
:102CD000E6041092E804EDEFF4E01082148213820F
:102CE0001582369685E0E933F807B9F78AE091E076
:102CF000909344058093430587E091E090934605C7
:102D00008093450584E08093470583E080934805E0
:102D10008EE091E090934205809341058AE090E037
:102D200090934A058093490584EF91E090934C0578
:102D300080934B0510924F0510924E0510923D0561
:102D400010923E0510923F051092400510924D05DD
:102D50008CE591E09093E2048093E10488E3809312
:102D6000500581E08093510585ED94E090935505E1
:102D70008093540582E091E09093D4048093D3042F
:102D80001092D2041092BE0410929F041092A004DC
:102D90001092A1041092A2041092A3041092A40411
:102DA0001092A5041092A6041092A7041092A804F1
:102DB0001092A9041092AA041092AB041092AC04D1
:102DC0001092AD041092AF041092AE041092B104B0
:102DD0001092B0041092B3041092B2041092B50491
:102DE0001092B4041092B7041092B6041092B90471
:102DF0001092B8041092BB041092BA041092BD0451
:102E00001092BC040895CF93DF93CDB7DEB7AD9792
:102E10000FB6F894DEBF0FBECDBF789484B5826044
:102E200084BD84B5816084BD85B5826085BD85B56E
:102E3000816085BD80916E00816080936E001092EC
:102E40008100809181008260809381008091810067
:102E500081608093810080918000816080938000F8
:102E60008091B10084608093B1008091B000816056
:102E70008093B00080917A00846080937A00809182
:102E80007A00826080937A0080917A0081608093DA
:102E90007A0080917A00806880937A001092C10055
:102EA0001092A6031092A5031092FF031092FE0346
:102EB0000E94260D8DE599E09093A2038093A103D3
:102EC0008EE599E09093A4038093A30388E4809314
:102ED000B800E0911204F091130482E08083E09145
:102EE0000E04F0910F041082E0911004F09111048F
:102EF00080E1808310921A04E0911604F091170487
:102F000086E08083E0911404F09115048081806153
:102F10008083E0911404F09115048081886080839F
:102F2000E0911404F0911504808180688083E09121
:102F30001404F091150480818F7D808364E670E035
:102F400080E090E00E94C20861E08EE00E9461088B
:102F50006DEE77E082E094E00E94301166ED77E05C
:102F600082E094E00E9430116FEB77E082E094E021
:102F70000E94301164E170E080E090E00E94C2089D
:102F80006EE172E08E010F5F1F4FC8010E940C12AC
:102F900062E272E0CE0182960E940C12B801CE016C
:102FA00082960E944211CE0182960E94E610C801CC
:102FB0000E94E6106EE172E0C8010E940C1260E30C
:102FC00072E0CE0182960E940C12B801CE01829668
:102FD0000E944211CE0182960E94E610C8010E9412
:102FE000E6106EE172E0C8010E940C126CE372E020
:102FF000CE0182960E940C12B801CE0182960E94E8
:103000004211CE0182960E94E610C8010E94E6108D
:1030100064EA77E082E094E00E94770A19A283E4F0
:1030200088A383E38F8FBE01615E7F4F82E094E0CF
:103030000E94EE1082E094E00E94FD106AE070E0D1
:1030400080E090E00E94C208109268058CE38093B3
:10305000670510925E0510925F05EEE9F7E0859135
:103060009491C82EE0EAF7E0D490E1EAF7E0E49129
:10307000E0936005E2EAF7E0E491E0936105E3EABA
:10308000F7E0E491E09362057C018E2D8C198D159B
:1030900050F4F70164918AE595E00E94CB0AFFEFB6
:1030A000EF1AFF0AF2CF109264058AE595E00E94BC
:1030B000CB0C80916105803439F48AE595E00E945B
:1030C000CB0C81E0809364058AE892E090936605DA
:1030D000809365058AE595E00E94CB0C6FE772E06E
:1030E00082E094E00E9430116AE070E080E090E0BD
:1030F0000E94C20884E098E090936605809365057D
:1031000069E472E0C8010E940C12C8010E9401111A
:10311000C8010E94E61088E199E20FB6F894A895DC
:10312000809360000FBE9093600082E094E00E9464
:10313000FD1066E572E0C8010E940C12C8010E94F1
:103140000111C8010E94E6106AE070E080E090E0A2
:103150000E94C2086FE771E0CE0188960E940C12AF
:1031600068E0C62ED12CEE24E394FC2CE0920104FE
:10317000C09200041092FF031092FE0385ED94E0CC
:103180000E94B30E8111A8C066E672E0C8010E94D9
:103190000C12C8010E947509C8010E94E6106EE673
:1031A00072E0C8010E940C12C8010E947509C80192
:1031B0000E94E6101BA21AA21DA21CA21FA21EA200
:1031C00040E1B801C6010E94CD1CF8010190002029
:1031D000E9F73197AF01401B510BB801CE01829640
:1031E0000E94EB1188A599A5009709F453C06AA124
:1031F0007BA16115710509F44BC04AA55BA52EA101
:103200003FA14217530708F443C00E94271F8EA115
:103210009FA19DA78CA71FA21EA2CE0182960E94ED
:10322000E610CE0188960E94AD111A8219821C8286
:103230001B821E821D8268A579A56115710529F082
:103240004CA55DA5C8010E94EB11C8010E9475093B
:10325000C8010E94E61063E772E0C8010E940C12E8
:10326000C8010E940111C8010E94E610E8ECEF0DB0
:10327000E83008F0CBC0F0E0E05CF64E0C942E1D78
:103280005B19FA19FA19FA19FD19001A061A031A24
:103290000E94D01D8AA19BA199A788A78CA19DA15E
:1032A0009BA78AA78EA19FA19DA78CA71BA21AA24C
:1032B0001DA21CA2B0CF67E772E0C8010E940C12E9
:1032C000C8010E940111C8010E94E61061E070E08F
:1032D00080E090E00E94C2082FEFC21AD20A58E79D
:1032E000C516D10409F041CF65EB72E0C8010E9418
:1032F0000C12C8010E940111C8010E94E6106AE088
:1033000070E080E090E00E94C208CE0188960E94A2
:10331000E61040E16FE370E0CE0188960E9436131C
:10332000CE0188960E94AD1167EC72E0C8010E9440
:103330000C128CA59DA5C8A4D9A4ED80FE80E80E32
:10334000F91EC114D10409F464C0892B91F0B701AE
:10335000C8010E94C311882309F45BC029813A8106
:103360008D819E81B601820F931F0E94271FFE82CE
:10337000ED821BA21AA21DA21CA21FA21EA269817D
:103380007A816115710531F04D815E81CE018296A1
:103390000E94EB11CE0182960E940111CE0182960D
:1033A0000E94E610C8010E94E6108FE38093A204F9
:1033B0001092A6031092FF031092FE030E94260DA6
:1033C0008DE599E09093A2038093A1038EE599E0A7
:1033D0009093A4038093A3038091A0048093A304FB
:1033E00061E08091A2040E94650D8093A503811184
:1033F00014C0FFCF68E872E060CF62E972E05DCF91
:1034000062EA72E05ACF67EA72E057CF6DEA72E083
:1034100054CFC8010E94D410ACCF85ED94E00E9437
:10342000440E8093A0042091A104EE24E394F12C97
:10343000C7010090000102C0880F991F0A94E2F7AB
:10344000922F982B9093A10490919F0480958923AB
:1034500080939F040E949A0F809100019091010136
:103460002091A703992790919F0401C0EE0C8A95A3
:10347000EAF721115FC1E094E922E0929F040E94E3
:103480009A0F65ED72E0C8010E940C12C8010E94FB
:103490007509C8010E94E610609100017091010158
:1034A0004AE0C8010E943613C8010E947509C8018C
:1034B0000E94E6106DED72E0C8010E940C12C80176
:1034C0000E947509C8010E94E6106091A7037091DF
:1034D000A8034AE0C8010E943613C8010E9475097A
:1034E000C8010E94E6101A8219821C821B821E8269
:1034F0001D8266E170E0C8010E94C31181111CC1E8
:10350000C8010E94D410C8010E940111C8010E9484
:10351000E610CE0188960E94E610A89562E370E05E
:1035200080E090E00E94C2086AE17FE082E094E0DF
:103530000E94770A8AEC92E190934F0580934E05A2
:103540008EE091E090934205809341056FEF7FEF0D
:1035500081EE94E00E94F10F60915105613208F014
:1035600060E2809150050E94650D1092A603809341
:10357000A5038091540590915505DC01ED91FC91D6
:103580000284F385E02D09959093530580935205AD
:10359000809151058230B8F0809154059091550585
:1035A000DC01ED91FC910284F385E02D099520E08A
:1035B000382F8091520590915305822B932B909335
:1035C00053058093520588E893E190934C058093CE
:1035D0004B0584E190E090934A058093490565E1AD
:1035E0007FE082E094E00E94770AA89565E070E0B1
:1035F00080E090E00E94C20881E09AE09093660526
:103600008093650562E070E080E090E00E94C2086F
:103610006EE172E0CE0182960E940C1267EE72E0BB
:10362000C8010E940C12BE016E5D7F4FC8010E944E
:103630004211C8010E94E610CE0182960E94E61057
:1036400082E094E00E94FD1062EF72E0C8010E94E7
:103650000C12C8010E940111C8010E94E610A89531
:1036600068EB7BE080E090E00E94C2080E9480113D
:10367000412C512C3201439440E0A42E40E0B42E62
:10368000A895B1E0B0934D050E94F40800913D0566
:1036900010913E0520913F0530914005AB01BC01E2
:1036A000401B510B620B730B8091490590914A05A9
:1036B000B0E0A0E0312C84179507A607B70708F4FF
:1036C00059C010924D050E94F408009156051091C2
:1036D00057052091580530915905601B710B820BDD
:1036E000930B683B7B4081059105C0F00E94F40874
:1036F000609356057093570580935805909359052C
:103700008091BE04882341F00E941D1260E073E0A6
:1037100082E094E00E941E110E94A211A114B10443
:1037200009F4AECF0E94F409882309F4A9CF0E94BE
:103730000000A6CFE92AA1CE86E190E09E838D838A
:103740006AEE79E089819A810E94B01CDCCE80818A
:1037500091818E219F214FC0809145059091460512
:10376000C80ED91E41E0F601608181EE94E00E940E
:103770003410339480914805381608F040C0C32CAB
:10378000D12CE0914505F0914605EC0DFD1D40E082
:10379000608181EE94E00E943410D301C201032CB9
:1037A00004C0880F991FAA1FBB1F0A94D2F74C01AF
:1037B0007C01E094F094212C80914705281660F656
:1037C000022D10E0E0914305F0914405E00FF11F58
:1037D000608181EE94E00E9482100C5F1F4F000F09
:1037E000111FF801EF51FB4F892B09F0B0CF8081F9
:1037F000918188299929918380832394DDCF01EEDB
:1038000014E07801D7015F968D919C919097892B58
:1038100059F45C961C925C97EFEFFFEF5E96FC9379
:10382000EE935D9791961C92F6E0EF0EF11C8DE100
:1038300095E08E159F0531F7D12C80914705D8165C
:1038400008F053C0C12C8D2C912C880C991CD401EC
:10385000A751BB4F4D0120914805C21608F043C047
:10386000F401608171810C2C02C0769567950A94F1
:10387000E2F7D29E900111242C0D311DE1EEF4E00F
:1038800080E0458D568D2417350709F453C08F5FAE
:1038900036968A30B1F760FF24C0E1EEF4E090E0A4
:1038A00080E0448D411118C0E0914105F09142053E
:1038B000E20FF31F408156E0589FF001599FF00D31
:1038C0001124EF51FB4F448F368F258F10A2178E96
:1038D00061E00E94000905C0019636968A30910584
:1038E00001F7C394B8CFD394A8CFD12CD801919627
:1038F0008C918111D82E0A5F1F4FE016F106B1F7A7
:103900000E94F40860933D0570933E0580933F0547
:1039100090934005DD2009F4D4CE809102058823E0
:1039200009F4CFCE8091000590910105019709F02F
:10393000C8CEC9CE6170CDCF89E695E00E94E61071
:103940008FE695E00E94E61085E795E00E94E6107C
:103950008BE795E00E94E61081E895E00C94E61074
:10396000FB01DC0105900D920020E1F7089545323E
:10397000510520F4423010F00C94C21CFB0110825F
:10398000CB010895BB274A3031F4992322F4BDE2DC
:10399000909581959F4F0C94CE1CBB27FB0155271A
:1039A000AA27880F991FAA1FA41710F0A41B83959C
:1039B0005051B9F7A05DAA3308F0A95DA193009713
:1039C00079F7B111B1931192CB010C94E71CDC0192
:1039D000FC01672F71917723E1F7329704C07C9146
:1039E0006D9370836291AE17BF07C8F308952F924D
:1039F0003F924F925F926F927F928F929F92AF927F
:103A0000BF92CF92DF92EF92FF920F931F93CF93CB
:103A1000DF93CDB7DEB7CA1BDB0B0FB6F894DEBF62
:103A20000FBECDBF09942A88398848885F846E8488
:103A30007D848C849B84AA84B984C884DF80EE80D2
:103A4000FD800C811B81AA81B981CE0FD11D0FB6DB
:103A5000F894DEBF0FBECDBFED010895EE0FFF1F3E
:103A60000590F491E02D09940F931F93CF93DF936A
:103A70008230910510F482E090E0E0918905F091A8
:103A80008A0530E020E0B0E0A0E0309799F42115FD
:103A9000310509F44AC0281B390B24303105D8F50B
:103AA0008A819B816115710589F1FB019383828372
:103AB000FE0111C0408151810281138148175907CD
:103AC000E0F04817590799F4109761F012960C939B
:103AD000129713961C933296CF01DF91CF911F91CD
:103AE0000F9108950093890510938A05F4CF21154D
:103AF000310551F04217530738F0A901DB019A0153
:103B0000BD01DF01F801C1CFEF01F9CF90938A0524
:103B100080938905CDCFFE01E20FF31F819391932E
:103B20002250310939832883D7CF209187053091DE
:103B30008805232B41F420911C0130911D01309305
:103B400088052093870520911A0130911B012115CA
:103B5000310541F42DB73EB740911E0150911F0130
:103B6000241B350BE0918705F0918805E217F307D8
:103B7000A0F42E1B3F0B2817390778F0AC014E5FDD
:103B80005F4F2417350748F04E0F5F1F509388058D
:103B900040938705819391939FCFF0E0E0E09CCF25
:103BA000CF93DF930097E9F0FC01329713821282E2
:103BB000A0918905B0918A05ED0130E020E01097D1
:103BC000A1F420813181820F931F209187053091CC
:103BD00088052817390709F061C0F0938805E0933C
:103BE0008705DF91CF910895EA01CE17DF07E8F549
:103BF0004A815B819E0141155105B1F7E901FB83C3
:103C0000EA8349915991C40FD51FEC17FD0761F460
:103C1000808191810296840F951FE90199838883A1
:103C2000828193819B838A83F0E0E0E012968D91FC
:103C30009C9113970097B9F52D913C911197CD0167
:103C40000296820F931F20918705309188052817CF
:103C5000390739F6309751F510928A051092890587
:103C6000B0938805A0938705BCCFD383C2834081DE
:103C70005181840F951FC817D90761F44E5F5F4FBC
:103C800088819981480F591F518340838A819B8184
:103C9000938382832115310509F0B0CFF0938A0513
:103CA000E09389059ECFFD01DC01C0CF1382128213
:103CB000D7CFB0E0A0E0EFE5FEE10C94F91C8C0159
:103CC000009751F4CB010E94341D8C01C801CDB77F
:103CD000DEB7E0E10C94151DFC01E60FF71F9C0117
:103CE00022503109E217F30708F49DC0D901CD91A4
:103CF000DC911197C617D70798F0C530D10530F37E
:103D0000CE0104978617970708F3C61BD70B229797
:103D1000C193D1936D937C93CF010E94D01DD6CFD8
:103D20005B01AC1ABD0A4C018C0E9D1EA091890549
:103D3000B0918A05512C412CF12CE12C109731F5D2
:103D400080918705909188058815990509F05CC0D8
:103D50004616570608F058C080911A0190911B0131
:103D6000009741F48DB79EB740911E0150911F01FD
:103D7000841B950BE817F90708F055C0F0938805E8
:103D8000E0938705F90171836083A0CF8D919C91A9
:103D9000119712966C90129713967C901397A81512
:103DA000B90559F56C0142E0C40ED11CCA14DB04FC
:103DB00020F1AC014A195B09DA011296159780F0DF
:103DC0006282738251834083D9016D937C93E114A5
:103DD000F10471F0D7011396FC93EE93129776CF0E
:103DE00022968C0F9D1FF90191838083F301EFCF01
:103DF000F0938A05E093890569CF4816590608F4BF
:103E00002C017D01D3019ACFCB010E94341D7C018E
:103E1000009749F0AE01B8010E941E1FC8010E9420
:103E2000D01D870153CF10E000E050CF91110895CD
:103E300081568A5108F4805285580895FB01DC01AF
:103E400002C001900D9241505040D8F70895FB01F7
:103E5000DC0101900D920020E1F7089517E0CCEB12
:103E6000D7E004C0FE010E942E1D2196CD3BD10754
:063E7000C9F7F894FFCF32
:103E760005003533313400020004010605033132F2
:103E8600333435363738392A302300008B05800025
:103E96006B006C006D00000000002A0A8A09B70951
:103EA600960AE809C609DA0900000000840E570ED2
:103EB6004F10340E5F09440E350E00000000410B12
:103EC6008A094F106609B40F000000005C0934101F
:103ED60082100D0A002142722C002C446F6E652E52
:103EE60000486F6D6573637265656E000A0A0A00A5
:103EF60020205479706520796F757220636F646530
:103F06002E2E0021436F72726563740020202041BB
:103F16004343455353204752414E54454421005292
:103F26006964646C6520536F6C7665642C20506CF4
:103F36006561736520726573746172742062726163
:103F4600696E2100202020204143434553532044DD
:103F5600454E4945442100202020202020202020B5
:103F66000053656372657420446F6F720031322EA0
:103F760030342E323032310076657273696F6E20BE
:103F8600312E300042725345430046504B00535980
:103F96005300216865616465725F626567696E00DA
:103FA600216865616465725F656E6400217365747E
:103FB60075705F626567696E0057445420656E646C
:103FC60061626C656400202020493243205363619E
:103FD6006E6E65723A00466F756E643A2000202850
:103FE600307800292020004B6579706164202864B0
:103FF600656661756C7429004B65797061642F493B
:104006004F004F6C656420202864656661756C748A
:1040160029004F6C65640052656C617900556E6BC2
:104026006E6F776E00493243207363616E20636F53
:104036006D706C6574650072656C6179696E697422
:10404600206F6E200052656C6179205B005D2073E5
:10405600657420746F20002173657475705F656EDA
:1040660064000A3D3D3D53544152543D3D3D0A00D6
:0A4076002154696D656F7574000038
:00000001FF
